:020000040800F2
:1000000000000120B5040008590400085F0400083E
:10001000650400086B04000871040008000000007B
:10002000000000000000000000000000770400084D
:1000300083040008000000008F0400089B040008EF
:10004000FD040008FD040008FD040008FD0400088C
:10005000FD040008FD040008FD040008FD0400087C
:10006000FD040008FD040008FD040008FD0400086C
:10007000FD040008FD040008FD040008FD0400085C
:10008000FD040008FD040008FD040008FD0400084C
:10009000FD040008FD040008FD040008FD0400083C
:1000A000FD040008FD040008FD040008FD0400082C
:1000B000FD040008FD040008FD040008FD0400081C
:1000C000FD040008FD040008FD040008FD0400080C
:1000D000FD040008FD040008FD040008FD040008FC
:1000E000FD040008FD040008FD040008FD040008EC
:1000F000FD040008FD040008FD040008FD040008DC
:10010000FD040008FD040008FD040008FD040008CB
:10011000FD040008FD040008FD040008FD040008BB
:10012000FD040008FD040008FD040008FD040008AB
:1001300000000000000000000000000000000000BF
:1001400000000000000000000000000000000000AF
:10015000000000000000000000000000000000009F
:10016000000000000000000000000000000000008F
:10017000000000000000000000000000000000007F
:10018000000000000000000000000000000000006F
:10019000000000000000000000000000000000005F
:1001A000000000000000000000000000000000004F
:1001B000000000000000000000000000000000003F
:1001C000000000000000000000000000000000002F
:1001D000000000000000000000000000000000001F
:0401E0005FF8E0F1F3
:1001E40010B5054C237833B9044B13B10448AFF36D
:1001F40000800123237010BD0C00002000000000CB
:100204007C14000808B5034B1BB103490348AFF342
:10021400008008BD00000000100000207C140008CD
:1002240080B586B000AF00F069F900F061F800F025
:100234009BF800F073FC00F077F9254B00221A605C
:10024400234B00225A60224B00229A60214B1B78D8
:10025400FB74FB7CFF2B0AD0FF2B34DC022B27D052
:10026400022B30DC002B0DD0012B16D02BE01A4BC7
:100274001B68FB60FB6883F3088800BF174B1B688F
:100284007B6121E0164B1B68BB60BB6883F3088865
:1002940000BF144B1B687B6116E00F4B1B687B602F
:1002A4007B6883F3088800BF0C4B1B687B610BE001
:1002B4000D4B1B683B603B6883F3088800BF0B4B06
:1002C4001B687B6100E000BF7B699847FEE700BFC5
:1002D40010E000E000000608005000080450000888
:1002E40000E0010804E00108000004080400040818
:1002F40080B590B000AF07F11803282200211846FA
:1003040001F0B2F83B1D00221A605A609A60DA606C
:100314001A610223BB610123BB621023FB62002329
:100324007B6307F11803184600F092FC0346002B88
:1003340001D000F057F80F237B600023BB6000233B
:10034400FB6000233B6100237B613B1D00211846B9
:1003540000F0FEFE0346002B01D000F043F800BF7E
:100364004037BD4680BD000080B586B000AF07F1C0
:10037400080300221A605A609A60DA60174B9B697E
:10038400164A43F008039361144B9B6903F0080376
:100394007B607B68114B9B69104A43F004039361B3
:1003A4000E4B9B6903F004033B603B68002204216D
:1003B4000B4800F09BFB0423BB600123FB6000237C
:1003C4003B6102237B6107F108031946044800F0EE
:1003D400F9F900BF1837BD4680BD00BF00100240C8
:1003E400000C014080B400AF72B600BFFEE700000D
:1003F40080B485B000AF154B9B69144A43F00103E8
:100404009361124B9B6903F00103BB60BB680F4B04
:10041400DB690E4A43F08053D3610C4BDB6903F074
:1004240080537B607B680A4B5B68FB60FB6823F04E
:10043400E063FB60FB6843F00073FB60044AFB6805
:10044400536000BF1437BD4680BC704700100240A3
:100454000000014080B400AFFEE780B400AFFEE7C7
:1004640080B400AFFEE780B400AFFEE780B400AF15
:10047400FEE780B400AF00BFBD4680BC704780B4C7
:1004840000AF00BFBD4680BC704780B400AF00BF62
:10049400BD4680BC704780B500AF00F093F800BF44
:1004A40080BD80B400AF00BFBD4680BC7047000073
:1004B4000C480D490D4A002302E0D458C4500433BB
:1004C400C4188C42F9D30A4A0A4C002301E0136091
:1004D4000432A242FBD3FFF7E4FF00F0A1FFFFF7D1
:1004E4009FFE7047000000200C000020BC14000890
:1004F4000C0000202C000020FEE7000080B500AFB7
:10050400084B1B68074A43F010031360032000F0F4
:1005140025F90F2000F026F8FFF76AFF002318469C
:1005240080BD00BF0020024080B500AF094B4FF0F2
:10053400FF32DA60074B00221A61064B4FF0FF329C
:10054400DA60044B0022DA6000F006F80023184653
:1005540080BD00BF0010024080B400AF00BFBD46A4
:1005640080BC704780B582B000AF7860124B1A68C7
:10057400124B1B7819464FF47A73B3FBF1F3B2FBB9
:10058400F3F3184600F011F90346002B01D00123C0
:100594000EE07B680F2B0AD8002279684FF0FF30F9
:1005A40000F0E7F8064A7B681360002300E00123AB
:1005B40018460837BD4680BD000000200800002012
:1005C4000400002080B400AF054B1B781A46054B8D
:1005D4001B681344034A136000BFBD4680BC7047C8
:1005E400080000202800002080B400AF024B1B68E4
:1005F4001846BD4680BC70472800002080B485B0F2
:1006040000AF78607B6803F00703FB600C4BDB688A
:10061400BB60BA684FF6FF031340BB60FB681A0265
:10062400BB68134343F0BF6343F40033BB60044A25
:10063400BB68D36000BF1437BD4680BC704700BFA1
:1006440000ED00E080B400AF044BDB681B0A03F04C
:1006540007031846BD4680BC704700BF00ED00E0AC
:1006640080B483B000AF03463960FB7197F907305B
:10067400002B0ADB3B68DAB20C4997F90730120108
:10068400D2B20B4483F800230AE03B68DAB208498B
:10069400FB7903F00F03043B1201D2B20B441A7628
:1006A40000BF0C37BD4680BC704700BF00E100E0CE
:1006B40000ED00E080B489B000AFF860B9607A6002
:1006C400FB6803F00703FB61FB69C3F10703042B19
:1006D40028BF0423BB61FB690433062B02D9FB69E1
:1006E400033B00E000237B614FF0FF32BB6902FA59
:1006F40003F3DA43BB681A407B699A404FF0FF3139
:100704007B6901FA03F3D9437B680B401343184612
:100714002437BD4680BC704780B582B000AF786096
:100724007B68013BB3F1807F01D301230FE00A4AC8
:100734007B68013B53600F214FF0FF30FFF790FFC0
:10074400054B00229A60044B07221A6000231846C6
:100754000837BD4680BD00BF10E000E080B582B020
:1007640000AF78607868FFF749FF00BF0837BD46DF
:1007740080BD80B586B000AF0346B9607A60FB7374
:1007840000237B61FFF75EFF78617A68B968786956
:10079400FFF790FF024697F90F3011461846FFF70E
:1007A4005FFF00BF1837BD4680BD80B582B000AF83
:1007B40078607868FFF7B0FF034618460837BD46EF
:1007C40080BD000080B48BB000AF78603960002336
:1007D4007B6200233B6279E101227B6A02FA03F324
:1007E400FB613B681B68FA691340BB61BA69FB692A
:1007F4009A4240F068813B685B68A04A93425ED0AD
:100804009E4A934275D89E4A934258D09C4A93423A
:100814006FD89C4A934252D09A4A934269D89A4AD2
:1008240093424CD0984A934263D8984A934246D014
:10083400964A93425DD8122B2AD8122B59D801A27A
:1008440052F823F0C30800089D080008AF08000808
:10085400F1080008F7080008F7080008F70800087E
:10086400F7080008F7080008F7080008F708000868
:10087400F7080008F7080008F7080008F708000858
:10088400F7080008F7080008A5080008B9080008D8
:100894007F4A934213D02CE03B68DB683B6229E03B
:1008A4003B68DB6804333B6224E03B68DB68083365
:1008B4003B621FE03B68DB680C333B621AE03B6839
:1008C4009B68002B02D104233B6213E03B689B68C6
:1008D400012B05D108233B627B68FA691A6109E0A0
:1008E40008233B627B68FA695A6103E000233B6298
:1008F40000E000BFBB69FF2B01D87B6801E07B6887
:1009040004337B61BB69FF2B02D87B6A9B0002E046
:100914007B6A083B9B003B617B691A680F213B693A
:1009240001FA03F3DB431A40396A3B6901FA03F322
:100934001A437B691A603B685B6803F08053002BA1
:1009440000F0C180534B9B69524A43F00103936109
:10095400504B9B6903F00103BB60BB684E4A7B6A42
:100964009B08023352F82330FB607B6A03F00303D5
:100974009B000F2202FA03F3DB43FA681340FB6087
:100984007B68464A93421FD07B68454A934219D0FC
:100994007B68444A934213D07B68434A93420DD008
:1009A4007B68424A934207D07B68414A934201D113
:1009B40005230AE0062308E0042306E0032304E0F9
:1009C400022302E0012300E000237A6A02F003021A
:1009D40092009340FA681343FB602F497B6A9B089B
:1009E4000233FA6841F823203B685B6803F48033E0
:1009F400002B06D02F4B1A682E49BB6913430B609A
:100A040006E02C4B1A68BB69DB432A4913400B6090
:100A14003B685B6803F40033002B06D0254B5A680F
:100A24002449BB6913434B6006E0224B5A68BB69F7
:100A3400DB43204913404B603B685B6803F480133D
:100A4400002B06D01B4B9A681A49BB6913438B6071
:100A540006E0184B9A68BB69DB43164913408B6068
:100A64003B685B6803F40013002B25D0114BDA6854
:100A74001049BB691343CB6025E000BF000032106E
:100A8400000031100000221000002110000012109C
:100A94000000111000100240000001400008014055
:100AA400000C0140001001400014014000180140F6
:100AB400001C0140000401400B4BDA68BB69DB43B6
:100AC40009491340CB607B6A01337B623B681A6837
:100AD4007B6A22FA03F3002B7FF47EAE00BF00BFD3
:100AE4002C37BD4680BC70470004014080B483B0FD
:100AF40000AF78600B467B8013467B707B78002BBD
:100B040003D07A887B681A6103E07B881A047B68C7
:100B14001A6100BF0C37BD4680BC704780B582B0F7
:100B240000AFFFF761FD7860454B1B68444A43F012
:100B34000103136008E0FFF757FD02467B68D31AF0
:100B4400022B01D9032377E03D4B1B6803F002031A
:100B5400002BF0D03A4B1B6823F0F803384A43F0DB
:100B640080031360FFF740FD7860354B00225A6024
:100B74000AE0FFF739FD02467B68D31A41F2883256
:100B8400934201D9032357E02D4B5B6803F00C0318
:100B9400002BEED12B4B2C4A1A602C4B1B681846A9
:100BA400FFF7E0FC0346002B01D0012344E0FFF7EC
:100BB4001BFD7860224B1B68214A23F0807313606D
:100BC40008E0FFF711FD02467B68D31A022B01D916
:100BD400032331E01A4B1B6803F00073002BF0D1A0
:100BE400174B00225A60FFF7FFFC7860144B1B6818
:100BF400134A23F41023136008E0FFF7F5FC0246C0
:100C04007B68D31A642B01D9032315E00C4B1B68B2
:100C140003F40033002BF0D1094B1B68084A23F47A
:100C240080231360064B5B6A054A43F0807353626A
:100C3400034B00229A60002318460837BD4680BD46
:100C4400001002400000002000127A00040000207E
:100C540080B586B000AF78607B68002B01D101239A
:100C64006CE27B681B6803F00103002B00F08780B3
:100C7400924B5B6803F00C03042B0CD08F4B5B6826
:100C840003F00C03082B12D18C4B5B6803F4803304
:100C9400B3F5803F0BD1894B1B6803F40033002B61
:100CA4006CD07B685B68002B68D1012346E27B68CB
:100CB4005B68B3F5803F06D1804B1B687F4A43F4E1
:100CC400803313602EE07B685B68002B0CD17B4B78
:100CD4001B687A4A23F480331360784B1B68774A85
:100CE40023F4802313601DE07B685B68B3F5A02FB9
:100CF4000CD1724B1B68714A43F4802313606F4B11
:100D04001B686E4A43F4803313600BE06B4B1B6823
:100D14006A4A23F480331360684B1B68674A23F4E0
:100D2400802313607B685B68002B13D0FFF75CFCA7
:100D3400386108E0FFF758FC02463B69D31A642B7C
:100D440001D90323FAE15D4B1B6803F40033002B44
:100D5400F0D014E0FFF748FC386108E0FFF744FCEA
:100D640002463B69D31A642B01D90323E6E1534BB2
:100D74001B6803F40033002BF0D100E000BF7B6854
:100D84001B6803F00203002B63D04C4B5B6803F039
:100D94000C03002B0BD0494B5B6803F00C03082BAE
:100DA4001CD1464B5B6803F48033002B16D1434BB4
:100DB4001B6803F00203002B05D07B681B69012B21
:100DC40001D00123BAE13D4B1B6823F0F8027B6894
:100DD4005B69DB00394913430B603AE07B681B69AC
:100DE400002B20D0364B01221A60FFF7FDFB38613F
:100DF40008E0FFF7F9FB02463B69D31A022B01D93D
:100E040003239BE12D4B1B6803F00203002BF0D05E
:100E14002A4B1B6823F0F8027B685B69DB002749D7
:100E240013430B6015E0264B00221A60FFF7DCFB2E
:100E3400386108E0FFF7D8FB02463B69D31A022B5E
:100E440001D903237AE11D4B1B6803F00203002B35
:100E5400F0D17B681B6803F00803002B3AD07B6851
:100E64009B69002B19D0174B01221A60FFF7BCFBBA
:100E7400386108E0FFF7B8FB02463B69D31A022B3E
:100E840001D903235AE10D4B5B6A03F00203002BE3
:100E9400F0D0012000F0A6FA1CE00A4B00221A60F0
:100EA400FFF7A2FB38610FE0FFF79EFB02463B69A8
:100EB400D31A022B08D9032340E100BF00100240DB
:100EC40000004242800442429E4B5B6A03F00203EC
:100ED400002BE9D17B681B6803F00403002B00F0AE
:100EE400A6800023FB75974BDB6903F08053002B2E
:100EF4000DD1944BDB69934A43F08053D361914BFA
:100F0400DB6903F08053BB60BB680123FB758E4B28
:100F14001B6803F48073002B18D18B4B1B688A4A1F
:100F240043F480731360FFF75FFB386108E0FFF759
:100F34005BFB02463B69D31A642B01D90323FDE012
:100F4400814B1B6803F48073002BF0D07B68DB6853
:100F5400012B06D17B4B1B6A7A4A43F001031362CF
:100F64002DE07B68DB68002B0CD1764B1B6A754A3D
:100F740023F001031362734B1B6A724A23F00403C8
:100F840013621CE07B68DB68052B0CD16D4B1B6A7C
:100F94006C4A43F0040313626A4B1B6A694A43F0C8
:100FA400010313620BE0674B1B6A664A23F00103DB
:100FB4001362644B1B6A634A23F0040313627B6865
:100FC400DB68002B15D0FFF70FFB38610AE0FFF751
:100FD4000BFB02463B69D31A41F28832934201D992
:100FE4000323ABE0574B1B6A03F00203002BEED044
:100FF40014E0FFF7F9FA38610AE0FFF7F5FA024660
:101004003B69D31A41F28832934201D9032395E014
:101014004C4B1B6A03F00203002BEED1FB7D012B2A
:1010240005D1484BDB69474A23F08053D3617B6881
:10103400DB69002B00F08180424B5B6803F00C03FA
:10104400082B61D07B68DB69022B46D13F4B002221
:101054001A60FFF7C9FA386108E0FFF7C5FA0246DB
:101064003B69D31A022B01D9032367E0354B1B6874
:1010740003F00073002BF0D17B681B6AB3F5803F4B
:1010840008D1304B5B6823F400327B689B682D49A0
:1010940013434B602B4B5B6823F474127B68196A0F
:1010A4007B685B6A0B43274913434B60274B012240
:1010B4001A60FFF799FA386108E0FFF795FA0246DB
:1010C4003B69D31A022B01D9032337E01D4B1B685C
:1010D40003F00073002BF0D02FE01C4B00221A60A9
:1010E400FFF782FA386108E0FFF77EFA02463B69AF
:1010F400D31A022B01D9032320E0124B1B6803F0FF
:101104000073002BF0D118E07B68DB69012B01D15F
:10111400012313E00B4B5B68FB60FB6803F4803234
:101124007B681B6A9A4206D1FB6803F470127B68E1
:101134005B6A9A4201D0012300E000231846183765
:10114400BD4680BD00100240007000406000424275
:1011540080B584B000AF786039607B68002B01D122
:101164000123D0E06A4B1B6803F007033A689A42F4
:1011740010D9674B1B6823F0070265493B6813438A
:101184000B60634B1B6803F007033A689A4201D073
:101194000123B8E07B681B6803F00203002B20D016
:1011A4007B681B6803F00403002B05D0594B5B6874
:1011B400584A43F4E06353607B681B6803F00803F8
:1011C400002B05D0534B5B68524A43F46053536081
:1011D400504B5B6823F0F0027B689B684D491343D6
:1011E4004B607B681B6803F00103002B40D07B68D5
:1011F4005B68012B07D1474B1B6803F40033002BBA
:1012040015D101237FE07B685B68022B07D1414B3A
:101214001B6803F00073002B09D1012373E03D4BDD
:101224001B6803F00203002B01D101236BE0394B4F
:101234005B6823F003027B685B68364913434B60A9
:10124400FFF7D2F9F8600AE0FFF7CEF90246FB682F
:10125400D31A41F28832934201D9032353E02D4B30
:101264005B6803F00C027B685B689B009A42EBD1DD
:10127400274B1B6803F007033A689A4210D2244BA9
:101284001B6823F0070222493B6813430B60204B81
:101294001B6803F007033A689A4201D0012332E045
:1012A4007B681B6803F00403002B08D0194B5B68B0
:1012B40023F4E0627B68DB68164913434B607B6868
:1012C4001B6803F00803002B09D0124B5B6823F45E
:1012D40060527B681B69DB000E4913434B6000F0CE
:1012E40021F802460B4B5B681B0903F00F030A4904
:1012F400CB5C22FA03F3094A1360094B1B681846B6
:10130400FFF730F9002318461037BD4680BD00BFF3
:101314000020024000100240A41400080000002035
:101324000400002090B48AB000AF2A4B3C1D0FCBC0
:1013340084E80F0040F201233B800023FB6100237B
:10134400BB6100237B6200237B6100233B62224B51
:101354005B68FB61FB6903F00C03042B02D0082BD0
:1013640003D02DE01D4B3B622DE0FB699B0C03F089
:101374000F0307F12802134413F8243C7B61FB6933
:1013840003F48033002B13D0134B5B685B0C03F026
:10139400010307F12802134413F8283CBB617B695D
:1013A4000E4A02FB03F2BB69B2FBF3F37B6204E077
:1013B4007B690B4A02FB03F37B627B6A3B6202E0BC
:1013C400064B3B6200BF3B6A18462837BD4690BCBB
:1013D400704700BF941400080010024000127A0005
:1013E40000093D0080B485B000AF78600A4B1B68EB
:1013F4000A4AA2FB03235B0A7A6802FB03F3FB603D
:1014040000BFFB685A1EFA60002BF9D100BF00BF71
:101414001437BD4680BC704700000020D34D6210D5
:1014240070B500260C4D0D4C641BA410A64209D1C6
:1014340000F022F800260A4D0A4C641BA410A642B0
:1014440005D170BD55F8043B98470136EEE755F8D1
:10145400043B98470136F2E7B4140008B4140008BA
:10146400B4140008B814000803460244934200D19F
:10147400704703F8011BF9E7F8B500BFF8BC08BCD6
:101484009E467047F8B500BFF8BC08BC9E4670473E
:1014940002030405060708090A0B0C0D0E0F1010B1
:1014A4000000000000000000010203040607080910
:0414B4000902000821
:0414B800E501000842
:0C14BC000024F4001000000001000000FB
:04000005080004B536
:00000001FF
