:020000040801F1
:10E0000000000120F5060208F5050208FB050208DC
:10E0100001060208070602080D06020800000000BB
:10E0200000000000000000000000000013060208CD
:10E030001F060208000000002B060208370602082F
:10E040003D0702083D0702083D0702083D07020898
:10E050003D0702083D0702083D0702083D07020888
:10E060003D0702083D0702083D0702083D07020878
:10E070003D0702083D0702083D0702083D07020868
:10E080003D0702083D0702083D0702083D07020858
:10E090003D0702083D0702083D0702083D07020848
:10E0A0003D0702083D0702083D0702083D07020838
:10E0B0003D070208450602083D0702083D07020821
:10E0C0003D0702083D0702083D0702083D07020818
:10E0D0003D070208590602083D0702083D070208ED
:10E0E0003D0702083D0702083D0702083D070208F8
:10E0F0003D0702083D0702083D0702083D070208E8
:10E100003D0702083D0702083D0702083D070208D7
:10E110003D0702083D0702083D0702083D070208C7
:10E120003D0702083D0702083D0702083D070208B7
:10E1300000000000000000000000000000000000DF
:10E1400000000000000000000000000000000000CF
:10E1500000000000000000000000000000000000BF
:10E1600000000000000000000000000000000000AF
:10E17000000000000000000000000000000000009F
:10E18000000000000000000000000000000000008F
:10E19000000000000000000000000000000000007F
:10E1A000000000000000000000000000000000006F
:10E1B000000000000000000000000000000000005F
:10E1C000000000000000000000000000000000004F
:10E1D000000000000000000000000000000000003F
:04E1E0005FF8E0F113
:10E1E40010B5054C237833B9044B13B10448AFF38D
:10E1F40000800123237010BD68010020000000008E
:10E20400BC38020808B5034B1BB103490348AFF3FC
:10E21400008008BD000000006C010020BC3802082A
:10E22400034613F8012B002AFBD1181A0138704752
:10E2340080B582B000AF0346FB71FB79002B02D19D
:10E2440000F032FB01E000F03BFB00BF0837BD46A5
:10E2540080BD000080B584B000AF0346FB7100238D
:10E26400FB720020FFF7E4FF0023FB8102E0FB893F
:10E274000133FB81FB89092BF9D9FB79012B02D1ED
:10E284000623FB7201E00423FB7207F10B01C82390
:10E294000122094803F0E6FC0023BB8102E0BB89AC
:10E2A4000133BB81BB89092BF9D90120FFF7C0FFDA
:10E2B40000BF1037BD4680BDF011002080B500AF0F
:10E2C4000120FFF7B5FF0120FFF7C4FF00BF80BDA9
:10E2D40080B400AF024B1B781846BD4680BC704723
:10E2E4008501002080B400AF034B01221A7000BFE7
:10E2F400BD4680BC704700BF8501002080B400AFDC
:10E30400034B00221A7000BFBD4680BC704700BF9B
:10E314008501002080B500AF2A4B1A782A4B1B7860
:10E324009A4249D0274B1B780A2B47D801A252F8AE
:10E3340023F000BF65E301086DE3010875E30108FC
:10E344007DE3010885E301088DE3010895E30108F5
:10E354009DE30108A5E30108ADE30108B5E3010865
:10E364001A4800F00DFC2AE0194800F009FC26E0E8
:10E37400184800F005FC22E0174800F001FC1EE0FC
:10E38400164800F0FDFB1AE0154800F0F9FB16E012
:10E39400144800F0F5FB12E0134800F0F1FB0EE026
:10E3A400124800F0EDFB0AE0114800F0E9FB06E03A
:10E3B400104800F0E5FB02E000BF00E000BF00BF32
:10E3C40080BD00BF00000020DE1100207839020863
:10E3D40090390208B8390208CC390208F039020829
:10E3E400083A0208303A0208443A02086C3A020831
:10E3F400843A0208AC3A020880B500AFFFF78AFFFE
:10E40400094B1A78094B1A70074B1B78092B08D84B
:10E41400054B1B78064ADB0013445B6898470023CE
:10E4240000E00123184680BD00000020DE1100201A
:10E434002800002080B500AF00224FF4807102480C
:10E4440002F05AFF00BF80BD0010014080B500AF4C
:10E4540001224FF48071024802F04EFF00BF80BDDC
:10E464000010014080B500AF00224FF40071024853
:10E4740002F042FF00BF80BD0010014080B500AF34
:10E4840001224FF40071024802F036FF00BF80BD44
:10E494000010014080B500AF00220021094801F0BE
:10E4A40077FB0022C821084801F072FBFFF726FF22
:10E4B4000022C821054801F06BFB054B01221A70AC
:10E4C40000BF80BD39E4010851E40108E9E2010814
:10E4D4000000002080B500AFFFF7FAFE0346002BD2
:10E4E40002D0024B04221A7000BF80BD000000203D
:10E4F40080B500AF002200210A4801F049FB002248
:10E50400C821094801F044FBFFF7F8FE00224FF44C
:10E51400C871064801F03CFB054B03221A7000BF8A
:10E5240080BD00BF81E4010869E40108E9E2010853
:10E534000000002080B500AFFFF7CAFE0346002BA1
:10E5440002D0024B00221A7000BF80BD00000020E0
:10E5540080B500AF064B05221A70FFF7CFFE0022EC
:10E5640044F62061034801F013FB00BF80BD00BFE7
:10E5740000000020E9E2010880B500AFFFF7A8FE23
:10E584000346002B02D00A4B02221A7001F0AAFAA9
:10E594000346032B07D101F0AFFAFFF7A3FE044BA8
:10E5A40006221A7002E001F0A7FA00BF00BF80BD86
:10E5B4000000002080B500AF064B1B781A46064BBE
:10E5C40053F82230184600F041FA044B07221A701F
:10E5D40000BF80BD86010020040000200000002050
:10E5E40080B500AFFFF774FE0346002B30D001F076
:10E5F40079FA0346002B02D0012B23D02BE001F043
:10E604007BFA164B1B78072B06D9144B00221A7081
:10E61400134B08221A7008E0104B1B780133DAB24E
:10E624000E4B1A700E4B06221A700C4B1B78062BDD
:10E6340010D1FFF763FE00224FF4FA71094801F08C
:10E64400A7FA07E001F058FA054B0A221A7002E013
:10E6540000BF00E000BF00BF80BD00BF86010020F6
:10E6640000000020E9E2010880B500AF034800F093
:10E67400EDF9034B09221A7000BF80BDC43A0208A9
:10E684000000002080B500AF01F02CFA0346012BF6
:10E6940010D0062B13D100F02BF80346002B10D01A
:10E6A40001F02AFA084B0A221A700F21074800F0D9
:10E6B40085FA06E001F020FA034B0A221A7000BF23
:10E6C40000E000BF00BF80BD00000020E01100207A
:10E6D40080B483B000AF0346FB71044AFB79137026
:10E6E40000BF0C37BD4680BC704700BF000000204F
:10E6F40098B500AF0E4B1B780F2B04D10C4B0022A6
:10E704001A70012312E000F0CDF90346002B0CD05F
:10E71400074B1B785A1CD1B2054A11701C4600F0F5
:10E72400D7F903461A46034B1A550023184698BDD9
:10E7340084010020E011002080B500AF0220FFF723
:10E74400C7FF00BF80BD000080B584B000AF1B4B85
:10E754009B691A4A43F010039361184B9B6903F0B9
:10E764001003FB60FB68154B9B69144A43F02003BC
:10E774009361124B9B6903F02003BB60BB680F4B92
:10E784009B690E4A43F0040393610C4B9B6903F0AD
:10E7940004037B607B68094B9B69084A43F00803C8
:10E7A4009361064B9B6903F008033B603B6800F0F0
:10E7B40007F800BF1037BD4680BD00BF00100240FF
:10E7C40080B584B000AF3B4600221A605A609A605C
:10E7D400DA6001237B600123BB600323FB604FF4F9
:10E7E40080733B603B4619460D4802F0F1FB4FF441
:10E7F40000733B603B461946094802F0E9FB0122DD
:10E804004FF48071064802F077FD01224FF4007145
:10E81400034802F071FD00BF1037BD4680BD00BF44
:10E824000010014080B500AF1D4B1E4A1A601C4BFE
:10E834002822DA611A4B00229A60194B00225A618D
:10E84400174B00221A61164B0022DA60144B002287
:10E854001A62134B00225A62114B00229A62104B27
:10E864000722DA620E4B4FF480229A610C4B4FF46C
:10E8740082725A600A4803F071F90346002B03D0F0
:10E8840001F088FD012308E0054B1B681A68044B5E
:10E894001B6842F040021A600023184680BD00BF86
:10E8A400F01100200038004080B500AF00224FF482
:10E8B4008051024802F020FD00BF80BD000C0140E1
:10E8C40080B500AF01224FF48051024802F014FDDC
:10E8D40000BF80BD000C014080B590B000AF07F1CF
:10E8E400180328220021184604F0B2FB3B1D002225
:10E8F4001A605A609A60DA601A610A23BB610123C4
:10E90400BB621023FB6201233B6302237B6300236E
:10E91400BB634FF46013FB6307F11803184602F05E
:10E9240003FD0346002B01D0012317E00F237B6076
:10E934000223BB600023FB604FF480633B61002330
:10E944007B613B1D0221184602F06EFF0346002B3B
:10E9540003D001F01FFD012300E0002318464037D7
:10E96400BD4680BD80B500AF184B1B68184AA2FB9A
:10E9740003235B0B013B174A1360174B174A1A60BA
:10E98400154B6322DA60134B1B68134A5360124B16
:10E9940000221A61104B00229A600F4B00225A6128
:10E9A4000D4B00229A610C4803F03EFB0346002BFA
:10E9B40001D0012308E0084803F086FB0346002B3E
:10E9C40001D0012300E00023184680BDF40000209C
:10E9D4005917B7D1880100205412002000040040C8
:10E9E40080B582B000AF786001F0AAF800BF0837A4
:10E9F400BD4680BD80B500AF124B134A1A60114B5F
:10EA04004FF4E1325A600F4B00229A600D4B002202
:10EA1400DA600C4B00221A610A4B0C225A61094B32
:10EA240000229A61074B0022DA61064803F064FD74
:10EA34000346002B01D0012302E000F0D7F80023A5
:10EA4400184680BDE42200200038014080B584B01F
:10EA540000AF78607868FFF7E3FB0346FB81FB892E
:10EA6400002B17D0786800F08BF800BF0B4B1B7895
:10EA7400DBB2002BFAD0FB891A467968084803F008
:10EA84001AFE0346002B01D001F084FC034B002244
:10EA94001A7000E000BF1037BD4680BD780000202A
:10EAA400E422002080B400AF074B1B889AB2074BC6
:10EAB4001B889BB29A4201D0012300E00023184630
:10EAC400BD4680BC704700BF8E0100208C01002031
:10EAD40080B483B000AF124B1B889AB2114B1B88D1
:10EAE4009BB29A4201D1FF2315E00D4B1B889BB2C8
:10EAF4001A460D4B9B5CFB71094B1B889BB201337F
:10EB04005A42C3F30B03C2F30B0258BF53429AB2E7
:10EB1400034B1A80FB7918460C37BD4680BC7047FE
:10EB24008E0100208C010020E412002080B500AF8B
:10EB3400114B124A1A60104B4FF4E1325A600E4BDB
:10EB440000229A600C4B0022DA600B4B00221A61FF
:10EB5400094B0C225A61084B00229A61064B002291
:10EB6400DA61054803F0C8FC0346002B01D00123F9
:10EB740000E00023184680BD9C120020004800409D
:10EB840080B584B000AF78607868FFF749FB03462E
:10EB9400FB81FB89002B0BD0FA89FF237968064897
:10EBA40003F0F7FC0346002B03D001F0F3FB00E075
:10EBB40000BF1037BD4680BD9C12002080B582B0D6
:10EBC40000AF78600B467B807A88C8237968064852
:10EBD40003F0DFFC0346002B01D001F0DBFB00BF98
:10EBE4000837BD4680BD00BF9C12002080B500AF31
:10EBF40001220549054803F0A2FD0346002B01D07C
:10EC040001F0C8FB00BF80BDE0120020E422002018
:10EC140080B582B000AF78607B681B68104A93426D
:10EC24001AD1104B1B889BB21A460F4B19780F4B05
:10EC340099540C4B1B889BB201335A42C3F30B0308
:10EC4400C2F30B0258BF53429AB2064B1A800122F8
:10EC54000549786803F073FD00BF0837BD4680BDE1
:10EC6400003801408C010020E0120020E412002052
:10EC740080B483B000AF7860034B01221A7000BFE8
:10EC84000C37BD4680BC70477800002080B500AFCB
:10EC94004FF480520021054804F0DAF9044B0022B5
:10ECA4001A80044B00221A8000BF80BDE4120020A9
:10ECB4008C0100208E01002080B500AF2C4B1A7807
:10ECC4002C4B1B789A424DD02A4B1A78284B1A7039
:10ECD400284B1B780A2B47D801A252F823F000BF17
:10ECE40011ED010819ED010821ED010829ED0108D4
:10ECF40031ED010839ED010841ED010849ED010844
:10ED040051ED010859ED010861ED01081A48FFF7BA
:10ED140037FF2AE01948FFF733FF26E01848FFF7CA
:10ED24002FFF22E01748FFF72BFF1EE01648FFF7DE
:10ED340027FF1AE01548FFF723FF16E01448FFF7F2
:10ED44001FFF12E01348FFF71BFF0EE01248FFF706
:10ED540017FF0AE01148FFF713FF06E01048FFF71A
:10ED64000FFF02E000BF00E000BF00BF80BD00BF96
:10ED74009801002099010020E03A0208F03A0208C4
:10ED8400083B0208183B0208303B0208403B0208DB
:10ED94005C3B02086C3B0208843B0208943B02087B
:10EDA400AC3B020880B500AFFFF786FF0C4B1B7825
:10EDB400092B08D80A4B1B780A4ADB0013445B680A
:10EDC4009847002309E0064B1B780A2B04D1064818
:10EDD400FFF7D6FE012300E00223184680BD00BFE2
:10EDE4009901002084000020BC3B020880B500AFDC
:10EDF4000B4B00221A60FFF749FF0A4B1B78002BCC
:10EE040003D00949094804F02BF90848FFF71EFE0E
:10EE140000F0A2FC064B01221A7000BF80BD00BFA7
:10EE2400940100207A000020D03B0208AC3400207A
:10EE34009901002080B500AF00F054FE0346002B7A
:10EE440002D0012B06D00BE000F056FE054B022247
:10EE54001A7005E000F050FE024B0B221A7000BF3E
:10EE640000BF80BD9901002080B500AF0D4B1B7819
:10EE7400002B0DD00C4B1B78002B04D00B490C48F5
:10EE840004F0EEF804E00B4A0B49094804F0E8F8F2
:10EE94000748FFF7DBFD00F05FFC084B03221A7004
:10EEA40000BF80BD7A0000207B000020E03B020808
:10EEB400AC3400208C240020283C02089901002056
:10EEC40080B500AF00F00EFE0346002B02D0012BEC
:10EED40006D00BE000F010FE054B04221A7005E08A
:10EEE40000F00AFE024B0B221A7000BF00BF80BD67
:10EEF4009901002080B500AF0C4B1B78002B03D088
:10EF04000B490C4804F0ACF80A48FFF79FFD00F0E9
:10EF140023FC00F07BF90022C821074800F038FEEA
:10EF2400064B05221A7000BF80BD00BF7A00002086
:10EF3400703C0208AC340020F9F10108990100206A
:10EF440080B500AF00F04CF90346002B31D000F03F
:10EF5400C9FD0346052B09D0052B2CDC002B02D060
:10EF6400012B20D027E000F0C7FD27E000F0AAFB2A
:10EF74000346002B21D000F0FBFB0346104A13602C
:10EF8400104B00221A600E4B1B681A460E490F489C
:10EF940004F066F80D48FFF7F3FD00F0ADFD0C4BEF
:10EFA40006221A7009E000F0A7FD094B0B221A7023
:10EFB40004E000BF02E000BF00E000BF00BF80BD6E
:10EFC4009C01002094010020843C0208D83E0020CB
:10EFD4009901002080B582B000AF2C4B1B78002B28
:10EFE40003D02B4B1B687B601DE0294B1B68B3F5DA
:10EFF400806F09D94FF480637B60254B1B68A3F5B0
:10F004008063234A13600EE0214B1B68002B0AD057
:10F014001F4B1B68B3F5806F05D21D4B1B687B60CB
:10F024001B4B00221A601B4B1B78002B04D07A6800
:10F0340019491A4804F014F8154B1B681A46184964
:10F04400184804F00DF81748FFF79AFD164B1B8873
:10F054001A461649134804F003F81248FFF790FDC6
:10F064000E48FFF7F3FC00F0D1F8002264211048A9
:10F0740000F08EFD00F070FB642001F0C1FB0D4B2D
:10F0840007221A7000BF0837BD4680BD7B000020F0
:10F094009C0100207A0000208C3C0208AC34002043
:10F0A400A03C0208D83E0020A0010020BC3C02087D
:10F0B400F9F101089901002080B582B000AF244B1A
:10F0C4001B78002B14D000F00DFD0346002B34D127
:10F0D40000F0A8F80346FB71FB79002B2FD01C4BE2
:10F0E40000221A7000F008FD1A4B02221A702BE05D
:10F0F40000F0F8FC0346002B23D100F09BF90346F3
:10F10400FB71FB79002B1ED0134B1B78002B09D00D
:10F11400124B1B68002B0AD11148FFF731FD00F098
:10F12400BFFF04E00F48FFF72BFD00F0C7FF00F01E
:10F13400E3FC084B06221A7005E000BF04E000BFA0
:10F1440002E000BF00E000BF0837BD4680BD00BF3D
:10F154007B000020990100207C0000209C010020FD
:10F16400D43C0208F03C020880B500AF084B1B7881
:10F17400002B03D00749084803F072FF0648FFF745
:10F1840065FC00F0E9FA054B09221A7000BF80BD46
:10F194007A0000200C3D0208AC34002099010020C4
:10F1A40080B500AF00F09EFC0346002B02D0012B7B
:10F1B40006D00BE000F0A0FC054B00221A7005E01D
:10F1C40000F09AFC024B0B221A7000BF00BF80BDF6
:10F1D4009901002080B400AF00BFBD4680BC7047D9
:10F1E40080B400AF024B1B781846BD4680BC704704
:10F1F4007900002080B400AF034B01221A7000BFD5
:10F20400BD4680BC704700BF7900002080B400AFC9
:10F21400034B00221A7000BFBD4680BC704700BF7C
:10F224007900002098B500AFFFF73CFC0346002BA3
:10F2340059D02E4B1B781C46FFF74AFC03461A464E
:10F244002B4B1A55294B1B78591C2A4B64222848EE
:10F2540000F0D0FA0346002B02D0274B01221A708B
:10F26400254B1B78002B2ED0244B1B78002B1CD055
:10F274001E4B1B781A461E4B9B5C0D2B07D11F4B54
:10F2840000221A701C4B00221A7001232CE0174B29
:10F294001B7819461A4B1B785A1CD0B2184A1070A6
:10F2A4001A46134B595C174B9954104B1B78591C35
:10F2B400154B64220E4800F09DFA0346002B02D041
:10F2C4000E4B01221A70094B1B7801330F4A82FB43
:10F2D40003125111DA178A1A642101FB02F29A1AF5
:10F2E400D2B2024B1A700023184698BDA201002026
:10F2F400743E0020303D0208A3010020A401002038
:10F30400900100208C240020403D02081F85EB5111
:10F3140090B585B000AF78600B467B80404B0022EF
:10F324001A700023FB8131E0FB897A6813441B784F
:10F334001946FB8901337A6813441B780A46394914
:10F34400394803F08DFE3848FFF71AFCFB897A68C8
:10F3540013441B78184600F095FA0346DBB21B01F0
:10F36400DAB22F4B1B781344DCB2FB8901337A6881
:10F3740013441B78184600F085FA0346DBB2234495
:10F38400DAB2274B1A70FB890233FB81FA897B8836
:10F39400053B9A42C8DB224B1B78DB43DAB2204B95
:10F3A4001A701F4B1B780133DAB21D4B1A707B881D
:10F3B400053B7A6813441B78184600F063FA034649
:10F3C400DBB21B01DCB27B88043B7A6813441B78F4
:10F3D400184600F057FA0346DBB223447B73104B04
:10F3E4001B781A461149104803F03AFE0E48FFF7FD
:10F3F400C7FB7B7B1A460E490B4803F031FE0A48D3
:10F40400FFF7BEFB064B1B787A7B9A420CBF0123A5
:10F414000023DBB23B733B7B18461437BD4690BDDB
:10F424009A010020443D0208282300204C3D020894
:10F434005C3D020890B583B000AFFFF733FB034691
:10F44400002B00F011818B4B1B881C46FFF740FBFF
:10F4540003461A46884B1A55864B1B88591C874B02
:10F464004FF49672844800F0C5F90346002B48D047
:10F47400834B1B88B3F5006F21D3824B1B684FF479
:10F4840000628149184600F08FFE7E4B1B6803F52D
:10F4940000637C4A13607D49794B1B88A3F50063A4
:10F4A4001A46794803F0C6FD754B1B88A3F5006323
:10F4B4009AB2734B1A807648FFF762FB16E0754BDD
:10F4C4001B68002B12D16F4B1B686D4A12886E4962
:10F4D400184600F069FE6A4B1B881A46694B1B6884
:10F4E4001344684A1360664B00221A806A4B1B88D7
:10F4F4000E3B9AB2684B1A80684B00221A700123A3
:10F50400B3E05C4B1B88591C654B4FF496725A4808
:10F5140000F070F90346002B02D0624B01221A70EE
:10F52400604B1B78002B14D0524B1B88591C5E4B2C
:10F534004FF49672504800F05DF90346002B08D052
:10F54400564B01221A70574B00221A70494B002265
:10F554001A80524B1B78002B75D0464B1B881946DA
:10F564004D4B1B881A46444B595C504B99544A4B9B
:10F574001B8801334E4A82FB03125111DA178A1A8F
:10F584004FF4967101FB02F29A1A92B2424B1A801E
:10F59400384B1B88591C474B4FF49672364800F081
:10F5A40029F90346002B4ED0434B1B78002B06D081
:10F5B400414B00221A70384B00221A8043E0364B2C
:10F5C4001B8819463948FFF7A3FE0346002B34D0A5
:10F5D400364B5B7A184600F055F90346002B28D1C8
:10F5E4000A237B601FE0314A7B6813441B7818466A
:10F5F40000F048F904467B6801332C4AD35C184672
:10F6040000F040F90346043304FA03F11C4B1B8851
:10F614005A1C90B21A4A10801A46C9B21A4B99540D
:10F624007B6802337B601C4B1B88063B7A689A42DA
:10F63400D9DB194B00221A8005E0204B00221A70F6
:10F644001F48FFF79DFA0B4B1B880133184A82FBB6
:10F6540003125111DA178A1A4FF4967101FB02F260
:10F664009A1A92B2034B1A80002318460C37BD46EF
:10F6740090BD00BFA80100205C230020783D020853
:10F68400A001002080000020A8240020A82C002035
:10F69400883D02089C01002042350020A60100207C
:10F6A4008C3D0208A5010020403D02084835002099
:10F6B400B5814E1B9C3D0208DC0000207C0000202C
:10F6C400A03D020880B500AFFFF7ECF90346002B1C
:10F6D40029D0FFF7FDF903461A46144B1A70134B51
:10F6E4001B780D2B04D1124B00221A7001231BE04E
:10F6F4000F4B1B78022B0CD10E4B1A6813469B0040
:10F7040013445B001A46094B1B781344303B094AE7
:10F714001360064B1B782C2B05D1054B1B7801334A
:10F72400DAB2034B1A700023184680BDE0120020A1
:10F73400910100209401002080B483B000AF0346FF
:10F74400FB71044AFB79137000BF0C37BD4680BCC3
:10F75400704700BF9901002080B400AF034B012221
:10F764001A7000BFBD4680BC704700BF7A000020FD
:10F7740080B400AF024B1B681846BD4680BC70477E
:10F784009401002080B586B000AFF8600B467A6023
:10F794007B817868FEF744FD0346BB75BB7D9BB255
:10F7A4007A899A4201D2002320E07868FEF738FD76
:10F7B40003467B750023FB7513E07A897B7DD21A9F
:10F7C400FB7D13441A46FB6813441A78FB7D796861
:10F7D4000B441B789A4201D0002307E0FB7D0133E0
:10F7E400FB75FA7D7B7D9A42E7D3012318461837CF
:10F7F400BD4680BD80B586B000AFF8607B600B4627
:10F804007B8113463B817868FEF70AFD0346BB8281
:10F814000023FB822DE07A89BB8AD31A002B0EDAEF
:10F824003A897B891A44BB8AD21AFB8A13443A89DF
:10F8340093FBF2F102FB01F29B1A1A460BE07A8960
:10F84400BB8AD21AFB8A13443A8993FBF2F102FB76
:10F8540001F29B1A1A46FB6813441A78FB8A7968EA
:10F864000B441B789A4201D0002307E0FB8A013342
:10F87400FB82FA8ABB8A9A42CDD3012318461837F1
:10F88400BD4680BD80B485B000AF0346FB71FB79F3
:10F894002F2B06D9FB79392B03D8FB79303BFB732B
:10F8A40008E0FB79402B05D9FB79462B02D8FB797C
:10F8B400373BFB73FB7B18461437BD4680BC70474F
:10F8C40080B500AF734B1B780A2B40F0DE80FFF746
:10F8D400E9F80346002B00F0DA80FFF7F9F8014657
:10F8E4006D4B1B781A46C9B26C4B99546A4B1B7802
:10F8F4000133DAB2684B1A70674B1B789BB2684AC3
:10F90400126819466548FFF73DFF0346002B0DD0EA
:10F914006448FFF735F9604B1A78634B1A705E4BF5
:10F9240000221A705B4B00221A70B0E05A4B1B780D
:10F934009BB25E4A19465948FFF724FF0346002B41
:10F944000DD05B48FFF71CF9534B1A78564B1A70CD
:10F95400514B00221A704F4B01221A7097E04E4B04
:10F964001B789BB2534A19464C48FFF70BFF0346DA
:10F97400002B0DD05048FFF703F9474B1A784A4B38
:10F984001A70454B00221A70424B03221A707EE013
:10F99400414B1B789BB2494A19464048FFF7F2FE97
:10F9A4000346002B0DD04648FFF7EAF83A4B1A7885
:10F9B4003D4B1A70384B00221A70364B06221A70CF
:10F9C40065E0354B1B789BB23E4A19463348FFF736
:10F9D400D9FE0346002B0DD03B48FFF7D1F82E4B40
:10F9E4001A78314B1A702C4B00221A70294B0522BD
:10F9F4001A704CE0284B1B789BB2344A19462748AE
:10FA0400FFF7C0FE0346002B0DD03148FFF7B8F8CE
:10FA1400214B1A78244B1A701F4B00221A701D4B6D
:10FA240007221A7033E01C4B1B789BB2294A1946F3
:10FA34001A48FFF7A7FE0346002B0DD02648FFF710
:10FA44009FF8154B1A78184B1A70134B00221A7032
:10FA5400104B08221A701AE00F4B1B789BB21F4AF6
:10FA640019460E48FFF78EFE0346002B0FD01C48A4
:10FA7400FFF786F8084B1A780B4B1A70064B0022D6
:10FA84001A70044B09221A7001E000BF00E000BFA5
:10FA940080BD00BFDD000020AD110020AC010020BE
:10FAA400E0000020BC3D0208AC110020383F0208F1
:10FAB400C43D0208303F0208D03D0208403F02081E
:10FAC400DC3D02084C3F0208F03D02085C3F02089E
:10FAD4000C3E0208743F02082C3E0208683F0208EC
:10FAE400483E020880B400AF024B1B781846BD465E
:10FAF40080BC7047DD00002080B400AF034B0A22B5
:10FB04001A7000BFBD4680BC704700BFDD000020F6
:10FB140080B400AF094B1B680133084A1360074BDC
:10FB24001B68002B04D1054B1B680133034A136087
:10FB3400024B1B681846BD4680BC7047B0110020BC
:10FB440080B400AF104B1B6801330F4A13600F4B96
:10FB54001B68002B13D00D4B1B7B002B0FD10B4BC1
:10FB64005B68002B04D0094B5B68013B074A536078
:10FB7400064B5B68002B02D1044B01221A7300BFB1
:10FB8400BD4680BC704700BFB4110020343F002044
:10FB940090B589B000AFF860B9607A600023FB7754
:10FBA4000023BB6100233B610023FB7733E1FA7F31
:10FBB400A14913469B0013449B000B4404331B6868
:10FBC400BA691344BB61BA69BB689A4240F2C18006
:10FBD400FA7F994913469B0013449B000B4404335A
:10FBE4001A68BB69D31ABA6813443B61FA7FB969CE
:10FBF400BB68C91A904813469B0013449B000344F6
:10FC0400043319602723FB754CE0FB7D591EFA7DF4
:10FC140089480B469B000B449B00034419688648A3
:10FC240013469B0013449B0003441960FB7D591E3B
:10FC3400FA7D81480B469B000B449B000344083328
:10FC440019687D4813469B0013449B000344083302
:10FC54001960FB7D591EFA7D77480B469B000B44C7
:10FC64009B00034404331968734813469B001344F0
:10FC74009B00034404331960FB7D591EFA7D6E48D2
:10FC84000B469B000B449B000344103319686A48DD
:10FC940013469B0013449B00034410331960FB7DFF
:10FCA400013BFB75FA7DFB7F9A42AED8FA7F62492D
:10FCB40013469B0013449B000B44FA681A60FA7FB6
:10FCC4005D4913469B0013449B000B4404333A697B
:10FCD4001A60FA7F584913469B0013449B000B4457
:10FCE40008337A681A60FA7F534913469B00134419
:10FCF4009B000B4404331B68002B0AD1FA7F4E4946
:10FD040013469B0013449B000B440C3301221A70CE
:10FD140009E0FA7F484913469B0013449B000B44B7
:10FD24000C3300221A70FC7FFFF7F2FE02464249B0
:10FD340023469B0023449B000B4410331A60FA7F34
:10FD44003D4913469B0013449B000B4410331B682E
:10FD54006EE0FA7F384913469B0013449B000B4422
:10FD64001B68002B54D1FA7F334913469B0013447C
:10FD74009B000B44FA681A60FA7FB968BB69C91A18
:10FD84002D4813469B0013449B000344043319601D
:10FD9400FA7F294913469B0013449B000B44083304
:10FDA4007A681A60FA7F244913469B0013449B0027
:10FDB4000B4404331B68002B0AD1FA7F1E491346F7
:10FDC4009B0013449B000B440C3301221A7009E07E
:10FDD400FA7F194913469B0013449B000B440C33D0
:10FDE40000221A70FC7FFFF793FE02461249234655
:10FDF4009B0023449B000B4410331A60FA7F0E4986
:10FE040013469B0013449B000B4410331B680FE004
:10FE1400FB7F0133FB77FB7F272B7FF6C8AEFA7F8E
:10FE2400054913469B0013449B000B4410331B6885
:10FE340018462437BD4690BD343F002080B485B0B9
:10FE440000AF786000237B737B68002B00F0E280B6
:10FE54000023FB73DAE0FA7B714913469B001344D9
:10FE64009B000B4410331B687A689A4240F0CB80A5
:10FE740001237B73FB7B002B2BD0FB7B262B28D809
:10FE8400FB7B5A1C664913469B0013449B000B449E
:10FE94001B68002B1DD0FB7B5A1C614913469B0039
:10FEA40013449B000B4404331968FA7B5C481346E3
:10FEB4009B0013449B00034404331B68FA7B013208
:10FEC4001944574813469B0013449B0003440433CE
:10FED4001960FB7BBB7360E0BB7B591CBA7B504849
:10FEE4000B469B000B449B00034419684C48134683
:10FEF4009B0013449B0003441960BB7B591CBA7BD1
:10FF040047480B469B000B449B0003440833196885
:10FF1400434813469B0013449B0003440833196071
:10FF2400BB7B591CBA7B3E480B469B000B449B0091
:10FF34000344043319683A4813469B0013449B0056
:10FF4400034404331960BB7B591CBA7B34480B4609
:10FF54009B000B449B0003440C3318783049134630
:10FF64009B0013449B000B440C3302461A70BB7B6A
:10FF7400591CBA7B2A480B469B000B449B00034444
:10FF840010331968264813469B0013449B0003440E
:10FF940010331960BB7B0133BB73BB7B262B9BD90E
:10FFA400BA7B1F4913469B0013449B000B44002259
:10FFB4001A60BA7B1A4913469B0013449B000B44F6
:10FFC400083300221A60BA7B154913469B00134478
:10FFD4009B000B44043300221A60BA7B1049134679
:10FFE4009B0013449B000B440C3300221A70BA7B11
:0CFFF4000B4913469B0013449B000B4478
:020000040802F0
:10000000103300221A607B7B07E0FB7B0133FB731C
:10001000FB7B272B7FF621AF7B7B18461437BD4631
:1000200080BC7047343F0020B0B586B000AF114BA4
:100030001B7B002B19D00F4B1B6898470D4B0022E0
:100040001A730C4B3C1D1D460FCD0FC42B6823604B
:100050007B691846FFF7F4FEFB68002B05D07B6830
:10006000F968FA681846FFF795FD00BF1837BD46D6
:10007000B0BD00BF343F002080B400AFBFF34F8F4E
:1000800000BF064BDB6803F4E0620449044B1343F2
:10009000CB60BFF34F8F00BF00BFFDE700ED00E076
:1000A0000400FA0580B500AF0121044800F02CF8E7
:1000B0000221024800F04CF8FFF7DEFF00000608BE
:1000C00080B500AF0121044800F01EF8012102486C
:1000D00000F03EF8FFF7D0FF0000060880B400AF44
:1000E000024B1B781846BD4680BC70478824002010
:1000F00080B500AF00F020FE00BF80BD80B500AF2E
:1001000000F0F4FD00BF80BD80B588B000AF78601E
:1001100039603B68DB0A0133FB61FFF7EFFF002327
:10012000BB60FB697B617B683B6107F1180207F1EB
:1001300008031146184600F0A5FEFFF7D9FF034853
:10014000FEF720FD00BF2037BD4680BD683E020897
:1001500080B582B000AF78603960FFF7CFFF124BF7
:100160001B69114A43F00103136100BF0E4BDB68AA
:1001700003F00103002BF9D17B683A6892B21A8030
:1001800000BF094BDB6803F00103002BF9D1064BDC
:100190001B69054A23F001031361FFF7A9FF00BFA4
:1001A0000837BD4680BD00BF0020024080B58AB040
:1001B00000AFF860B9607A6007F110037A682049EF
:1001C000184602F04FFF07F110031846FEF7DAFC5D
:1001D000FFF794FF1B4B1B691A4A43F0010313619D
:1001E00000237B6211E000BF164BDB6803F00103C4
:1001F000002BF9D17B6ABA681344796AFA680A4419
:100200001B8813807B6A02337B627B6A7A689A421E
:10021000E9D800BF0B4BDB6803F00103002BF9D1D9
:10022000084B1B69074A23F001031361FFF760FFC6
:100230000548FEF7A7FC00BF2837BD4680BD00BFBC
:10024000783E020800200240883E020880B500AFD8
:100250000D4B1A780D4B1B789A4212D00A4B1A7824
:100260000A4B1A70084B1B78002B02D0012B04D0CC
:1002700008E00748FEF786FC04E00648FEF782FC2B
:1002800000E000BF00BF80BDB8110020B911002000
:10029000943E0208A83E020880B500AFFFF7D6FFE3
:1002A000074B1B78022B08D8054B1B78054ADB004F
:1002B00013445B689847002300E00123184680BD83
:1002C000B8110020E400002080B500AFFEF796F8DA
:1002D0000346002B02D0024B01221A7000BF80BDE2
:1002E000B811002080B500AFFEF75EFD03461A4648
:1002F000154B1A70144B1B78012B16D11348FEF7BF
:1003000041FCFFF7EBFE0346012B05D11048FEF739
:1003100039FCFFF7D5FE14E00E48FEF733FC0E4B18
:1003200002221A70FFF7BEFE0BE0074B1B78022B70
:1003300007D1FEF703FA0020FFF700FA064B002270
:100340001A7000BF80BD00BFBA110020C43E020871
:10035000D03E0208EC3E0208B811002080B500AF84
:1003600000F0EEF9FEF7BAFAFEF746FBFEF7E0FB07
:10037000FEF7ECF9FEF7F8FAFEF756FAFDF7A0FFE4
:100380000448FEF7FFFBFFF787FFFFF74DFEFFF77F
:1003900099FAF8E7083F020880B400AF72B600BFD0
:1003A000FEE7000080B485B000AF154B9B69144A8E
:1003B00043F001039361124B9B6903F00103BB609F
:1003C000BB680F4BDB690E4A43F08053D3610C4B83
:1003D000DB6903F080537B607B680A4B5B68FB60E2
:1003E000FB6823F0E063FB60FB6843F08063FB6025
:1003F000044AFB68536000BF1437BD4680BC704799
:10040000001002400000014080B588B000AF786065
:1004100007F1100300221A605A609A60DA607B6864
:100420001B68164A934224D1154BDB69144A43F4E6
:100430008043D361124BDB6903F48043FB60FB68AC
:100440000F4B9B690E4A43F0080393610C4B9B6969
:1004500003F00803BB60BB684FF420433B610223F9
:100460007B610323FB6107F110031946054800F087
:10047000B1FD00BF2037BD4680BD00BF0038004041
:1004800000100240000C014080B584B000AF7860DD
:100490007B681B680D4A934213D10D4BDB690C4AF4
:1004A00043F00203D3610A4BDB6903F00203FB60F4
:1004B000FB68002200211D2000F09FFA1D2000F0A3
:1004C000B8FA00BF1037BD4680BD00BF0004004031
:1004D0000010024080B58AB000AF786007F11803C1
:1004E00000221A605A609A60DA607B681B683C4A96
:1004F00093423AD13B4B9B693A4A43F48043936120
:10050000384B9B6903F480437B617B69354B9B6966
:10051000344A43F004039361324B9B6903F00403B4
:100520003B613B694FF40073BB610223FB61032312
:100530007B6207F1180319462B4800F04BFD4FF47E
:100540008063BB610023FB6100233B6207F118035A
:100550001946254800F03EFD00220021252000F02C
:100560004CFA252000F065FA36E07B681B681F4ACC
:10057000934231D11B4BDB691A4A43F48023D36188
:10058000184BDB6903F48023FB60FB68154B9B6908
:10059000144A43F008039361124B9B6903F008036C
:1005A000BB60BB684FF48063BB610223FB61032324
:1005B0007B6207F1180319460D4800F00BFD4FF45C
:1005C0000063BB610023FB6100233B6207F118035A
:1005D0001946074800F0FEFC00BF2837BD4680BD25
:1005E000003801400010024000080140004800406F
:1005F000000C014080B400AFFEE780B400AFFEE71E
:1006000080B400AFFEE780B400AFFEE780B400AF77
:10061000FEE780B400AF00BFBD4680BC704780B429
:1006200000AF00BFBD4680BC704780B400AF00BFC4
:10063000BD4680BC704780B500AF00F0C7F800BF72
:1006400080BD000080B500AF024801F09FFD00BFF3
:1006500080BD00BF5412002080B500AF024802F0F8
:10066000A1F800BF80BD00BFE422002080B586B0A5
:1006700000AF7860144A154BD31A7B617B693B61EC
:10068000134B1B68002B02D1114B124A1A60104BFE
:100690001A687B6813443A699A4207D202F0A2FCB6
:1006A00003460C221A604FF0FF3309E0084B1B6829
:1006B000FB60074B1A687B681344054A1360FB68AC
:1006C00018461837BD4680BD000001200004000018
:1006D000BC1100208842002080B400AF034B044AC4
:1006E0009A6000BFBD4680BC704700BF00ED00E0CF
:1006F00000E001080C480D490D4A002302E0D458DF
:10070000C4500433C4188C42F9D30A4A0A4C00235B
:1007100001E013600432A242FBD3FFF7DDFF02F0D9
:1007200067FCFFF71BFE70470000002064010020FB
:10073000D03F02086801002088420020FEE7000048
:1007400080B500AF084B1B68074A43F010031360E5
:10075000032000F047F90F2000F008F8FFF722FE11
:100760000023184680BD00BF0020024080B582B043
:1007700000AF7860124B1A68124B1B7819464FF481
:100780007A73B3FBF1F3B2FBF3F3184600F05FF9B1
:100790000346002B01D001230EE07B680F2B0AD803
:1007A000002279684FF0FF3000F027F9064A7B6895
:1007B0001360002300E0012318460837BD4680BDC2
:1007C000F4000020FC000020F800002080B400AFFE
:1007D000054B1B781A46054B1B681344034A1360EC
:1007E00000BFBD4680BC7047FC0000205442002082
:1007F00080B400AF024B1B681846BD4680BC7047F2
:100800005442002080B584B000AF7860FFF7F0FF5D
:10081000B8607B68FB60FB68B3F1FF3F05D00A4B13
:100820001B781A46FB681344FB6000BFFFF7E0FF2C
:100830000246BB68D31AFA689A42F7D800BF00BFD5
:100840001037BD4680BD00BFFC00002080B485B0DD
:1008500000AF78607B6803F00703FB600C4BDB683C
:10086000BB60BA684FF6FF031340BB60FB681A0217
:10087000BB68134343F0BF6343F40033BB60044AD7
:10088000BB68D36000BF1437BD4680BC704700BF53
:1008900000ED00E080B400AF044BDB681B0A03F0FE
:1008A00007031846BD4680BC704700BF00ED00E05E
:1008B00080B483B000AF0346FB7197F90730002B7B
:1008C0000BDBFB7903F01F02064997F907305B0940
:1008D000012000FA02F241F8232000BF0C37BD4688
:1008E00080BC704700E100E080B483B000AF0346F5
:1008F0003960FB7197F90730002B0ADB3B68DAB2ED
:100900000C4997F907301201D2B20B4483F8002347
:100910000AE03B68DAB20849FB7903F00F03043BB5
:100920001201D2B20B441A7600BF0C37BD4680BC10
:10093000704700BF00E100E000ED00E080B489B046
:1009400000AFF860B9607A60FB6803F00703FB61F1
:10095000FB69C3F10703042B28BF0423BB61FB69B8
:100960000433062B02D9FB69033B00E000237B61C3
:100970004FF0FF32BB6902FA03F3DA43BB681A4057
:100980007B699A404FF0FF317B6901FA03F3D94349
:100990007B680B40134318462437BD4680BC704724
:1009A00080B582B000AF78607B68013BB3F1807F97
:1009B00001D301230FE00A4A7B68013B53600F21FA
:1009C0004FF0FF30FFF790FF054B00229A60044B79
:1009D00007221A60002318460837BD4680BD00BFB5
:1009E00010E000E080B582B000AF78607868FFF773
:1009F0002DFF00BF0837BD4680BD80B586B000AF73
:100A00000346B9607A60FB7300237B61FFF742FF06
:100A100078617A68B9687869FFF790FF024697F9BC
:100A20000F3011461846FFF75FFF00BF1837BD466D
:100A300080BD80B582B000AF0346FB7197F90730E7
:100A40001846FFF735FF00BF0837BD4680BD80B5AB
:100A500082B000AF78607868FFF7A2FF03461846BF
:100A60000837BD4680BD80B485B000AF78600023F4
:100A7000FB737B6893F82130022B08D07B6804223B
:100A80009A637B68002283F82020012320E07B68A2
:100A90001B681A687B681B6822F00E021A607B686C
:100AA0001B681A687B681B6822F001021A607B6869
:100AB0001A6C7B68DB6B012101FA02F25A607B68D9
:100AC000012283F821207B68002283F82020FB7B11
:100AD00018461437BD4680BC7047000080B584B00E
:100AE00000AF78600023FB737B6893F82130022B02
:100AF00005D07B6804229A630123FB73D6E07B68F0
:100B00001B681A687B681B6822F00E021A607B68FB
:100B10001B681A687B681B6822F001021A607B68F8
:100B20001B681A46644B9A4258D97B681B68634A13
:100B300093424FD07B681B68614A934248D07B68E0
:100B40001B68604A934240D07B681B685E4A9342B0
:100B500038D07B681B685D4A934230D07B681B6845
:100B60005B4A934228D07B681B68534A934220D04B
:100B70007B681B68574A934219D07B681B68564AAA
:100B8000934212D07B681B68544A93420AD07B6818
:100B90001B68534A934202D14FF480531BE04FF439
:100BA000803318E04FF4807315E0102313E0012325
:100BB00011E04FF080730EE04FF480130BE04FF420
:100BC000803308E04FF4805305E04FF4807302E077
:100BD000102300E00123434A536057E07B681B6801
:100BE000364A93424FD07B681B68354A934248D0BF
:100BF0007B681B68334A934240D07B681B68324A4B
:100C0000934238D07B681B68304A934230D07B686F
:100C10001B682F4A934228D07B681B68264A934260
:100C200020D07B681B682B4A934219D07B681B68D5
:100C3000294A934212D07B681B68284A93420AD003
:100C40007B681B68264A934202D14FF480531BE015
:100C50004FF4803318E04FF4807315E0102313E055
:100C6000012311E04FF080730EE04FF480130BE08E
:100C70004FF4803308E04FF4805305E04FF4807365
:100C800002E0102300E00123174A53607B68012231
:100C900083F821207B68002283F820207B685B6B2F
:100CA000002B03D07B685B6B78689847FB7B18460A
:100CB0001037BD4680BD00BF8000024008000240E2
:100CC0001C00024030000240440002405800024034
:100CD0006C000240080402401C0402403004024040
:100CE00044040240000402400000024080B483B08B
:100CF00000AF0023FB710D4B1B6903F08003002B39
:100D00000DD00A4B0A4A5A60084B0A4A5A60074BF0
:100D10001B6903F08003002B01D00123FB71FB79D9
:100D200018460C37BD4680BC704700BF002002400B
:100D300023016745AB89EFCD80B400AF054B1B693C
:100D4000044A43F08003136100231846BD4680BC6B
:100D5000704700BF0020024080B584B000AF7860CB
:100D6000FFF746FDF86010E07B68B3F1FF3F0CD061
:100D70007B68002B07D0FFF73BFD0246FB68D31AC8
:100D80007A689A4201D2032325E0154BDB6803F011
:100D90000103002BE8D1124BDB6803F02003002B8A
:100DA00002D00F4B2022DA600D4BDB6803F01003FA
:100DB000002B0BD10A4BDB6903F00103002B05D19B
:100DC000074BDB6803F00403002B03D000F00AF8A4
:100DD000012300E0002318461037BD4680BD00BF48
:100DE0000020024080B483B000AF00237B60234B1F
:100DF000DB6803F01003002B09D0214BDB6943F0C3
:100E000002031F4AD3617B6843F010037B601B4BD6
:100E1000DB6803F00403002B09D0194BDB6943F0B6
:100E20000103174AD3617B6843F004037B60134BD3
:100E3000DB6903F00103002B0BD0114BDB6943F09E
:100E400004030F4AD3610D4BDB690C4A23F0010305
:100E5000D3617B6840F20112934206D1074BDB69F4
:100E6000064A23F00103D36102E0044A7B68D360A1
:100E700000BF0C37BD4680BC704700BF0020024059
:100E80005842002080B584B000AF786039600123FB
:100E9000FB730023BB602F4B1B7E012B01D1022370
:100EA00053E02C4B01221A767B681B68022B16D16B
:100EB0004CF25030FFF750FF0346002B41D1012088
:100EC00000F04CF84CF25030FFF746FF0346FB733E
:100ED000214B1B69204A23F00403136131E04CF2DB
:100EE0005030FFF739FF0346002B2AD13B684FF003
:100EF000FF321A607B689B68BB6019E0B86800F03D
:100F000049F84CF25030FFF727FF0346FB73124BB2
:100F10001B69114A23F002031361FB7B002B03D0F2
:100F20003B68BA681A600CE0BB6803F50063BB60FD
:100F30007B68DB68DA027B689B681344BA689A4274
:100F4000DCD3044B00221A76FB7B18461037BD46D3
:100F500080BD00BF584200200020024080B483B012
:100F600000AF7860094B0022DA61094B1B69084A1F
:100F700043F004031361064B1B69054A43F0400329
:100F8000136100BF0C37BD4680BC7047584200203B
:100F90000020024080B483B000AF78600B4B002289
:100FA000DA610B4B1B690A4A43F002031361084ADA
:100FB0007B685361064B1B69054A43F0400313618C
:100FC00000BF0C37BD4680BC704700BF58420020B0
:100FD0000020024080B48BB000AF786039600023FD
:100FE0007B6200233B6279E101227B6A02FA03F310
:100FF000FB613B681B68FA691340BB61BA69FB6916
:101000009A4240F068813B685B68A04A93425ED098
:101010009E4A934275D89E4A934258D09C4A934226
:101020006FD89C4A934252D09A4A934269D89A4ABE
:1010300093424CD0984A934263D8984A934246D000
:10104000964A93425DD8122B2AD8122B59D801A266
:1010500052F823F0CF100208A9100208BB100208B2
:10106000FD1002080311020803110208031102080F
:1010700003110208031102080311020803110208F8
:1010800003110208031102080311020803110208E8
:101090000311020803110208B1100208C51002086A
:1010A0007F4A934213D02CE03B68DB683B6229E027
:1010B0003B68DB6804333B6224E03B68DB68083351
:1010C0003B621FE03B68DB680C333B621AE03B6825
:1010D0009B68002B02D104233B6213E03B689B68B2
:1010E000012B05D108233B627B68FA691A6109E08C
:1010F00008233B627B68FA695A6103E000233B6284
:1011000000E000BFBB69FF2B01D87B6801E07B6872
:1011100004337B61BB69FF2B02D87B6A9B0002E032
:101120007B6A083B9B003B617B691A680F213B6926
:1011300001FA03F3DB431A40396A3B6901FA03F30E
:101140001A437B691A603B685B6803F08053002B8D
:1011500000F0C180534B9B69524A43F001039361F5
:10116000504B9B6903F00103BB60BB684E4A7B6A2E
:101170009B08023352F82330FB607B6A03F00303C1
:101180009B000F2202FA03F3DB43FA681340FB6073
:101190007B68464A93421FD07B68454A934219D0E8
:1011A0007B68444A934213D07B68434A93420DD0F4
:1011B0007B68424A934207D07B68414A934201D1FF
:1011C00005230AE0062308E0042306E0032304E0E5
:1011D000022302E0012300E000237A6A02F0030206
:1011E00092009340FA681343FB602F497B6A9B0887
:1011F0000233FA6841F823203B685B6803F48033CC
:10120000002B06D02F4B1A682E49BB6913430B6085
:1012100006E02C4B1A68BB69DB432A4913400B607C
:101220003B685B6803F40033002B06D0254B5A68FB
:101230002449BB6913434B6006E0224B5A68BB69E3
:10124000DB43204913404B603B685B6803F4801329
:10125000002B06D01B4B9A681A49BB6913438B605D
:1012600006E0184B9A68BB69DB43164913408B6054
:101270003B685B6803F40013002B25D0114BDA6840
:101280001049BB691343CB6025E000BF000032105A
:101290000000311000002210000021100000121088
:1012A0000000111000100240000001400008014041
:1012B000000C0140001001400014014000180140E2
:1012C000001C0140000401400B4BDA68BB69DB43A2
:1012D00009491340CB607B6A01337B623B681A6823
:1012E0007B6A22FA03F3002B7FF47EAE00BF00BFBF
:1012F0002C37BD4680BC70470004014080B483B0E9
:1013000000AF78600B467B8013467B707B78002BA8
:1013100003D07A887B681A6103E07B881A047B68B3
:101320001A6100BF0C37BD4680BC704780B586B0DF
:1013300000AF78607B68002B01D101236CE27B68F1
:101340001B6803F00103002B00F08780924B5B6861
:1013500003F00C03042B0CD08F4B5B6803F00C03E1
:10136000082B12D18C4B5B6803F48033B3F5803FBC
:101370000BD1894B1B6803F40033002B6CD07B68C6
:101380005B68002B68D1012346E27B685B68B3F59C
:10139000803F06D1804B1B687F4A43F48033136043
:1013A0002EE07B685B68002B0CD17B4B1B687A4A74
:1013B00023F480331360784B1B68774A23F480232F
:1013C00013601DE07B685B68B3F5A02F0CD1724BF6
:1013D0001B68714A43F4802313606F4B1B686E4A8D
:1013E00043F4803313600BE06B4B1B686A4A23F4B1
:1013F00080331360684B1B68674A23F480231360B3
:101400007B685B68002B13D0FFF7F2F9386108E0C6
:10141000FFF7EEF902463B69D31A642B01D9032387
:10142000FAE15D4B1B6803F40033002BF0D014E0AD
:10143000FFF7DEF9386108E0FFF7DAF902463B69A9
:10144000D31A642B01D90323E6E1534B1B6803F441
:101450000033002BF0D100E000BF7B681B6803F075
:101460000203002B63D04C4B5B6803F00C03002B92
:101470000BD0494B5B6803F00C03082B1CD1464B87
:101480005B6803F48033002B16D1434B1B6803F0D9
:101490000203002B05D07B681B69012B01D00123BF
:1014A000BAE13D4B1B6823F0F8027B685B69DB0007
:1014B000394913430B603AE07B681B69002B20D04D
:1014C000364B01221A60FFF793F9386108E0FFF705
:1014D0008FF902463B69D31A022B01D903239BE102
:1014E0002D4B1B6803F00203002BF0D02A4B1B6826
:1014F00023F0F8027B685B69DB00274913430B602C
:1015000015E0264B00221A60FFF772F9386108E0F7
:10151000FFF76EF902463B69D31A022B01D9032368
:101520007AE11D4B1B6803F00203002BF0D17B68AE
:101530001B6803F00803002B3AD07B689B69002BE3
:1015400019D0174B01221A60FFF752F9386108E0F1
:10155000FFF74EF902463B69D31A022B01D9032348
:101560005AE10D4B5B6A03F00203002BF0D001201F
:1015700000F0D8FA1CE00A4B00221A60FFF738F995
:1015800038610FE0FFF734F902463B69D31A022BAA
:1015900008D9032340E100BF00100240000042428E
:1015A000800442429E4B5B6A03F00203002BE9D1A8
:1015B0007B681B6803F00403002B00F0A680002367
:1015C000FB75974BDB6903F08053002B0DD1944BD7
:1015D000DB69934A43F08053D361914BDB6903F09D
:1015E0008053BB60BB680123FB758E4B1B6803F403
:1015F0008073002B18D18B4B1B688A4A43F480738D
:101600001360FFF7F5F8386108E0FFF7F1F80246DC
:101610003B69D31A642B01D90323FDE0814B1B687E
:1016200003F48073002BF0D07B68DB68012B06D1BC
:101630007B4B1B6A7A4A43F0010313622DE07B68FF
:10164000DB68002B0CD1764B1B6A754A23F0010333
:101650001362734B1B6A724A23F0040313621CE08B
:101660007B68DB68052B0CD16D4B1B6A6C4A43F021
:10167000040313626A4B1B6A694A43F00103136255
:101680000BE0674B1B6A664A23F001031362644B4D
:101690001B6A634A23F0040313627B68DB68002B38
:1016A00015D0FFF7A5F838610AE0FFF7A1F8024668
:1016B0003B69D31A41F28832934201D90323ABE04C
:1016C000574B1B6A03F00203002BEED014E0FFF728
:1016D0008FF838610AE0FFF78BF802463B69D31AAE
:1016E00041F28832934201D9032395E04C4B1B6AA7
:1016F00003F00203002BEED1FB7D012B05D1484BFB
:10170000DB69474A23F08053D3617B68DB69002B98
:1017100000F08180424B5B6803F00C03082B61D022
:101720007B68DB69022B46D13F4B00221A60FFF732
:101730005FF8386108E0FFF75BF802463B69D31AAF
:10174000022B01D9032367E0354B1B6803F00073BC
:10175000002BF0D17B681B6AB3F5803F08D1304B7A
:101760005B6823F400327B689B682D4913434B6010
:101770002B4B5B6823F474127B68196A7B685B6A85
:101780000B43274913434B60274B01221A60FFF795
:101790002FF8386108E0FFF72BF802463B69D31AAF
:1017A000022B01D9032337E01D4B1B6803F00073A4
:1017B000002BF0D02FE01C4B00221A60FFF718F826
:1017C000386108E0FFF714F802463B69D31A022B90
:1017D00001D9032320E0124B1B6803F00073002B98
:1017E000F0D118E07B68DB69012B01D1012313E004
:1017F0000B4B5B68FB60FB6803F480327B681B6A01
:101800009A4206D1FB6803F470127B685B6A9A42C5
:1018100001D0012300E0002318461837BD4680BDE3
:1018200000100240007000406000424280B584B069
:1018300000AF786039607B68002B01D10123D0E0D4
:101840006A4B1B6803F007033A689A4210D9674B4A
:101850001B6823F0070265493B6813430B60634B29
:101860001B6803F007033A689A4201D00123B8E0ED
:101870007B681B6803F00203002B20D07B681B6889
:1018800003F00403002B05D0594B5B68584A43F41E
:10189000E06353607B681B6803F00803002B05D0EE
:1018A000534B5B68524A43F460535360504B5B6840
:1018B00023F0F0027B689B684D4913434B607B68C3
:1018C0001B6803F00103002B40D07B685B68012B91
:1018D00007D1474B1B6803F40033002B15D10123BC
:1018E0007FE07B685B68022B07D1414B1B6803F0EC
:1018F0000073002B09D1012373E03D4B1B6803F0FB
:101900000203002B01D101236BE0394B5B6823F00C
:1019100003027B685B68364913434B60FEF768FF40
:10192000F8600AE0FEF764FF0246FB68D31A41F252
:101930008832934201D9032353E02D4B5B6803F0B7
:101940000C027B685B689B009A42EBD1274B1B68BB
:1019500003F007033A689A4210D2244B1B6823F025
:10196000070222493B6813430B60204B1B6803F0BE
:1019700007033A689A4201D0012332E07B681B6872
:1019800003F00403002B08D0194B5B6823F4E062DA
:101990007B68DB68164913434B607B681B6803F068
:1019A0000803002B09D0124B5B6823F460527B685C
:1019B0001B69DB000E4913434B6000F021F802461F
:1019C0000B4B5B681B0903F00F030A49CB5C22FA3F
:1019D00003F3094A1360094B1B681846FEF7C6FE5D
:1019E000002318461037BD4680BD00BF00200240CE
:1019F000001002407C3F0208F4000020F8000020A4
:101A000090B48AB000AF2A4B3C1D0FCB84E80F0086
:101A100040F201233B800023FB610023BB610023D4
:101A20007B6200237B6100233B62224B5B68FB618E
:101A3000FB6903F00C03042B02D0082B03D02DE02C
:101A40001D4B3B622DE0FB699B0C03F00F0307F17C
:101A50002802134413F8243C7B61FB6903F48033B0
:101A6000002B13D0134B5B685B0C03F0010307F1F1
:101A70002802134413F8283CBB617B690E4A02FB21
:101A800003F2BB69B2FBF3F37B6204E07B690B4AB0
:101A900002FB03F37B627B6A3B6202E0064B3B6224
:101AA00000BF3B6A18462837BD4690BC704700BF50
:101AB000203F02080010024000127A0000093D0099
:101AC00080B400AF024B1B681846BD4680BC70470F
:101AD000F400002080B500AFFFF7F2FF0246054B8F
:101AE0005B681B0A03F007030349CB5C22FA03F38C
:101AF000184680BD001002408C3F020880B500AF40
:101B0000FFF7DEFF0246054B5B68DB0A03F00703C5
:101B10000349CB5C22FA03F3184680BD0010024053
:101B20008C3F020880B485B000AF78600A4B1B6818
:101B30000A4AA2FB03235B0A7A6802FB03F3FB60F9
:101B400000BFFB685A1EFA60002BF9D100BF00BF2E
:101B50001437BD4680BC7047F4000020D34D62109E
:101B600080B582B000AF78607B68002B01D1012383
:101B700076E07B685B6A002B08D17B685B68B3F515
:101B8000827F09D07B680022DA6105E07B68002251
:101B90001A617B6800225A617B6800229A627B6826
:101BA00093F85130DBB2002B06D17B68002283F81A
:101BB00050207868FEF728FC7B68022283F85120C9
:101BC0007B681B681A687B681B6822F040021A60F9
:101BD0007B685B6803F482727B689B6803F4044350
:101BE0001A437B68DB6803F400631A437B681B6954
:101BF00003F002031A437B685B6903F001031A4395
:101C00007B689B6903F400731A437B68DB6903F00C
:101C100038031A437B681B6A03F0800342EA03011E
:101C20007B689B6A03F400527B681B680A431A6056
:101C30007B689B691A0C7B681B6802F004025A607F
:101C40007B681B68DA697B681B6822F40062DA61D2
:101C50007B6800225A657B68012283F851200023AB
:101C600018460837BD4680BD80B588B000AFF86023
:101C7000B9603B601346FB800023FB77FB6893F859
:101C80005030012B01D1022326E1FB68012283F8A9
:101C90005020FEF7ADFDB861FB88FB82FB6893F82E
:101CA0005130DBB2012B02D00223FB770BE1BB6882
:101CB000002B02D0FB88002B02D10123FB7702E12D
:101CC000FB68032283F85120FB6800225A65FB68F9
:101CD000BA681A63FB68FA889A86FB68FA88DA861B
:101CE000FB6800229A63FB6800229A87FB68002247
:101CF000DA87FB6800225A64FB6800221A64FB68DA
:101D00009B68B3F5004F0FD1FB681B681A68FB682E
:101D10001B6822F040021A60FB681B681A68FB68A7
:101D20001B6842F480421A60FB681B681B6803F062
:101D30004003402B07D0FB681B681A68FB681B68D0
:101D400042F040021A60FB68DB68B3F5006F4BD1CC
:101D5000FB685B68002B02D0FB8A012B3ED1FB683D
:101D60001B6B1A88FB681B68DA60FB681B6B9A1C8C
:101D7000FB681A63FB68DB8E9BB2013B9AB2FB687F
:101D8000DA862BE0FB681B689B6803F00203022BDA
:101D900012D1FB681B6B1A88FB681B68DA60FB6852
:101DA0001B6B9A1CFB681A63FB68DB8E9BB2013BC2
:101DB0009AB2FB68DA8611E0FEF71AFD0246BB69AB
:101DC000D31A3A689A4203D83B68B3F1FF3F02D175
:101DD0003B68002B02D10323FB7774E0FB68DB8EAA
:101DE0009BB2002BCED14CE0FB685B68002B02D08D
:101DF000FB8A012B40D1FB681A6BFB681B680C3314
:101E000012781A70FB681B6B5A1CFB681A63FB681C
:101E1000DB8E9BB2013B9AB2FB68DA862CE0FB6852
:101E20001B689B6803F00203022B13D1FB681A6B3B
:101E3000FB681B680C3312781A70FB681B6B5A1C0A
:101E4000FB681A63FB68DB8E9BB2013B9AB2FB68AE
:101E5000DA8611E0FEF7CCFC0246BB69D31A3A6879
:101E60009A4203D83B68B3F1FF3F02D13B68002B95
:101E700002D10323FB7726E0FB68DB8E9BB2002BAD
:101E8000CDD1BA693968F86800F0B2F80346002B82
:101E900002D0FB6820225A65FB689B68002B0AD1A0
:101EA00000233B61FB681B68DB683B61FB681B68C8
:101EB0009B683B613B69FB685B6D002B02D0012393
:101EC000FB7700E000BFFB68012283F85120FB682C
:101ED000002283F85020FB7F18462037BD4680BD86
:101EE00080B588B000AFF860B9603B601346FB7105
:101EF000FEF77EFC0246BB6A9B1A3A681344FB61FC
:101F0000FEF776FCB861394B1B685B011B0DFA6963
:101F100002FB03F37B6154E03B68B3F1FF3F50D019
:101F2000FEF766FC0246BB69D31AFA699A4202D9E7
:101F3000FB69002B3DD1FB681B685A68FB681B6876
:101F400022F0E0025A60FB685B68B3F5827F11D132
:101F5000FB689B68B3F5004F04D0FB689B68B3F542
:101F6000806F07D1FB681B681A68FB681B6822F04A
:101F700040021A60FB689B6AB3F5005F0FD1FB68F3
:101F80001B681A68FB681B6822F400521A60FB6821
:101F90001B681A68FB681B6842F400521A60FB68F1
:101FA000012283F85120FB68002283F8502003238C
:101FB00017E07B69002B01D10023FB617B69013BAA
:101FC0007B61FB681B689A68BB681340BA689A42D9
:101FD0000CBF01230023DBB21A46FB799A429BD146
:101FE000002318462037BD4680BD00BFF400002006
:101FF00080B586B002AFF860B9607A607B68009304
:10200000BB6800228021F868FFF76AFF0346002BB7
:1020100007D0FB685B6D43F02002FB685A65032321
:1020200000E0002318461037BD4680BD80B582B061
:1020300000AF78607B68002B01D1012341E07B6811
:1020400093F83D30DBB2002B06D17B68002283F889
:102050003C207868FEF718FA7B68022283F83D205E
:102060007B681A687B6804331946104600F0BAF999
:102070007B68012283F846207B68012283F83E209A
:102080007B68012283F83F207B68012283F840208F
:102090007B68012283F841207B68012283F842207B
:1020A0007B68012283F843207B68012283F8442067
:1020B0007B68012283F845207B68012283F83D205C
:1020C000002318460837BD4680BD000080B485B0A7
:1020D00000AF78607B6893F83D30DBB2012B01D014
:1020E000012344E07B68022283F83D207B681B6863
:1020F000DA687B681B6842F00102DA607B681B6863
:102100001D4A934218D07B681B681C4A934213D027
:102110007B681B68B3F1804F0ED07B681B68184A40
:10212000934209D07B681B68164A934204D07B68AF
:102130001B68154A934211D17B681B689B6803F0AA
:102140000703FB60FB68062B10D07B681B681A68CE
:102150007B681B6842F001021A6007E07B681B681D
:102160001A687B681B6842F001021A600023184657
:102170001437BD4680BC7047002C0140003401403C
:102180000004004000080040000C004080B582B010
:1021900000AF78607B681B681B6903F00203022BA9
:1021A00022D17B681B68DB6803F00203022B1BD182
:1021B0007B681B686FF002021A617B6801221A7744
:1021C0007B681B689B6903F00303002B03D07868CE
:1021D00000F0EDF805E0786800F0E0F8786800F0CD
:1021E000EFF87B6800221A777B681B681B6903F095
:1021F0000403042B22D17B681B68DB6803F0040313
:10220000042B1BD17B681B686FF004021A617B688A
:1022100002221A777B681B689B6903F44073002BCA
:1022200003D0786800F0C3F805E0786800F0B6F8ED
:10223000786800F0C5F87B6800221A777B681B6815
:102240001B6903F00803082B22D17B681B68DB683D
:1022500003F00803082B1BD17B681B686FF0080292
:102260001A617B6804221A777B681B68DB6903F0BC
:102270000303002B03D0786800F099F805E0786834
:1022800000F08CF8786800F09BF87B6800221A77E1
:102290007B681B681B6903F01003102B22D17B683D
:1022A0001B68DB6803F01003102B1BD17B681B68D5
:1022B0006FF010021A617B6808221A777B681B682E
:1022C000DB6903F44073002B03D0786800F06FF8EB
:1022D00005E0786800F062F8786800F071F87B68D3
:1022E00000221A777B681B681B6903F00103012B2E
:1022F0000ED17B681B68DB6803F00103012B07D15B
:102300007B681B686FF001021A617868FCF76AFB52
:102310007B681B681B6903F08003802B0ED17B68F0
:102320001B68DB6803F08003802B07D17B681B6888
:102330006FF080021A61786800F0D7F87B681B683C
:102340001B6903F04003402B0ED17B681B68DB68E0
:1023500003F04003402B07D17B681B686FF04002FD
:102360001A61786800F035F87B681B681B6903F018
:102370002003202B0ED17B681B68DB6803F0200351
:10238000202B07D17B681B686FF020021A617868E8
:1023900000F0A2F800BF0837BD4680BD80B483B00E
:1023A00000AF786000BF0C37BD4680BC704780B47A
:1023B00083B000AF786000BF0C37BD4680BC70476B
:1023C00080B483B000AF786000BF0C37BD4680BCDE
:1023D000704780B483B000AF786000BF0C37BD4653
:1023E00080BC704780B485B000AF786039607B688E
:1023F0001B68FB607B68334A934213D07B68324A88
:1024000093420FD07B68B3F1804F0BD07B682F4A8B
:10241000934207D07B682E4A934203D07B682D4AB3
:10242000934208D1FB6823F07003FB603B685B6854
:10243000FA681343FB607B68224A934213D07B689F
:10244000214A93420FD07B68B3F1804F0BD07B6859
:102450001E4A934207D07B681D4A934203D07B6893
:102460001C4A934208D1FB6823F44073FB603B682D
:10247000DB68FA681343FB60FB6823F080023B686B
:102480005B691343FB607B68FA681A603B689A6873
:102490007B68DA623B681A687B689A627B68094AE3
:1024A000934203D07B68084A934203D13B681A6980
:1024B0007B681A637B6801225A6100BF1437BD46EE
:1024C00080BC7047002C01400034014000040040F3
:1024D00000080040000C004080B483B000AF78607A
:1024E00000BF0C37BD4680BC704780B483B000AFDE
:1024F000786000BF0C37BD4680BC704780B582B0A5
:1025000000AF78607B68002B01D101233FE07B683E
:1025100093F83D30DBB2002B06D17B68002283F8B4
:102520003C207868FDF7D6FF7B68242283F83D20A5
:102530007B681B68DA687B681B6822F40052DA60EB
:10254000786800F0C1FC7B681B681A697B681B68AF
:1025500022F490421A617B681B685A697B681B6889
:1025600022F02A025A617B681B68DA687B681B6864
:1025700042F40052DA607B6800221A647B682022F1
:1025800083F83D207B68202283F83E2000231846F4
:102590000837BD4680BD80B58AB002AFF860B9602B
:1025A0003B601346FB8000237B61FB6893F83D3062
:1025B000DBB2202B7CD1BB68002B02D0FB88002B28
:1025C00001D1012375E0FB6893F83C30012B01D168
:1025D00002236EE0FB68012283F83C20FB680022A6
:1025E0001A64FB68212283F83D20FEF701F9786127
:1025F000FB68FA889A84FB68FA88DA84FB689B682F
:10260000B3F5805F08D1FB681B69002B04D1002360
:10261000FB61BB68BB6103E0BB68FB610023BB617E
:10262000FB68002283F83C202AE03B6800937B692A
:1026300000228021F86800F073FA0346002B01D0D5
:10264000032336E0FB69002B0BD1BB691B881A46BC
:10265000FB681B68C2F308025A60BB690233BB61A6
:1026600007E0FB691A78FB681B685A60FB69013355
:10267000FB61FB68DB8C9BB2013B9AB2FB68DA849E
:10268000FB68DB8C9BB2002BCFD13B6800937B694E
:1026900000224021F86800F043FA0346002B01D0E5
:1026A000032306E0FB68202283F83D20002300E09E
:1026B000022318462037BD4680BD80B485B000AFE8
:1026C000F860B9601346FB80FB6893F83D30DBB2DD
:1026D000202B30D1BB68002B02D0FB88002B01D10E
:1026E000012329E0FB6893F83C30012B01D1022340
:1026F00022E0FB68012283F83C20FB68BA681A627A
:10270000FB68FA889A84FB68FA88DA84FB680022FE
:102710001A64FB68212283F83D20FB68002283F8BD
:102720003C20FB681B68DA68FB681B6842F080028B
:10273000DA60002300E0022318461437BD4680BC4F
:10274000704780B584B000AFF860B9601346FB8075
:10275000FB6893F83E30DBB2202B1DD1BB68002B09
:1027600002D0FB88002B01D1012316E0FB6893F80F
:102770003C30012B01D102230FE0FB68012283F8DA
:102780003C20FB6800221A63FB881A46B968F86887
:1027900000F010FA034600E0022318461037BD4649
:1027A00080BD000080B58AB000AF78607B681B6890
:1027B0001B687B627B681B68DB683B627B681B680D
:1027C0005B69FB610023BB6100237B617B6A03F0D3
:1027D0000F03BB61BB69002B0DD17B6A03F02003A3
:1027E000002B08D03B6A03F02003002B03D078684D
:1027F00000F0C0FA7BE1BB69002B00F0B180FB69FF
:1028000003F00103002B05D13B6A03F49073002B06
:1028100000F0A6807B6A03F00103002B0AD03B6A1C
:1028200003F48073002B05D07B681B6C43F001021E
:102830007B681A647B6A03F00403002B0AD0FB69EF
:1028400003F00103002B05D07B681B6C43F00202F0
:102850007B681A647B6A03F00203002B0AD0FB69D1
:1028600003F00103002B05D07B681B6C43F00402CE
:102870007B681A647B6A03F00803002B0FD03B6A65
:1028800003F02003002B04D1FB6903F00103002BAC
:1028900005D07B681B6C43F008027B681A647B6878
:1028A0001B6C002B00F01E817B6A03F02003002BC1
:1028B00007D03B6A03F02003002B02D0786800F0B9
:1028C00059FA7B681B685B6903F04003002B14BF57
:1028D00001230023DBB27B617B681B6C03F00803E0
:1028E000002B02D17B69002B31D0786800F09BF976
:1028F0007B681B685B6903F04003002B23D07B6877
:102900001B685A697B681B6822F040025A617B6829
:102910009B6B002B13D07B689B6B764A5A637B685A
:102920009B6B1846FEF7DAF80346002B16D07B683F
:102930009B6B5B6B7A68926B104698470EE07868E9
:1029400000F0DAF80AE0786800F0D6F806E0786877
:1029500000F0D2F87B6800221A64C3E000BFC1E037
:102960007B681B6B012B40F0A1807B6A03F0100396
:10297000002B00F09B803B6A03F01003002B00F05B
:1029800095800023FB607B681B681B68FB607B688D
:102990001B685B68FB60FB687B681B685B6903F016
:1029A0004003002B4ED07B689B6B1B685B683B82AF
:1029B0003B8A002B00F098807B689B8D3A8A9A4274
:1029C00080F092807B683A8ADA857B689B6B9B6992
:1029D000202B2BD07B681B68DA687B681B6822F48D
:1029E0008072DA607B681B685A697B681B6822F01A
:1029F00001025A617B681B685A697B681B6822F078
:102A000040025A617B68202283F83E207B680022C6
:102A10001A637B681B68DA687B681B6822F0100207
:102A2000DA607B689B6B1846FEF71DF87B689A8D11
:102A30007B68DB8D9BB2D31A9BB21946786800F095
:102A400064F851E07B689A8D7B68DB8D9BB2D31A6A
:102A50007B827B68DB8D9BB2002B47D07B8A002B6F
:102A600044D07B681B68DA687B681B6822F490722C
:102A7000DA607B681B685A697B681B6822F0010278
:102A80005A617B68202283F83E207B6800221A630B
:102A90007B681B68DA687B681B6822F01002DA60CA
:102AA0007B8A1946786800F030F81FE07B6A03F0F3
:102AB0008003002B08D03B6A03F08003002B03D077
:102AC000786800F0F0F812E07B6A03F04003002B16
:102AD0000DD03B6A03F04003002B08D0786800F06B
:102AE00031F904E000BF02E000BF00E000BF28377A
:102AF000BD4680BD7F2C020880B483B000AF7860F3
:102B000000BF0C37BD4680BC704780B483B000AFB7
:102B100078600B467B8000BF0C37BD4680BC704799
:102B200080B584B000AFF860B9603B601346FB71BC
:102B30002CE0BB69B3F1FF3F28D0BB69002B07D065
:102B4000FDF756FE02463B68D31ABA699A421DD277
:102B5000FB681B68DA68FB681B6822F4D072DA60D5
:102B6000FB681B685A69FB681B6822F001025A6106
:102B7000FB68202283F83D20FB68202283F83E205A
:102B8000FB68002283F83C2003230FE0FB681B68EE
:102B90001A68BB681340BA689A420CBF012300232D
:102BA000DBB21A46FB799A42C3D00023184610378D
:102BB000BD4680BD80B485B000AFF860B9601346F3
:102BC000FB80FB68BA689A62FB68FA889A85FB68A2
:102BD000FA88DA85FB6800221A64FB68222283F8EF
:102BE0003E20FB68002283F83C20FB681B68DA6803
:102BF000FB681B6842F48072DA60FB681B685A69E4
:102C0000FB681B6842F001025A61FB681B68DA68C6
:102C1000FB681B6842F02002DA6000231846143774
:102C2000BD4680BC704780B483B000AF78607B68DD
:102C30001B68DA687B681B6822F49072DA607B6834
:102C40001B685A697B681B6822F001025A617B6825
:102C50001B6B012B07D17B681B68DA687B681B68DC
:102C600022F01002DA607B68202283F83E207B6825
:102C700000221A6300BF0C37BD4680BC704780B588
:102C800084B000AF78607B685B6AFB60FB68002201
:102C9000DA85FB680022DA84F868FFF72DFF00BFB1
:102CA0001037BD4680BD80B485B000AF78607B68CA
:102CB00093F83D30DBB2212B3ED17B689B68B3F5A6
:102CC000805F14D17B681B69002B10D17B681B6A65
:102CD000FB60FB681B881A467B681B68C2F308020E
:102CE0005A607B681B6A9A1C7B681A6208E07B68E2
:102CF0001B6A591C7A6811621A787B681B685A60D3
:102D00007B68DB8C9BB2013B9BB27A681946D1840D
:102D1000002B0FD17B681B68DA687B681B6822F088
:102D20008002DA607B681B68DA687B681B6842F0A7
:102D30004002DA60002300E0022318461437BD4643
:102D400080BC704780B582B000AF78607B681B683C
:102D5000DA687B681B6822F04002DA607B68202218
:102D600083F83D207868FBF785FF00231846083775
:102D7000BD4680BD80B586B000AF78607B6893F8B3
:102D80003E30DBB2222B40F099807B689B68B3F524
:102D9000805F17D17B681B69002B13D100237B61F7
:102DA0007B689B6A3B617B681B685B689BB2C3F373
:102DB00008039AB23B691A807B689B6A9A1C7B68FD
:102DC0009A6226E07B689B6A7B6100233B617B689B
:102DD0009B68B3F5805F07D07B689B68002B0AD1A6
:102DE0007B681B69002B06D17B681B685B68DAB2C5
:102DF0007B691A7008E07B681B685B68DBB203F0D4
:102E00007F03DAB27B691A707B689B6A5A1C7B6805
:102E10009A627B68DB8D9BB2013B9BB27A68194654
:102E2000D185002B48D17B681B68DA687B681B68FA
:102E300022F02002DA607B681B68DA687B681B6816
:102E400022F48072DA607B681B685A697B681B68B1
:102E500022F001025A617B68202283F83E207B68C1
:102E60001B6B012B23D17B6800221A637B681B68D4
:102E7000DA687B681B6822F01002DA607B681B68E6
:102E80001B6803F01003102B0AD10023FB607B6842
:102E90001B681B68FB607B681B685B68FB60FB68EA
:102EA0007B689B8D19467868FFF72FFE02E07868F3
:102EB000FBF7B0FE002302E0002300E002231846E7
:102EC0001837BD4680BD000080B584B000AF786083
:102ED0007B681B681B6923F440517B68DA687B6858
:102EE0001B680A431A617B689A687B681B691A43EE
:102EF0007B685B691343BB607B681B68DB6823F4FA
:102F0000B05323F00C037A681268B9680B43D3609E
:102F10007B681B685B6923F440717B689A697B68F6
:102F20001B680A435A617B681B682C4A934203D191
:102F3000FEF7E4FDF86002E0FEF7CCFDF860FA6809
:102F400013469B0013449A001A447B685B689B00FD
:102F5000B2FBF3F3224AA2FB03235B091901FA68CF
:102F600013469B0013449A001A447B685B689B00DD
:102F7000B2FBF3F21A4BA3FB02035B09642000FBD4
:102F800003F3D31A1B013233154AA2FB03235B0957
:102F900003F0F0031944FA6813469B0013449A00A7
:102FA0001A447B685B689B00B2FBF3F20C4BA3FBFB
:102FB00002035B09642000FB03F3D31A1B013233C5
:102FC000074AA2FB03235B0903F00F027B681B681F
:102FD0000A449A6000BF1037BD4680BD00380140EA
:102FE0001F85EB51014B1868704700BF000100209E
:102FF00070B500260C4D0D4C641BA410A64209D1DF
:1030000000F05CFC00260A4D0A4C641BA410A6428A
:1030100005D170BD55F8043B98470136EEE755F8E9
:10302000043B98470136F2E7C83F0208C83F020850
:10303000C83F0208CC3F02080A44914200F1FF3326
:1030400000D1704710B511F8014B914203F8014FC0
:10305000F9D110BD03460244934200D1704703F8F2
:10306000011BF9E70EB46FF0004100B59CB01DAB39
:1030700002900690079104910848094953F8042BDF
:103080000591006802A9019300F068F80022029BF4
:103090001A701CB05DF804EB03B07047000100200B
:1030A0000802FFFF2DE9F0478E6882469E420C46DB
:1030B00090461F4638D88A8912F4906F32D025681E
:1030C00009690133A5EB010965694B4405EB450529
:1030D00005EBD5756D109D4238BF1D46530531D5A2
:1030E000294600F045FB064650B90C234FF0FF304F
:1030F000CAF80030A38943F04003A381BDE8F087FC
:103100004A462169FFF798FFA38923F4906343F0AF
:103110008003A38126614E4426603E466561A5EB8F
:103120000905A560BE4200D93E46324641462068A8
:1031300000F0B8FAA36822689B1B32440020A36009
:103140002260DBE72A4600F06DFB06460028E1D14D
:103150005046216900F0C0FAC7E700002DE9F04FA2
:1031600098468B8907461B060D4614469DB00ED522
:103170000B6963B9402100F0FBFA2860286120B98F
:103180000C233B604FF0FF30D1E040236B61002304
:10319000099320238DF8293030234FF00109CDF811
:1031A0000C80DFF8A4818DF82A3023469A4613F864
:1031B000012B0AB1252AF9D1BAEB040B0BD05B46DF
:1031C000224629463846FFF76DFF013000F0AA80FD
:1031D000099A5A4409929AF80030002B00F0A28014
:1031E00000234FF0FF32CDE905230AF1010A0493D1
:1031F00007938DF853301A935446052214F8011B97
:10320000514800F041FA049AD8B9D00644BF2023AF
:103210008DF85330110744BF2B238DF853309AF8A3
:1032200000302A2B15D0544600204FF00A0C079A84
:10323000214611F8013B303B092B4ED9B0B1079222
:1032400014E0A0EB080309FA03F31343A246049326
:10325000D2E7039B191D1B680391002BBBBF5B4288
:1032600042F0020207930793B8BF049223782E2BF3
:103270000CD163782A2B35D1039B02341A1D1B68AD
:103280000392002BB8BF4FF0FF330593DFF8C8A0BF
:1032900003225046217800F0F7F940B14023A0EB1B
:1032A0000A0003FA00F0049B01340343049314F86A
:1032B000011B062225488DF8281000F0E5F90028AA
:1032C00038D0234B1BBB039B073323F00703083382
:1032D0000393099B3344099367E70C4601200CFBD9
:1032E0000232A5E700234FF00A0C1946013405937A
:1032F000204610F8012B303A092A03D9002BC5D0FB
:103300000591C3E7044601230CFB0121F0E703AB61
:1033100000932A4638460F4B04A9AFF30080421CA5
:103320000646D6D1AB895B063FF52CAF09981DB098
:10333000BDE8F08F03AB00932A463846054B04A93D
:1033400000F07CF8EBE700BF943F02089E3F0208C4
:1033500000000000A53002089A3F02082DE9F0475E
:10336000164699468A680B6907469342B8BF1346CA
:10337000336091F843200C46DDF820800AB1013318
:1033800033602368990642BF33680233336025688F
:1033900015F0060506D104F1190AE36832689B1A94
:1033A000AB4228DC94F84320131E226818BF012387
:1033B00092062DD44946384604F14302C0470130F5
:1033C00020D02368E56803F00603042B18BF00250E
:1033D00032684FF00006A36808BFAD1A226908BF23
:1033E00025EAE5759342C4BF9B1AED181A34B5421D
:1033F0001AD1002008E00123524649463846C0470A
:10340000013003D14FF0FF30BDE8F0870135C4E74C
:103410003020E11881F843005A1C94F845102244EA
:10342000023382F84310C5E7012322464946384655
:10343000C0470130E6D00136D9E700002DE9FF474B
:103440000C46277E9146782F80469A460C9904F1C7
:10345000430207D8622F0AD8002F00F0D980582FD6
:1034600000F0A48004F1420684F842703AE0A7F12B
:103470006303152BF6D801A050F823F0D5340208C9
:10348000E93402086534020865340208653402082C
:1034900065340208E934020865340208653402081C
:1034A0006534020865340208F73502081935020848
:1034B000D935020865340208653402081936020855
:1034C00065340208193502086534020865340208BB
:1034D000E13502080B6804F142061A1D1B680A60F8
:1034E00084F842300123A4E0256808682E0600F124
:1034F00004030AD505680B60002D03DA2D236D4205
:1035000084F843300A235E4819E015F0400F05683F
:103510000B6018BF2DB2EFE70B682568181D086017
:10352000280601D51D6802E06906FBD51D886F2FAE
:103530000CBF08230A235248002184F84310666810
:10354000002EA8BF2168A660A4BF21F0040121605D
:103550000DB9002E4DD01646B5FBF3F103FB115704
:10356000C75D06F8017D2F46BB420D46F4D9082BF6
:103570000BD12368DF0708D5236961689942DEBF54
:10358000302306F8013C06F1FF36921B22614B46C0
:1035900021464046CDF800A003AAFFF7DFFE013028
:1035A0004CD14FF0FF3004B0BDE8F087344884F8C8
:1035B00045700E68236856F8045B1F060E6014D52C
:1035C000D90744BF43F0200323601DB9236823F0CB
:1035D000200323601023AFE7236843F02003236018
:1035E0007823284884F84530E3E75E0648BFADB24B
:1035F000E6E71646BBE70B6826681D1D60690D608F
:1036000035061B6801D5186002E07106FBD51880ED
:10361000002316462361BAE70B681A1D0A601E686C
:1036200000213046626800F02FF808B1801B60600E
:1036300063682361002384F84330A8E73246494693
:1036400040462369D0470130ABD023689B0713D491
:10365000E068039B9842B8BF1846A4E701233246AE
:1036600049464046D04701309BD00135E368039975
:103670005B1AAB42F2DCEBE7002504F11906F5E733
:10368000A53F0208B63F0208034610B5C9B202447E
:103690009342184601D1002003E0047801338C42A4
:1036A000F6D110BD884210B501EB020402D9844264
:1036B000234607D8431EA14208D011F8012B03F876
:1036C000012FF8E7014602448A4200D110BD13F8E9
:1036D000014D02F8014DF7E738B50546002943D002
:1036E00051F8043C0C1F002BB8BFE41800F0D0F8D0
:1036F0001E4A1368104633B9636014602846BDE85B
:10370000384000F0CBB8A3420AD92168621893422E
:1037100001BF1A685B685218226063600460EDE7BD
:103720001A465B680BB1A342FAD911685018A0423F
:103730000BD120680144501883421160DED1186813
:103740005B68014411605360D8E702D90C232B60F9
:10375000D4E7206821188B4201BF19685B680918FB
:10376000216063605460C9E738BD00BFC01100200C
:10377000F8B5CD1C25F0030508350C2D38BF0C25F8
:10378000002D064601DBA94203D90C23336000203B
:10379000F8BD00F07DF821490A6814469CB9204F15
:1037A0003B6823B92146304600F062F8386029466C
:1037B000304600F05DF8431C23D10C2330463360C3
:1037C00000F06CF8E3E723685B1B17D40B2B03D9DD
:1037D00023601C44256004E06368A2420CBF0B60B8
:1037E0005360304600F05AF804F10B00231D20F01E
:1037F0000700C21ACCD01B1AA350C9E7224664683E
:10380000CCE7C41C24F00304A042E3D0211A3046C4
:1038100000F02EF80130DDD1CFE700BFC01100204D
:10382000C4110020F8B5074614460E4621B91146CA
:10383000BDE8F840FFF79CBF22B9FFF74DFF2546D2
:103840002846F8BD00F030F8A0420FD22146384695
:10385000FFF78EFF05460028F2D031462246FFF7DB
:10386000EBFB31463846FFF737FFE9E73546E7E738
:1038700038B50023054D044608462B60FCF7F6FEDC
:10388000431C02D12B6803B1236038BD784200206D
:10389000014800F011B800BF80420020014800F04C
:1038A0000CB800BF8042002051F8043C181F002BC8
:1038B000BCBF0B58C018704770477047F8B500BFC1
:1038C000F8BC08BC9E467047F8B500BFF8BC08BC01
:0438D0009E46704759
:1038D40041540D0A00000000415445310D0A000016
:1038E40041542B434744434F4E543D312C224950BD
:1038F400222C22762D696E7465726E6574220D0A0F
:103904000000000041542B4347534F434B434F4E59
:10391400543D312C224950222C22636D6574220DB2
:103924000A00000041542B43534F434B534554501A
:103934004E3D310D0A00000041542B4349504D4F78
:1039440044453D300D0A000041542B4E45544F5020
:10395400454E0D0A0000000041542B435553443D8D
:10396400310D0A0041542B435343533D2247534DD9
:10397400220D0A000D0A53494D3736303020504F7E
:10398400574552204F4E0D0A000000000D0A5349BE
:103994004D37363030205741495420464F5220503D
:1039A4004F574552204F4E20524553504F4E450DD0
:1039B4000A0000000D0A53494D3736303020524575
:1039C4005345540D0A0000000D0A53494D37363053
:1039D40030205741495420464F52205245534554B4
:1039E40020524553504F4E450D0A00000D0A5349CD
:1039F4004D373630302053544152542055500D0A1F
:103A0400000000000D0A53494D373630302057412D
:103A1400495420464F52205354415254205550206B
:103A2400524553504F4E450D0A0000000D0A5349AC
:103A34004D373630302053455454494E470D0A0013
:103A44000D0A53494D3736303020574149542046EA
:103A54004F522053455454494E4720524553504FDA
:103A64004E450D0A000000000D0A53494D3736300B
:103A7400302047455420494D45490D0A00000000B7
:103A84000D0A53494D3736303020574149542046AA
:103A94004F522047455420494D45492052455350E3
:103AA4004F4E450D0A0000000D0A53494D3736307C
:103AB40030204D41582053544154450D0A00000014
:103AC40041542B53494D45493F0D0A006C6F636BBC
