:020000040801F1
:10E0000000000120312202083121020837210208D4
:10E010003D210208432102084921020800000000B6
:10E020000000000000000000000000004F21020876
:10E030005B2102080000000067210208732102082A
:10E04000792202087922020879220208792202083C
:10E05000792202087922020879220208792202082C
:10E06000792202087922020879220208792202081C
:10E07000792202087922020879220208792202080C
:10E0800079220208792202087922020879220208FC
:10E0900079220208792202087922020879220208EC
:10E0A00079220208792202087922020879220208DC
:10E0B00079220208812102087922020879220208C5
:10E0C00079220208792202087922020879220208BC
:10E0D0007922020895210208792202087922020891
:10E0E000792202087922020879220208792202089C
:10E0F000792202087922020879220208792202088C
:10E10000792202087922020879220208792202087B
:10E11000792202087922020879220208792202086B
:10E12000792202087922020879220208792202085B
:10E1300000000000000000000000000000000000DF
:10E1400000000000000000000000000000000000CF
:10E1500000000000000000000000000000000000BF
:10E1600000000000000000000000000000000000AF
:10E17000000000000000000000000000000000009F
:10E18000000000000000000000000000000000008F
:10E19000000000000000000000000000000000007F
:10E1A000000000000000000000000000000000006F
:10E1B000000000000000000000000000000000005F
:10E1C000000000000000000000000000000000004F
:10E1D000000000000000000000000000000000003F
:04E1E0005FF8E0F113
:10E1E40010B5054C237833B9044B13B10448AFF38D
:10E1F40000800123237010BD68020020000000008D
:10E20400A463020808B5034B1BB103490348AFF3E9
:10E21400008008BD000000006C020020A463020816
:10E22400034613F8012B002AFBD1181A0138704752
:10E2340080B582B000AF0346FB71FB79002B02D19D
:10E2440000F092FE01E000F09BFE00BF0837BD46DF
:10E2540080BD000080B584B000AF0346FB7100238D
:10E26400FB720020FFF7E4FF0023FB8102E0FB893F
:10E274000133FB81FB89092BF9D9FB79012B02D1ED
:10E284000623FB7201E00423FB7207F10B01C82390
:10E294000122094806F052FA0023BB8102E0BB893F
:10E2A4000133BB81BB89092BF9D90120FFF7C0FFDA
:10E2B40000BF1037BD4680BDD413002080B500AF29
:10E2C4000120FFF7B5FF0120FFF7C4FF00BF80BDA9
:10E2D40080B586B002AF0346FB71104AFB79137018
:10E2E4000F4B80221A7080233B7307F10C024FF608
:10E2F400FF730093012342210A4804F0F7FE6420CF
:10E3040004F01CF800F010F800220221102000F0A4
:10E3140017F800BF1037BD4680BD00BF4B13002067
:10E32400481300208013002080B400AF034B002268
:10E334001A7000BFBD4680BC704700BF4D1300205B
:10E3440080B582B000AF0346FB710B46BB71134628
:10E354007B71BB79012B06D92B4B1B7843F0080347
:10E36400DAB2294B1A70294ABB791370FA79FB790E
:10E3740040334021002000F04FF87B79002B09D076
:10E38400BB79012B06D1204B1B7843F00403DAB28E
:10E394001D4B1A70322003F0D1FF002000F022F947
:10E3A400032000F00EF9052003F0C8FF032000F05D
:10E3B40008F9052003F0C2FF032000F002F902204F
:10E3C40003F0BCFF022000F0FCF80F4B1B7843F075
:10E3D4002003DBB2184600F08FF80D4B04221A70AC
:10E3E40000F074F800F036F80A4B02221A70094B58
:10E3F4001B7843F00403DBB2184600F07DF800BF3D
:10E404000837BD4680BD00BF4D1300204A130020CD
:10E41400491300204C13002080B485B000AFF8608D
:10E42400B9607A603B60FB68DAB2094B1A70BB686A
:10E43400DAB2074B5A707B68DAB2054B9A703B68C4
:10E44400DAB2034BDA7000BF1437BD4680BC7047A4
:10E454004413002080B500AF012000F04DF80220E5
:10E4640003F06CFF00BF80BD80B584B000AF0346ED
:10E474000A46FB711346BB710423FB60BB79FA683F
:10E484009A4203D8FB68DBB2013BBB710D4B1B788E
:10E49400BA799A4203D30B4B1B78013BBB71BB790E
:10E4A400094AD25CFB791344DBB25BB263F07F03AD
:10E4B4005BB2DBB2184600F01FF800BF1037BD4650
:10E4C40080BD00BF4A1300204413002080B500AF74
:10E4D400084B1B7843F00403DAB2064B1A70054B61
:10E4E4001B7843F00803DBB2184600F005F800BFC0
:10E4F40080BD00BF4913002080B582B000AF034641
:10E50400FB71FB790021184600F013F800BF0837AF
:10E51400BD4680BD80B582B000AF0346FB71FB7978
:10E524004021184600F005F8012318460837BD4677
:10E5340080BD80B584B000AF03460A46FB71134624
:10E54400BB71FB791B09FB73FB7903F00F03BB73EE
:10E55400FA7BBB791343DBB2184600F032F8BA7B7E
:10E56400BB791343DBB2184600F02BF800BF103719
:10E57400BD4680BD80B582B000AF0346FB71FB7918
:10E5840023F01003DBB2184600F02CF8012003F04E
:10E59400D5FEFB7943F01003DBB2184600F022F8F5
:10E5A400012003F0CBFEFB7923F01003DBB2184605
:10E5B40000F018F8012003F0C1FE00BF0837BD4683
:10E5C40080BD80B582B000AF0346FB71FB7918466D
:10E5D40000F008F8FB791846FFF7CCFF00BF0837B6
:10E5E400BD4680BD80B586B002AF0346FB710B4BC0
:10E5F4001A78FB791343DBB23B73094B1B7899B24E
:10E6040007F10C024FF6FF7300930123054804F051
:10E614006DFD00BF1037BD4680BD00BF481300200C
:10E624004B1300208013002080B500AF4220FFF779
:10E634004FFE00BF80BD80B582B000AF0346FB71C2
:10E64400FB791846FFF758FF00BF0837BD4680BD69
:10E6540080B582B000AF0346FB71FB791846FFF723
:10E6640059FF00BF0837BD4680BD80B582B000AFFA
:10E67400786006E07B685A1C7A601B781846FFF7BE
:10E68400E7FF7B681B78002BF4D100BF00BF08377D
:10E69400BD4680BD80B500AF0120FFF7CCFF00BFB1
:10E6A40080BD80B582B000AF786039603B68DBB272
:10E6B4007A68D2B211461846FFF7D6FE00BF083773
:10E6C400BD4680BD80B584B000AFF860B9607A60A3
:10E6D4007968B868FFF7E5FFF868FFF7C6FF00BF81
:10E6E4001037BD4680BD000080B582B000AF00F099
:10E6F400E3F80023FB7107E000F05EF8642003F008
:10E704001DFEFB790133FB71FB79032BF4D900F077
:10E7140011F803461A460549054807F00DFA04485E
:10E7240000F08EFD00BF0837BD4680BDBC63020803
:10E734000000002080B483B000AF1E4B9B7823F010
:10E744000F037B710023FB710023BB711BE0BB79BA
:10E75400012202FA03F35AB297F9053013405BB26F
:10E764003B713B79002B0BD0BB79C3F1070301222A
:10E7740002FA03F35AB297F9073013435BB2FB7101
:10E78400BB790133BB71BB79072BE0D9FB799BB211
:10E794001B029BB21BB203F470631AB2054BDB7805
:10E7A4001BB213431BB29BB218460C37BD4680BC48
:10E7B400704700BF5413002080B582B002AF384BBD
:10E7C4001B78032B64D801A252F823F0E1E7010877
:10E7D40009E8010831E8010859E801084FF6FF7318
:10E7E400009302232F4A41212F4804F07DFD2C4B36
:10E7F4001B781A462B4B19782C4B9954284B012221
:10E804001A7049E04FF6FF7300930223254A492109
:10E81400254804F069FD224B1B781A46214B1978D0
:10E82400224B99541E4B02221A7035E04FF6FF73A7
:10E83400009302231B4A4D211B4804F055FD184B3D
:10E844001B781A46174B1978184B9954144B03220A
:10E854001A7021E04FF6FF7300930223114A4F21EF
:10E86400114804F041FD0E4B1B781A460D4B1978E4
:10E874000E4B99540A4B00221A700C4B1B681A4613
:10E884000B490C4807F058F90A4800F0D9FC03E09A
:10E89400034B00221A7000BF00BFBD4680BD00BFFD
:10E8A4008402002050130020801300205413002001
:10E8B400CC6302080000002080B584B002AFFF23BF
:10E8C4003B713A1D4FF6FF73009301234021174813
:10E8D40004F00CFC642003F031FD3A1D4FF6FF7385
:10E8E400009301234821114804F000FC642003F044
:10E8F40025FD3A1D4FF6FF73009301234C210B486D
:10E9040004F0F4FB642003F019FD3A1D4FF6FF7385
:10E91400009301234E21054804F0E8FB642003F032
:10E924000DFD00BF0837BD4680BD00BF8013002029
:10E9340080B400AF024B1B781846BD4680BC7047BC
:10E944008602002080B400AF034B01221A7000BF7E
:10E95400BD4680BC704700BF8602002080B400AF73
:10E96400034B00221A7000BFBD4680BC704700BF35
:10E974008602002080B500AF2A4B1A782A4B1B78F8
:10E984009A4249D0274B1B780A2B47D801A252F848
:10E9940023F000BFC5E90108CDE90108D5E9010864
:10E9A400DDE90108E5E90108EDE90108F5E90108F7
:10E9B400FDE9010805EA01080DEA010815EA010864
:10E9C4001A4800F03DFC2AE0194800F039FC26E022
:10E9D400184800F035FC22E0174800F031FC1EE036
:10E9E400164800F02DFC1AE0154800F029FC16E04A
:10E9F400144800F025FC12E0134800F021FC0EE05E
:10EA0400124800F01DFC0AE0114800F019FC06E071
:10EA1400104800F015FC02E000BF00E000BF00BF9A
:10EA240080BD00BF1C0000206E1300207864020823
:10EA340090640208B8640208CC640208F064020816
:10EA44000865020830650208446502086C6502081E
:10EA540084650208AC65020880B500AFFFF78AFF41
:10EA6400094B1A78094B1A70074B1B78092B08D8E5
:10EA7400054B1B78064ADB0013445B689847002368
:10EA840000E00123184680BD1C0000206E13002006
:10EA94004400002080B500AF00224FF4807102488A
:10EAA40004F0C8F900BF80BD0010014080B500AF7C
:10EAB40001224FF48071024804F0BCF900BF80BD0C
:10EAC4000010014080B500AF00224FF400710248ED
:10EAD40004F0B0F900BF80BD0010014080B500AF64
:10EAE40001224FF40071024804F0A4F900BF80BD74
:10EAF4000010014080B500AF00220021094802F057
:10EB0400A1FC0022C821084802F09CFCFFF726FF64
:10EB14000022C821054802F095FC054B01221A7019
:10EB240000BF80BD99EA0108B1EA010849E901087A
:10EB34001C00002080B500AFFFF7FAFE0346002B4F
:10EB440002D0024B04221A7000BF80BD1C000020BA
:10EB540080B500AF002200210A4802F073FC0022B5
:10EB6400C821094802F06EFCFFF7F8FE00224FF4BA
:10EB7400C871064802F066FC054B03221A7000BFF8
:10EB840080BD00BFE1EA0108C9EA010849E90108BA
:10EB94001C00002080B500AFFFF7CAFE0346002B1F
:10EBA40002D0024B00221A7000BF80BD1C0000205E
:10EBB40080B500AF064B05221A70FFF7CFFE002286
:10EBC40044F62061034802F03DFC00BF80BD00BF55
:10EBD4001C00002049E9010880B500AFFFF7A8FE3A
:10EBE4000346002B02D00A4B02221A7002F0D4FB17
:10EBF4000346032B07D102F0D9FBFFF7A3FE044B16
:10EC040006221A7002E002F0D1FB00BF00BF80BDF3
:10EC14001C00002080B500AF064B1B781A46064B3B
:10EC240053F82230184600F071FA044B07221A7088
:10EC340000BF80BD87020020200000201C000020AF
:10EC440080B500AFFFF774FE0346002B30D002F00E
:10EC5400A3FB0346002B02D0012B23D02BE002F0B0
:10EC6400A5FB164B1B78072B06D9144B00221A70F0
:10EC7400134B08221A7008E0104B1B780133DAB2E8
:10EC84000E4B1A700E4B06221A700C4B1B78062B77
:10EC940010D1FFF763FE00224FF4FA71094802F025
:10ECA400D1FB07E002F082FB054B0A221A7002E056
:10ECB40000BF00E000BF00BF80BD00BF870200208E
:10ECC4001C00002049E9010880B500AF034800F0AA
:10ECD4001DFA034B09221A7000BF80BDC4650208E7
:10ECE4001C00002080B500AF02F056FB0346012B48
:10ECF40010D0062B13D100F02BF80346002B10D0B4
:10ED040002F054FB084B0A221A700F21074800F046
:10ED1400B5FA06E002F04AFB034B0A221A7000BF60
:10ED240000E000BF00BF80BD1C0000207013002065
:10ED340080B483B000AF0346FB71044AFB791370BF
:10ED440000BF0C37BD4680BC704700BF1C000020CC
:10ED540098B500AF0E4B1B780F2B04D10C4B00223F
:10ED64001A70012312E000F0FDF90346002B0CD0C9
:10ED7400074B1B785A1CD1B2054A11701C4600F08F
:10ED840007FA03461A46034B1A550023184698BD42
:10ED9400850200207013002080B500AF0220FFF729
:10EDA400C7FF00BF80BD000080B584B000AF1B4B1F
:10EDB4009B691A4A43F010039361184B9B6903F053
:10EDC4001003FB60FB68154B9B69144A43F0200356
:10EDD4009361124B9B6903F02003BB60BB680F4B2C
:10EDE4009B690E4A43F0040393610C4B9B6903F047
:10EDF40004037B607B68094B9B69084A43F0080362
:10EE04009361064B9B6903F008033B603B6800F089
:10EE140007F800BF1037BD4680BD00BF0010024098
:10EE240080B584B000AF3B4600221A605A609A60F5
:10EE3400DA6001237B600123BB600323FB604FF492
:10EE440080733B603B4619460D4803F05FFE4FF468
:10EE540000733B603B461946094803F057FE012204
:10EE64004FF48071064803F0E5FF01224FF400716E
:10EE7400034803F0DFFF00BF1037BD4680BD00BF6D
:10EE84000010014080B500AF134B144A1A60124BB6
:10EE9400134A5A60104B00229A600F4B0022DA602A
:10EEA4000D4B4FF480421A610B4B00225A610A4BFE
:10EEB40000229A61084B0022DA61074B00221A6291
:10EEC400054803F0CFFF0346002B01D0012300E0E7
:10EED4000023184680BD00BF80130020005400406A
:10EEE400801A060080B500AF1D4B1E4A1A601C4BE9
:10EEF4002822DA611A4B00229A60194B00225A61C7
:10EF0400174B00221A61164B0022DA60144B0022C0
:10EF14001A62134B00225A62114B00229A62104B60
:10EF24000722DA620E4B4FF480229A610C4B4FF4A5
:10EF340082725A600A4805F07DFB0346002B03D019
:10EF440002F088FF012308E0054B1B681A68044B94
:10EF54001B6842F040021A600023184680BD00BFBF
:10EF6400D41300200038004080B500AF00224FF4D5
:10EF74008051024803F05EFF00BF80BD000C0140D9
:10EF840080B500AF01224FF48051024803F052FFD4
:10EF940000BF80BD000C014080B590B000AF07F108
:10EFA400180328220021184606F0BEFD3B1D00224E
:10EFB4001A605A609A60DA601A610A23BB610123FD
:10EFC400BB621023FB6201233B6302237B630023A8
:10EFD400BB634FF46013FB6307F11803184604F096
:10EFE4000FFF0346002B01D0012317E00F237B60A2
:10EFF4000223BB600023FB604FF480633B6100236A
:10F004007B613B1D0221184605F07AF90346002B6B
:10F0140003D002F01FFF012300E00023184640370D
:10F02400BD4680BD80B500AF184B1B68184AA2FBD3
:10F0340003235B0B013B174A1360174B174A1A60F3
:10F04400154B6322DA60134B1B68134A5360124B4F
:10F0540000221A61104B00229A600F4B00225A6161
:10F064000D4B00229A610C4805F04AFD0346002B23
:10F0740001D0012308E0084805F092FD0346002B67
:10F0840001D0012300E00023184680BDF8010020D0
:10F094005917B7D18802002038140020000400401A
:10F0A40080B582B000AF786002F0A4F900BF0837E1
:10F0B400BD4680BD80B500AF124B134A1A60114B98
:10F0C4004FF4E1325A600F4B00229A600D4B00223C
:10F0D400DA600C4B00221A610A4B0C225A61094B6C
:10F0E40000229A61074B0022DA61064805F070FF9E
:10F0F4000346002B01D0012302E000F0D7F80023DF
:10F10400184680BDC82400200038014080B584B072
:10F1140000AF78607868FFF783F80346FB81FB89CA
:10F12400002B17D0786800F08BF800BF0B4B1B78CE
:10F13400DBB2002BFAD0FB891A467968084806F03E
:10F1440026F80346002B01D002F084FE034B002274
:10F154001A7000E000BF1037BD4680BD9400002047
:10F16400C824002080B400AF074B1B889AB2074B19
:10F174001B889BB29A4201D0012300E00023184669
:10F18400BD4680BC704700BF8E0200208C02002068
:10F1940080B483B000AF124B1B889AB2114B1B880A
:10F1A4009BB29A4201D1FF2315E00D4B1B889BB201
:10F1B4001A460D4B9B5CFB71094B1B889BB20133B8
:10F1C4005A42C3F30B03C2F30B0258BF53429AB221
:10F1D400034B1A80FB7918460C37BD4680BC704738
:10F1E4008E0200208C020020C814002080B500AFDD
:10F1F400114B124A1A60104B4FF4E1325A600E4B15
:10F2040000229A600C4B0022DA600B4B00221A6138
:10F21400094B0C225A61084B00229A61064B0022CA
:10F22400DA61054805F0D4FE0346002B01D0012322
:10F2340000E00023184680BD8014002000480040F0
:10F2440080B584B000AF78607868FEF7E9FF0346C4
:10F25400FB81FB89002B0BD0FA89FF2379680648D0
:10F2640005F003FF0346002B03D002F0F3FD00E09A
:10F2740000BF1037BD4680BD8014002080B582B029
:10F2840000AF78600B467B807A88C823796806488B
:10F2940005F0EBFE0346002B01D002F0DBFD00BFBE
:10F2A4000837BD4680BD00BF8014002080B500AF84
:10F2B40001220549054805F0AEFF0346002B01D0A5
:10F2C40002F0C8FD00BF80BDC4140020C824002083
:10F2D40080B582B000AF78607B681B68104A9342A7
:10F2E4001AD1104B1B889BB21A460F4B19780F4B3F
:10F2F40099540C4B1B889BB201335A42C3F30B0342
:10F30400C2F30B0258BF53429AB2064B1A80012231
:10F314000549786805F07FFF00BF0837BD4680BD0A
:10F32400003801408C020020C4140020C8140020BE
:10F3340080B483B000AF7860034B01221A7000BF21
:10F344000C37BD4680BC70479400002080B500AFE8
:10F354004FF480520021054806F0E6FB044B0022DE
:10F364001A80044B00221A8000BF80BDC8140020FC
:10F374008C0200208E02002080B500AF2C4B1A783E
:10F384002C4B1B789A424DD02A4B1A78284B1A7072
:10F39400284B1B780A2B47D801A252F823F000BF50
:10F3A400D1F30108D9F30108E1F30108E9F30108F5
:10F3B400F1F30108F9F3010801F4010809F4010863
:10F3C40011F4010819F4010821F401081A48FFF79F
:10F3D40037FF2AE01948FFF733FF26E01848FFF704
:10F3E4002FFF22E01748FFF72BFF1EE01648FFF718
:10F3F40027FF1AE01548FFF723FF16E01448FFF72C
:10F404001FFF12E01348FFF71BFF0EE01248FFF73F
:10F4140017FF0AE01148FFF713FF06E01048FFF753
:10F424000FFF02E000BF00E000BF00BF80BD00BFCF
:10F434009A0200209B020020E0650208F0650208A1
:10F444000866020818660208306602084066020868
:10F454005C6602086C660208846602089466020808
:10F46400AC66020880B500AFFFF786FF0C4B1B7833
:10F47400092B08D80A4B1B780A4ADB0013445B6843
:10F484009847002309E0064B1B780A2B04D1064851
:10F49400FFF7D6FE012300E00223184680BD00BF1B
:10F4A4009B020020A0000020BC66020880B500AFCB
:10F4B4000B4B00221A60FFF749FF0A4B1B78002B05
:10F4C40003D00949094806F037FB0848FFF71EFE38
:10F4D40000F0A8FF064B01221A7000BF80BD00BFD8
:10F4E4009402002096000020D06602089436002082
:10F4F4009B02002080B500AF01F04EFF0346002BB5
:10F5040002D0012B06D00BE001F050FF054B022284
:10F514001A7005E001F04AFF024B0B221A7000BF7B
:10F5240000BF80BD9B02002080B500AF0D4B1B784F
:10F53400002B0DD00C4B1B78002B04D00B490C482E
:10F5440006F0FAFA04E00B4A0B49094806F0F4FA0B
:10F554000748FFF7DBFD00F065FF084B03221A7034
:10F5640000BF80BD9600002097000020E0660208DE
:10F574009436002070260020286702089B02002091
:10F5840080B500AF01F008FF0346002B02D0012B29
:10F5940006D00BE001F00AFF054B04221A7005E0C7
:10F5A40001F004FF024B0B221A7000BF00BF80BDA4
:10F5B4009B02002080B500AF0C4B1B78002B03D0BE
:10F5C4000B490C4806F0B8FA0A48FFF79FFD00F013
:10F5D40029FF00F0F1F90022C821074801F032FFA9
:10F5E400064B05221A7000BF80BD00BF96000020A4
:10F5F4007067020894360020A5F901089B020020D8
:10F6040080B500AF00F0C2F90346002B35D001F0FD
:10F61400C3FE0346052B09D0052B30DC002B02D09A
:10F62400012B24D02BE001F0C1FE2BE000F0A6FE5C
:10F634000346002B25D000F001FF0346124A136055
:10F64400114B1B68114A1360114B00221A600E4BB8
:10F654001B681A460F49104806F06EFA0E48FFF769
:10F66400EFFD01F0A3FE0D4B06221A7009E001F034
:10F674009DFE0A4B0B221A7004E000BF02E000BF9B
:10F6840000E000BF00BF80BDA0020020AC0200204B
:10F694009402002084670208C04000209B020020DE
:10F6A40080B582B000AF4D4B1B78002B03D04C4B80
:10F6B4001B687B605EE04A4B1B68002B0BD14949F9
:10F6C400494806F039FAFEF7E5FF002200214648D2
:10F6D400FEF7F8FF30E0454B1A68414B1B68D21A1D
:10F6E400434B1B7819460B469B000B44DB029A42A2
:10F6F40022D93E4B1A683A4B1B68D31A642202FB88
:10F7040003F23A4B1B68B2FBF3F3DAB2394B1A70CB
:10F71400384B1B781A463849334806F00DFAFEF781
:10F72400B9FF002200213048FEF7CCFF304B1B7894
:10F734000133DAB22E4B1A70294B1B68B3F5806F74
:10F7440009D94FF480637B60254B1B68A3F5806364
:10F75400234A13600EE0224B1B68002B0AD0204B77
:10F764001B68B3F5806F05D21D4B1B687B601C4B77
:10F7740000221A60214B1B78002B04D07A682049A0
:10F78400204806F0D9F9164B1B681A461E4916483C
:10F7940006F0D2F91448FFF753FD1C4B1B881A4698
:10F7A4001B49114806F0C8F90F48FFF749FD1548F1
:10F7B400FFF7ACFC00F000F900226421154801F0C9
:10F7C40041FE00F02FFE642002F0B8FD124B072228
:10F7D4001A7000BF0837BD4680BD00BF97000020E7
:10F7E400A00200208C670208C0400020AC02002068
:10F7F400BA020020B55B00209C6702089600002036
:10F80400AC67020894360020C0670208AA020020F0
:10F81400DC670208A5F901089B02002080B582B0CC
:10F8240000AF344B1B78002B14D001F0B5FD034618
:10F83400002B56D100F0CCF80346FB71FB79002B6A
:10F8440051D02C4B00221A7001F0B0FD2A4B022239
:10F854001A704CE001F0A0FD0346002B45D100F0E6
:10F8640097F903461A46254B1A70244B1B78032B31
:10F8740035D801A252F823F08DF80108E3F8010805
:10F88400B3F80108CBF801081D4B1B68002B08D105
:10F894001C48FFF7D5FC02F085F8174B0A221A70B2
:10F8A4001EE001F083FD144B06221A7018E016487E
:10F8B400FFF7C6FC1548FFF7C3FC02F067F80E4BD0
:10F8C4000A221A700CE01248FFF7BAFC0D48FFF741
:10F8D400B7FC02F05BF8084B0A221A7000E000BF84
:10F8E40004E000BF02E000BF00E000BF00BF083733
:10F8F400BD4680BD970000209B020020B45B002021
:10F90400A0020020F46702081468020828680208AC
:10F914004868020880B500AF084B1B78002B03D061
:10F924000749084806F008F90648FFF7EFFB00F01E
:10F9340079FD054B09221A7000BF80BD9600002096
:10F944006C680208943600209B02002080B500AF4A
:10F9540001F022FD0346002B02D0012B06D00BE060
:10F9640001F024FD054B00221A7005E001F01EFD94
:10F97400024B0B221A7000BF00BF80BD9B02002007
:10F9840080B400AF00BFBD4680BC704780B400AFF8
:10F99400024B1B781846BD4680BC7047950000207A
:10F9A40080B400AF034B01221A7000BFBD4680BC77
:10F9B400704700BF9500002080B400AF034B0022C5
:10F9C4001A7000BFBD4680BC704700BF9500002080
:10F9D40098B500AFFFF7C6FB0346002B59D02E4B5A
:10F9E4001B781C46FFF7D4FB03461A462B4B1A55CB
:10F9F400294B1B78591C2A4B6422284801F02EFB02
:10FA04000346002B02D0274B01221A70254B1B788A
:10FA1400002B2ED0244B1B78002B1CD01E4B1B78A4
:10FA24001A461E4B9B5C0D2B07D11F4B00221A70EC
:10FA34001C4B00221A7001232CE0174B1B7819462B
:10FA44001A4B1B785A1CD0B2184A10701A46134B22
:10FA5400595C174B9954104B1B78591C154B642255
:10FA64000E4801F0FBFA0346002B02D00E4B012294
:10FA74001A70094B1B7801330F4A82FB0312511190
:10FA8400DA178A1A642101FB02F29A1AD2B2024BE3
:10FA94001A700023184698BDB00200205C40002074
:10FAA40090680208B1020020B202002090020020F7
:10FAB40070260020A06802081F85EB5190B585B020
:10FAC40000AF78600B467B802F4B00221A70002316
:10FAD400FB811FE0FB897A6813441B78184601F008
:10FAE40005FB0346DBB21B01DAB2274B1B78134438
:10FAF400DCB2FB8901337A6813441B78184601F0A1
:10FB0400F5FA0346DBB22344DAB21F4B1A70FB89C1
:10FB14000233FB81FA897B88053B9A42DADB1A4B74
:10FB24001B78DB43DAB2184B1A70174B1B7801337E
:10FB3400DAB2154B1A707B88053B7A6813441B783C
:10FB4400184601F0D3FA0346DBB21B01DCB27B8812
:10FB5400043B7A6813441B78184601F0C7FA03463D
:10FB6400DBB223447B73084B1B787A7B9A420CBF2D
:10FB740001230023DBB21A46044B1A70034B1B7893
:10FB840018461437BD4690BD9C020020BB020020DD
:10FB940090B585B000AFFFF7E5FA0346002B00F0FF
:10FBA400C4838B4B1B881C46FFF7F2FA03461A46A4
:10FBB400884B1A55864B1B88591C874B4FF49672F9
:10FBC400844801F04BFA0346002B0BD1804B1B8871
:10FBD400591C824B4FF496727E4801F03FFA03465B
:10FBE400002B73D07E4B1B88B3F5006F31D37D4B54
:10FBF4001B680121184601F0F7FE7A4B1B684FF48D
:10FC040000627949184601F041FF764B1B6803F501
:10FC14000063744A13604FF40063FB600BE0FB68FD
:10FC2400A3F500637049FA680A4411786E4AD15406
:10FC3400FB680133FB606A4B1B881A46FB689342DE
:10FC4400EDDB674B1B88A3F500639AB2644B1A8003
:10FC54001EE0664B1B68002B1AD1624B1B68604A7E
:10FC640012881146184601F0BFFE5E4B1B685C4AC1
:10FC740012885D49184601F009FF594B1B881A4642
:10FC8400584B1B681344574A1360554B00221A8083
:10FC94004F4B1B88591C504B4FF496724D4801F042
:10FCA400DDF90346002B06D0514B1B880D3B9AB25D
:10FCB4004F4B1A8005E04E4B1B880C3B9AB24C4BC1
:10FCC4001A804C4B00221A7000232FE3404B1B88F0
:10FCD400591C494B4FF496723E4801F0BFF9034654
:10FCE400002B04D0454B01221A7001231EE3434B21
:10FCF4001B78002B14D0364B1B88591C404B4FF4F7
:10FD04009672344801F0AAF90346002B00F0FC82F5
:10FD1400384B01221A70394B00221A70012305E373
:10FD2400344B1B78002B00F0EF82294B1B881946BB
:10FD34002F4B1B881A46274B595C324B99542C4B3A
:10FD44001B880133304A82FB03125111DA178A1AD5
:10FD54004FF4967101FB02F29A1A92B2244B1A8064
:10FD6400224B1B68002B40F07181214B1B881946E4
:10FD7400264B4FF49672234801F070F90346002B8A
:10FD84000CD11B4B1B881946214B4FF496721D480E
:10FD940001F064F90346002B00F0B682144B1B8873
:10FDA40019461A4B4FF49672164801F057F9034658
:10FDB400002B05D00E4B1B88023B9AB20C4B1A80C9
:10FDC400144B1B78002B3FD000237B812EE000BF17
:10FDD400B802002040250020A4680208B468020884
:10FDE400AA0200209C0000208C260020A0020020F3
:10FDF400B6020020B4020020C4680208B302002046
:10FE0400A068020830370020B5814E1BD468020870
:10FE1400D8680208F80000207B895A1C7B89954920
:10FE2400895C944AD1547B8901337B81924B1B8832
:10FE34007A899A42F0D3904B1B88013B9AB28E4B3D
:10FE44001A808E4B00221A708B4B1B8819468948E6
:10FE5400FFF734FE0346002B00F0F380854BDB797B
:10FE6400184601F043F90346002B40F0B980814B5A
:10FE74009B78184601F03AF903469BB21B039CB2E7
:10FE84007C4BDB78184601F031F903469BB21B0228
:10FE94009BB223449CB2774B1B79184601F026F998
:10FEA40003469BB21B019BB223449CB2714B5B790A
:10FEB400184601F01BF903469BB223449AB2704BD7
:10FEC4001A80704B1B78002B11D06E4B00221A70D5
:10FED4006D4B1B681B046A4A128813436A4A1360F9
:10FEE400694B1B68694A934201D003231EE2684BA5
:10FEF4001B884FF6EF7293420DD9614B1A88644BFD
:10FF04001B88D31A9AB2634B1B789BB2D31A9AB24A
:10FF1400614B1A800CE05A4B1A885D4B1B88D31A2C
:10FF24009AB25C4B1B789BB2D31A9AB25A4B1A8082
:10FF340000233B810CE0594B1B885A1C91B2574A51
:10FF440011801A46564BFF2199543B8901333B815A
:10FF5400514B1B883A899A42EDD3464B1B7818467D
:10FF640001F0C4F80346DBB21B01DCB2414B5B7801
:10FF7400184601F0BBF80346DBB22344DAB2454B22
:10FF84001A703F4B1A88424B1A800823FB8020E0EA
:10FF9400FB88384AD35C184601F0A8F80346DBB264
:10FFA4001B01DCB2FB880133324AD35C184601F0F2
:10FFB4009DF80346DAB2394B1B88591C88B237497D
:10FFC40008801946A318DAB2354B5A54FB88023319
:10FFD400FB80FA88284B1B88053B9A42D8DB2CE02F
:10FFE400244BDB79184601F081F80346042B24D115
:0CFFF400204B1B7A184601F079F80346F8
:020000040802F0
:100000009BB21C031C4B5B7A184601F071F8034647
:100010009BB21B021C44184B9B7A184601F068F8EF
:1000200003469BB21B011C44134BDB7A184601F0BC
:100030005FF803469BB223441A46144B1A600F4BD9
:1000400000221A8062E1184B00221A7002236FE12D
:100050000A4B1B881946154B4FF49672064800F060
:10006000FFFF0346002B00F05181054B1B78002B4E
:1000700036D00023BB8025E030370020B6020020B8
:10008000F8000020A6020020F90000209036002091
:1000900000000408A4020020A8020020980200200A
:1000A000AA0200208C26002098000020D8680208B0
:1000B000BB885A1CBB88A049895C9F4AD154BB8825
:1000C0000133BB809D4B1B88BA889A42F0D39B4B6F
:1000D0001B88013B9AB2994B1A80994B00221A70E7
:1000E000964B1B8819469448FFF7EAFC0346002B01
:1000F00000F00781904BDB79184600F0F9FF0346CA
:10010000002B40F0C3808C4B9B78184600F0F0FF2A
:1001100003469BB21B039CB2874BDB78184600F06A
:10012000E7FF03469BB21B029BB223449CB2824B67
:100130001B79184600F0DCFF03469BB21B019BB203
:1001400023449CB27C4B5B79184600F0D1FF0346F8
:100150009BB223449AB27B4B1A807B4B1B78002BBB
:100160001BD0794B00221A70784B1B681B04754A10
:1001700012881343754A1360744B1B681A467449FE
:10018000744805F0DBFC7348FFF75CF86F4B1B68A5
:10019000714A934201D00323CAE0704B1B884FF68B
:1001A000EF7293420DD9674B1A886C4B1B88D31A98
:1001B0009AB26B4B1B789BB2D31A9AB2694B1A80D6
:1001C0000CE0604B1A88654B1B88D31A9AB2644BBB
:1001D0001B789BB2D31A9AB2624B1A8000237B80A1
:1001E0000CE0614B1B885A1C91B25F4A11801A4681
:1001F0005E4BFF2199547B8801337B80594B1B88D0
:100200007A889A42EDD34C4B1B78184600F070FF69
:100210000346DBB21B01DCB2474B5B78184600F0AB
:1002200067FF0346DBB22344DAB24D4B1A70454BED
:100230001A884A4B1A8008233B8020E03B883E4ABC
:10024000D35C184600F054FF0346DBB21B01DCB25E
:100250003B880133384AD35C184600F049FF034617
:10026000DAB2414B1B88591C88B23F4908801946B5
:10027000A318DAB23D4B5A543B8802333B803A888C
:100280002E4B1B88053B9A42D8DB36E02A4BDB79A4
:10029000184600F02DFF0346042B2ED1264B1B7A67
:1002A000184600F025FF03469BB21C03224B5B7AE5
:1002B000184600F01DFF03469BB21B021C441E4B58
:1002C0009B7A184600F014FF03469BB21B011C44A6
:1002D000194BDB7A184600F00BFF03469BB2234410
:1002E0001A461A4B1A60194B1B681A4620491948BE
:1002F00005F024FC1748FEF7A5FF104B00221A80DA
:1003000004E01C4B00221A70022311E01A4B1B88D8
:1003100001331A4A82FB03125111DA178A1A4FF479
:10032000967101FB02F29A1A92B2134B1A800123C2
:1003300018461437BD4690BD30370020B602002065
:10034000F8000020A6020020F900002090360020CE
:10035000DC6802080C25002000000408A40200202C
:10036000A802002098020020AA0200208C2600206B
:10037000F468020898000020B8020020B5814E1BE6
:1003800080B500AFFEF7F0FE0346002B29D0FEF744
:1003900001FF03461A46144B1A70134B1B780D2BA2
:1003A00004D1124B00221A7001231BE00F4B1B7863
:1003B000022B0CD10E4B1A6813469B0013445B00B2
:1003C0001A46094B1B781344303B094A1360064B0D
:1003D0001B782C2B05D1054B1B780133DAB2034B6C
:1003E0001A700023184680BDC4140020910200201A
:1003F0009402002080B400AF024B1B781846BD4623
:1004000080BC70479B02002080B483B000AF0346DD
:10041000FB71044AFB79137000BF0C37BD4680BCEA
:10042000704700BF9B02002080B400AF034B012245
:100430001A7000BFBD4680BC704700BF9600002008
:1004400080B400AF024B1B681846BD4680BC7047A5
:100450009402002080B500AF404B1A78404B1B78C7
:100460009A4276D03E4B1A783C4B1A703C4B1B7824
:10047000112B70D801A252F823F000BFC504020866
:10048000CD040208D5040208DD040208E5040208D0
:10049000ED040208F5040208FD040208050502083F
:1004A0000B050208130502081B05020823050208B4
:1004B0002B050208330502083B0502084305020824
:1004C0004B0502082748FEF7BDFE45E02648FEF72B
:1004D000B9FE41E02548FEF7B5FE3DE02448FEF7B1
:1004E000B1FE39E02348FEF7ADFE35E02248FEF7C5
:1004F000A9FE31E02148FEF7A5FE2DE02048FEF7D9
:10050000A1FE29E01F48FEF79DFE1F48FEF79AFE58
:1005100022E01E48FEF796FE1EE01D48FEF792FE02
:100520001AE01C48FEF78EFE16E01B48FEF78AFE16
:1005300012E01A48FEF786FE0EE01948FEF782FE2A
:100540000AE01848FEF77EFE06E01748FEF77AFE3E
:1005500002E000BF00E000BF00BF80BDBC02002081
:10056000BD02002040690208506902086069020863
:100570007869020894690208B8690208CC6902081F
:10058000E8690208F8690208106A0208286A020885
:10059000486A02085C6A0208786A0208906A0208DF
:1005A000B06A0208C46A0208E06A020880B500AFB7
:1005B000FFF750FF0A4B1B78112B01D101230DE0EF
:1005C000074B1B78122B01D1022307E0044B1B7849
:1005D000044ADB0013445B6898470023184680BD3B
:1005E000BD0200204001002080B400AF034B012277
:1005F0001A7000BFBD4680BC704700BFBD0200201E
:1006000080B500AFFEF7A4FEFEF796F803461A4643
:100610000849094805F092FA0849094805F08EFA98
:100620000748FEF775FD00F039FC064B02221A70F0
:1006300000BF80BD106B0208FD000020186B02088F
:1006400094420020BD02002080B500AF00F0A6FE5D
:100650000346002B02D0012B06D017E000F0A8FEC5
:100660000D4B03221A7014E000F0A2FEFEF714F8FE
:10067000002200210948FEF727F80022012108483E
:10068000FEF722F8044B12221A7002E000F090FEEE
:1006900000BF00BF80BD00BFBD020020286B020864
:1006A0003C6B020880B582B002AF0A4B1B781A4639
:1006B00000230093084B0949094805F03FFA084810
:1006C000FEF726FD00F0EAFB064B04221A7000BF7D
:1006D000BD4680BDFC000020FD000020446B0208E8
:1006E00094420020BD02002080B500AF00F056FE0D
:1006F0000346002B02D0012B06D017E000F058FE75
:100700000D4B05221A7014E000F052FEFDF7C4FFF5
:10071000002200210948FDF7D7FF002201210848E7
:10072000FDF7D2FF044B12221A7002E000F040FEE7
:1007300000BF00BF80BD00BFBD020020286B0208C3
:100740005C6B0208B0B584B004AF184B1B781D4633
:10075000164B596B154B93F841301846134B93F8D1
:1007600040301C46114B9B6B104AD26B0392029394
:10077000019400900B462A460D490E4805F0DEF91B
:100780000C48FEF7C5FC00F089FB00F07BFB002263
:100790004FF49671084800F057FE0346074A13606D
:1007A000074B06221A7000BFBD46B0BDFC000020FA
:1007B0006C6B0208944200206D0E02088C420020EF
:1007C000BD02002080B500AF00F046FB0346002BC1
:1007D0002CD000F0E3FD0346002B02D0012B0BD000
:1007E00021E000F0E5FD134B11221A70124B1B683B
:1007F000184600F07FFF1AE000F0DAFDFDF74CFF2D
:10080000002200210D48FDF75FFF002201210C4866
:10081000FDF75AFF074B12221A70074B1B68184648
:1008200000F068FF03E000F0C3FD00E000BF00BF80
:1008300080BD00BFBD0200208C420020286B020852
:10084000906B020898B500AF00F0B2FD104B1B781A
:100850001C461048FDF7E6FC034622460E490F48A9
:1008600005F06CF900F00EFB00224FF496710C4875
:1008700000F0EAFD03460B4A13600848FEF748FC07
:1008800000F00CFB084B08221A7000BF98BD00BF97
:10089000FC0000208C410020986B0208944200204C
:1008A0006D0E02088C420020BD02002080B500AF12
:1008B00000F0D2FA0346002B08D02748FEF7C2FC0E
:1008C00000F076FD254B12221A7042E000F066FD22
:1008D0000346013B032B38D801A252F823F000BF96
:1008E00007090208F108020835090208510902083F
:1008F00000F05EFD194B09221A70194B1B6818464F
:1009000000F0F8FE25E000F053FDFDF7C5FE0022E3
:1009100000211448FDF7D8FE002201211248FDF7FE
:10092000D3FE0E4B12221A700D4B1B68184600F0B6
:10093000E1FE0EE000F03CFD084B12221A70084B5D
:100940001B68184600F0D6FE03E000F031FD00E021
:1009500000BF00BF80BD00BFB06B0208BD02002019
:100960008C420020286B0208BC6B020880B500AFE7
:1009700000F01EFD0C4A0D490D4805F0DFF800F0AF
:1009800081FA00224FF496710A4800F05DFD03469B
:10099000094A13600648FEF7BBFB00F07FFA074BDD
:1009A0000A221A7000BF80BD8C410020C46B02086F
:1009B000944200206D0E02088C420020BD020020EF
:1009C00080B500AF00F048FA0346002B08D0274856
:1009D000FEF738FC00F0ECFC254B12221A7042E0C6
:1009E00000F0DCFC0346042B39D801A252F823F0B6
:1009F000050A02081B0A02085F0A0208490A0208DF
:100A0000650A020800F0D4FC194B0B221A70194B2E
:100A10001B68184600F06EFE25E000F0C9FCFDF7EB
:100A20003BFE002200211448FDF74EFE002201216A
:100A30001248FDF749FE0E4B12221A700D4B1B682F
:100A4000184600F057FE0EE000F0B2FC084B1222F0
:100A50001A70084B1B68184600F04CFE03E000F0CB
:100A6000A7FC00E000BF00BF80BD00BFB06B020864
:100A7000BD0200208C420020286B0208C86B0208CF
:100A800098B500AF104B1B781C461048FDF7CAFB09
:100A9000034622460E490F4805F050F800F0F2F9DF
:100AA00000224FF496710C4800F0CEFC03460B4A2E
:100AB00013600848FEF72CFB00F0F0F9084B0C22FD
:100AC0001A7000BF98BD00BFFC000020BE4100208E
:100AD000D46B0208944200206D0E02088C42002064
:100AE000BD02002080B500AF00F0B6F90346002B30
:100AF00008D02748FEF7A6FB00F05AFC254B12222F
:100B00001A7042E000F04AFC0346013B032B38D840
:100B100001A252F823F000BF3F0B0208290B020884
:100B20006D0B0208890B020800F042FC194B0D22E4
:100B30001A70194B1B68184600F0DCFD25E000F028
:100B400037FCFDF7A9FD002200211448FDF7BCFD8C
:100B5000002201211248FDF7B7FD0E4B12221A7038
:100B60000D4B1B68184600F0C5FD0EE000F020FCA0
:100B7000084B12221A70084B1B68184600F0BAFD89
:100B800003E000F015FC00E000BF00BF80BD00BF27
:100B9000B06B0208BD0200208C420020286B0208C6
:100BA000EC6B020880B500AF0C4A0D490D4804F00B
:100BB000C5FF00F067F900224FF496710A4800F073
:100BC00043FC0346094A13600648FEF7A1FA00F009
:100BD00065F9074B0E221A7000BF80BDBE41002090
:100BE000C46B0208944200206D0E02088C42002063
:100BF000BD02002080B500AF00F02EF90346002BA7
:100C000008D02748FEF71EFB00F0D2FB254B12222E
:100C10001A7042E000F0C2FB0346042B39D801A24F
:100C200052F823F0390C02084F0C0208930C02080A
:100C30007D0C0208990C020800F0BAFB194B0F2238
:100C40001A70194B1B68184600F054FD25E0FDF79B
:100C500023FD002200211548FDF736FD0022012169
:100C60001348FDF731FD0F4B12221A700E4B1B6813
:100C7000184600F03FFD00F09BFB0EE000F098FBF3
:100C8000084B12221A70084B1B68184600F032FD00
:100C900003E000F08DFB00E000BF00BF80BD00BF9F
:100CA000B06B0208BD0200208C420020286B0208B5
:100CB000F46B020890B585B004AF194B1B78184649
:100CC000184B93F8FA301C46164B93F8FB301A4633
:100CD000144B93F8FC301946124B93F8FD300293F5
:100CE00001910092234602460F49104804F026FF66
:100CF00000F0C8F800224FF496710D4800F0A4FBF4
:100D000003460C4A13600948FEF702FA00F0C6F8E1
:100D1000094B10221A7000BF0437BD4690BD00BFBA
:100D2000FC0000208C410020006C0208944200204E
:100D30006D0E02088C420020BD02002080B500AF7D
:100D400000F08AF80346002B08D02C48FEF77AFA08
:100D500000F02EFB2A4B12221A704DE000F01EFB11
:100D60000346042B44D801A252F823F0810D020857
:100D7000AD0D0208F10D0208DB0D0208F70D0208A7
:100D800000F016FB1E4B11221A7001F0CFFA034639
:100D90001A461C491C4804F0D1FE1B48FEF752FAC3
:100DA0001A4B1B68184600F0A5FC25E000F000FB7C
:100DB000FDF772FC002200211548FDF785FC00229A
:100DC00001211448FDF780FC0D4B12221A700F4BC5
:100DD0001B68184600F08EFC0EE000F0E9FA084BA4
:100DE00012221A70094B1B68184600F083FC03E0BE
:100DF00000F0DEFA00E000BF00BF80BDB06B02086B
:100E0000BD020020206C02080C2500208C4200202E
:100E1000286B0208286C020880B400AF00BFBD46F2
:100E200080BC704780B400AF024B1B781846BD46AB
:100E300080BC7047BD02002080B483B000AF034681
:100E4000FB71044AFB79137000BF0C37BD4680BCB0
:100E5000704700BFBD02002080B400AF024B1B787A
:100E60001846BD4680BC7047FB00002080B400AF30
:100E7000034B01221A7000BFBD4680BC704700BF03
:100E8000FB00002080B400AF034B00221A7000BFAB
:100E9000BD4680BC704700BFFB00002080B400AF9F
:100EA000034B01221A7000BFBD4680BC704700BFD3
:100EB000FA00002080B5C2B000AF3B1D18603B4671
:100EC00019603B1D07F108021968104604F056FE30
:100ED0003B4607F1080232321968104604F04EFE14
:100EE00007F10803012283F8FA2007F10803002222
:100EF00083F8FC2007F10803002283F8FD2007F1A6
:100F00000803782283F8FB20134B1B781946134AF9
:100F10000B46DB015B1A5B001A4407F1080310461D
:100F20001946FE231A4604F0F3FD0B4B1B785A1C9E
:100F30000B4B83FB0213D910D317C91A0B469B0026
:100F40000B449B00D11ACAB2034B1A7000BF07F5BD
:100F50008477BD4680BD00BFBE02002060440020F3
:100F60006766666680B500AF124B1B78194612485B
:100F7000124A0B46DB015B1A5B0013441946FE2341
:100F80001A4604F0C5FD0B4B1B785A1C0C4B83FB17
:100F90000213D910D317C91A0B469B000B449B00B0
:100FA000D11ACAB2034B1A70064B07221A7000BF3F
:100FB00080BD00BFBF0200208C41002060440020A3
:100FC00067666666BD02002080B400AF064B1A78E3
:100FD000064B1B789A4214BF01230023DBB218464C
:100FE000BD4680BC704700BFBE020020BF0200208B
:100FF00080B586B000AFF8600B467A607B81786878
:10100000FDF710F90346BB75BB7D9BB27A899A4206
:1010100001D2002320E07868FDF704F903467B75D0
:101020000023FB7513E07A897B7DD21AFB7D134484
:101030001A46FB6813441A78FB7D79680B441B78C9
:101040009A4201D0002307E0FB7D0133FB75FA7D56
:101050007B7D9A42E7D3012318461837BD4680BDF1
:1010600080B586B000AFF8607B600B467B8113468D
:101070003B817868FDF7D6F80346BB820023FB82EC
:101080002DE07A89BB8AD31A002B0EDA3A897B8944
:101090001A44BB8AD21AFB8A13443A8993FBF2F1B1
:1010A00002FB01F29B1A1A460BE07A89BB8AD21A1C
:1010B000FB8A13443A8993FBF2F102FB01F29B1A7B
:1010C0001A46FB6813441A78FB8A79680B441B782C
:1010D0009A4201D0002307E0FB8A0133FB82FA8A9F
:1010E000BB8A9A42CDD3012318461837BD4680BD2E
:1010F00080B485B000AF0346FB71FB792F2B06D976
:10110000FB79392B03D8FB79303BFB7308E0FB7983
:10111000402B05D9FB79462B02D8FB79373BFB7373
:10112000FB7B18461437BD4680BC704780B500AFC6
:10113000844B1B780A2B40F00081FEF715F803461C
:10114000002B00F0FC80FEF725F801467E4B1B7853
:101150001A46C9B27D4B99547B4B1B781A467B4B80
:10116000134401211846FEF78BF8774B1B780133A7
:10117000DAB2754B1A70744B1B789BB2744A1268C2
:1011800019467248FFF734FF0346002B0DD0714813
:10119000FEF758F86C4B1A786F4B1A706A4B0022A6
:1011A0001A70684B00221A70C9E0674B1B789BB21B
:1011B0006A4A19466548FFF71BFF0346002B0DD00E
:1011C0006748FEF73FF8604B1A78634B1A705E4B26
:1011D00000221A705B4B01221A70B0E05A4B1B7848
:1011E0009BB2604A19465948FFF702FF0346002B9D
:1011F0000DD05D48FEF726F8534B1A78564B1A70FF
:10120000514B00221A704F4B03221A7097E04E4B3D
:101210001B789BB2554A19464C48FFF7E9FE034636
:10122000002B0DD05248FEF70DF8474B1A784A4B69
:101230001A70454B00221A70424B06221A707EE04B
:10124000414B1B789BB24B4A19464048FFF7D0FEF2
:101250000346002B0DD04848FDF7F4FF3A4B1A78AF
:101260003D4B1A70384B00221A70364B05221A700B
:1012700065E0354B1B789BB2404A19463348FFF76F
:10128000B7FE0346002B0DD03D48FDF7DBFF2E4B8C
:101290001A78314B1A702C4B00221A70294B0722F6
:1012A0001A704CE0284B1B789BB2364A19462748E7
:1012B000FFF79EFE0346002B0DD03348FDF7C2FF1B
:1012C000214B1A78244B1A701F4B00221A701D4BA9
:1012D00008221A7033E01C4B1B789BB22B4A19462C
:1012E0001A48FFF785FE0346002B0DD02848FDF76E
:1012F000A9FF154B1A78184B1A70134B00221A705D
:10130000104B09221A701AE00F4B1B789BB2214A2E
:1013100019460E48FFF76CFE0346002B0FD01E48FF
:10132000FDF790FF084B1A780B4B1A70064B002202
:101330001A70044B02221A7001E000BF00E000BFE7
:1013400080BD00BFD0010020C1120020C0020020DB
:10135000D4010020446C0208C0120020546E020820
:101360004C6C02084C6E0208586C0208606E020851
:10137000646C02086C6E0208786C02087C6E0208CD
:10138000946C0208946E0208B46C0208886E02081D
:10139000D06C02085C6E0208F06C020880B400AFEA
:1013A000024B1B781846BD4680BC7047D001002018
:1013B00080B400AF034B0A221A7000BFBD4680BC48
:1013C000704700BFD001002080B400AF094B1B68FC
:1013D0000133084A1360074B1B68002B04D1054BEF
:1013E0001B680133034A1360024B1B681846BD4655
:1013F00080BC7047C412002080B400AF104B1B6843
:1014000001330F4A13600F4B1B68002B13D00D4B99
:101410001B7B002B0FD10B4B5B68002B04D0094BBF
:101420005B68013B074A5360064B5B68002B02D1A7
:10143000044B01221A7300BFBD4680BC704700BF39
:10144000C81200209458002090B589B000AFF86011
:10145000B9607A600023FB770023BB6100233B6106
:101460000023FB7733E1FA7FA14913469B00134425
:101470009B000B4404331B68BA691344BB61BA690F
:10148000BB689A4240F2C180FA7F994913469B009B
:1014900013449B000B4404331A68BB69D31ABA681F
:1014A00013443B61FA7FB969BB68C91A9048134677
:1014B0009B0013449B000344043319602723FB75EE
:1014C0004CE0FB7D591EFA7D89480B469B000B447E
:1014D0009B0003441968864813469B0013449B00F5
:1014E00003441960FB7D591EFA7D81480B469B0021
:1014F0000B449B000344083319687D4813469B0046
:1015000013449B00034408331960FB7D591EFA7D88
:1015100077480B469B000B449B0003440433196837
:10152000734813469B0013449B0003440433196023
:10153000FB7D591EFA7D6E480B469B000B449B00B9
:101540000344103319686A4813469B0013449B00F8
:10155000034410331960FB7D013BFB75FA7DFB7F73
:101560009A42AED8FA7F624913469B0013449B000F
:101570000B44FA681A60FA7F5D4913469B001344D6
:101580009B000B4404333A691A60FA7F58491346AA
:101590009B0013449B000B4408337A681A60FA7F5F
:1015A000534913469B0013449B000B4404331B68B0
:1015B000002B0AD1FA7F4E4913469B0013449B002F
:1015C0000B440C3301221A7009E0FA7F4849134694
:1015D0009B0013449B000B440C3300221A70FC7FC9
:1015E000FFF7F2FE0246424923469B0023449B003C
:1015F0000B4410331A60FA7F3D4913469B00134495
:101600009B000B4410331B686EE0FA7F3849134689
:101610009B0013449B000B441B68002B54D1FA7FA2
:10162000334913469B0013449B000B44FA681A602D
:10163000FA7FB968BB69C91A2D4813469B00134449
:101640009B00034404331960FA7F294913469B0029
:1016500013449B000B4408337A681A60FA7F2449CC
:1016600013469B0013449B000B4404331B68002B60
:101670000AD1FA7F1E4913469B0013449B000B447A
:101680000C3301221A7009E0FA7F194913469B00B6
:1016900013449B000B440C3300221A70FC7FFFF7AD
:1016A00093FE0246124923469B0023449B000B44B1
:1016B00010331A60FA7F0E4913469B0013449B00B7
:1016C0000B4410331B680FE0FB7F0133FB77FB7F7C
:1016D000272B7FF6C8AEFA7F054913469B001344BB
:1016E0009B000B4410331B6818462437BD4690BD41
:1016F0009458002080B485B000AF786000237B73DD
:101700007B68002B00F0E2800023FB73DAE0FA7BB9
:10171000714913469B0013449B000B4410331B6814
:101720007A689A4240F0CB8001237B73FB7B002BCD
:101730002BD0FB7B262B28D8FB7B5A1C66491346F3
:101740009B0013449B000B441B68002B1DD0FB7BAC
:101750005A1C614913469B0013449B000B440433FD
:101760001968FA7B5C4813469B0013449B000344B2
:1017700004331B68FA7B01321944574813469B0017
:1017800013449B00034404331960FB7BBB7360E08C
:10179000BB7B591CBA7B50480B469B000B449B00FB
:1017A000034419684C4813469B0013449B000344B0
:1017B0001960BB7B591CBA7B47480B469B000B4406
:1017C0009B00034408331968434813469B001344A5
:1017D0009B00034408331960BB7B591CBA7B3E480D
:1017E0000B469B000B449B000344043319683A48A2
:1017F00013469B0013449B00034404331960BB7BD6
:10180000591CBA7B34480B469B000B449B00034495
:101810000C331878304913469B0013449B000B444B
:101820000C3302461A70BB7B591CBA7B2A480B4604
:101830009B000B449B000344103319682648134651
:101840009B0013449B00034410331960BB7B01339E
:10185000BB73BB7B262B9BD9BA7B1F4913469B00CE
:1018600013449B000B4400221A60BA7B1A491346AA
:101870009B0013449B000B44083300221A60BA7B80
:10188000154913469B0013449B000B44043300226C
:101890001A60BA7B104913469B0013449B000B440B
:1018A0000C3300221A70BA7B0B4913469B00134479
:1018B0009B000B44103300221A607B7B07E0FB7B0C
:1018C0000133FB73FB7B272B7FF621AF7B7B184615
:1018D0001437BD4680BC704794580020B0B586B020
:1018E00000AF114B1B7B002B19D00F4B1B68984787
:1018F0000D4B00221A730C4B3C1D1D460FCD0FC41F
:101900002B6823607B691846FFF7F4FEFB68002B09
:1019100005D07B68F968FA681846FFF795FD00BFA7
:101920001837BD46B0BD00BF9458002080B400AF4A
:10193000BFF34F8F00BF064BDB6803F4E06204493E
:10194000044B1343CB60BFF34F8F00BF00BFFDE7D5
:1019500000ED00E00400FA0580B500AF0121044865
:1019600000F044F80221024800F064F8FFF7DEFFBF
:101970000000060880B500AF0121044800F036F8E9
:101980000121024800F056F8FFF7D0FF00000608DA
:1019900080B400AF034B01221A7000BFBD4680BC6B
:1019A000704700BF6C26002080B400AF034B0022BC
:1019B0001A7000BFBD4680BC704700BF6C26002077
:1019C00080B400AF024B1B781846BD4680BC704700
:1019D0006C26002080B500AF00F04CFF00BF80BD3A
:1019E00080B500AF00F020FF00BF80BD80B588B09B
:1019F00000AF786039603B68DB0A0133FB61FFF7B9
:101A0000EFFF0023BB60FB697B617B683B6107F1F3
:101A1000180207F108031146184600F0D1FFFFF73E
:101A2000D9FF0348FDF70EFC00BF2037BD4680BD3F
:101A3000FC6C020880B582B000AF78603960FFF7B7
:101A4000CFFF124B1B69114A43F00103136100BF22
:101A50000E4BDB6803F00103002BF9D17B683A6879
:101A600092B21A8000BF094BDB6803F00103002B20
:101A7000F9D1064B1B69054A23F001031361FFF7F7
:101A8000A9FF00BF0837BD4680BD00BF002002404F
:101A900080B58AB000AFF860B9607A6007F11003D2
:101AA0007A682049184604F049F807F110031846EF
:101AB000FDF7C8FBFFF794FF1B4B1B691A4A43F065
:101AC0000103136100237B6211E000BF164BDB684A
:101AD00003F00103002BF9D17B6ABA681344796AD9
:101AE000FA680A441B8813807B6A02337B627B6A34
:101AF0007A689A42E9D800BF0B4BDB6803F0010318
:101B0000002BF9D1084B1B69074A23F0010313612D
:101B1000FFF760FF0548FDF795FB00BF2837BD467E
:101B200080BD00BF0C6D0208002002401C6D020841
:101B300080B500AF174B1A78174B1B789A4223D009
:101B4000144B1A78144B1A70124B1B78032B1DD8A8
:101B500001A252F823F000BF691B0208711B0208A2
:101B6000791B0208811B02080C48FDF76BFB0EE095
:101B70000B48FDF767FB0AE00A48FDF763FB06E048
:101B80000948FDF75FFB02E000BF00E000BF00BFB7
:101B900080BD00BFCC120020CD120020286D0208AD
:101BA0003C6D0208546D0208706D020880B500AFEC
:101BB000FFF7BEFF074B1B78032B08D8054B1B789C
:101BC000054ADB0013445B689847002300E00123CB
:101BD000184680BDCC120020D801002080B500AF8F
:101BE000FCF73CFF0346002B02D0024B01221A7087
:101BF00000BF80BDCC12002080B500AFFEF7D6FC40
:101C0000FFF710F90346112B03D10A4B02221A7079
:101C10000DE0FFF707F90346122B08D10220FDF76C
:101C200089F80020FFF708F9024B00221A7000BF64
:101C300080BD00BFCC12002080B500AFFDF714FCC2
:101C4000FEF7D8FB03460B2B59D00B2B60DC062B81
:101C500034D00A2B5CD1FFF7B3FE0346002B0CD126
:101C6000FCF76AFD03461A462C492D4803F066FF2F
:101C70002C492D4803F062FF18E0FCF75DFD034698
:101C80001A462649264803F059FF284B1B78022B99
:101C900004D12749244803F051FF07E0234B1B7868
:101CA000032B03D12349204803F048FF1E491C4859
:101CB000FFF700F9204B03221A702CE01F4B1A7813
:101CC0001F4B1B789A4225D01C4B1A781C4B1A705C
:101CD000FCF732FD03461A461049114803F02EFF67
:101CE000164B1B781A4617490F4803F027FF0E4979
:101CF0000B48FFF7DFF8104B03221A700AE0FDF7DC
:101D00004DF80020FEF780FB0B4B00221A7002E01A
:101D100000BF00E000BF00BF80BD00BF8C6D0208A7
:101D2000D0120020946D020804130020B45B002040
:101D30009C6D0208AC6D0208CC120020B55B00203F
:101D4000B65B0020D06D020880B500AFFFF73CF90C
:101D50000346002B01D0FFF705F9FEF727FCFFF73C
:101D600061F80346112B02D0122B1FD02CE0FEF796
:101D700041FB03460A2B10D1FFF722FE0346002B3E
:101D800005D11248FDF75EFAFFF7E6FD1BE01048AB
:101D9000FDF758FAFFF7EEFD15E0FEF72BFB0346C3
:101DA000062B10D10B4B02221A700CE00220FCF71C
:101DB000C1FF0020FEF728FB0020FFF73DF8054B90
:101DC00000221A7000E000BF00BF80BDD46D020881
:101DD000F46D0208CC12002080B586B000AF00F090
:101DE0004DFAFDF7DBF8FDF767F9FDF701FAFDF7AE
:101DF0004BF8FCF71BFCFCF7D9FFFDF715F9FDF7D5
:101E000073F8FCF75DFAFDF73FF8FCF76FFC0F483D
:101E1000FDF718FAFCF740FC002200210C48FCF703
:101E200053FCFCF789FC02463B1D0A49184603F0A7
:101E300085FE3B1D002201211846FCF745FCFFF7FB
:101E4000B5FEFFF74BFDFFF771F9F8E7146E0208D6
:101E5000246E0208306E020880B400AF72B600BF74
:101E6000FEE7000080B485B000AF154B9B69144AB3
:101E700043F001039361124B9B6903F00103BB60C4
:101E8000BB680F4BDB690E4A43F08053D3610C4BA8
:101E9000DB6903F080537B607B680A4B5B68FB6007
:101EA000FB6823F0E063FB60FB6843F08063FB604A
:101EB000044AFB68536000BF1437BD4680BC7047BE
:101EC000001002400000014080B588B000AF78608B
:101ED00007F1100300221A605A609A60DA607B688A
:101EE0001B68154A934223D1144B9B69134A43F054
:101EF00008039361114B9B6903F00803FB60FB68C7
:101F0000C0233B6112237B610323FB6107F11003B4
:101F100019460B4800F0FCFD084BDB69074A43F407
:101F20000013D361054BDB6903F40013BB60BB688E
:101F300000BF2037BD4680BD005400400010024065
:101F4000000C014080B588B000AF786007F1100345
:101F500000221A605A609A60DA607B681B68164A31
:101F6000934224D1154BDB69144A43F48043D36177
:101F7000124BDB6903F48043FB60FB680F4B9B69EA
:101F80000E4A43F0080393610C4B9B6903F008036E
:101F9000BB60BB684FF420433B6102237B6103239A
:101FA000FB6107F110031946054800F0B1FD00BFC1
:101FB0002037BD4680BD00BF003800400010024001
:101FC000000C014080B584B000AF78607B681B686E
:101FD0000D4A934213D10D4BDB690C4A43F00203C7
:101FE000D3610A4BDB6903F00203FB60FB6800224C
:101FF00000211D2000F09FFA1D2000F0B8FA00BF5C
:102000001037BD4680BD00BF0004004000100240F4
:1020100080B58AB000AF786007F1180300221A601B
:102020005A609A60DA607B681B683C4A93423AD1F6
:102030003B4B9B693A4A43F480439361384B9B691D
:1020400003F480437B617B69354B9B69344A43F0E1
:1020500004039361324B9B6903F004033B613B69CA
:102060004FF40073BB610223FB6103237B6207F122
:10207000180319462B4800F04BFD4FF48063BB61F9
:102080000023FB6100233B6207F118031946254832
:1020900000F03EFD00220021252000F04CFA252012
:1020A00000F065FA36E07B681B681F4A934231D125
:1020B0001B4BDB691A4A43F48023D361184BDB695D
:1020C00003F48023FB60FB68154B9B69144A43F0C3
:1020D00008039361124B9B6903F00803BB60BB6864
:1020E0004FF48063BB610223FB6103237B6207F132
:1020F000180319460D4800F00BFD4FF40063BB6157
:102100000023FB6100233B6207F1180319460748CF
:1021100000F0FEFC00BF2837BD4680BD00380140FE
:10212000001002400008014000480040000C01403F
:1021300080B400AFFEE780B400AFFEE780B400AF2C
:10214000FEE780B400AFFEE780B400AFFEE780B4E6
:1021500000AF00BFBD4680BC704780B400AF00BF79
:10216000BD4680BC704780B400AF00BFBD4680BC98
:10217000704780B500AF00F0C7F800BF80BD000019
:1021800080B500AF024802F06DFD00BF80BD00BF0A
:102190003814002080B500AF024803F06FF800BF8C
:1021A00080BD00BFC824002080B586B000AF786035
:1021B000144A154BD31A7B617B693B61134B1B6837
:1021C000002B02D1114B124A1A60104B1A687B681F
:1021D00013443A699A4207D203F070FC03460C227A
:1021E0001A604FF0FF3309E0084B1B68FB60074B98
:1021F0001A687B681344054A1360FB681846183751
:10220000BD4680BD000001200004000038130020FE
:10221000F063002080B400AF034B044A9A6000BF13
:10222000BD4680BC704700BF00ED00E000E0010843
:102230000C480D490D4A002302E0D458C450043321
:10224000C4188C42F9D30A4A0A4C002301E01360F7
:102250000432A242FBD3FFF7DDFF03F035FCFFF7AA
:10226000BBFD70470000002068020020F06E0208ED
:1022700068020020F0630020FEE7000080B500AF98
:10228000084B1B68074A43F010031360032000F05B
:1022900047F90F2000F008F8FFF7E4FD0023184687
:1022A00080BD00BF0020024080B582B000AF7860E2
:1022B000124B1A68124B1B7819464FF47A73B3FB12
:1022C000F1F3B2FBF3F3184600F05FF90346002B7D
:1022D00001D001230EE07B680F2B0AD80022796819
:1022E0004FF0FF3000F027F9064A7B6813600023A7
:1022F00000E0012318460837BD4680BDF8010020E4
:1023000000020020FC01002080B400AF054B1B78C8
:102310001A46054B1B681344034A136000BFBD46B1
:1023200080BC704700020020B863002080B400AF7A
:10233000024B1B681846BD4680BC7047B86300203E
:1023400080B584B000AF7860FFF7F0FFB8607B68BD
:10235000FB60FB68B3F1FF3F05D00A4B1B781A46C0
:10236000FB681344FB6000BFFFF7E0FF0246BB6859
:10237000D31AFA689A42F7D800BF00BF1037BD469B
:1023800080BD00BF0002002080B485B000AF78603F
:102390007B6803F00703FB600C4BDB68BB60BA682B
:1023A0004FF6FF031340BB60FB681A02BB68134380
:1023B00043F0BF6343F40033BB60044ABB68D3609F
:1023C00000BF1437BD4680BC704700BF00ED00E081
:1023D00080B400AF044BDB681B0A03F00703184608
:1023E000BD4680BC704700BF00ED00E080B483B004
:1023F00000AF0346FB7197F90730002B0BDBFB792D
:1024000003F01F02064997F907305B09012000FA23
:1024100002F241F8232000BF0C37BD4680BC704754
:1024200000E100E080B483B000AF03463960FB7187
:1024300097F90730002B0ADB3B68DAB20C4997F9B1
:1024400007301201D2B20B4483F800230AE03B6844
:10245000DAB20849FB7903F00F03043B1201D2B250
:102460000B441A7600BF0C37BD4680BC704700BFD6
:1024700000E100E000ED00E080B489B000AFF8605A
:10248000B9607A60FB6803F00703FB61FB69C3F185
:102490000703042B28BF0423BB61FB690433062B0D
:1024A00002D9FB69033B00E000237B614FF0FF3260
:1024B000BB6902FA03F3DA43BB681A407B699A40AE
:1024C0004FF0FF317B6901FA03F3D9437B680B407E
:1024D000134318462437BD4680BC704780B582B090
:1024E00000AF78607B68013BB3F1807F01D30123AB
:1024F0000FE00A4A7B68013B53600F214FF0FF3029
:10250000FFF790FF054B00229A60044B07221A60E8
:10251000002318460837BD4680BD00BF10E000E02C
:1025200080B582B000AF78607868FFF72DFF00BFFC
:102530000837BD4680BD80B586B000AF0346B960A0
:102540007A60FB7300237B61FFF742FF78617A6852
:10255000B9687869FFF790FF024697F90F30114686
:102560001846FFF75FFF00BF1837BD4680BD80B536
:1025700082B000AF0346FB7197F907301846FFF7AA
:1025800035FF00BF0837BD4680BD80B582B000AFC3
:1025900078607868FFF7A2FF034618460837BD4603
:1025A00080BD80B485B000AF78600023FB737B688A
:1025B00093F82130022B08D07B6804229A637B6851
:1025C000002283F82020012320E07B681B681A6822
:1025D0007B681B6822F00E021A607B681B681A6811
:1025E0007B681B6822F001021A607B681A6C7B68AA
:1025F000DB6B012101FA02F25A607B68012283F849
:1026000021207B68002283F82020FB7B18461437AA
:10261000BD4680BC7047000080B584B000AF7860D4
:102620000023FB737B6893F82130022B05D07B6875
:1026300004229A630123FB73D6E07B681B681A6847
:102640007B681B6822F00E021A607B681B681A68A0
:102650007B681B6822F001021A607B681B681A46BF
:10266000644B9A4258D97B681B68634A93424FD0A7
:102670007B681B68614A934248D07B681B68604A4C
:10268000934240D07B681B685E4A934238D07B6897
:102690001B685D4A934230D07B681B685B4A93425B
:1026A00028D07B681B68534A934220D07B681B6804
:1026B000574A934219D07B681B68564A934212D0FE
:1026C0007B681B68544A93420AD07B681B68534A54
:1026D000934202D14FF480531BE04FF4803318E053
:1026E0004FF4807315E0102313E0012311E04FF045
:1026F00080730EE04FF480130BE04FF4803308E05A
:102700004FF4805305E04FF4807302E0102300E0A3
:102710000123434A536057E07B681B68364A934263
:102720004FD07B681B68354A934248D07B681B6852
:10273000334A934240D07B681B68324A934238D078
:102740007B681B68304A934230D07B681B682F4AF5
:10275000934228D07B681B68264A934220D07B682E
:102760001B682B4A934219D07B681B68294A934205
:1027700012D07B681B68284A93420AD07B681B688A
:10278000264A934202D14FF480531BE04FF480332A
:1027900018E04FF4807315E0102313E0012311E0DB
:1027A0004FF080730EE04FF480130BE04FF4803352
:1027B00008E04FF4805305E04FF4807302E01023EB
:1027C00000E00123174A53607B68012283F821202F
:1027D0007B68002283F820207B685B6B002B03D092
:1027E0007B685B6B78689847FB7B18461037BD4663
:1027F00080BD00BF80000240080002401C00024073
:102800003000024044000240580002406C00024088
:10281000080402401C040240300402404404024008
:10282000000402400000024080B483B000AF0023E7
:10283000FB710D4B1B6903F08003002B0DD00A4B7D
:102840000A4A5A60084B0A4A5A60074B1B6903F050
:102850008003002B01D00123FB71FB7918460C3754
:10286000BD4680BC704700BF002002402301674581
:10287000AB89EFCD80B400AF054B1B69044A43F030
:102880008003136100231846BD4680BC704700BF1B
:102890000020024080B584B000AF7860FFF746FDAD
:1028A000F86010E07B68B3F1FF3F0CD07B68002B31
:1028B00007D0FFF73BFD0246FB68D31A7A689A42BD
:1028C00001D2032325E0154BDB6803F00103002B45
:1028D000E8D1124BDB6803F02003002B02D00F4B32
:1028E0002022DA600D4BDB6803F01003002B0BD1C4
:1028F0000A4BDB6903F00103002B05D1074BDB68B2
:1029000003F00403002B03D000F00AF8012300E0D9
:10291000002318461037BD4680BD00BF002002408E
:1029200080B483B000AF00237B60234BDB6803F0EF
:102930001003002B09D0214BDB6943F002031F4A2F
:10294000D3617B6843F010037B601B4BDB6803F0B3
:102950000403002B09D0194BDB6943F00103174A2C
:10296000D3617B6843F004037B60134BDB6903F0A6
:102970000103002B0BD0114BDB6943F004030F4A1A
:10298000D3610D4BDB690C4A23F00103D3617B68F3
:1029900040F20112934206D1074BDB69064A23F04D
:1029A0000103D36102E0044A7B68D36000BF0C37A7
:1029B000BD4680BC704700BF00200240C0630020BD
:1029C00080B584B000AF786039600123FB730023C9
:1029D000BB602F4B1B7E012B01D1022353E02C4BFC
:1029E00001221A767B681B68022B16D14CF25030FC
:1029F000FFF750FF0346002B41D1012000F04CF8B7
:102A00004CF25030FFF746FF0346FB73214B1B6926
:102A1000204A23F00403136131E04CF25030FFF7F9
:102A200039FF0346002B2AD13B684FF0FF321A6072
:102A30007B689B68BB6019E0B86800F049F84CF20D
:102A40005030FFF727FF0346FB73124B1B69114AF7
:102A500023F002031361FB7B002B03D03B68BA68B1
:102A60001A600CE0BB6803F50063BB607B68DB6841
:102A7000DA027B689B681344BA689A42DCD3044B41
:102A800000221A76FB7B18461037BD4680BD00BF7A
:102A9000C06300200020024080B483B000AF7860A3
:102AA000094B0022DA61094B1B69084A43F0040311
:102AB0001361064B1B69054A43F04003136100BFD5
:102AC0000C37BD4680BC7047C06300200020024028
:102AD00080B483B000AF78600B4B0022DA610B4BFF
:102AE0001B690A4A43F002031361084A7B68536179
:102AF000064B1B69054A43F04003136100BF0C37C6
:102B0000BD4680BC704700BFC0630020002002406B
:102B100080B48BB000AF7860396000237B62002303
:102B20003B6279E101227B6A02FA03F3FB613B68B5
:102B30001B68FA691340BB61BA69FB699A4240F0AD
:102B400068813B685B68A04A93425ED09E4A93428C
:102B500075D89E4A934258D09C4A93426FD89C4A5B
:102B6000934252D09A4A934269D89A4A93424CD09F
:102B7000984A934263D8984A934246D0964A9342E1
:102B80005DD8122B2AD8122B59D801A252F823F063
:102B90000B2C0208E52B0208F72B0208392C02083F
:102BA0003F2C02083F2C02083F2C02083F2C020851
:102BB0003F2C02083F2C02083F2C02083F2C020841
:102BC0003F2C02083F2C02083F2C02083F2C020831
:102BD0003F2C0208ED2B0208012C02087F4A934289
:102BE00013D02CE03B68DB683B6229E03B68DB6884
:102BF00004333B6224E03B68DB6808333B621FE040
:102C00003B68DB680C333B621AE03B689B68002B37
:102C100002D104233B6213E03B689B68012B05D182
:102C200008233B627B68FA691A6109E008233B626A
:102C30007B68FA695A6103E000233B6200E000BF51
:102C4000BB69FF2B01D87B6801E07B6804337B61A3
:102C5000BB69FF2B02D87B6A9B0002E07B6A083BC2
:102C60009B003B617B691A680F213B6901FA03F302
:102C7000DB431A40396A3B6901FA03F31A437B6963
:102C80001A603B685B6803F08053002B00F0C18042
:102C9000534B9B69524A43F001039361504B9B692C
:102CA00003F00103BB60BB684E4A7B6A9B0802339A
:102CB00052F82330FB607B6A03F003039B000F2272
:102CC00002FA03F3DB43FA681340FB607B68464A71
:102CD00093421FD07B68454A934219D07B68444A8F
:102CE000934213D07B68434A93420DD07B68424A9B
:102CF000934207D07B68414A934201D105230AE001
:102D0000062308E0042306E0032304E0022302E094
:102D1000012300E000237A6A02F00302920093404C
:102D2000FA681343FB602F497B6A9B080233FA68F9
:102D300041F823203B685B6803F48033002B06D006
:102D40002F4B1A682E49BB6913430B6006E02C4BCE
:102D50001A68BB69DB432A4913400B603B685B6818
:102D600003F40033002B06D0254B5A682449BB6975
:102D700013434B6006E0224B5A68BB69DB43204992
:102D800013404B603B685B6803F48013002B06D054
:102D90001B4B9A681A49BB6913438B6006E0184BBA
:102DA0009A68BB69DB43164913408B603B685B68DC
:102DB00003F40013002B25D0114BDA681049BB69CE
:102DC0001343CB6025E000BF00003210000031103B
:102DD000000022100000211000001210000011104D
:102DE000001002400000014000080140000C0140BA
:102DF000001001400014014000180140001C014077
:102E0000000401400B4BDA68BB69DB4309491340FE
:102E1000CB607B6A01337B623B681A687B6A22FA6B
:102E200003F3002B7FF47EAE00BF00BF2C37BD46FE
:102E300080BC70470004014080B483B000AF78606C
:102E40000B467B8013467B707B78002B03D07A88FF
:102E50007B681A6103E07B881A047B681A6100BFF3
:102E60000C37BD4680BC704780B584B000AF786039
:102E70007B68002B01D101232BE17B6893F83D3067
:102E8000DBB2002B06D17B68002283F83C207868F7
:102E9000FFF71AF87B68242283F83D207B681B68C3
:102EA0001A687B681B6822F001021A607B681B6845
:102EB0001A687B681B6842F400421A607B681B68D2
:102EC0001A687B681B6822F400421A6001F06EFBEE
:102ED000F8607B685B68814A934207D8FB68804A48
:102EE000934294BF01230023DBB206E0FB687D4AD6
:102EF000934294BF01230023DBB2002B01D00123B6
:102F0000E7E0FB68784AA2FB03239B0CBB607B686D
:102F10001B685B6823F03F017B681B68BA680A4343
:102F20005A607B681B681B6A23F03F017B685B6803
:102F30006A4A934202D8BB68013309E0BB684FF488
:102F4000967202FB03F3694AA2FB03239B09013338
:102F50007A6812680B4313627B681B68DB6923F491
:102F60004F4222F0FF027B685B685C498B4219D8B4
:102F7000FB68591E7B685B685B00B1FBF3F3591C6F
:102F800040F6FC730B40002B0AD0FB68591E7B688F
:102F90005B685B00B1FBF3F30133C3F30B0351E058
:102FA00004234FE07B689B68002B11D1FB68581EFF
:102FB0007B6859680B465B000B44B0FBF3F30133AD
:102FC000C3F30B03002B0CBF01230023DBB212E081
:102FD000FB68581E7B6859680B469B000B449900A0
:102FE0000B44B0FBF3F30133C3F30B03002B0CBF13
:102FF00001230023DBB2002B01D0012322E07B68F8
:103000009B68002B0ED1FB68581E7B6859680B46E5
:103010005B000B44B0FBF3F30133C3F30B0343F446
:1030200000430FE0FB68581E7B6859680B469B0005
:103030000B4499000B44B0FBF3F30133C3F30B03D0
:1030400043F44043796809681343CB617B681B688C
:103050001B6823F0C0017B68DA697B681B6A1A432E
:103060007B681B680A431A607B681B689B6823F4B3
:10307000034323F0FF037A6811697A68D268114329
:103080007A6812680B4393607B681B68DB6823F0E7
:10309000FF017B685A697B689B691A437B681B68E0
:1030A0000A43DA607B681B681A687B681B6842F019
:1030B00001021A607B6800221A647B68202283F870
:1030C0003D207B6800221A637B68002283F83E2043
:1030D000002318461037BD4680BD00BFA086010002
:1030E0007F841E00FF083D0083DE1B43D34D62102A
:1030F00080B588B002AFF8607A601A460B467B81D3
:1031000013463B81FFF712F97861FB6893F83D3075
:10311000DBB2202B40F0E0807B6900931923012271
:103120007049F86800F092FC0346002B01D002239E
:10313000D3E0FB6893F83C30012B01D10223CCE0B3
:10314000FB68012283F83C20FB681B681B6803F0C6
:103150000103012B07D0FB681B681A68FB681B681A
:1031600042F001021A60FB681B681A68FB681B6862
:1031700022F400621A60FB68212283F83D20FB687C
:10318000102283F83E20FB6800221A64FB687A68EC
:103190005A62FB683A895A85FB685B8D9AB2FB6874
:1031A0001A85FB68504ADA6279897B693A6AF8685D
:1031B00000F0FCFA0346002B01D001238DE0002330
:1031C0003B61FB681B685B693B61FB681B689B6933
:1031D0003B613B6966E07A69396AF86800F00CFD8A
:1031E0000346002B0DD0FB681B6C042B07D1FB683A
:1031F0001B681A68FB681B6842F400721A6001239E
:103200006BE0FB685B6A1A78FB681B681A61FB68F5
:103210005B6A5A1CFB685A62FB685B8D9BB2013B80
:103220009AB2FB685A85FB681B8D013B9AB2FB681A
:103230001A85FB681B685B6903F00403042B1BD130
:10324000FB681B8D002B17D0FB685B6A1A78FB6844
:103250001B681A61FB685B6A5A1CFB685A62FB6850
:103260005B8D9BB2013B9AB2FB685A85FB681B8D54
:10327000013B9AB2FB681A857A69396AF86800F0EE
:10328000FCFC0346002B0DD0FB681B6C042B07D104
:10329000FB681B681A68FB681B6842F400721A60BE
:1032A00001231AE0FB681B8D002B94D1FB681B687F
:1032B0001A68FB681B6842F400721A60FB682022DF
:1032C00083F83D20FB68002283F83E20FB68002243
:1032D00083F83C20002300E0022318461837BD463F
:1032E00080BD00BF020010000000FFFF80B58CB061
:1032F00002AFF8607A601A460B467B8113463B8129
:1033000000233B62FFF712F87862FB6893F83D30C8
:10331000DBB2202B40F03F827B6A0093192301220D
:103320007F49F86800F092FB0346002B01D002238E
:1033300032E2FB6893F83C30012B01D102232BE2EF
:10334000FB68012283F83C20FB681B681B6803F0C4
:103350000103012B07D0FB681B681A68FB681B6818
:1033600042F001021A60FB681B681A68FB681B6860
:1033700022F400621A60FB68222283F83D20FB6879
:10338000102283F83E20FB6800221A64FB687A68EA
:103390005A62FB683A895A85FB685B8D9AB2FB6872
:1033A0001A85FB685F4ADA6279897B6A3A6BF8684A
:1033B00000F07EFA0346002B01D00123ECE1FB680C
:1033C0001B8D002B13D10023FB61FB681B685B691D
:1033D000FB61FB681B689B69FB61FB69FB681B6801
:1033E0001A68FB681B6842F400721A60C0E1FB684F
:1033F0001B8D012B1ED1FB681B681A68FB681B68BC
:1034000022F480621A6072B600BF0023BB61FB68C1
:103410001B685B69BB61FB681B689B69BB61BB691F
:10342000FB681B681A68FB681B6842F400721A602C
:1034300062B635E0FB681B8D022B1ED1FB681B6852
:103440001A68FB681B6842F400621A6072B600BF1B
:1034500000237B61FB681B685B697B61FB681B6801
:103460009B697B617B69FB681B681A68FB681B684A
:1034700022F480621A6062B612E0FB681B681A6868
:10348000FB681B6842F480621A6000233B61FB68A2
:103490001B685B693B61FB681B689B693B613B691F
:1034A00066E1FB681B8D032B00F21F81FB681B8DFF
:1034B000012B23D17A6A396BF86800F01FFC0346B0
:1034C000002B01D0012367E1FB681B681A69FB68C8
:1034D0005B6AD2B21A70FB685B6A5A1CFB685A625C
:1034E000FB681B8D013B9AB2FB681A85FB685B8DFC
:1034F0009BB2013B9AB2FB685A8539E1FB681B8D90
:10350000022B52D17B6A00933B6B00220649F8687C
:1035100000F09CFA0346002B08D001233CE100BFD9
:10352000020010000000FFFF0400010072B600BF9F
:10353000FB681B681A68FB681B6842F400721A601B
:10354000FB681B681A69FB685B6AD2B21A70FB6879
:103550005B6A5A1CFB685A62FB681B8D013B9AB27E
:10356000FB681A85FB685B8D9BB2013B9AB2FB68D6
:103570005A8562B600BFFB681B681A69FB685B6A04
:10358000D2B21A70FB685B6A5A1CFB685A62FB680D
:103590001B8D013B9AB2FB681A85FB685B8D9BB261
:1035A000013B9AB2FB685A85E2E07B6A00933B6B71
:1035B00000227B49F86800F049FA0346002B01D04D
:1035C0000123E9E0FB681B681A68FB681B6822F4AA
:1035D00080621A6072B600BFFB681B681A69FB68DC
:1035E0005B6AD2B21A70FB685B6A5A1CFB685A624B
:1035F000FB681B8D013B9AB2FB681A85FB685B8DEB
:103600009BB2013B9AB2FB685A85664B1B68DB088C
:10361000654AA2FB03231A0A13469B001344DA00EF
:10362000D31A3B623B6A013B3B623B6A002B18D1D9
:10363000FB6800221A63FB68202283F83D20FB68A8
:10364000002283F83E20FB681B6C43F02002FB68DD
:103650001A6462B600BFFB68002283F83C20012395
:103660009AE0FB681B685B6903F00403042BD9D163
:10367000FB681B681A68FB681B6842F400721A60DA
:10368000FB681B681A69FB685B6AD2B21A70FB6838
:103690005B6A5A1CFB685A62FB681B8D013B9AB23D
:1036A000FB681A85FB685B8D9BB2013B9AB2FB6895
:1036B0005A8562B600BFFB681B681A69FB685B6AC3
:1036C000D2B21A70FB685B6A5A1CFB685A62FB68CC
:1036D0001B8D013B9AB2FB681A85FB685B8D9BB220
:1036E000013B9AB2FB685A8542E07A6A396BF86806
:1036F00000F004FB0346002B01D001234CE0FB68E3
:103700001B681A69FB685B6AD2B21A70FB685B6A55
:103710005A1CFB685A62FB681B8D013B9AB2FB681E
:103720001A85FB685B8D9BB2013B9AB2FB685A8598
:10373000FB681B685B6903F00403042B18D1FB686A
:103740001B681A69FB685B6AD2B21A70FB685B6A15
:103750005A1CFB685A62FB681B8D013B9AB2FB68DE
:103760001A85FB685B8D9BB2013B9AB2FB685A8558
:10377000FB681B8D002B7FF494AEFB68202283F83E
:103780003D20FB68002283F83E20FB68002283F87E
:103790003C20002300E0022318462837BD4680BDA8
:1037A00004000100F801002089B5F81480B588B044
:1037B00002AFF8607A603B600B467B81FB68DB6A96
:1037C0007B617B69082B06D07B69012B03D07B6969
:1037D00013F5803F08D1FB681B681A68FB681B68FB
:1037E00042F480721A600BE0FB681B6B122B07D14E
:1037F000FB681B681A68FB681B6842F480721A60D9
:103800003B6800937B6800224FF00111F86800F0DC
:103810001DF90346002B0DD0FB681B681B6803F4E1
:103820008073B3F5807F03D1FB684FF400721A6494
:10383000032335E0FB681B69B3F5804F08D17B8912
:10384000DBB21A46FB681B6802F0FE021A611BE03D
:103850007B89DB11DBB203F00603DBB263F00F03FD
:10386000DAB2FB681B681A613B687A680E49F8682F
:1038700000F043F90346002B01D0012310E07B89BF
:10388000DAB2FB681B681A613B687A680749F86816
:1038900000F033F90346002B01D0012300E00023A0
:1038A00018461837BD4680BD08000100020001001F
:1038B00080B588B002AFF8607A603B600B467B81D0
:1038C000FB68DB6A7B61FB681B681A68FB681B6826
:1038D00042F480621A607B69082B06D07B69012B59
:1038E00003D07B6913F5803F08D1FB681B681A6819
:1038F000FB681B6842F480721A600BE0FB681B6B6C
:10390000112B07D1FB681B681A68FB681B6842F41F
:1039100080721A603B6800937B6800224FF00111AF
:10392000F86800F093F80346002B0DD0FB681B6885
:103930001B6803F48073B3F5807F03D1FB684FF4F9
:1039400000721A64032379E0FB681B69B3F5804FAA
:1039500008D17B89DBB243F00103DAB2FB681B6854
:103960001A615FE07B89DB11DBB203F00603DBB297
:1039700063F00F03DAB2FB681B681A613B687A6870
:103980003049F86800F0B9F80346002B01D0012354
:1039900054E07B89DAB2FB681B681A613B687A687D
:1039A0002949F86800F0A9F80346002B01D001234B
:1039B00044E000233B61FB681B685B693B61FB687B
:1039C0001B689B693B613B69FB681B681A68FB6865
:1039D0001B6842F480721A603B6800937B68002287
:1039E0004FF00111F86800F031F80346002B0DD0BC
:1039F000FB681B681B6803F48073B3F5807F03D1F9
:103A0000FB684FF400721A64032317E07B89DB1113
:103A1000DBB203F00603DBB263F00E03DAB2FB683D
:103A20001B681A613B687A680749F86800F065F816
:103A30000346002B01D0012300E00023184618376D
:103A4000BD4680BD080001000200010080B584B0C1
:103A500000AFF860B9603B601346FB7125E03B683E
:103A6000B3F1FF3F21D0FEF761FC0246BB69D31AD8
:103A70003A689A4202D33B68002B16D1FB680022B9
:103A80001A63FB68202283F83D20FB68002283F83C
:103A90003E20FB681B6C43F02002FB681A64FB6845
:103AA000002283F83C20012323E0BB681B0CDBB21F
:103AB000012B0DD1FB681B685B69DA43BB681340BF
:103AC0009BB2002B0CBF01230023DBB21A460CE093
