:020000040801F1
:10E0000000000120E5110208E5100208EB100208EB
:10E01000F1100208F7100208FD10020800000000CD
:10E0200000000000000000000000000003110208D2
:10E030000F110208000000001B110208271102083E
:10E040002D1202082D1202082D1202082D120208AC
:10E050002D1202082D1202082D1202082D1202089C
:10E060002D1202082D1202082D1202082D1202088C
:10E070002D1202082D1202082D1202082D1202087C
:10E080002D1202082D1202082D1202082D1202086C
:10E090002D1202082D1202082D1202082D1202085C
:10E0A0002D1202082D1202082D1202082D1202084C
:10E0B0002D120208351102082D1202082D12020835
:10E0C0002D1202082D1202082D1202082D1202082C
:10E0D0002D120208491102082D1202082D12020801
:10E0E0002D1202082D1202082D1202082D1202080C
:10E0F0002D1202082D1202082D1202082D120208FC
:10E100002D1202082D1202082D1202082D120208EB
:10E110002D1202082D1202082D1202082D120208DB
:10E120002D1202082D1202082D1202082D120208CB
:10E1300000000000000000000000000000000000DF
:10E1400000000000000000000000000000000000CF
:10E1500000000000000000000000000000000000BF
:10E1600000000000000000000000000000000000AF
:10E17000000000000000000000000000000000009F
:10E18000000000000000000000000000000000008F
:10E19000000000000000000000000000000000007F
:10E1A000000000000000000000000000000000006F
:10E1B000000000000000000000000000000000005F
:10E1C000000000000000000000000000000000004F
:10E1D000000000000000000000000000000000003F
:04E1E0005FF8E0F113
:10E1E40010B5054C237833B9044B13B10448AFF38D
:10E1F40000800123237010BD68010020000000008E
:10E20400404C020808B5034B1BB103490348AFF364
:10E21400008008BD000000006C010020404C020892
:10E22400034613F8012B002AFBD1181A0138704752
:10E2340080B582B000AF0346FB71FB79002B02D19D
:10E2440000F06EFD01E000F077FD00BF0837BD4629
:10E2540080BD000080B584B000AF0346FB7100238D
:10E26400FB720020FFF7E4FF0023FB8102E0FB893F
:10E274000133FB81FB89092BF9D9FB79012B02D1ED
:10E284000623FB7201E00423FB7207F10B01C82390
:10E294000122094804F0A8FE0023BB8102E0BB89E7
:10E2A4000133BB81BB89092BF9D90120FFF7C0FFDA
:10E2B40000BF1037BD4680BD9012002080B500AF6E
:10E2C4000120FFF7B5FF0120FFF7C4FF00BF80BDA9
:10E2D40080B586B002AF0346FB71104AFB79137018
:10E2E4000F4B80221A7080233B7307F10C024FF608
:10E2F400FF730093012342210A4803F0D1FE6420F6
:10E3040002F0F6FF00F010F800220221102000F0C5
:10E3140017F800BF1037BD4680BD00BFDF110020D5
:10E32400DC1100203C12002080B400AF034B00221B
:10E334001A7000BFBD4680BC704700BF1312002096
:10E3440080B582B000AF0346FB710B46BB71134628
:10E354007B71BB79012B06D92B4B1B7843F0080347
:10E36400DAB2294B1A70294ABB791370FA79FB790E
:10E3740040334021002000F04FF87B79002B09D076
:10E38400BB79012B06D1204B1B7843F00403DAB28E
:10E394001D4B1A70322002F0ABFF002000F022F96E
:10E3A400032000F00EF9052002F0A2FF032000F084
:10E3B40008F9052002F09CFF032000F002F9022076
:10E3C40002F096FF022000F0FCF80F4B1B7843F09C
:10E3D4002003DBB2184600F08FF80D4B04221A70AC
:10E3E40000F074F800F036F80A4B02221A70094B58
:10E3F4001B7843F00403DBB2184600F07DF800BF3D
:10E404000837BD4680BD00BF13120020DE11002076
:10E41400DD1100201212002080B485B000AFF86036
:10E42400B9607A603B60FB68DAB2094B1A70BB686A
:10E43400DAB2074B5A707B68DAB2054B9A703B68C4
:10E44400DAB2034BDA7000BF1437BD4680BC7047A4
:10E45400D811002080B500AF012000F04DF8022053
:10E4640002F046FF00BF80BD80B584B000AF034614
:10E474000A46FB711346BB710423FB60BB79FA683F
:10E484009A4203D8FB68DBB2013BBB710D4B1B788E
:10E49400BA799A4203D30B4B1B78013BBB71BB790E
:10E4A400094AD25CFB791344DBB25BB263F07F03AD
:10E4B4005BB2DBB2184600F01FF800BF1037BD4650
:10E4C40080BD00BFDE110020D811002080B500AF50
:10E4D400084B1B7843F00403DAB2064B1A70054B61
:10E4E4001B7843F00803DBB2184600F005F800BFC0
:10E4F40080BD00BFDD11002080B582B000AF0346AF
:10E50400FB71FB790021184600F013F800BF0837AF
:10E51400BD4680BD80B582B000AF0346FB71FB7978
:10E524004021184600F005F8012318460837BD4677
:10E5340080BD80B584B000AF03460A46FB71134624
:10E54400BB71FB791B09FB73FB7903F00F03BB73EE
:10E55400FA7BBB791343DBB2184600F032F8BA7B7E
:10E56400BB791343DBB2184600F02BF800BF103719
:10E57400BD4680BD80B582B000AF0346FB71FB7918
:10E5840023F01003DBB2184600F02CF8012002F04F
:10E59400AFFEFB7943F01003DBB2184600F022F81B
:10E5A400012002F0A5FEFB7923F01003DBB218462C
:10E5B40000F018F8012002F09BFE00BF0837BD46AA
:10E5C40080BD80B582B000AF0346FB71FB7918466D
:10E5D40000F008F8FB791846FFF7CCFF00BF0837B6
:10E5E400BD4680BD80B586B002AF0346FB710B4BC0
:10E5F4001A78FB791343DBB23B73094B1B7899B24E
:10E6040007F10C024FF6FF7300930123054803F052
:10E6140047FD00BF1037BD4680BD00BFDC110020A0
:10E62400DF1100203C12002080B500AF4220FFF72C
:10E634004FFE00BF80BD80B582B000AF0346FB71C2
:10E64400FB791846FFF758FF00BF0837BD4680BD69
:10E6540080B582B000AF0346FB71FB791846FFF723
:10E6640059FF00BF0837BD4680BD80B582B000AFFA
:10E67400786006E07B685A1C7A601B781846FFF7BE
:10E68400E7FF7B681B78002BF4D100BF00BF08377D
:10E69400BD4680BD80B500AF0120FFF7CCFF00BFB1
:10E6A40080BD80B582B000AF786039603B68DBB272
:10E6B4007A68D2B211461846FFF7D6FE00BF083773
:10E6C400BD4680BD80B584B000AFF860B9607A60A3
:10E6D4007968B868FFF7E5FFF868FFF7C6FF00BF81
:10E6E4001037BD4680BD000080B400AF024B1B78DC
:10E6F4001846BD4680BC70478501002080B400AF39
:10E70400034B01221A7000BFBD4680BC704700BF96
:10E714008501002080B400AF034B00221A7000BFB3
:10E72400BD4680BC704700BF8501002080B500AFA6
:10E734002A4B1A782A4B1B789A4249D0274B1B78CC
:10E744000A2B47D801A252F823F000BF7DE7010845
:10E7540085E701088DE7010895E701089DE70108B1
:10E76400A5E70108ADE70108B5E70108BDE7010821
:10E77400C5E70108CDE701081A4800F03DFC2AE08E
:10E78400194800F039FC26E0184800F035FC22E076
:10E79400174800F031FC1EE0164800F02DFC1AE08A
:10E7A400154800F029FC16E0144800F025FC12E09E
:10E7B400134800F021FC0EE0124800F01DFC0AE0B2
:10E7C400114800F019FC06E0104800F015FC02E0C6
:10E7D40000BF00E000BF00BF80BD00BF00000020FC
:10E7E4002A120020FC4C0208144D02083C4D020879
:10E7F400504D0208744D02088C4D0208B44D0208B5
:10E80400C84D0208F04D0208084E0208304E0208B6
:10E8140080B500AFFFF78AFF094B1A78094B1A70CD
:10E82400074B1B78092B08D8054B1B78064ADB00DD
:10E8340013445B689847002300E00123184680BD19
:10E84400000000202A1200202800002080B500AF1C
:10E8540000224FF48071024803F0C6FA00BF80BD65
:10E864000010014080B500AF01224FF480710248CE
:10E8740003F0BAFA00BF80BD0010014080B500AFBC
:10E8840000224FF40071024803F0AEFA00BF80BDCD
:10E894000010014080B500AF01224FF4007102481E
:10E8A40003F0A2FA00BF80BD0010014080B500AFA4
:10E8B40000220021094801F097FE0022C8210848DF
:10E8C40001F092FEFFF726FF0022C821054801F05F
:10E8D4008BFE054B01221A7000BF80BD51E8010870
:10E8E40069E8010801E701080000002080B500AFD5
:10E8F400FFF7FAFE0346002B02D0024B04221A70E3
:10E9040000BF80BD0000002080B500AF00220021C0
:10E914000A4801F069FE0022C821094801F064FE9A
:10E92400FFF7F8FE00224FF4C871064801F05CFEC0
:10E93400054B03221A7000BF80BD00BF99E801088F
:10E9440081E8010801E701080000002080B500AF5C
:10E95400FFF7CAFE0346002B02D0024B00221A70B6
:10E9640000BF80BD0000002080B500AF064B05222B
:10E974001A70FFF7CFFE002244F62061034801F02D
:10E9840033FE00BF80BD00BF0000002001E7010886
:10E9940080B500AFFFF7A8FE0346002B02D00A4B58
:10E9A40002221A7001F0CAFD0346032B07D101F0BD
:10E9B400CFFDFFF7A3FE044B06221A7002E001F01C
:10E9C400C7FD00BF00BF80BD0000002080B500AFC0
:10E9D400064B1B781A46064B53F82230184600F0B3
:10E9E40071FA044B07221A7000BF80BD8601002013
:10E9F400040000200000002080B500AFFFF774FE83
:10EA04000346002B30D001F099FD0346002B02D0C1
:10EA1400012B23D02BE001F09BFD164B1B78072B19
:10EA240006D9144B00221A70134B08221A7008E0FE
:10EA3400104B1B780133DAB20E4B1A700E4B0622C0
:10EA44001A700C4B1B78062B10D1FFF763FE0022C3
:10EA54004FF4FA71094801F0C7FD07E001F078FDB1
:10EA6400054B0A221A7002E000BF00E000BF00BF9D
:10EA740080BD00BF860100200000002001E70108DE
:10EA840080B500AF034800F01DFA034B09221A7049
:10EA940000BF80BD484E02080000002080B500AFD2
:10EAA40001F04CFD0346012B10D0062B13D100F0CE
:10EAB4002BF80346002B10D001F04AFD084B0A2224
:10EAC4001A700F21074800F0B5FA06E001F040FD86
:10EAD400034B0A221A7000BF00E000BF00BF80BDD4
:10EAE400000000202C12002080B483B000AF034645
:10EAF400FB71044AFB79137000BF0C37BD4680BC20
:10EB0400704700BF0000002098B500AF0E4B1B7883
:10EB14000F2B04D10C4B00221A70012312E000F0D9
:10EB2400FDF90346002B0CD0074B1B785A1CD1B2BD
:10EB3400054A11701C4600F007FA03461A46034BB7
:10EB44001A550023184698BD840100202C12002079
:10EB540080B500AF0220FFF7C7FF00BF80BD0000F3
:10EB640080B584B000AF1B4B9B691A4A43F0100375
:10EB74009361184B9B6903F01003FB60FB68154B12
:10EB84009B69144A43F020039361124B9B6903F081
:10EB94002003BB60BB680F4B9B690E4A43F0040320
:10EBA40093610C4B9B6903F004037B607B68094B06
:10EBB4009B69084A43F008039361064B9B6903F081
:10EBC40008033B603B6800F007F800BF1037BD4600
:10EBD40080BD00BF0010024080B584B000AF3B464A
:10EBE40000221A605A609A60DA6001237B60012374
:10EBF400BB600323FB604FF480733B603B461946C4
:10EC04000D4802F05DFF4FF400733B603B4619462C
:10EC1400094802F055FF01224FF48071064803F0C1
:10EC2400E3F801224FF40071034803F0DDF800BF5C
:10EC34001037BD4680BD00BF0010014080B500AF55
:10EC4400134B144A1A60124B134A5A60104B002299
:10EC54009A600F4B0022DA600D4B4FF480421A6128
:10EC64000B4B00225A610A4B00229A61084B002286
:10EC7400DA61074B00221A62054803F0CDF8034617
:10EC8400002B01D0012300E00023184680BD00BF03
:10EC94003C12002000540040801A060080B500AFEA
:10ECA4001D4B1E4A1A601C4B2822DA611A4B0022A3
:10ECB4009A60194B00225A61174B00221A61164BB5
:10ECC4000022DA60144B00221A62134B00225A62AB
:10ECD400114B00229A62104B0722DA620E4B4FF45A
:10ECE40080229A610C4B4FF482725A600A4804F0F5
:10ECF400F7F80346002B03D002F086F8012308E05E
:10ED0400054B1B681A68044B1B6842F040021A60EA
:10ED14000023184680BD00BF901200200038004038
:10ED240080B500AF00224FF48051024803F05CF834
:10ED340000BF80BD000C014080B500AF01224FF43C
:10ED44008051024803F050F800BF80BD000C014020
:10ED540080B590B000AF07F11803282200211846AF
:10ED640005F02AFB3B1D00221A605A609A60DA60A3
:10ED74001A610A23BB610123BB621023FB620123D6
:10ED84003B6302237B630023BB634FF46013FB6389
:10ED940007F11803184603F089FC0346002B01D041
:10EDA400012317E00F237B600223BB600023FB6079
:10EDB4004FF480633B6100237B613B1D02211846B5
:10EDC40003F0F4FE0346002B03D002F01DF80123E8
:10EDD40000E0002318464037BD4680BD80B500AF33
:10EDE400184B1B68184AA2FB03235B0B013B174A11
:10EDF4001360174B174A1A60154B6322DA60134BE2
:10EE04001B68134A5360124B00221A61104B0022F4
:10EE14009A600F4B00225A610D4B00229A610C48F4
:10EE240004F0C4FA0346002B01D0012308E008488B
:10EE340004F00CFB0346002B01D0012300E0002367
:10EE4400184680BDF40000205917B7D1880100206E
:10EE5400F41200200004004080B582B000AF786056
:10EE640001F09AFB00BF0837BD4680BD80B500AFF6
:10EE7400124B134A1A60114B4FF4E1325A600F4B94
:10EE840000229A600D4B0022DA600C4B00221A61BA
:10EE94000A4B0C225A61094B00229A61074B00224B
:10EEA400DA61064804F0EAFC0346002B01D0012392
:10EEB40002E000F0D7F80023184680BD8423002028
:10EEC4000038014080B584B000AF78607868FFF7FF
:10EED400A7F90346FB81FB89002B17D0786800F063
:10EEE4008BF800BF0B4B1B78DBB2002BFAD0FB89ED
:10EEF4001A467968084804F0A0FD0346002B01D0A7
:10EF040001F082FF034B00221A7000E000BF1037AB
:10EF1400BD4680BD780000208423002080B400AF6B
:10EF2400074B1B889AB2074B1B889BB29A4201D0AD
:10EF3400012300E000231846BD4680BC704700BF93
:10EF44008E0100208C01002080B483B000AF124BEE
:10EF54001B889AB2114B1B889BB29A4201D1FF23A2
:10EF640015E00D4B1B889BB21A460D4B9B5CFB7145
:10EF7400094B1B889BB201335A42C3F30B03C2F300
:10EF84000B0258BF53429AB2034B1A80FB791846BE
:10EF94000C37BD4680BC70478E0100208C010020D8
:10EFA4008413002080B500AF114B124A1A60104B35
:10EFB4004FF4E1325A600E4B00229A600C4B00224F
:10EFC400DA600B4B00221A61094B0C225A61084B80
:10EFD40000229A61064B0022DA61054804F04EFCD7
:10EFE4000346002B01D0012300E00023184680BD16
:10EFF4003C1300200048004080B584B000AF786026
:10F004007868FFF70DF90346FB81FB89002B0BD0D1
:10F01400FA89FF237968064804F07DFC0346002B37
:10F0240003D001F0F1FE00E000BF1037BD4680BD03
:10F034003C13002080B582B000AF78600B467B8023
:10F044007A88C8237968064804F065FC0346002BD7
:10F0540001D001F0D9FE00BF0837BD4680BD00BF16
:10F064003C13002080B500AF01220549054804F097
:10F0740028FD0346002B01D001F0C6FE00BF80BD71
:10F08400801300208423002080B582B000AF786014
:10F094007B681B68104A93421AD1104B1B889BB2A1
:10F0A4001A460F4B19780F4B99540C4B1B889BB283
:10F0B40001335A42C3F30B03C2F30B0258BF53424A
:10F0C4009AB2064B1A8001220549786804F0F9FCCB
:10F0D40000BF0837BD4680BD003801408C010020C8
:10F0E400801300208413002080B483B000AF7860C4
:10F0F400034B01221A7000BF0C37BD4680BC704719
:10F104007800002080B500AF4FF4805200210548FC
:10F1140005F052F9044B00221A80044B00221A8095
:10F1240000BF80BD841300208C0100208E010020CC
:10F1340080B500AF2C4B1A782C4B1B789A424DD0DB
:10F144002A4B1A78284B1A70284B1B780A2B47D85D
:10F1540001A252F823F000BF89F1010891F10108DE
:10F1640099F10108A1F10108A9F10108B1F101081F
:10F17400B9F10108C1F10108C9F10108D1F101088F
:10F18400D9F101081A48FFF737FF2AE01948FFF7B9
:10F1940033FF26E01848FFF72FFF22E01748FFF758
:10F1A4002BFF1EE01648FFF727FF1AE01548FFF76C
:10F1B40023FF16E01448FFF71FFF12E01348FFF780
:10F1C4001BFF0EE01248FFF717FF0AE01148FFF794
:10F1D40013FF06E01048FFF70FFF02E000BF00E056
:10F1E40000BF00BF80BD00BF9A0100209B0100202A
:10F1F400644E0208744E02088C4E02089C4E0208AB
:10F20400B44E0208C44E0208E04E0208F04E020852
:10F21400084F0208184F0208304F020880B500AFAB
:10F22400FFF786FF0C4B1B78092B08D80A4B1B7879
:10F234000A4ADB0013445B689847002309E0064B45
:10F244001B780A2B04D10648FFF7D6FE012300E001
:10F254000223184680BD00BF9B01002084000020CB
:10F26400404F020880B500AF0B4B00221A60FFF735
:10F2740049FF0A4B1B78002B03D00949094805F0C4
:10F28400A3F80848FFF71EFE00F092FF064B012288
:10F294001A7000BF80BD00BF940100207A000020D6
:10F2A400544F0208503500209B01002080B500AF68
:10F2B40001F044F90346002B02D0012B06D00BE0E9
:10F2C40001F046F9054B02221A7005E001F040F9FD
:10F2D400024B0B221A7000BF00BF80BD9B010020AF
:10F2E40080B500AF0D4B1B78002B0DD00C4B1B7859
:10F2F400002B04D00B490C4805F066F804E00B4AD7
:10F304000B49094805F060F80748FFF7DBFD00F0FA
:10F314004FFF084B03221A7000BF80BD7A00002003
:10F324007B000020644F0208503500202C2500206B
:10F33400AC4F02089B01002080B500AF01F0FEF83D
:10F344000346002B02D0012B06D00BE001F000F99C
:10F35400054B04221A7005E001F0FAF8024B0B2267
:10F364001A7000BF00BF80BD9B01002080B500AFB4
:10F374000C4B1B78002B03D00B490C4805F024F8E8
:10F384000A48FFF79FFD00F013FF00F0DDF90022AB
:10F39400C821074801F028F9064B05221A7000BF5E
:10F3A40080BD00BF7A000020F44F020850350020D1
:10F3B40035F701089B01002080B500AF00F0AEF9DD
:10F3C4000346002B35D001F0B9F80346052B09D0CC
:10F3D400052B30DC002B02D0012B24D02BE001F0D4
:10F3E400B7F82BE000F09AFE0346002B25D000F07E
:10F3F400EBFE0346124A1360114B1B68114A13605B
:10F40400114B00221A600E4B1B681A460F49104814
:10F4140004F0DAFF0E48FFF7EFFD01F099F80D4B09
:10F4240006221A7009E001F093F80A4B0B221A70B5
:10F4340004E000BF02E000BF00E000BF00BF80BDE9
:10F44400A0010020AC010020940100200850020813
:10F454007C3F00209B01002080B582B000AF4A4B66
:10F464001B78002B03D0494B1B687B6059E0474B4A
:10F474001B68002B0BD14649464804F0A5FFFFF753
:10F4840009F9002200214348FFF71CF92BE0424B05
:10F494001A683E4B1B68D21A404B1B7819460B4620
:10F4A4009B000B44DB029A421DD93B4B1A68374B35
:10F4B4001B68D31A642202FB03F2374B1B68B2FBAE
:10F4C400F3F31A463649334804F07EFFFFF7E2F8B7
:10F4D400002200212F48FFF7F5F8304B1B78013349
:10F4E400DAB22E4B1A70294B1B68B3F5806F09D919
:10F4F4004FF480637B60254B1B68A3F58063234A2C
:10F5040013600EE0214B1B68002B0AD01F4B1B68B5
:10F51400B3F5806F05D21D4B1B687B601B4B00222B
:10F524001A60204B1B78002B04D07A681E491F48B0
:10F5340004F04AFF154B1B681A461D49154804F090
:10F5440043FF1448FFF758FD1A4B1B881A461A4903
:10F55400104804F039FF0F48FFF74EFD1348FFF73A
:10F56400B1FC00F0F1F800226421144801F03CF8E9
:10F5740000F01EFE642001F0BBFE114B07221A703E
:10F5840000BF0837BD4680BD7B000020A0010020DD
:10F59400105002087C3F0020AC010020BA0100207A
:10F5A400205002087A000020305002085035002014
:10F5B40044500208AA0100206050020835F70108EF
:10F5C4009B01002080B582B000AF2F4B1B78002B2D
:10F5D40014D000F0B3FF0346002B4BD100F0C0F869
:10F5E4000346BB71BB79002B46D0274B00221A700F
:10F5F40000F0AEFF254B02221A7041E000F09EFF9E
:10F604000346002B3AD100F08BF90346FB71FB79DA
:10F61400032B2DD801A252F823F000BF31F60108C4
:10F6240075F6010851F6010863F60108184B1B68CA
:10F63400002B05D11748FFF7DFFC01F05DFA18E055
:10F6440000F086FF114B06221A7012E01248FFF7F1
:10F65400D3FC1248FFF7D0FC01F05CFA09E0104833
:10F66400FFF7CAFC0B48FFF7C7FC01F045FA00E0BE
:10F6740000BF04E000BF02E000BF00E000BF00BF25
:10F684000837BD4680BD00BF7B0000209B010020E1
:10F69400A00100207850020898500208AC500208DB
:10F6A400CC50020880B500AF084B1B78002B03D068
:10F6B4000749084804F088FE0648FFF703FC00F0F9
:10F6C40077FD054B09221A7000BF80BD7A00002027
:10F6D400F0500208503500209B01002080B500AF97
:10F6E40000F02CFF0346002B02D0012B06D00BE0C8
:10F6F40000F02EFF054B00221A7005E000F028FFF1
:10F70400024B0B221A7000BF00BF80BD9B0100207A
:10F7140080B400AF00BFBD4680BC704780B400AF6A
:10F72400024B1B781846BD4680BC70477900002008
:10F7340080B400AF034B01221A7000BFBD4680BCE9
:10F74400704700BF7900002080B400AF034B002253
:10F754001A7000BFBD4680BC704700BF790000200E
:10F7640098B500AFFFF7DAFB0346002B59D02E4BB8
:10F774001B781C46FFF7E8FB03461A462B4B1A5529
:10F78400294B1B78591C2A4B6422284800F05EFD43
:10F794000346002B02D0274B01221A70254B1B78FD
:10F7A400002B2ED0244B1B78002B1CD01E4B1B7817
:10F7B4001A461E4B9B5C0D2B07D11F4B00221A705F
:10F7C4001C4B00221A7001232CE0174B1B7819469E
:10F7D4001A4B1B785A1CD0B2184A10701A46134B95
:10F7E400595C174B9954104B1B78591C154B6422C8
:10F7F4000E4800F02BFD0346002B02D00E4B0122D5
:10F804001A70094B1B7801330F4A82FB0312511102
:10F81400DA178A1A642101FB02F29A1AD2B2024B55
:10F824001A700023184698BDB0010020183F00202C
:10F8340014510208B1010020B201002090010020FF
:10F844002C250020245102081F85EB5190B585B06A
:10F8540000AF78600B467B802F4B00221A70002388
:10F86400FB811FE0FB897A6813441B78184600F07B
:10F8740035FD0346DBB21B01DAB2274B1B78134478
:10F88400DCB2FB8901337A6813441B78184600F014
:10F8940025FD0346DBB22344DAB21F4B1A70FB8901
:10F8A4000233FB81FA897B88053B9A42DADB1A4BE7
:10F8B4001B78DB43DAB2184B1A70174B1B780133F1
:10F8C400DAB2154B1A707B88053B7A6813441B78AF
:10F8D400184600F003FD0346DBB21B01DCB27B8853
:10F8E400043B7A6813441B78184600F0F7FC03467F
:10F8F400DBB223447B73084B1B787A7B9A420CBFA0
:10F9040001230023DBB21A46044B1A70034B1B7805
:10F9140018461437BD4690BD9C010020BB01002051
:10F9240090B585B000AFFFF7F9FA0346002B00F05D
:10F93400C9838B4B1B881C46FFF706FB03461A46FC
:10F94400884B1A55864B1B88591C874B4FF496726B
:10F95400844800F07BFC0346002B0BD1804B1B88B2
:10F96400591C824B4FF496727E4800F06FFC03469C
:10F97400002B73D07E4B1B88B3F5006F31D37D4BC6
:10F984001B680121184601F0E9F87A4B1B684FF413
:10F9940000627949184601F033F9764B1B6803F588
:10F9A4000063744A13604FF40063FB600BE0FB6870
:10F9B400A3F500637049FA680A4411786E4AD15479
:10F9C400FB680133FB606A4B1B881A46FB68934251
:10F9D400EDDB674B1B88A3F500639AB2644B1A8076
:10F9E4001EE0664B1B68002B1AD1624B1B68604AF1
:10F9F40012881146184601F0B1F85E4B1B685C4A48
:10FA040012885D49184601F0FBF8594B1B881A46C9
:10FA1400584B1B681344574A1360554B00221A80F5
:10FA24004F4B1B88591C504B4FF496724D4800F0B5
:10FA34000DFC0346002B06D0514B1B880D3B9AB29C
:10FA44004F4B1A8005E04E4B1B880C3B9AB24C4B33
:10FA54001A804C4B00221A70002334E3404B1B885D
:10FA6400591C494B4FF496723E4800F0EFFB034695
:10FA7400002B04D0454B01221A70012323E3434B8E
:10FA84001B78002B14D0364B1B88591C404B4FF469
:10FA94009672344800F0DAFB0346002B00F0018331
:10FAA400384B01221A70394B00221A7001230AE3E1
:10FAB400344B1B78002B00F0F482294B1B88194629
:10FAC4002F4B1B881A46274B595C324B99542C4BAD
:10FAD4001B880133304A82FB03125111DA178A1A48
:10FAE4004FF4967101FB02F29A1A92B2244B1A80D7
:10FAF400224B1B68002B40F07181214B1B88194657
:10FB0400264B4FF49672234800F0A0FB0346002BCB
:10FB14000CD11B4B1B881946214B4FF496721D4880
:10FB240000F094FB0346002B00F0BB82144B1B88AF
:10FB340019461A4B4FF49672164800F087FB034699
:10FB4400002B05D00E4B1B88023B9AB20C4B1A803B
:10FB5400144B1B78002B3FD000237B812EE000BF89
:10FB6400B8010020FC230020285102083851020863
:10FB7400AA0100208000002048250020A0010020C8
:10FB8400B6010020B401002048510208B30100204E
:10FB940024510208EC350020B5814E1B585102084F
:10FBA4005C510208DC0000207B895A1C7B89954942
:10FBB400895C944AD1547B8901337B81924B1B88A5
:10FBC4007A899A42F0D3904B1B88013B9AB28E4BB0
:10FBD4001A808E4B00221A708B4B1B881946894859
:10FBE400FFF734FE0346002B00F0F380854BDB79EE
:10FBF400184600F073FB0346002B40F0B980814B9C
:10FC04009B78184600F06AFB03469BB21B039CB228
:10FC14007C4BDB78184600F061FB03469BB21B0269
:10FC24009BB223449CB2774B1B79184600F056FBD9
:10FC340003469BB21B019BB223449CB2714B5B797C
:10FC4400184600F04BFB03469BB223449AB2704B18
:10FC54001A80704B1B78002B11D06E4B00221A7047
:10FC64006D4B1B681B046A4A128813436A4A13606B
:10FC7400694B1B68694A934201D0032323E2684B12
:10FC84001B884FF6EF7293420DD9614B1A88644B6F
:10FC94001B88D31A9AB2634B1B789BB2D31A9AB2BD
:10FCA400614B1A800CE05A4B1A885D4B1B88D31A9F
:10FCB4009AB25C4B1B789BB2D31A9AB25A4B1A80F5
:10FCC40000233B810CE0594B1B885A1C91B2574AC4
:10FCD40011801A46564BFF2199543B8901333B81CD
:10FCE400514B1B883A899A42EDD3464B1B781846F0
:10FCF40000F0F4FA0346DBB21B01DCB2414B5B7843
:10FD0400184600F0EBFA0346DBB22344DAB2454B63
:10FD14001A703F4B1A88424B1A800823FB8020E05C
:10FD2400FB88384AD35C184600F0D8FA0346DBB2A5
:10FD34001B01DCB2FB880133324AD35C184600F065
:10FD4400CDFA0346DAB2394B1B88591C88B23749BD
:10FD540008801946A318DAB2354B5A54FB8802338B
:10FD6400FB80FA88284B1B88053B9A42D8DB2CE0A1
:10FD7400244BDB79184600F0B1FA0346042B24D156
:10FD8400204B1B7A184600F0A9FA03469BB21C03C9
:10FD94001C4B5B7A184600F0A1FA03469BB21B0287
:10FDA4001C44184B9B7A184600F098FA03469BB201
:10FDB4001B011C44134BDB7A184600F08FFA0346F0
:10FDC4009BB223441A46144B1A600F4B00221A802C
:10FDD40067E1184B00221A70022374E10A4B1B8856
:10FDE4001946154B4FF49672064800F02FFA034655
:10FDF400002B00F05681054B1B78002B36D00023D6
:10FE0400BB8025E0EC350020B6010020DC0000209A
:10FE1400A6010020DD0000204C350020000004086D
:10FE2400A4010020A801002098010020AA010020BC
:10FE3400482500207C0000205C510208BB885A1C25
:10FE4400BB88A349895CA24AD154BB880133BB80D7
:10FE5400A04B1B88BA889A42F0D39E4B1B88013B67
:10FE64009AB29C4B1A809C4B00221A70994B1B88A7
:10FE740019469748FFF7EAFC0346002B00F00C8173
:10FE8400964B01211846FFF7D5F8914BDB791846BC
:10FE940000F024FA0346002B40F0C3808C4B9B787F
:10FEA400184600F01BFA03469BB21B039CB2884B16
:10FEB400DB78184600F012FA03469BB21B029BB291
:10FEC40023449CB2824B1B79184600F007FA034680
:10FED4009BB21B019BB223449CB27D4B5B791846B9
:10FEE40000F0FCF903469BB223449AB27C4B1A807F
:10FEF4007C4B1B78002B1BD07A4B00221A707A4B58
:10FF04001B681B04764A12881343774A1360764BA6
:10FF14001B681A467549764804F056FA7448FFF788
:10FF24006BF8714B1B68734A934201D00323CAE0F8
:10FF3400714B1B884FF6EF7293420DD9684B1A88A8
:10FF44006D4B1B88D31A9AB26C4B1B789BB2D31A95
:10FF54009AB26B4B1A800CE0614B1A88664B1B8873
:10FF6400D31A9AB2654B1B789BB2D31A9AB2644BDC
:10FF74001A8000237B800CE0624B1B885A1C91B2D0
:10FF8400604A11801A46604BFF2199547B880133E3
:10FF94007B805B4B1B887A889A42EDD34C4B1B7851
:10FFA400184600F09BF90346DBB21B01DCB2484B58
:10FFB4005B78184600F092F90346DBB22344DAB2C8
:10FFC4004E4B1A70464B1A884B4B1A8008233B80C1
:10FFD40020E03B883E4AD35C184600F07FF9034694
:10FFE400DBB21B01DCB23B880133394AD35C1846CF
:0CFFF40000F074F90346DAB2424B1B889F
:020000040802F0
:10000000591C88B2404908801946A318DAB23F4B00
:100010005A543B8802333B803A882F4B1B88053B60
:100020009A42D8DB36E02B4BDB79184600F058F9C2
:100030000346042B2ED1274B1B7A184600F050F9AB
:1000400003469BB21C03234B5B7A184600F048F929
:1000500003469BB21B021C441E4B9B7A184600F0C1
:100060003FF903469BB21B011C441A4BDB7A18462E
:1000700000F036F903469BB223441A461B4B1A6024
:100080001A4B1B681A4622491A4804F09FF919486E
:10009000FEF7B4FF104B00221A8004E01D4B002233
:1000A0001A70022311E01C4B1B8801331B4A82FB90
:1000B00003125111DA178A1A4FF4967101FB02F2FA
:1000C0009A1A92B2144B1A80012318461437BD466F
:1000D00090BD00BFEC350020B6010020DC00002000
:1000E000F3350020A6010020DD0000204C35002063
:1000F00060510208C823002000000408A401002069
:10010000A801002098010020AA0100204825002015
:10011000785102087C000020B8010020B5814E1BF8
:1001200080B500AFFEF7FCFE0346002B29D0FEF79A
:100130000DFF03461A46144B1A70134B1B780D2BF8
:1001400004D1124B00221A7001231BE00F4B1B78C5
:10015000022B0CD10E4B1A6813469B0013445B0014
:100160001A46094B1B781344303B094A1360064B6F
:100170001B782C2B05D1054B1B780133DAB2034BCE
:100180001A700023184680BD8013002091010020C2
:100190009401002080B483B000AF0346FB71044A91
:1001A000FB79137000BF0C37BD4680BC704700BFA1
:1001B0009B01002080B400AF034B01221A7000BFE6
:1001C000BD4680BC704700BF7A00002080B400AFFD
:1001D000024B1B681846BD4680BC70479401002046
:1001E00080B586B000AFF8600B467A607B81786896
:1001F000FEF718F80346BB75BB7D9BB27A899A421D
:1002000001D2002320E07868FEF70CF803467B75E6
:100210000023FB7513E07A897B7DD21AFB7D1344A2
:100220001A46FB6813441A78FB7D79680B441B78E7
:100230009A4201D0002307E0FB7D0133FB75FA7D74
:100240007B7D9A42E7D3012318461837BD4680BD0F
:1002500080B586B000AFF8607B600B467B811346AB
:100260003B817868FDF7DEFF0346BB820023FB82FB
:100270002DE07A89BB8AD31A002B0EDA3A897B8962
:100280001A44BB8AD21AFB8A13443A8993FBF2F1CF
:1002900002FB01F29B1A1A460BE07A89BB8AD21A3A
:1002A000FB8A13443A8993FBF2F102FB01F29B1A99
:1002B0001A46FB6813441A78FB8A79680B441B784A
:1002C0009A4201D0002307E0FB8A0133FB82FA8ABD
:1002D000BB8A9A42CDD3012318461837BD4680BD4C
:1002E00080B485B000AF0346FB71FB792F2B06D994
:1002F000FB79392B03D8FB79303BFB7308E0FB79A2
:10030000402B05D9FB79462B02D8FB79373BFB7391
:10031000FB7B18461437BD4680BC704780B500AFE4
:10032000734B1B780A2B40F0DE80FEF7F9FD034685
:10033000002B00F0DA80FEF709FE01466D4B1B78BA
:100340001A46C9B26C4B99546A4B1B780133DAB226
:10035000684B1A70674B1B789BB2684A1268194643
:100360006548FFF73DFF0346002B0DD06448FEF7BC
:1003700045FE604B1A78634B1A705E4B00221A7070
:100380005B4B00221A70B0E05A4B1B789BB25E4A5E
:1003900019465948FFF724FF0346002B0DD05B4850
:1003A000FEF72CFE534B1A78564B1A70514B002215
:1003B0001A704F4B01221A7097E04E4B1B789BB27C
:1003C000534A19464C48FFF70BFF0346002B0DD04C
:1003D0005048FEF713FE474B1A784A4B1A70454BAC
:1003E00000221A70424B03221A707EE0414B1B78A8
:1003F0009BB2494A19464048FFF7F2FE0346002BDC
:100400000DD04648FEF7FAFD3A4B1A783D4B1A706C
:10041000384B00221A70364B06221A7065E0354BB5
:100420001B789BB23E4A19463348FFF7D9FE034674
:10043000002B0DD03B48FEF7E1FD2E4B1A78314BD7
:100440001A702C4B00221A70294B05221A704CE0AE
:10045000284B1B789BB2344A19462748FFF7C0FE49
:100460000346002B0DD03148FEF7C8FD214B1A780A
:10047000244B1A701F4B00221A701D4B07221A7052
:1004800033E01C4B1B789BB2294A19461A48FFF7E8
:10049000A7FE0346002B0DD02648FEF7AFFD154BF7
:1004A0001A78184B1A70134B00221A70104B08223E
:1004B0001A701AE00F4B1B789BB21F4A19460E4860
:1004C000FFF78EFE0346002B0FD01C48FEF796FD6B
:1004D000084B1A780B4B1A70064B00221A70044B0B
:1004E00009221A7001E000BF00E000BF80BD00BF1C
:1004F000DE000020BD110020BC010020E000002033
:1005000094510208BC110020145302089C510208A7
:100510000C530208A85102081C530208B4510208E7
:1005200028530208C851020838530208E45102084F
:100530005053020804520208445302082052020891
:1005400080B400AF024B1B781846BD4680BC704794
:10055000DE00002080B400AF034B0A221A7000BFF7
:10056000BD4680BC704700BFDE00002080B400AFF5
:10057000094B1B680133084A1360074B1B68002BAB
:1005800004D1054B1B680133034A1360024B1B68FF
:100590001846BD4680BC7047C011002080B400AF33
:1005A000104B1B6801330F4A13600F4B1B68002B65
:1005B00013D00D4B1B7B002B0FD10B4B5B68002B1B
:1005C00004D0094B5B68013B074A5360064B5B68EC
:1005D000002B02D1044B01221A7300BFBD4680BC20
:1005E000704700BFC4110020D83F002090B589B0EB
:1005F00000AFF860B9607A600023FB770023BB612D
:1006000000233B610023FB7733E1FA7FA1491346C6
:100610009B0013449B000B4404331B68BA691344CA
:10062000BB61BA69BB689A4240F2C180FA7F9949BE
:1006300013469B0013449B000B4404331A68BB69A8
:10064000D31ABA6813443B61FA7FB969BB68C91A07
:10065000904813469B0013449B00034404331960E5
:100660002723FB754CE0FB7D591EFA7D89480B461C
:100670009B000B449B0003441968864813469B006B
:1006800013449B0003441960FB7D591EFA7D814889
:100690000B469B000B449B000344083319687D48BC
:1006A00013469B0013449B00034408331960FB7DF1
:1006B000591EFA7D77480B469B000B449B00034470
:1006C00004331968734813469B0013449B0003448A
:1006D00004331960FB7D591EFA7D6E480B469B0062
:1006E0000B449B000344103319686A4813469B006F
:1006F00013449B00034410331960FB7D013BFB75E1
:10070000FA7DFB7F9A42AED8FA7F624913469B007E
:1007100013449B000B44FA681A60FA7F5D49134644
:100720009B0013449B000B4404333A691A60FA7F20
:10073000584913469B0013449B000B4408337A68C6
:100740001A60FA7F534913469B0013449B000B44E5
:1007500004331B68002B0AD1FA7F4E4913469B00D5
:1007600013449B000B440C3301221A7009E0FA7FFA
:10077000484913469B0013449B000B440C33002252
:100780001A70FC7FFFF7F2FE0246424923469B00A7
:1007900023449B000B4410331A60FA7F3D491346F3
:1007A0009B0013449B000B4410331B686EE0FA7FE0
:1007B000384913469B0013449B000B441B68002BD5
:1007C00054D1FA7F334913469B0013449B000B44DA
:1007D000FA681A60FA7FB968BB69C91A2D481346CE
:1007E0009B0013449B00034404331960FA7F29499A
:1007F00013469B0013449B000B4408337A681A602D
:10080000FA7F244913469B0013449B000B44043396
:100810001B68002B0AD1FA7F1E4913469B00134424
:100820009B000B440C3301221A7009E0FA7F19492E
:1008300013469B0013449B000B440C3300221A7098
:10084000FC7FFFF793FE0246124923469B00234498
:100850009B000B4410331A60FA7F0E4913469B002D
:1008600013449B000B4410331B680FE0FB7F0133E4
:10087000FB77FB7F272B7FF6C8AEFA7F054913462F
:100880009B0013449B000B4410331B68184624370D
:10089000BD4690BDD83F002080B485B000AF7860E1
:1008A00000237B737B68002B00F0E2800023FB7346
:1008B000DAE0FA7B714913469B0013449B000B441A
:1008C00010331B687A689A4240F0CB8001237B7317
:1008D000FB7B002B2BD0FB7B262B28D8FB7B5A1CC9
:1008E000664913469B0013449B000B441B68002B76
:1008F0001DD0FB7B5A1C614913469B0013449B008F
:100900000B4404331968FA7B5C4813469B0013447C
:100910009B00034404331B68FA7B01321944574897
:1009200013469B0013449B00034404331960FB7B74
:10093000BB7360E0BB7B591CBA7B50480B469B00E5
:100940000B449B00034419684C4813469B00134416
:100950009B0003441960BB7B591CBA7B47480B467C
:100960009B000B449B00034408331968434813461B
:100970009B0013449B00034408331960BB7B591C44
:10098000BA7B3E480B469B000B449B000344043358
:1009900019683A4813469B0013449B0003440433F0
:1009A0001960BB7B591CBA7B34480B469B000B4437
:1009B0009B0003440C331878304913469B001344C2
:1009C0009B000B440C3302461A70BB7B591CBA7B4C
:1009D0002A480B469B000B449B00034410331968C4
:1009E000264813469B0013449B00034410331960B0
:1009F000BB7B0133BB73BB7B262B9BD9BA7B1F49C7
:100A000013469B0013449B000B4400221A60BA7BE0
:100A10001A4913469B0013449B000B4408330022E1
:100A20001A60BA7B154913469B0013449B000B4484
:100A3000043300221A60BA7B104913469B0013440A
:100A40009B000B440C3300221A70BA7B0B491346EF
:100A50009B0013449B000B44103300221A607B7BE5
:100A600007E0FB7B0133FB73FB7B272B7FF621AF7A
:100A70007B7B18461437BD4680BC7047D83F0020AA
:100A8000B0B586B000AF114B1B7B002B19D00F4BBC
:100A90001B6898470D4B00221A730C4B3C1D1D46DA
:100AA0000FCD0FC42B6823607B691846FFF7F4FE57
:100AB000FB68002B05D07B68F968FA681846FFF7D9
:100AC00095FD00BF1837BD46B0BD00BFD83F002020
:100AD00080B400AFBFF34F8F00BF064BDB6803F459
:100AE000E0620449044B1343CB60BFF34F8F00BF58
:100AF00000BFFDE700ED00E00400FA0580B500AF9F
:100B00000121044800F02CF80221024800F04CF8C2
:100B1000FFF7DEFF0000060880B500AF01210448A2
:100B200000F01EF80121024800F03EF8FFF7D0FF68
:100B30000000060880B400AF024B1B781846BD4683
:100B400080BC70472825002080B500AF00F06CFE07
:100B500000BF80BD80B500AF00F040FE00BF80BD8B
:100B600080B588B000AF786039603B68DB0A01333C
:100B7000FB61FFF7EFFF0023BB60FB697B617B68D4
:100B80003B6107F1180207F108031146184600F00F
:100B9000F1FEFFF7D9FF0348FEF730FA00BF203718
:100BA000BD4680BD4052020880B582B000AF78607B
:100BB0003960FFF7CFFF124B1B69114A43F0010365
:100BC000136100BF0E4BDB6803F00103002BF9D16A
:100BD0007B683A6892B21A8000BF094BDB6803F069
:100BE0000103002BF9D1064B1B69054A23F00103D1
:100BF0001361FFF7A9FF00BF0837BD4680BD00BFE6
:100C00000020024080B58AB000AFF860B9607A6019
:100C100007F110037A682049184603F0D7FB07F163
:100C200010031846FEF7EAF9FFF794FF1B4B1B6908
:100C30001A4A43F00103136100237B6211E000BFF5
:100C4000164BDB6803F00103002BF9D17B6ABA680D
:100C50001344796AFA680A441B8813807B6A02335A
:100C60007B627B6A7A689A42E9D800BF0B4BDB68EB
:100C700003F00103002BF9D1084B1B69074A23F04D
:100C800001031361FFF760FF0548FEF7B7F900BFE6
:100C90002837BD4680BD00BF5052020800200240E8
:100CA0006052020880B500AF0D4B1A780D4B1B78CF
:100CB0009A4212D00A4B1A780A4B1A70084B1B78CA
:100CC000002B02D0012B04D008E00748FEF796F96C
:100CD00004E00648FEF792F900E000BF00BF80BDC7
:100CE000C8110020C91100206C520208805202086D
:100CF00080B500AFFFF7D6FF074B1B78022B08D853
:100D0000054B1B78054ADB0013445B6898470023BA
:100D100000E00123184680BDC8110020E400002037
:100D200080B500AFFDF776FD0346002B02D0024BE5
:100D300001221A7000BF80BDC811002080B500AF2D
:100D4000FEF76EFA03461A46154B1A70144B1B78C1
:100D5000012B16D11348FEF751F9FFF7EBFE0346BE
:100D6000012B05D11048FEF749F9FFF7D5FE14E035
:100D70000E48FEF743F90E4B02221A70FFF7BEFE33
:100D80000BE0074B1B78022B07D1FDF7E3FE002099
:100D9000FFF700FA064B00221A7000BF80BD00BFAB
:100DA000CA1100209C520208A8520208C45202082C
:100DB000C811002080B500AF00F03AFAFDF7CAFF75
:100DC000FEF756F8FEF7F0F8FDF73AFFFDF72EFCB8
:100DD000FDF7C8FEFEF704F8FDF762FFFDF770FAB5
:100DE0000848FEF70BF9FDF757FC002200210648E2
:100DF000FDF76AFCFFF77CFFFFF742FEFFF78EFA74
:100E0000F8E700BFE0520208F052020880B400AFD9
:100E100072B600BFFEE7000080B485B000AF154B8E
:100E20009B69144A43F001039361124B9B6903F0E1
:100E30000103BB60BB680F4BDB690E4A43F0805374
:100E4000D3610C4BDB6903F080537B607B680A4BFA
:100E50005B68FB60FB6823F0E063FB60FB6843F0CA
:100E60008063FB60044AFB68536000BF1437BD46D3
:100E700080BC7047001002400000014080B588B07F
:100E800000AF786007F1100300221A605A609A6080
:100E9000DA607B681B68154A934223D1144B9B6927
:100EA000134A43F008039361114B9B6903F0080355
:100EB000FB60FB68C0233B6112237B610323FB6162
:100EC00007F1100319460B4800F0FCFD084BDB69E5
:100ED000074A43F40013D361054BDB6903F40013A5
:100EE000BB60BB6800BF2037BD4680BD00540040DA
:100EF00000100240000C014080B588B000AF78605F
:100F000007F1100300221A605A609A60DA607B6869
:100F10001B68164A934224D1154BDB69144A43F4EB
:100F20008043D361124BDB6903F48043FB60FB68B1
:100F30000F4B9B690E4A43F0080393610C4B9B696E
:100F400003F00803BB60BB684FF420433B610223FE
:100F50007B610323FB6107F110031946054800F08C
:100F6000B1FD00BF2037BD4680BD00BF0038004046
:100F700000100240000C014080B584B000AF7860E2
:100F80007B681B680D4A934213D10D4BDB690C4AF9
:100F900043F00203D3610A4BDB6903F00203FB60F9
:100FA000FB68002200211D2000F09FFA1D2000F0A8
:100FB000B8FA00BF1037BD4680BD00BF0004004036
:100FC0000010024080B58AB000AF786007F11803C6
:100FD00000221A605A609A60DA607B681B683C4A9B
:100FE00093423AD13B4B9B693A4A43F48043936125
:100FF000384B9B6903F480437B617B69354B9B696C
:10100000344A43F004039361324B9B6903F00403B9
:101010003B613B694FF40073BB610223FB61032317
:101020007B6207F1180319462B4800F04BFD4FF483
:101030008063BB610023FB6100233B6207F118035F
:101040001946254800F03EFD00220021252000F031
:101050004CFA252000F065FA36E07B681B681F4AD1
:10106000934231D11B4BDB691A4A43F48023D3618D
:10107000184BDB6903F48023FB60FB68154B9B690D
:10108000144A43F008039361124B9B6903F0080371
:10109000BB60BB684FF48063BB610223FB61032329
:1010A0007B6207F1180319460D4800F00BFD4FF461
:1010B0000063BB610023FB6100233B6207F118035F
:1010C0001946074800F0FEFC00BF2837BD4680BD2A
:1010D0000038014000100240000801400048004074
:1010E000000C014080B400AFFEE780B400AFFEE723
:1010F00080B400AFFEE780B400AFFEE780B400AF7D
:10110000FEE780B400AF00BFBD4680BC704780B42E
:1011100000AF00BFBD4680BC704780B400AF00BFC9
:10112000BD4680BC704780B500AF00F0C7F800BF77
:1011300080BD000080B500AF024802F0E9F900BFB1
:1011400080BD00BFF412002080B500AF024802F05D
:10115000EBFC00BF80BD00BF8423002080B586B0BB
:1011600000AF7860144A154BD31A7B617B693B61F1
:10117000134B1B68002B02D1114B124A1A60104B03
:101180001A687B6813443A699A4207D203F0ECF874
:1011900003460C221A604FF0FF3309E0084B1B682E
:1011A000FB60074B1A687B681344054A1360FB68B1
:1011B00018461837BD4680BD00000120000400001D
:1011C000CC1100203043002080B400AF034B044A10
:1011D0009A6000BFBD4680BC704700BF00ED00E0D4
:1011E00000E001080C480D490D4A002302E0D458E4
:1011F000C4500433C4188C42F9D30A4A0A4C002361
:1012000001E013600432A242FBD3FFF7DDFF03F0DD
:10121000B1F8FFF7CFFD7047000000206401002007
:10122000AC5302086801002030430020FEE70000B4
:1012300080B500AF084B1B68074A43F010031360EA
:10124000032000F047F90F2000F008F8FFF7E4FD55
:101250000023184680BD00BF0020024080B582B048
:1012600000AF7860124B1A68124B1B7819464FF486
:101270007A73B3FBF1F3B2FBF3F3184600F05FF9B6
:101280000346002B01D001230EE07B680F2B0AD808
:10129000002279684FF0FF3000F027F9064A7B689A
:1012A0001360002300E0012318460837BD4680BDC7
:1012B000F4000020FC000020F800002080B400AF03
:1012C000054B1B781A46054B1B681344034A1360F1
:1012D00000BFBD4680BC7047FC000020F8420020E3
:1012E00080B400AF024B1B681846BD4680BC7047F7
:1012F000F842002080B584B000AF7860FFF7F0FFBF
:10130000B8607B68FB60FB68B3F1FF3F05D00A4B18
:101310001B781A46FB681344FB6000BFFFF7E0FF31
:101320000246BB68D31AFA689A42F7D800BF00BFDA
:101330001037BD4680BD00BFFC00002080B485B0E2
:1013400000AF78607B6803F00703FB600C4BDB6841
:10135000BB60BA684FF6FF031340BB60FB681A021C
:10136000BB68134343F0BF6343F40033BB60044ADC
:10137000BB68D36000BF1437BD4680BC704700BF58
:1013800000ED00E080B400AF044BDB681B0A03F003
:1013900007031846BD4680BC704700BF00ED00E063
:1013A00080B483B000AF0346FB7197F90730002B80
:1013B0000BDBFB7903F01F02064997F907305B0945
:1013C000012000FA02F241F8232000BF0C37BD468D
:1013D00080BC704700E100E080B483B000AF0346FA
:1013E0003960FB7197F90730002B0ADB3B68DAB2F2
:1013F0000C4997F907301201D2B20B4483F800234D
:101400000AE03B68DAB20849FB7903F00F03043BBA
:101410001201D2B20B441A7600BF0C37BD4680BC15
:10142000704700BF00E100E000ED00E080B489B04B
:1014300000AFF860B9607A60FB6803F00703FB61F6
:10144000FB69C3F10703042B28BF0423BB61FB69BD
:101450000433062B02D9FB69033B00E000237B61C8
:101460004FF0FF32BB6902FA03F3DA43BB681A405C
:101470007B699A404FF0FF317B6901FA03F3D9434E
:101480007B680B40134318462437BD4680BC704729
:1014900080B582B000AF78607B68013BB3F1807F9C
:1014A00001D301230FE00A4A7B68013B53600F21FF
:1014B0004FF0FF30FFF790FF054B00229A60044B7E
:1014C00007221A60002318460837BD4680BD00BFBA
:1014D00010E000E080B582B000AF78607868FFF778
:1014E0002DFF00BF0837BD4680BD80B586B000AF78
:1014F0000346B9607A60FB7300237B61FFF742FF0C
:1015000078617A68B9687869FFF790FF024697F9C1
:101510000F3011461846FFF75FFF00BF1837BD4672
:1015200080BD80B582B000AF0346FB7197F90730EC
:101530001846FFF735FF00BF0837BD4680BD80B5B0
:1015400082B000AF78607868FFF7A2FF03461846C4
:101550000837BD4680BD80B485B000AF78600023F9
:10156000FB737B6893F82130022B08D07B68042240
:101570009A637B68002283F82020012320E07B68A7
:101580001B681A687B681B6822F00E021A607B6871
:101590001B681A687B681B6822F001021A607B686E
:1015A0001A6C7B68DB6B012101FA02F25A607B68DE
:1015B000012283F821207B68002283F82020FB7B16
:1015C00018461437BD4680BC7047000080B584B013
:1015D00000AF78600023FB737B6893F82130022B07
:1015E00005D07B6804229A630123FB73D6E07B68F5
:1015F0001B681A687B681B6822F00E021A607B6801
:101600001B681A687B681B6822F001021A607B68FD
:101610001B681A46644B9A4258D97B681B68634A18
:1016200093424FD07B681B68614A934248D07B68E5
:101630001B68604A934240D07B681B685E4A9342B5
:1016400038D07B681B685D4A934230D07B681B684A
:101650005B4A934228D07B681B68534A934220D050
:101660007B681B68574A934219D07B681B68564AAF
:10167000934212D07B681B68544A93420AD07B681D
:101680001B68534A934202D14FF480531BE04FF43E
:10169000803318E04FF4807315E0102313E001232A
:1016A00011E04FF080730EE04FF480130BE04FF425
:1016B000803308E04FF4805305E04FF4807302E07C
:1016C000102300E00123434A536057E07B681B6806
:1016D000364A93424FD07B681B68354A934248D0C4
:1016E0007B681B68334A934240D07B681B68324A50
:1016F000934238D07B681B68304A934230D07B6875
:101700001B682F4A934228D07B681B68264A934265
:1017100020D07B681B682B4A934219D07B681B68DA
:10172000294A934212D07B681B68284A93420AD008
:101730007B681B68264A934202D14FF480531BE01A
:101740004FF4803318E04FF4807315E0102313E05A
:10175000012311E04FF080730EE04FF480130BE093
:101760004FF4803308E04FF4805305E04FF480736A
:1017700002E0102300E00123174A53607B68012236
:1017800083F821207B68002283F820207B685B6B34
:10179000002B03D07B685B6B78689847FB7B18460F
:1017A0001037BD4680BD00BF8000024008000240E7
:1017B0001C00024030000240440002405800024039
:1017C0006C000240080402401C0402403004024045
:1017D00044040240000402400000024080B483B090
:1017E00000AF0023FB710D4B1B6903F08003002B3E
:1017F0000DD00A4B0A4A5A60084B0A4A5A60074BF6
:101800001B6903F08003002B01D00123FB71FB79DE
:1018100018460C37BD4680BC704700BF0020024010
:1018200023016745AB89EFCD80B400AF054B1B6941
:10183000044A43F08003136100231846BD4680BC70
:10184000704700BF0020024080B584B000AF7860D0
:10185000FFF746FDF86010E07B68B3F1FF3F0CD066
:101860007B68002B07D0FFF73BFD0246FB68D31ACD
:101870007A689A4201D2032325E0154BDB6803F016
:101880000103002BE8D1124BDB6803F02003002B8F
:1018900002D00F4B2022DA600D4BDB6803F01003FF
:1018A000002B0BD10A4BDB6903F00103002B05D1A0
:1018B000074BDB6803F00403002B03D000F00AF8A9
:1018C000012300E0002318461037BD4680BD00BF4D
:1018D0000020024080B483B000AF00237B60234B24
:1018E000DB6803F01003002B09D0214BDB6943F0C8
:1018F00002031F4AD3617B6843F010037B601B4BDC
:10190000DB6803F00403002B09D0194BDB6943F0BB
:101910000103174AD3617B6843F004037B60134BD8
:10192000DB6903F00103002B0BD0114BDB6943F0A3
:1019300004030F4AD3610D4BDB690C4A23F001030A
:10194000D3617B6840F20112934206D1074BDB69F9
:10195000064A23F00103D36102E0044A7B68D360A6
:1019600000BF0C37BD4680BC704700BF002002405E
:101970000043002080B584B000AF78603960012357
:10198000FB730023BB602F4B1B7E012B01D1022375
:1019900053E02C4B01221A767B681B68022B16D170
:1019A0004CF25030FFF750FF0346002B41D101208D
:1019B00000F04CF84CF25030FFF746FF0346FB7343
:1019C000214B1B69204A23F00403136131E04CF2E0
:1019D0005030FFF739FF0346002B2AD13B684FF008
:1019E000FF321A607B689B68BB6019E0B86800F042
:1019F00049F84CF25030FFF727FF0346FB73124BB8
:101A00001B69114A23F002031361FB7B002B03D0F7
:101A10003B68BA681A600CE0BB6803F50063BB6002
:101A20007B68DB68DA027B689B681344BA689A4279
:101A3000DCD3044B00221A76FB7B18461037BD46D8
:101A400080BD00BF004300200020024080B483B06E
:101A500000AF7860094B0022DA61094B1B69084A24
:101A600043F004031361064B1B69054A43F040032E
:101A7000136100BF0C37BD4680BC70470043002097
:101A80000020024080B483B000AF78600B4B00228E
:101A9000DA610B4B1B690A4A43F002031361084ADF
:101AA0007B685361064B1B69054A43F04003136191
:101AB00000BF0C37BD4680BC704700BF004300200C
:101AC0000020024080B48BB000AF78603960002302
:101AD0007B6200233B6279E101227B6A02FA03F315
:101AE000FB613B681B68FA691340BB61BA69FB691B
:101AF0009A4240F068813B685B68A04A93425ED09E
:101B00009E4A934275D89E4A934258D09C4A93422B
:101B10006FD89C4A934252D09A4A934269D89A4AC3
:101B200093424CD0984A934263D8984A934246D005
:101B3000964A93425DD8122B2AD8122B59D801A26B
:101B400052F823F0BF1B0208991B0208AB1B0208C6
:101B5000ED1B0208F31B0208F31B0208F31B02082B
:101B6000F31B0208F31B0208F31B0208F31B020815
:101B7000F31B0208F31B0208F31B0208F31B020805
:101B8000F31B0208F31B0208A11B0208B51B020885
:101B90007F4A934213D02CE03B68DB683B6229E02C
:101BA0003B68DB6804333B6224E03B68DB68083356
:101BB0003B621FE03B68DB680C333B621AE03B682A
:101BC0009B68002B02D104233B6213E03B689B68B7
:101BD000012B05D108233B627B68FA691A6109E091
:101BE00008233B627B68FA695A6103E000233B6289
:101BF00000E000BFBB69FF2B01D87B6801E07B6878
:101C000004337B61BB69FF2B02D87B6A9B0002E037
:101C10007B6A083B9B003B617B691A680F213B692B
:101C200001FA03F3DB431A40396A3B6901FA03F313
:101C30001A437B691A603B685B6803F08053002B92
:101C400000F0C180534B9B69524A43F001039361FA
:101C5000504B9B6903F00103BB60BB684E4A7B6A33
:101C60009B08023352F82330FB607B6A03F00303C6
:101C70009B000F2202FA03F3DB43FA681340FB6078
:101C80007B68464A93421FD07B68454A934219D0ED
:101C90007B68444A934213D07B68434A93420DD0F9
:101CA0007B68424A934207D07B68414A934201D104
:101CB00005230AE0062308E0042306E0032304E0EA
:101CC000022302E0012300E000237A6A02F003020B
:101CD00092009340FA681343FB602F497B6A9B088C
:101CE0000233FA6841F823203B685B6803F48033D1
:101CF000002B06D02F4B1A682E49BB6913430B608B
:101D000006E02C4B1A68BB69DB432A4913400B6081
:101D10003B685B6803F40033002B06D0254B5A6800
:101D20002449BB6913434B6006E0224B5A68BB69E8
:101D3000DB43204913404B603B685B6803F480132E
:101D4000002B06D01B4B9A681A49BB6913438B6062
:101D500006E0184B9A68BB69DB43164913408B6059
:101D60003B685B6803F40013002B25D0114BDA6845
:101D70001049BB691343CB6025E000BF000032105F
:101D8000000031100000221000002110000012108D
:101D90000000111000100240000001400008014046
:101DA000000C0140001001400014014000180140E7
:101DB000001C0140000401400B4BDA68BB69DB43A7
:101DC00009491340CB607B6A01337B623B681A6828
:101DD0007B6A22FA03F3002B7FF47EAE00BF00BFC4
:101DE0002C37BD4680BC70470004014080B483B0EE
:101DF00000AF78600B467B8013467B707B78002BAE
:101E000003D07A887B681A6103E07B881A047B68B8
:101E10001A6100BF0C37BD4680BC704780B584B0E6
:101E200000AF78607B68002B01D101232BE17B6838
:101E300093F83D30DBB2002B06D17B68002283F89B
:101E40003C207868FFF71AF87B68242283F83D204D
:101E50007B681B681A687B681B6822F001021A60A5
:101E60007B681B681A687B681B6842F400421A6032
:101E70007B681B681A687B681B6822F400421A6042
:101E800000F0EAFFF8607B685B68814A934207D8FC
:101E9000FB68804A934294BF01230023DBB206E033
:101EA000FB687D4A934294BF01230023DBB2002BE1
:101EB00001D00123E7E0FB68784AA2FB03239B0CD7
:101EC000BB607B681B685B6823F03F017B681B6815
:101ED000BA680A435A607B681B681B6A23F03F019B
:101EE0007B685B686A4A934202D8BB68013309E0A9
:101EF000BB684FF4967202FB03F3694AA2FB03230B
:101F00009B0901337A6812680B4313627B681B6874
:101F1000DB6923F44F4222F0FF027B685B685C4977
:101F20008B4219D8FB68591E7B685B685B00B1FB6C
:101F3000F3F3591C40F6FC730B40002B0AD0FB68EE
:101F4000591E7B685B685B00B1FBF3F30133C3F39D
:101F50000B0351E004234FE07B689B68002B11D1F9
:101F6000FB68581E7B6859680B465B000B44B0FB4E
:101F7000F3F30133C3F30B03002B0CBF0123002346
:101F8000DBB212E0FB68581E7B6859680B469B0069
:101F90000B4499000B44B0FBF3F30133C3F30B0381
:101FA000002B0CBF01230023DBB2002B01D0012347
:101FB00022E07B689B68002B0ED1FB68581E7B6873
:101FC00059680B465B000B44B0FBF3F30133C3F3DA
:101FD0000B0343F400430FE0FB68581E7B6859680D
:101FE0000B469B000B4499000B44B0FBF3F3013309
:101FF000C3F30B0343F44043796809681343CB618F
:102000007B681B681B6823F0C0017B68DA697B680A
:102010001B6A1A437B681B680A431A607B681B684B
:102020009B6823F4034323F0FF037A6811697A68FD
:10203000D26811437A6812680B4393607B681B680F
:10204000DB6823F0FF017B685A697B689B691A4350
:102050007B681B680A43DA607B681B681A687B68C8
:102060001B6842F001021A607B6800221A647B68D8
:10207000202283F83D207B6800221A637B680022BF
:1020800083F83E20002318461037BD4680BD00BFB0
:10209000A08601007F841E00FF083D0083DE1B43F5
:1020A000D34D621080B588B002AFF8607A601A46EE
:1020B0000B467B8113463B81FFF712F97861FB6881
:1020C00093F83D30DBB2202B40F0E0807B69009339
:1020D000192301227049F86800F064F90346002BC7
:1020E00001D00223D3E0FB6893F83C30012B01D1EF
:1020F0000223CCE0FB68012283F83C20FB681B68CC
:102100001B6803F00103012B07D0FB681B681A68EA
:10211000FB681B6842F001021A60FB681B681A68C2
:10212000FB681B6822F400621A60FB68212283F8B6
:102130003D20FB68102283F83E20FB6800221A64D1
:10214000FB687A685A62FB683A895A85FB685B8D3E
:102150009AB2FB681A85FB68504ADA6279897B6912
:102160003A6AF86800F09CF80346002B01D001237E
:102170008DE000233B61FB681B685B693B61FB688A
:102180001B689B693B613B6966E07A69396AF8685C
:1021900000F0DEF90346002B0DD0FB681B6C042B0E
:1021A00007D1FB681B681A68FB681B6842F4007261
:1021B0001A6001236BE0FB685B6A1A78FB681B6896
:1021C0001A61FB685B6A5A1CFB685A62FB685B8D8C
:1021D0009BB2013B9AB2FB685A85FB681B8D013BA1
:1021E0009AB2FB681A85FB681B685B6903F00403FD
:1021F000042B1BD1FB681B8D002B17D0FB685B6A7F
:102200001A78FB681B681A61FB685B6A5A1CFB68DA
:102210005A62FB685B8D9BB2013B9AB2FB685A85A0
:10222000FB681B8D013B9AB2FB681A857A69396A93
:10223000F86800F0CEF90346002B0DD0FB681B6C4C
:10224000042B07D1FB681B681A68FB681B6842F403
:1022500000721A6001231AE0FB681B8D002B94D1D9
:10226000FB681B681A68FB681B6842F400721A60FE
:10227000FB68202283F83D20FB68002283F83E2083
:10228000FB68002283F83C20002300E0022318466C
:102290001837BD4680BD00BF020010000000FFFFE0
:1022A00080B588B002AFF8607A603B600B467B81F6
:1022B000FB68DB6A7B617B69082B06D07B69012B9D
:1022C00003D07B6913F5803F08D1FB681B681A684F
:1022D000FB681B6842F480721A600BE0FB681B6BA2
:1022E000122B07D1FB681B681A68FB681B6842F455
:1022F00080721A603B6800937B6800224FF00111E6
:10230000F86800F04FF80346002B0DD0FB681B68FF
:102310001B6803F48073B3F5807F03D1FB684FF42F
:1023200000721A64032335E0FB681B69B3F5804F24
:1023300008D17B89DBB21A46FB681B6802F0FE02FB
:102340001A611BE07B89DB11DBB203F00603DBB211
:1023500063F00F03DAB2FB681B681A613B687A68A6
:102360000E49F86800F075F80346002B01D00123F0
:1023700010E07B89DAB2FB681B681A613B687A68F7
:102380000749F86800F065F80346002B01D00123E7
:1023900000E0002318461837BD4680BD0800010044
:1023A0000200010080B584B000AFF860B9603B6006
:1023B0001346FB7125E03B68B3F1FF3F21D0FEF7E8
:1023C0008FFF0246BB69D31A3A689A4202D33B6830
:1023D000002B16D1FB6800221A63FB68202283F8C9
:1023E0003D20FB68002283F83E20FB681B6C43F015
:1023F0002002FB681A64FB68002283F83C2001235A
:1024000023E0BB681B0CDBB2012B0DD1FB681B6802
:102410005B69DA43BB6813409BB2002B0CBF0123FE
:102420000023DBB21A460CE0FB681B689B69DA43A9
:10243000BB6813409BB2002B0CBF01230023DBB20F
:102440001A46FB799A42B6D0002318461037BD468B
:1024500080BD80B584B000AFF860B9607A603B6041
:1024600051E0FB681B685B6903F48063B3F5806F20
:1024700023D1FB681B681A68FB681B6842F4007272
:102480001A60FB681B686FF480625A61FB68002267
:102490001A63FB68202283F83D20FB68002283F842
:1024A0003E20FB681B6C43F00402FB681A64FB6867
:1024B000002283F83C20012346E07B68B3F1FF3F14
:1024C00021D0FEF70DFF02463B68D31A7A689A4284
:1024D00002D37B68002B16D1FB6800221A63FB68CD
:1024E000202283F83D20FB68002283F83E20FB6811
:1024F0001B6C43F02002FB681A64FB68002283F81F
:102500003C20012320E0BB681B0CDBB2012B0CD16B
:10251000FB681B685B69DA43BB6813409BB2002B06
:1025200014BF01230023DBB20BE0FB681B689B692F
:10253000DA43BB6813409BB2002B14BF0123002376
:10254000DBB2002B8DD1002318461037BD4680BD6D
:1025500080B584B000AFF860B9607A602DE0F868AB
:1025600000F078F80346002B01D001232DE0BB6872
:10257000B3F1FF3F21D0FEF7B3FE02467B68D31ACA
:10258000BA689A4202D3BB68002B16D1FB680022BE
:102590001A63FB68202283F83D20FB68002283F841
:1025A0003E20FB681B6C43F02002FB681A64FB684A
:1025B000002283F83C20012307E0FB681B685B696D
:1025C00003F08003802BCAD1002318461037BD4684
:1025D00080BD80B584B000AFF860B9607A602DE04E
:1025E000F86800F037F80346002B01D001232DE0F6
:1025F000BB68B3F1FF3F21D0FEF772FE02467B6855
:10260000D31ABA689A4202D3BB68002B16D1FB6872
:1026100000221A63FB68202283F83D20FB68002219
:1026200083F83E20FB681B6C43F02002FB681A64B1
:10263000FB68002283F83C20012307E0FB681B684D
:102640005B6903F00403042BCAD10023184610373A
:10265000BD4680BD80B483B000AF78607B681B68E6
:102660005B6903F48063B3F5806F1BD17B681B68E3
:102670006FF480625A617B6800221A637B682022B3
:1026800083F83D207B68002283F83E207B681B6C2A
:1026900043F004027B681A647B68002283F83C20C4
:1026A000012300E0002318460C37BD4680BC70476C
:1026B00080B586B000AF78607B68002B01D1012324
:1026C0006CE27B681B6803F00103002B00F087803D
:1026D000924B5B6803F00C03042B0CD08F4B5B68B0
:1026E00003F00C03082B12D18C4B5B6803F480338E
:1026F000B3F5803F0BD1894B1B6803F40033002BEB
:102700006CD07B685B68002B68D1012346E27B6854
:102710005B68B3F5803F06D1804B1B687F4A43F46A
:10272000803313602EE07B685B68002B0CD17B4B01
:102730001B687A4A23F480331360784B1B68774A0E
:1027400023F4802313601DE07B685B68B3F5A02F42
:102750000CD1724B1B68714A43F4802313606F4B9A
:102760001B686E4A43F4803313600BE06B4B1B68AD
:102770006A4A23F480331360684B1B68674A23F46A
:10278000802313607B685B68002B13D0FEF7A8FDE5
:10279000386108E0FEF7A4FD02463B69D31A642BBA
:1027A00001D90323FAE15D4B1B6803F40033002BCE
:1027B000F0D014E0FEF794FD386108E0FEF790FDDC
:1027C00002463B69D31A642B01D90323E6E1534B3C
:1027D0001B6803F40033002BF0D100E000BF7B68DE
:1027E0001B6803F00203002B63D04C4B5B6803F0C3
:1027F0000C03002B0BD0494B5B6803F00C03082B38
:102800001CD1464B5B6803F48033002B16D1434B3D
:102810001B6803F00203002B05D07B681B69012BAA
:1028200001D00123BAE13D4B1B6823F0F8027B681D
:102830005B69DB00394913430B603AE07B681B6935
:10284000002B20D0364B01221A60FEF749FD38617B
:1028500008E0FEF745FD02463B69D31A022B01D979
:1028600003239BE12D4B1B6803F00203002BF0D0E8
:102870002A4B1B6823F0F8027B685B69DB00274961
:1028800013430B6015E0264B00221A60FEF728FD6B
:10289000386108E0FEF724FD02463B69D31A022B9B
:1028A00001D903237AE11D4B1B6803F00203002BBF
:1028B000F0D17B681B6803F00803002B3AD07B68DB
:1028C0009B69002B19D0174B01221A60FEF708FDF7
:1028D000386108E0FEF704FD02463B69D31A022B7B
:1028E00001D903235AE10D4B5B6A03F00203002B6D
:1028F000F0D0012000F0D8FA1CE00A4B00221A6048
:10290000FEF7EEFC38610FE0FEF7EAFC02463B6999
:10291000D31A022B08D9032340E100BF0010024064
:1029200000004242800442429E4B5B6A03F0020375
:10293000002BE9D17B681B6803F00403002B00F037
:10294000A6800023FB75974BDB6903F08053002BB7
:102950000DD1944BDB69934A43F08053D361914B83
:10296000DB6903F08053BB60BB680123FB758E4BB2
:102970001B6803F48073002B18D18B4B1B688A4AA9
:1029800043F480731360FEF7ABFC386108E0FEF798
:10299000A7FC02463B69D31A642B01D90323FDE04F
:1029A000814B1B6803F48073002BF0D07B68DB68DD
:1029B000012B06D17B4B1B6A7A4A43F00103136259
:1029C0002DE07B68DB68002B0CD1764B1B6A754AC7
:1029D00023F001031362734B1B6A724A23F0040352
:1029E00013621CE07B68DB68052B0CD16D4B1B6A06
:1029F0006C4A43F0040313626A4B1B6A694A43F052
:102A0000010313620BE0674B1B6A664A23F0010364
:102A10001362644B1B6A634A23F0040313627B68EE
:102A2000DB68002B15D0FEF75BFC38610AE0FEF78F
:102A300057FC02463B69D31A41F28832934201D9CE
:102A40000323ABE0574B1B6A03F00203002BEED0CD
:102A500014E0FEF745FC38610AE0FEF741FC02464F
:102A60003B69D31A41F28832934201D9032395E09E
:102A70004C4B1B6A03F00203002BEED1FB7D012BB4
:102A800005D1484BDB69474A23F08053D3617B680B
:102A9000DB69002B00F08180424B5B6803F00C0384
:102AA000082B61D07B68DB69022B46D13F4B0022AB
:102AB0001A60FEF715FC386108E0FEF711FC0246CB
:102AC0003B69D31A022B01D9032367E0354B1B68FE
:102AD00003F00073002BF0D17B681B6AB3F5803FD5
:102AE00008D1304B5B6823F400327B689B682D492A
:102AF00013434B602B4B5B6823F474127B68196A99
:102B00007B685B6A0B43274913434B60274B0122C9
:102B10001A60FEF7E5FB386108E0FEF7E1FB0246CC
:102B20003B69D31A022B01D9032337E01D4B1B68E5
:102B300003F00073002BF0D02FE01C4B00221A6032
:102B4000FEF7CEFB386108E0FEF7CAFB02463B69A0
:102B5000D31A022B01D9032320E0124B1B6803F088
:102B60000073002BF0D118E07B68DB69012B01D1E9
:102B7000012313E00B4B5B68FB60FB6803F48032BE
:102B80007B681B6A9A4206D1FB6803F470127B686B
:102B90005B6A9A4201D0012300E0002318461837EF
:102BA000BD4680BD001002400070004060004242FF
:102BB00080B584B000AF786039607B68002B01D1AC
:102BC0000123D0E06A4B1B6803F007033A689A427E
:102BD00010D9674B1B6823F0070265493B68134314
:102BE0000B60634B1B6803F007033A689A4201D0FD
:102BF0000123B8E07B681B6803F00203002B20D0A0
:102C00007B681B6803F00403002B05D0594B5B68FD
:102C1000584A43F4E06353607B681B6803F0080381
:102C2000002B05D0534B5B68524A43F4605353600A
:102C3000504B5B6823F0F0027B689B684D4913435F
:102C40004B607B681B6803F00103002B40D07B685E
:102C50005B68012B07D1474B1B6803F40033002B43
:102C600015D101237FE07B685B68022B07D1414BC4
:102C70001B6803F00073002B09D1012373E03D4B67
:102C80001B6803F00203002B01D101236BE0394BD9
:102C90005B6823F003027B685B68364913434B6033
:102CA000FEF71EFBF8600AE0FEF71AFB0246FB681F
:102CB000D31A41F28832934201D9032353E02D4BBA
:102CC0005B6803F00C027B685B689B009A42EBD167
:102CD000274B1B6803F007033A689A4210D2244B33
:102CE0001B6823F0070222493B6813430B60204B0B
:102CF0001B6803F007033A689A4201D0012332E0CF
:102D00007B681B6803F00403002B08D0194B5B6839
:102D100023F4E0627B68DB68164913434B607B68F1
:102D20001B6803F00803002B09D0124B5B6823F4E7
:102D300060527B681B69DB000E4913434B6000F057
:102D400021F802460B4B5B681B0903F00F030A498D
:102D5000CB5C22FA03F3094A1360094B1B6818463F
:102D6000FEF77CFA002318461037BD4680BD00BF31
:102D7000002002400010024058530208F4000020D6
:102D8000F800002090B48AB000AF2A4B3C1D0FCB56
:102D900084E80F0040F201233B800023FB61002305
:102DA000BB6100237B6200237B6100233B62224BDB
:102DB0005B68FB61FB6903F00C03042B02D0082B5A
:102DC00003D02DE01D4B3B622DE0FB699B0C03F013
:102DD0000F0307F12802134413F8243C7B61FB69BD
:102DE00003F48033002B13D0134B5B685B0C03F0B0
:102DF000010307F12802134413F8283CBB617B69E7
:102E00000E4A02FB03F2BB69B2FBF3F37B6204E000
:102E10007B690B4A02FB03F37B627B6A3B6202E045
:102E2000064B3B6200BF3B6A18462837BD4690BC44
:102E3000704700BFFC5202080010024000127A00E6
:102E400000093D0080B400AF024B1B681846BD4628
:102E500080BC7047F400002080B500AFFFF7F2FFA0
:102E60000246054B5B681B0A03F007030349CB5C72
:102E700022FA03F3184680BD00100240685302088E
:102E800080B500AFFFF7DEFF0246054B5B68DB0A4B
:102E900003F007030349CB5C22FA03F3184680BD15
:102EA000001002406853020880B485B000AF78601B
:102EB0000A4B1B680A4AA2FB03235B0A7A6802FBDF
:102EC00003F3FB6000BFFB685A1EFA60002BF9D1C8
:102ED00000BF00BF1437BD4680BC7047F40000201F
:102EE000D34D621080B582B000AF78607B68002B54
:102EF00001D1012376E07B685B6A002B08D17B68F7
:102F00005B68B3F5827F09D07B680022DA6105E057
:102F10007B6800221A617B6800225A617B6800226C
:102F20009A627B6893F85130DBB2002B06D17B6844
:102F3000002283F850207868FDF7DEFF7B680222CC
:102F400083F851207B681B681A687B681B6822F035
:102F500040021A607B685B6803F482727B689B683E
:102F600003F404431A437B68DB6803F400631A43E9
:102F70007B681B6903F002031A437B685B6903F0FB
:102F800001031A437B689B6903F400731A437B684F
:102F9000DB6903F038031A437B681B6A03F0800384
:102FA00042EA03017B689B6A03F400527B681B685A
:102FB0000A431A607B689B691A0C7B681B6802F0E5
:102FC00004025A607B681B68DA697B681B6822F41C
:102FD0000062DA617B6800225A657B68012283F80F
:102FE0005120002318460837BD4680BD80B588B003
:102FF00000AFF860B9603B601346FB800023FB77AD
:10300000FB6893F85030012B01D1022326E1FB68C5
:10301000012283F85020FEF763F9B861FB88FB8238
:10302000FB6893F85130DBB2012B02D00223FB770F
:103030000BE1BB68002B02D0FB88002B02D10123DF
:10304000FB7702E1FB68032283F85120FB68002232
:103050005A65FB68BA681A63FB68FA889A86FB6847
:10306000FA88DA86FB6800229A63FB6800229A8756
:10307000FB680022DA87FB6800225A64FB680022A2
:103080001A64FB689B68B3F5004F0FD1FB681B689F
:103090001A68FB681B6822F040021A60FB681B6814
:1030A0001A68FB681B6842F480421A60FB681B6860
:1030B0001B6803F04003402B07D0FB681B681A68AD
:1030C000FB681B6842F040021A60FB68DB68B3F5DE
:1030D000006F4BD1FB685B68002B02D0FB8A012B91
:1030E0003ED1FB681B6B1A88FB681B68DA60FB68C3
:1030F0001B6B9A1CFB681A63FB68DB8E9BB2013B5F
:103100009AB2FB68DA862BE0FB681B689B6803F0C9
:103110000203022B12D1FB681B6B1A88FB681B6829
:10312000DA60FB681B6B9A1CFB681A63FB68DB8E1A
:103130009BB2013B9AB2FB68DA8611E0FEF7D0F849
:103140000246BB69D31A3A689A4203D83B68B3F186
:10315000FF3F02D13B68002B02D10323FB7774E0D1
:10316000FB68DB8E9BB2002BCED14CE0FB685B682A
:10317000002B02D0FB8A012B40D1FB681A6BFB6845
:103180001B680C3312781A70FB681B6B5A1CFB68A7
:103190001A63FB68DB8E9BB2013B9AB2FB68DA864E
:1031A0002CE0FB681B689B6803F00203022B13D121
:1031B000FB681A6BFB681B680C3312781A70FB688B
:1031C0001B6B5A1CFB681A63FB68DB8E9BB2013BCE
:1031D0009AB2FB68DA8611E0FEF782F80246BB6914
:1031E000D31A3A689A4203D83B68B3F1FF3F02D141
:1031F0003B68002B02D10323FB7726E0FB68DB8EC4
:103200009BB2002BCDD1BA693968F86800F0B2F8EA
:103210000346002B02D0FB6820225A65FB689B689E
:10322000002B0AD100233B61FB681B68DB683B6114
:10323000FB681B689B683B613B69FB685B6D002B0F
:1032400002D00123FB7700E000BFFB68012283F876
:103250005120FB68002283F85020FB7F184620375E
:10326000BD4680BD80B588B000AFF860B9603B60F6
:103270001346FB71FEF734F80246BB6A9B1A3A68A4
:103280001344FB61FEF72CF8B861394B1B685B01F6
:103290001B0DFA6902FB03F37B6154E03B68B3F159
:1032A000FF3F50D0FEF71CF80246BB69D31AFA69FB
:1032B0009A4202D9FB69002B3DD1FB681B685A6812
:1032C000FB681B6822F0E0025A60FB685B68B3F59C
:1032D000827F11D1FB689B68B3F5004F04D0FB6877
:1032E0009B68B3F5806F07D1FB681B681A68FB68A1
:1032F0001B6822F040021A60FB689B6AB3F5005F0E
:103300000FD1FB681B681A68FB681B6822F4005227
:103310001A60FB681B681A68FB681B6842F400525D
:103320001A60FB68012283F85120FB68002283F8B1
:103330005020032317E07B69002B01D10023FB61A0
:103340007B69013B7B61FB681B689A68BB68134023
:10335000BA689A420CBF01230023DBB21A46FB79FC
:103360009A429BD1002318462037BD4680BD00BF3E
:10337000F400002080B586B002AFF860B9607A60D2
:103380007B680093BB6800228021F868FFF76AFF22
:103390000346002B07D0FB685B6D43F02002FB68FF
:1033A0005A65032300E0002318461037BD4680BD50
:1033B00080B582B000AF78607B68002B01D101231B
:1033C00041E07B6893F83D30DBB2002B06D17B688F
:1033D000002283F83C207868FDF7CEFD7B6802224E
:1033E00083F83D207B681A687B68043319461046D1
:1033F00000F0BAF97B68012283F846207B6801223D
:1034000083F83E207B68012283F83F207B680122FD
:1034100083F840207B68012283F841207B680122E9
:1034200083F842207B68012283F843207B680122D5
:1034300083F844207B68012283F845207B680122C1
:1034400083F83D20002318460837BD4680BD0000A4
:1034500080B485B000AF78607B6893F83D30DBB214
:10346000012B01D0012344E07B68022283F83D2038
:103470007B681B68DA687B681B6842F00102DA60CF
:103480007B681B681D4A934218D07B681B681C4AE6
:10349000934213D07B681B68B3F1804F0ED07B68DA
:1034A0001B68184A934209D07B681B68164A9342EE
:1034B00004D07B681B68154A934211D17B681B6856
:1034C0009B6803F00703FB60FB68062B10D07B684A
:1034D0001B681A687B681B6842F001021A6007E0EB
:1034E0007B681B681A687B681B6842F001021A60DF
:1034F000002318461437BD4680BC7047002C01409D
:10350000003401400004004000080040000C00406E
:1035100080B582B000AF78607B681B681B6903F0E0
:103520000203022B22D17B681B68DB6803F00203D5
:10353000022B1BD17B681B686FF002021A617B684B
:1035400001221A777B681B689B6903F00303002B39
:1035500003D0786800F0EDF805E0786800F0E0F856
:10356000786800F0EFF87B6800221A777B681B68A8
:103570001B6903F00403042B22D17B681B68DB6802
:1035800003F00403042B1BD17B681B686FF004025B
:103590001A617B6802221A777B681B689B6903F4B7
:1035A0004073002B03D0786800F0C3F805E078681A
:1035B00000F0B6F8786800F0C5F87B6800221A774A
:1035C0007B681B681B6903F00803082B22D17B680A
:1035D0001B68DB6803F00803082B1BD17B681B68A2
:1035E0006FF008021A617B6804221A777B681B68F7
:1035F000DB6903F00303002B03D0786800F099F82F
:1036000005E0786800F08CF8786800F09BF87B683B
:1036100000221A777B681B681B6903F01003102BCC
:1036200022D17B681B68DB6803F01003102B1BD1D1
:103630007B681B686FF010021A617B6808221A779A
:103640007B681B68DB6903F44073002B03D0786848
:1036500000F06FF805E0786800F062F8786800F034
:1036600071F87B6800221A777B681B681B6903F07E
:103670000103012B0ED17B681B68DB6803F001039B
:10368000012B07D17B681B686FF001021A61786813
:10369000FBF7E4FB7B681B681B6903F08003802B4E
:1036A0000ED17B681B68DB6803F08003802B07D199
:1036B0007B681B686FF080021A61786800F0D7F8A9
:1036C0007B681B681B6903F04003402B0ED17B68AD
:1036D0001B68DB6803F04003402B07D17B681B6845
:1036E0006FF040021A61786800F035F87B681B685B
:1036F0001B6903F02003202B0ED17B681B68DB685D
:1037000003F02003202B07D17B681B686FF0200299
:103710001A61786800F0A2F800BF0837BD4680BD86
:1037200080B483B000AF786000BF0C37BD4680BC6A
:10373000704780B483B000AF786000BF0C37BD46DF
:1037400080BC704780B483B000AF786000BF0C3796
:10375000BD4680BC704780B483B000AF786000BFC6
:103760000C37BD4680BC704780B485B000AF786030
:1037700039607B681B68FB607B68334A934213D0D7
:103780007B68324A93420FD07B68B3F1804F0BD0F5
:103790007B682F4A934207D07B682E4A934203D01E
:1037A0007B682D4A934208D1FB6823F07003FB60CD
:1037B0003B685B68FA681343FB607B68224A93426C
:1037C00013D07B68214A93420FD07B68B3F1804FBE
:1037D0000BD07B681E4A934207D07B681D4A9342F8
:1037E00003D07B681C4A934208D1FB6823F44073E2
:1037F000FB603B68DB68FA681343FB60FB6823F0FF
:1038000080023B685B691343FB607B68FA681A605F
:103810003B689A687B68DA623B681A687B689A62E0
:103820007B68094A934203D07B68084A934203D1DC
:103830003B681A697B681A637B6801225A6100BF82
:103840001437BD4680BC7047002C01400034014055
:103850000004004000080040000C004080B483B029
:1038600000AF786000BF0C37BD4680BC704780B4A5
:1038700083B000AF786000BF0C37BD4680BC704796
:1038800080B582B000AF78607B68002B01D1012346
:103890003FE07B6893F83D30DBB2002B06D17B68BC
:1038A000002283F83C207868FDF78CFB7B6824229B
:1038B00083F83D207B681B68DA687B681B6822F40C
:1038C0000052DA60786800F0C1FC7B681B681A69F6
:1038D0007B681B6822F490421A617B681B685A69F6
:1038E0007B681B6822F02A025A617B681B68DA68D1
:1038F0007B681B6842F40052DA607B6800221A641D
:103900007B68202283F83D207B68202283F83E20BC
:10391000002318460837BD4680BD80B58AB002AF87
:10392000F860B9603B601346FB8000237B61FB6855
:1039300093F83D30DBB2202B7CD1BB68002B02D04A
:10394000FB88002B01D1012375E0FB6893F83C3024
:10395000012B01D102236EE0FB68012283F83C2099
:10396000FB6800221A64FB68212283F83D20FDF7E2
:10397000B7FC7861FB68FA889A84FB68FA88DA8475
:10398000FB689B68B3F5805F08D1FB681B69002B5F
:1039900004D10023FB61BB68BB6103E0BB68FB6132
:1039A0000023BB61FB68002283F83C202AE03B68CF
:1039B00000937B6900228021F86800F073FA0346C7
:1039C000002B01D0032336E0FB69002B0BD1BB6930
:1039D0001B881A46FB681B68C2F308025A60BB6961
:1039E0000233BB6107E0FB691A78FB681B685A6009
:1039F000FB690133FB61FB68DB8C9BB2013B9AB234
:103A0000FB68DA84FB68DB8C9BB2002BCFD13B6870
:103A100000937B6900224021F86800F043FA0346D6
:103A2000002B01D0032306E0FB68202283F83D2011
:103A3000002300E0022318462037BD4680BD80B435
:103A400085B000AFF860B9601346FB80FB6893F85F
:103A50003D30DBB2202B30D1BB68002B02D0FB887D
:103A6000002B01D1012329E0FB6893F83C30012BA6
:103A700001D1022322E0FB68012283F83C20FB688D
:103A8000BA681A62FB68FA889A84FB68FA88DA8452
:103A9000FB6800221A64FB68212283F83D20FB6842
:103AA000002283F83C20FB681B68DA68FB681B680F
:103AB00042F08002DA60002300E002231846143747
:103AC000BD4680BC704780B584B000AFF860B96077
