:020000040800F2
:1050000000000120FD5D0108D15A0108DD5A0108A8
:10501000E35A0108E95A0108EF5A010800000000AC
:10502000000000000000000000000000F55A010828
:10503000015B0108000000000D5B0108195B01081D
:10504000455E0108455E0108455E0108455E0108B0
:10505000455E0108455E0108455E0108455E0108A0
:10506000455E0108455E0108455E0108855B010853
:10507000455E0108455E0108455E0108455E010880
:10508000455E0108455E0108715B0108455E010847
:10509000455E0108455E0108455E0108255B010883
:1050A000455E0108455E0108455E0108455E010850
:1050B000455E0108355B0108455E0108455E010853
:1050C000455E0108455E0108455E0108455E010830
:1050D000455E0108495B0108455E0108455E01081F
:1050E000455E0108455E0108455E0108455E010810
:1050F000455E0108455E0108455E0108455E010800
:10510000455E0108455E0108455E0108455E0108EF
:10511000455E01085D5B0108455E0108455E0108CA
:10512000455E0108455E0108455E0108455E0108CF
:10513000000000000000000000000000000000006F
:10514000000000000000000000000000000000005F
:10515000000000000000000000000000000000004F
:10516000000000000000000000000000000000003F
:10517000000000000000000000000000000000002F
:10518000000000000000000000000000000000001F
:10519000000000000000000000000000000000000F
:1051A00000000000000000000000000000000000FF
:1051B00000000000000000000000000000000000EF
:1051C00000000000000000000000000000000000DF
:1051D00000000000000000000000000000000000CF
:0451E0005FF8E0F1A3
:1051E80010B5054C237833B9044B13B10448AFF319
:1051F80000800123237010BDD004002000000000AF
:105208001C82010808B5034B1BB103490348AFF3DF
:10521800008008BD00000000D40400201C820108A2
:10522800034613F8012B002AFBD1181A01387047DE
:1052380081F0004102E000BF83F0004330B54FEA3F
:1052480041044FEA430594EA050F08BF90EA020FAC
:105258001FBF54EA000C55EA020C7FEA645C7FEA3F
:10526800655C00F0E2804FEA5454D4EB5555B8BF62
:105278006D420CDD2C4480EA020281EA030382EAD3
:10528800000083EA010180EA020281EA0303362D65
:1052980088BF30BD11F0004F4FEA01314FF4801C38
:1052A8004CEA113102D0404261EB410113F0004F4A
:1052B8004FEA03334CEA133302D0524263EB430301
:1052C80094EA050F00F0A780A4F10104D5F1200E9F
:1052D8000DDB02FA0EFC22FA05F2801841F10001FA
:1052E80003FA0EF2801843FA05F359410EE0A5F1CE
:1052F80020050EF1200E012A03FA0EFC28BF4CF0FF
:10530800020C43FA05F3C01851EBE37101F00045B4
:1053180007D54FF0000EDCF1000C7EEB00006EEBC1
:105328000101B1F5801F1BD3B1F5001F0CD349084B
:105338005FEA30004FEA3C0C04F101044FEA4452A2
:1053480012F5800F80F09A80BCF1004F08BF5FEA29
:10535800500C50F1000041EB045141EA050130BD09
:105368005FEA4C0C404141EB010111F4801FA4F1AC
:105378000104E9D191F0000F04BF01460020B1FA01
:1053880081F308BF2033A3F10B03B3F120020CDA39
:105398000C3208DD02F1140CC2F10C0201FA0CF017
:1053A80021FA02F10CE002F11402D8BFC2F1200C7C
:1053B80001FA02F120FA0CFCDCBF41EA0C01904032
:1053C800E41AA2BF01EB0451294330BD6FEA04047B
:1053D8001F3C1CDA0C340EDC04F11404C4F1200266
:1053E80020FA04F001FA02F340EA030021FA04F378
:1053F80045EA030130BDC4F10C04C4F1200220FACF
:1054080002F001FA04F340EA0300294630BD21FA0C
:1054180004F0294630BD94F0000F83F4801306BFD2
:1054280081F480110134013D4EE77FEA645C18BFC6
:105438007FEA655C29D094EA050F08BF90EA020F5D
:1054480005D054EA000C04BF1946104630BD91EA55
:10545800030F1EBF0021002030BD5FEA545C05D158
:105468004000494128BF41F0004130BD14F5800497
:105478003CBF01F5801130BD01F0004545F0FE410B
:1054880041F470014FF0000030BD7FEA645C1ABF40
:10549800194610467FEA655C1CBF0B46024650EA77
:1054A800013406BF52EA033591EA030F41F40021A3
:1054B80030BD00BF90F0000F04BF0021704730B529
:1054C8004FF4806404F132044FF000054FF00001FE
:1054D80050E700BF90F0000F04BF0021704730B5BF
:1054E8004FF4806404F1320410F0004548BF404294
:1054F8004FF000013EE700BF42004FEAE2014FEAE9
:1055080031014FEA02701FBF12F07F4393F07F4FC3
:1055180081F06051704732F07F4208BF704793F0C6
:105528007F4F04BF41F40021704730B54FF46074D9
:1055380001F0004521F000411CE700BF50EA0102DC
:1055480008BF704730B54FF000050AE050EA010285
:1055580008BF704730B511F0004502D5404261EBF5
:1055680041014FF4806404F132045FEA915C3FF436
:10557800D8AE4FF003025FEADC0C18BF03325FEAD3
:10558800DC0C18BF033202EBDC02C2F1200300FA84
:1055980003FC20FA02F001FA03FE40EA0E0021FAA9
:1055A80002F11444BDE600BF70B54FF0FF0C4CF497
:1055B800E06C1CEA11541DBF1CEA135594EA0C0F49
:1055C80095EA0C0F00F0DEF82C4481EA030621EA84
:1055D8004C5123EA4C5350EA013518BF52EA0335BF
:1055E80041F4801143F4801338D0A0FB02CE4FF071
:1055F8000005E1FB02E506F00042E0FB03E54FF0A1
:105608000006E1FB03569CF0000F18BF4EF0010E98
:10561800A4F1FF04B6F5007F64F5407404D25FEA94
:105628004E0E6D4146EB060642EAC62141EA555147
:105638004FEAC52040EA5E504FEACE2EB4F1FD0C89
:1056480088BFBCF5E06F1ED8BEF1004F08BF5FEA07
:10565800500E50F1000041EB045170BD06F00046B9
:1056680046EA010140EA020081EA0301B4EB5C0466
:10567800C2BFD4EB0C0541EA045170BD41F480115E
:105688004FF0000E013C00F3AB8014F1360FDEBF83
:10569800002001F0004170BDC4F10004203C35DA5F
:1056A8000C341BDC04F11404C4F1200500FA05F3E2
:1056B80020FA04F001FA05F240EA020001F0004283
:1056C80021F0004110EBD37021FA04F642EB0601F9
:1056D8005EEA430E08BF20EAD37070BDC4F10C0423
:1056E800C4F1200500FA04F320FA05F001FA04F2E7
:1056F80040EA020001F0004110EBD37041F10001D3
:105708005EEA430E08BF20EAD37070BDC4F12005DD
:1057180000FA05F24EEA020E20FA04F301FA05F245
:1057280043EA020321FA04F001F0004121FA04F2ED
:1057380020EA020000EBD3705EEA430E08BF20EABD
:10574800D37070BD94F0000F0FD101F000464000F7
:1057580041EB010111F4801F08BF013CF7D041EA79
:10576800060195F0000F18BF704703F0004652007D
:1057780043EB030313F4801F08BF013DF7D043EA4E
:105788000603704794EA0C0F0CEA135518BF95EA04
:105798000C0F0CD050EA410618BF52EA4306D1D18B
:1057A80081EA030101F000414FF0000070BD50EAAA
:1057B800410606BF1046194652EA430619D094EA34
:1057C8000C0F02D150EA013613D195EA0C0F05D11E
:1057D80052EA03361CBF104619460AD181EA030172
:1057E80001F0004141F0FE4141F470014FF000002A
:1057F80070BD41F0FE4141F4780170BD70B54FF0C5
:10580800FF0C4CF4E06C1CEA11541DBF1CEA135544
:1058180094EA0C0F95EA0C0F00F0A7F8A4EB050426
:1058280081EA030E52EA03354FEA013100F088801D
:105838004FEA03334FF0805545EA131343EA1263E6
:105848004FEA022245EA111545EA10654FEA00269B
:105858000EF000419D4208BF964244F1FD0404F554
:10586800407402D25B084FEA3202B61A65EB0305B0
:105878005B084FEA32024FF480104FF4002CB6EB6D
:10588800020E75EB030E22BFB61A754640EA0C00ED
:105898005B084FEA3202B6EB020E75EB030E22BF2D
:1058A800B61A754640EA5C005B084FEA3202B6EB6E
:1058B800020E75EB030E22BFB61A754640EA9C002D
:1058C8005B084FEA3202B6EB020E75EB030E22BFFD
:1058D800B61A754640EADC0055EA060E18D04FEABB
:1058E800051545EA16754FEA06164FEAC30343EA5B
:1058F80052734FEAC2025FEA1C1CC0D111F4801F28
:105908000BD141EA00014FF000004FF0004CB6E720
:1059180011F4801F04BF01430020B4F1FD0C88BFBF
:10592800BCF5E06F3FF6AFAEB5EB030C04BFB6EBCA
:10593800020C5FEA500C50F1000041EB045170BDBD
:105948000EF0004E4EEA113114EB5C04C2BFD4EBEA
:105958000C0541EA045170BD41F480114FF0000E6E
:10596800013C90E645EA060E8DE60CEA135594EAEA
:105978000C0F08BF95EA0C0F3FF43BAF94EA0C0FED
:105988000AD150EA01347FF434AF95EA0C0F7FF462
:1059980025AF104619462CE795EA0C0F06D152EAB6
:1059A80003353FF4FDAE1046194622E750EA41069A
:1059B80018BF52EA43067FF4C5AE50EA41047FF4AB
:1059C8000DAF52EA43057FF4EBAE12E74FF0FF3C10
:1059D80006E000BF4FF0010C02E000BF4FF0010CE1
:1059E8004DF804CD4FEA410C7FEA6C5C4FEA430C5A
:1059F80018BF7FEA6C5C1BD001B050EA410C0CBFA9
:105A080052EA430C91EA030F02BF90EA020F00200A
:105A1800704710F1000F91EA030F58BF994208BF71
:105A280090422CBFD8176FEAE37040F0010070472E
:105A38004FEA410C7FEA6C5C02D150EA013C07D185
:105A48004FEA430C7FEA6C5CD6D152EA033CD3D0D0
:105A58005DF8040B704700BF8446104662468C46CA
:105A68001946634600E000BF01B5FFF7B7FF0028FD
:105A780048BF10F1000F01BD4DF808EDFFF7F4FF26
:105A88000CBF012000205DF808FB00BF4DF808EDB1
:105A9800FFF7EAFF34BF012000205DF808FB00BFD4
:105AA8004DF808EDFFF7E0FF94BF012000205DF8F6
:105AB80008FB00BF4DF808EDFFF7CEFF94BF0120AB
:105AC80000205DF808FB00BF4DF808EDFFF7C4FFA4
:105AD80034BF012000205DF808FB00BF4FEA410CED
:105AE8007FEA6C5C02D150EA013C0AD14FEA430CD0
:105AF8007FEA6C5C02D152EA033C02D14FF000000D
:105B080070474FF0010070474FEA410212F500124A
:105B180015D211D56FF47873B3EB625212D94FEAEC
:105B2800C12343F0004343EA505311F0004F23FAD6
:105B380002F018BF404270474FF00000704750EA2B
:105B4800013005D111F0004008BF6FF000407047E8
:105B58004FF00000704700BF4A0011D212F5001242
:105B680011D20DD56FF47873B3EB62520ED44FEAAD
:105B7800C12343F0004343EA505323FA02F070472D
:105B88004FF00000704750EA013002D14FF0FF306B
:105B980070474FF00000704780F0004002E000BFFF
:105BA80081F0004142001FBF5FEA410392EA030F00
:105BB8007FEA226C7FEA236C6AD04FEA1262D2EB4A
:105BC8001363C1BFD218414048404140B8BF5B424F
:105BD800192B88BF704710F0004F40F4000020F0E8
:105BE8007F4018BF404211F0004F41F4000121F0FE
:105BF8007F4118BF494292EA030F3FD0A2F1010248
:105C080041FA03FC10EB0C00C3F1200301FA03F185
:105C180000F0004302D5494260EB4000B0F5000FA8
:105C280013D3B0F1807F06D340084FEA310102F167
:105C38000102FE2A51D2B1F1004F40EBC25008BF19
:105C480020F0010040EA03007047490040EB0000E3
:105C580010F4000FA2F10102EDD1B0FA80FCACF112
:105C6800080CB2EB0C0200FA0CF0AABF00EBC25011
:105C780052421843BCBFD0401843704792F0000FFF
:105C880081F4000106BF80F400000132013BB5E752
:105C98004FEA41037FEA226C18BF7FEA236C21D0C8
:105CA80092EA030F04D092F0000F08BF084670472D
:105CB80090EA010F1CBF0020704712F07F4F04D1FB
:105CC800400028BF40F00040704712F100723CBF0E
:105CD80000F50000704700F0004343F0FE4040F438
:105CE800000070477FEA226216BF08467FEA2363F6
:105CF8000146420206BF5FEA412390EA010F40F4E1
:105D0800800070474FF0000304E000BF10F000432C
:105D180048BF40425FEA000C08BF704743F0964313
:105D280001464FF000001CE050EA010208BF70472E
:105D38004FF000030AE000BF50EA010208BF7047B5
:105D480011F0004302D5404261EB41015FEA010CCA
:105D580002BF84460146002043F0B64308BFA3F1C2
:105D68008053A3F50003BCFA8CF2083AA3EBC253A4
:105D780010DB01FA02FC634400FA02FCC2F12002C3
:105D8800BCF1004F20FA02F243EB020008BF20F0FA
:105D98000100704702F1200201FA02FCC2F1200260
:105DA80050EA4C0021FA02F243EB020008BF20EA55
:105DB800DC7070474FF0FF0C1CEAD0521EBF1CEA83
:105DC800D15392EA0C0F93EA0C0F6FD01A4480EA71
:105DD800010C400218BF5FEA41211ED04FF000635A
:105DE80043EA501043EA5111A0FB01310CF0004086
:105DF800B1F5000F3EBF490041EAD3715B0040EAAC
:105E0800010062F17F02FD2A1DD8B3F1004F40EB7B
:105E1800C25008BF20F00100704790F0000F0CF04E
:105E2800004C08BF49024CEA502040EA51207F3A12
:105E3800C2BFD2F1FF0340EAC250704740F40000ED
:105E48004FF00003013A5DDC12F1190FDCBF00F0DE
:105E580000407047C2F10002410021FA02F1C2F18C
:105E6800200200FA02FC5FEA310040F1000053EA28
:105E78004C0308BF20EADC70704792F0000F00F076
:105E8800004C02BF400010F4000F013AF9D040EA7C
:105E98000C0093F0000F01F0004C02BF490011F410
:105EA800000F013BF9D041EA0C018FE70CEAD1530E
:105EB80092EA0C0F18BF93EA0C0F0AD030F0004C8E
:105EC80018BF31F0004CD8D180EA010000F0004042
:105ED800704790F0000F17BF90F0004F084691F000
:105EE800000F91F0004F14D092EA0C0F01D142023A
:105EF8000FD193EA0C0F03D14B0218BF084608D103
:105F080080EA010000F0004040F0FE4040F400004C
:105F1800704740F0FE4040F4400070474FF0FF0CDF
:105F28001CEAD0521EBF1CEAD15392EA0C0F93EA26
:105F38000C0F69D0A2EB030280EA010C49024FEA78
:105F4800402037D04FF0805343EA111143EA101331
:105F58000CF000408B4238BF5B0042F17D024FF4E9
:105F6800000C8B4224BF5B1A40EA0C00B3EB510FC4
:105F780024BFA3EB510340EA5C00B3EB910F24BFAD
:105F8800A3EB910340EA9C00B3EBD10F24BFA3EB32
:105F9800D10340EADC001B0118BF5FEA1C1CE0D1FA
:105FA800FD2A3FF650AF8B4240EBC25008BF20F0AD
:105FB800010070470CF0004C4CEA50207F32C2BF01
:105FC800D2F1FF0340EAC250704740F400004FF09E
:105FD8000003013A37E792F0000F00F0004C02BFCF
:105FE800400010F4000F013AF9D040EA0C0093F099
:105FF800000F01F0004C02BF490011F4000F013BF3
:10600800F9D041EA0C0195E70CEAD15392EA0C0F5A
:1060180008D142027FF47DAF93EA0C0F7FF470AF92
:10602800084676E793EA0C0F04D14B023FF44CAFD5
:1060380008466EE730F0004C18BF31F0004CCAD16A
:1060480030F000427FF45CAF31F000437FF43CAFA6
:106058005FE700BF42000ED2B2F1FE4F0BD34FF004
:106068009E03B3EB126209D44FEA002343F00043C6
:1060780023FA02F070474FF00000704712F1610FE9
:1060880001D1420202D14FF0FF3070474FF00000BB
:10609800704700BF53B94AB9002908BF00281CBF80
:1060A8004FF0FF314FF0FF3000F074B9ADF1080C3C
:1060B8006DE904CE00F006F8DDF804E0DDE902231E
:1060C80004B070472DE9F0478C460446089E002B23
:1060D8004BD18A42154667D9B2FA82F24AB1C2F167
:1060E800200701FA02F320FA07F7954047EA030C64
:1060F80094404FEA154EBCFBFEF71FFA85F80EFBDD
:1061080017C307FB08F9210C41EA0343994509D94C
:10611800EB1807F1FF3180F01C81994540F2198195
:10612800023F2B44A3EB0903B3FBFEF00EFB103335
:1061380000FB08F1A4B244EA0344A14209D92C198E
:1061480000F1FF3380F00781A14240F20481023858
:106158002C4440EA07400027641A1EB10023D440AB
:10616800C6E900433946BDE8F0878B4209D9002EBD
:1061780000F0EC800027C6E9000138463946BDE842
:10618800F087B3FA83F7002F48D18B4202D38242BB
:1061980000F2FB80841A61EB030301209C46002E69
:1061A800E0D0C6E9004CDDE702B9FFDEB2FA82F2C0
:1061B800002A40F08F800127491B4FEA15481FFA33
:1061C80085F9B1FBF8FE08FB1E1109FB0EF04FEA3A
:1061D800144C4CEA0143984207D9EB180EF1FF31F1
:1061E80002D2984200F2CD808E461B1AB3FBF8F01B
:1061F80008FB103309FB00F9A4B244EA0344A145A3
:1062080007D92C1900F1FF3302D2A14500F2B6805C
:106218001846A4EB090440EA0E409EE7C7F12005A2
:10622800BB4022FA05FC4CEA030C21FA05F44FEABC
:106238001C4EB4FBFEF91FFA8CF80EFB194420FA29
:1062480005F3B94009FB08FA19430B0C43EA044467
:10625800A24502FA07F200FA07F30BD91CEB040473
:1062680009F1FF3080F08880A24540F28580A9F1CD
:1062780002096444A4EB0A04B4FBFEF00EFB1044CC
:1062880000FB08FA89B241EA0444A24508D91CEB8C
:10629800040400F1FF316BD2A24569D90238644485
:1062A80040EA0940A0FB0289A4EB0A044C45414698
:1062B800CE4654D351D0002E69D05A1A64EB0E043E
:1062C80004FA05F522FA07F3FC401D43C6E9005419
:1062D800002747E79540C2F1200321FA03F04FEA6F
:1062E8001548B0FBF8F71FFA85F908FB170024FAE0
:1062F80003F3914007FB09FC0B43190C41EA0041E9
:106308008C4504FA02F407D9691807F1FF3031D235
:106318008C452FD9023F2944A1EB0C01B1FBF8F0C1
:1063280008FB101C00FB09FE99B241EA0C418E459E
:1063380007D9691800F1FF3318D28E4516D90238EB
:106348002944A1EB0E0140EA07473AE737463046B1
:1063580008E70F46E6E61846FBE64345ABD2B8EB3E
:10636800020169EB0C0201389646A4E71846E8E7F3
:10637800084695E70746CFE781467BE702382C4475
:1063880047E7AEF1020E2B442FE7384607E73746BA
:10639800E8E600BF704700BF80B500AF084B1B6838
:1063A800074A43F010031360032000F03DFE00206D
:1063B80000F008F80FF046F80023184680BD00BF2B
:1063C8000020024080B582B000AF7860124B1A6896
:1063D800124B1B7819464FF47A73B3FBF1F3B2FBF7
:1063E800F3F3184600F063FE0346002B01D00123A7
:1063F8000EE07B680F2B0AD8002279684FF0FF3037
:1064080000F01DFE064A7B681360002300E00123AC
:1064180018460837BD4680BDF4020020040000205D
:106428000000002080B400AF054B1B781A46054BCE
:106438001B681344034A136000BFBD4680BC704705
:1064480004000020A013002080B400AF024B1B689A
:106458001846BD4680BC7047A013002080B584B0A4
:1064680000AF7860FFF7F0FFB8607B68FB60FB68FF
:10647800B3F1FF3F05D0094B1B781A46FB6813445C
:10648800FB6000BFFFF7E0FF0246BB68D31AFA685B
:106498009A42F7D800BF1037BD4680BD04000020DF
:1064A80080B586B000AF78600023FB7500233B61A0
:1064B8000023BB600023FB607B68002B01D1012314
:1064C800CEE07B689B68002B7B689B6A002B09D118
:1064D8007B680022DA627B68002283F824207868CF
:1064E8000FF0BEF9786800F007FC0346FB757B687F
:1064F8009B6A03F01003002B40F0A980FB7D002B62
:1065080040F0A5807B689B6A23F4885323F002033C
:1065180043F002027B689A627B685A687B681B6852
:1065280051498B420AD17B68DB69B3F5402F02D011
:106538007B68DB6904E04FF4002301E07B68DB69DA
:106548001A437B681B7B5B001343BA681343BB6029
:106558007B689B68B3F5807F03D07B689B68012BC1
:1065680002D14FF4807300E000233A6913433B6182
:106578007B681B7D012B19D17B681B7B002B09D104
:106588007B689B69013B5A033B69134343F40063EF
:106598003B610BE07B689B6A43F020027B689A6250
:1065A8007B68DB6A43F001027B68DA627B681B6800
:1065B8005B6823F469417B681B683A690A435A603F
:1065C8007B681B689A68294B13407A681268B96817
:1065D8000B4393607B689B68B3F5807F03D07B682F
:1065E8009B68012B04D17B681B69013B1B05FB6081
:1065F8007B681B68DB6A23F470017B681B68FA6898
:106608000A43DA627B681B689A68194B1340BA68B8
:106618009A420BD17B680022DA627B689B6A23F07E
:10662800030343F001027B689A6218E07B689B6A67
:1066380023F0120343F010027B689A627B68DB6ADE
:1066480043F001027B68DA620123FB7507E07B688F
:106658009B6A43F010027B689A620123FB75FB7DFD
:1066680018461837BD4680BD003C0140FDF7E1FFE4
:10667800FE0E1FFF80B586B000AFF860B9607A6083
:106688000023FB75FB681B68644A934204D0FB68CF
:106698001B68634A934206D1604B5B6803F470231E
:1066A800002B40F0B380FB6893F82430012B01D114
:1066B8000223AEE0FB68012283F82420F86800F08A
:1066C800C9FA0346FB75FB7D002B40F09A80FB68F6
:1066D8009B6A23F4706323F0010343F48072FB6820
:1066E8009A62FB681B684E4A934205D14B4B5B6824
:1066F80003F47023002B15D1FB689B6A23F48012E6
:10670800FB689A62FB681B685B6803F48063002B74
:1067180026D0FB689B6A23F4405343F48052FB68FD
:106728009A621DE0FB689B6A43F48012FB689A62D8
:10673800FB681B68394A934204D0FB681B68384AD7
:1067480093420DD1354B5B6803F48063002B07D06F
:10675800FB689B6A23F4405343F48052FB689A62B7
:10676800FB689B6A03F48053002B06D0FB68DB6A46
:1067780023F00602FB68DA6202E0FB680022DA62B4
:10678800FB68002283F82420FB681B6A254A9A626A
:10679800FB681B6A244ADA62FB681B6A234A1A638D
:1067A800FB681B686FF002021A60FB681B689A6836
:1067B800FB681B6842F480729A60FB68186AFB6881
:1067C8001B684C331946BA687B6800F0F3FCFB6819
:1067D8001B689B6803F46023B3F5602F08D1FB683E
:1067E8001B689A68FB681B6842F4A0029A600FE075
:1067F800FB681B689A68FB681B6842F480129A6001
:1068080006E0FB68002283F8242001E00123FB75E1
:10681800FB7D18461837BD4680BD00BF00240140E7
:1068280000280140756D0008F16D00080D6E000824
:1068380080B584B000AF78600023FB737B6893F861
:106848002430012B01D1022333E07B68012283F835
:106858002420786800F050FA0346FB73FB7B002B7A
:1068680022D17B681B689A687B681B6822F4807257
:106878009A607B681B6A184600F0FBFC0346FB73B2
:10688800FB7B002B0AD17B689B6A23F4885323F097
:10689800010343F001027B689A6205E07B689B6A0A
:1068A80043F040027B689A627B68002283F82420C8
:1068B800FB7B18461037BD4680BD80B582B000AF5F
:1068C80078607B681B685B6803F02003202B40D14D
:1068D8007B681B681B6803F00203022B39D17B68B5
:1068E8009B6A03F01003002B05D17B689B6A43F475
:1068F80000727B689A627B681B689B6803F460235C
:10690800B3F5602F1DD17B681B7B002B19D17B68E9
:106918001B685A687B681B6822F020025A607B68F3
:106928009B6A23F480727B689A627B689B6A03F493
:106938008053002B05D17B689B6A43F001027B687A
:106948009A62786804F028FE7B681B686FF0120270
:106958001A607B681B685B6803F08003802B4FD14B
:106968007B681B681B6803F00403042B48D17B6811
:106978009B6A03F01003002B05D17B689B6A43F4E4
:1069880000527B689A627B681B689B6803F4E0434B
:10699800B3F5E04F12D07B681B685B6803F4806333
:1069A800002B25D17B681B689B6803F46023B3F533
:1069B800602F1DD17B681B7B002B19D17B681B685E
:1069C8005A687B681B6822F080025A607B689B6A61
:1069D80023F480527B689A627B689B6A03F4807315
:1069E800002B05D17B689B6A43F001027B689A62A1
:1069F800786800F021FA7B681B686FF00C021A6057
:106A08007B681B685B6803F04003402B14D17B68EC
:106A18001B681B6803F00103012B0DD17B689B6A7F
:106A280043F480327B689A62786804F09FFE7B6842
:106A38001B686FF001021A6000BF0837BD4680BDB1
:106A480080B483B000AF786000BF0C37BD4680BC0F
:106A5800704780B483B000AF786000BF0C37BD4684
:106A680080BC704780B485B000AF7860396000237F
:106A7800FB730023BB607B6893F82430012B01D1A2
:106A88000223DCE07B68012283F824203B685B68F2
:106A9800062B1CD87B681B68596B3B685A681346E1
:106AA8009B001344053B1F2202FA03F3DB43194002
:106AB8003B6818683B685A6813469B001344053BBB
:106AC80000FA03F27B681B680A435A633CE03B68A0
:106AD8005B680C2B1CD87B681B68196B3B685A6871
:106AE80013469B001344233B1F2202FA03F3DB43A4
:106AF80019403B6818683B685A6813469B00134462
:106B0800233B00FA03F27B681B680A431A631BE005
:106B18007B681B68D96A3B685A6813469B00134414
:106B2800413B1F2202FA03F3DB4319403B68186814
:106B38003B685A6813469B001344413B00FA03F232
:106B48007B681B680A43DA623B681B68092B1CD9FF
:106B58007B681B68D9683B681A6813465B00134456
:106B68001E3B072202FA03F3DB4319403B6898688F
:106B78003B681A6813465B0013441E3B00FA03F295
:106B88007B681B680A43DA6019E07B681B6819692F
:106B98003B681A6813465B001344072202FA03F3A2
:106BA800DB4319403B6898683B681A6813465B00EA
:106BB800134400FA03F27B681B680A431A613B68B6
:106BC8001B68102B03D03B681B68112B32D17B68E4
:106BD8001B681D4A934225D17B681B689B6803F498
:106BE8000003002B26D17B681B689A687B681B68AA
:106BF80042F400029A603B681B68102B1AD1134BB1
:106C08001B68134AA2FB03239A0C13469B001344E8
:106C18005B00BB6002E0BB68013BBB60BB68002B4C
:106C2800F9D107E07B689B6A43F020027B689A628F
:106C38000123FB737B68002283F82420FB7B184622
:106C48001437BD4680BC704700240140F402002080
:106C580083DE1B4380B584B000AF78600023FB60FF
:106C68000023BB607B681B689B6803F00103012B52
:106C780039D07B681B689A687B681B6842F0010200
:106C88009A601B4B1B681B4AA2FB03239B0CBB602F
:106C980002E0BB68013BBB60BB68002BF9D1FFF782
:106CA800D3FBF86018E0FFF7CFFB0246FB68D31A66
:106CB800022B11D97B689B6A43F010027B689A62A9
:106CC8007B68DB6A43F001027B68DA627B6800223A
:106CD80083F82420012307E07B681B689B6803F086
:106CE8000103012BDFD1002318461037BD4680BDB4
:106CF800F402002083DE1B4380B584B000AF7860C7
:106D08000023FB607B681B689B6803F00103012B71
:106D180027D17B681B689A687B681B6822F0010290
:106D28009A60FFF791FBF86014E0FFF78DFB0246CD
:106D3800FB68D31A022B0DD97B689B6A43F01002BB
:106D48007B689A627B68DB6A43F001027B68DA62DF
:106D5800012307E07B681B689B6803F00103012B94
:106D6800E3D0002318461037BD4680BD80B584B0F7
:106D780000AF78607B685B6AFB60FB689B6A03F026
:106D88005003002B27D1FB689B6A43F40072FB6811
:106D98009A62FB681B689B6803F46023B3F5602F55
:106DA80015D1FB681B7B002B11D1FB689B6A23F470
:106DB8008072FB689A62FB689B6A03F48053002B1D
:106DC80005D1FB689B6A43F00102FB689A62F86888
:106DD80004F0E2FB04E0FB681B6A1B6B78689847C9
:106DE80000BF1037BD4680BD80B584B000AF786065
:106DF8007B685B6AFB60F868FFF722FE00BF10370C
:106E0800BD4680BD80B584B000AF78607B685B6AA2
:106E1800FB60FB689B6A43F04002FB689A62FB6870
:106E2800DB6A43F00402FB68DA62F868FFF711FED8
:106E380000BF1037BD4680BD80B483B000AF786016
:106E480000BF0C37BD4680BC7047000080B485B0D9
:106E580000AF78607B6803F00703FB600C4BDB68CE
:106E6800BB60BA684FF6FF031340BB60FB681A02A9
:106E7800BB68134343F0BF6343F40033BB60044A69
:106E8800BB68D36000BF1437BD4680BC704700BFE5
:106E980000ED00E080B400AF044BDB681B0A03F090
:106EA80007031846BD4680BC704700BF00ED00E0F0
:106EB80080B483B000AF0346FB7197F90730002B0D
:106EC8000BDBFB7903F01F02064997F907305B09D2
:106ED800012000FA02F241F8232000BF0C37BD461A
:106EE80080BC704700E100E080B483B000AF034687
:106EF800FB7197F90730002B10DBFB7903F01F02B9
:106F0800094997F907305B09012000FA02F220339A
:106F180041F82320BFF34F8FBFF36F8F00BF0C37AB
:106F2800BD4680BC704700BF00E100E080B483B07C
:106F380000AF03463960FB7197F90730002B0ADB75
:106F48003B68DAB20C4997F907301201D2B20B4408
:106F580083F800230AE03B68DAB20849FB7903F0BA
:106F68000F03043B1201D2B20B441A7600BF0C3750
:106F7800BD4680BC704700BF00E100E000ED00E0C6
:106F880080B489B000AFF860B9607A60FB6803F03C
:106F98000703FB61FB69C3F10703042B28BF042324
:106FA800BB61FB690433062B02D9FB69033B00E094
:106FB80000237B614FF0FF32BB6902FA03F3DA4327
:106FC800BB681A407B699A404FF0FF317B6901FA30
:106FD80003F3D9437B680B40134318462437BD4657
:106FE80080BC704780B582B000AF78607B68013B99
:106FF800B3F1807F01D301230FE00A4A7B68013B8C
:1070080053600F214FF0FF30FFF790FF054B002230
:107018009A60044B07221A60002318460837BD46B9
:1070280080BD00BF10E000E080B582B000AF78609E
:107038007868FFF70BFF00BF0837BD4680BD80B5F5
:1070480086B000AF0346B9607A60FB7300237B61AA
:10705800FFF720FF78617A68B9687869FFF790FFD1
:10706800024697F90F3011461846FFF75FFF00BF39
:107078001837BD4680BD80B582B000AF0346FB71AE
:1070880097F907301846FFF713FF00BF0837BD46CA
:1070980080BD80B582B000AF0346FB7197F9073019
:1070A8001846FFF721FF00BF0837BD4680BD80B5F1
:1070B80082B000AF78607868FFF794FF03461846FF
:1070C8000837BD4680BD000080B485B000AF786049
:1070D8000023FB607B68002B01D1012359E07B680A
:1070E8001B681A462D4B9A420FD87B681B681A46B4
:1070F8002B4B13442B4AA2FB03231B099A007B68E2
:107108001A647B68284ADA630EE07B681B681A46B3
:10711800264B1344234AA2FB03231B099A007B68CE
:107128001A647B68224ADA637B68022283F821208A
:107138007B681B681B68FB60FB6823F47F5323F0A4
:107148003003FB607B685A687B689B681A437B68DE
:10715800DB681A437B681B691A437B685B691A43BF
:107168007B689B691A437B68DB691343FA6813439E
:10717800FB607B681B68FA681A607B6800229A6368
:107188007B68012283F821207B68002283F8202075
:10719800002318461437BD4680BC704707040240D8
:1071A800F8FFFDBFCDCCCCCC00000240F8FBFDBF02
:1071B8000004024080B586B000AFF860B9607A601C
:1071C8003B600023FB75FB6893F82030012B01D14D
:1071D80002234AE0FB68012283F82020FB6893F829
:1071E8002130012B3AD1FB68022283F82120FB6869
:1071F80000229A63FB681B681A68FB681B6822F008
:1072080001021A603B687A68B968F86800F0B0FB58
:10721800FB68DB6A002B08D0FB681B681A68FB68F0
:107228001B6842F00E021A600FE0FB681B681A68C0
:10723800FB681B6822F004021A60FB681B681A6866
:10724800FB681B6842F00A021A60FB681B681A6830
:10725800FB681B6842F001021A6005E0FB68002227
:1072680083F820200223FB75FB7D18461837BD469E
:1072780080BD80B485B000AF78600023FB737B6865
:1072880093F82130022B08D07B6804229A637B682C
:10729800002283F82020012320E07B681B681A68FD
:1072A8007B681B6822F00E021A607B681B681A68EC
:1072B8007B681B6822F001021A607B681A6C7B6885
:1072C800DB6B012101FA02F25A607B68012283F824
:1072D80021207B68002283F82020FB7B1846143786
:1072E800BD4680BC7047000080B584B000AF7860B0
:1072F8000023FB737B6893F82130022B05D07B6851
:1073080004229A630123FB73D6E07B681B681A6822
:107318007B681B6822F00E021A607B681B681A687B
:107328007B681B6822F001021A607B681B681A469A
:10733800644B9A4258D97B681B68634A93424FD082
:107348007B681B68614A934248D07B681B68604A27
:10735800934240D07B681B685E4A934238D07B6872
:107368001B685D4A934230D07B681B685B4A934236
:1073780028D07B681B68534A934220D07B681B68DF
:10738800574A934219D07B681B68564A934212D0D9
:107398007B681B68544A93420AD07B681B68534A2F
:1073A800934202D14FF480531BE04FF4803318E02E
:1073B8004FF4807315E0102313E0012311E04FF020
:1073C80080730EE04FF480130BE04FF4803308E035
:1073D8004FF4805305E04FF4807302E0102300E07F
:1073E8000123434A536057E07B681B68364A93423F
:1073F8004FD07B681B68354A934248D07B681B682E
:10740800334A934240D07B681B68324A934238D053
:107418007B681B68304A934230D07B681B682F4AD0
:10742800934228D07B681B68264A934220D07B6809
:107438001B682B4A934219D07B681B68294A9342E0
:1074480012D07B681B68284A93420AD07B681B6865
:10745800264A934202D14FF480531BE04FF4803305
:1074680018E04FF4807315E0102313E0012311E0B6
:107478004FF080730EE04FF480130BE04FF480332D
:1074880008E04FF4805305E04FF4807302E01023C6
:1074980000E00123174A53607B68012283F821200A
:1074A8007B68002283F820207B685B6B002B03D06D
:1074B8007B685B6B78689847FB7B18461037BD463E
:1074C80080BD00BF80000240080002401C0002404E
:1074D8003000024044000240580002406C00024064
:1074E800080402401C0402403004024044040240E4
:1074F800000402400000024080B584B000AF78600C
:107508007B68DB6B1B68FB607B681B681B68BB6068
:107518007B681B6C04229A40FB681340002B00F028
:10752800D680BB6803F00403002B00F0D0807B6892
:107538001B681B6803F02003002B07D17B681B68BE
:107548001A687B681B6822F004021A607B681B6853
:107558001A469B4B9A4258D97B681B68994A9342B2
:107568004FD07B681B68984A934248D07B681B6859
:10757800964A934240D07B681B68954A934238D01C
:107588007B681B68934A934230D07B681B68924A99
:10759800934228D07B681B68894A934220D07B6835
:1075A8001B688E4A934219D07B681B688C4A9342A9
:1075B80012D07B681B688B4A93420AD07B681B6891
:1075C800894A934202D14FF480431BE04FF4802351
:1075D80018E04FF4806315E0402313E0042311E022
:1075E8004FF080630EE04FF480030BE04FF48023EC
:1075F80008E04FF4804305E04FF4806302E0402345
:1076080000E00423794A536057E07B681B686D4AA1
:1076180093424FD07B681B686B4A934248D07B6883
:107628001B686A4A934240D07B681B68684A934249
:1076380038D07B681B68674A934230D07B681B68E8
:10764800654A934228D07B681B685D4A934220D0E4
:107658007B681B68614A934219D07B681B68604A43
:10766800934212D07B681B685E4A93420AD07B68BB
:107678001B685D4A934202D14FF480431BE04FF4EC
:10768800802318E04FF4806315E0402313E00423BF
:1076980011E04FF080630EE04FF480030BE04FF4ED
:1076A800802308E04FF4804305E04FF4806302E054
:1076B800402300E004234E4A53607B68DB6A002BBA
:1076C80000F036817B68DB6A7868984730E17B6830
:1076D8001B6C02229A40FB681340002B00F0F880D4
:1076E800BB6803F00203002B00F0F2807B681B6884
:1076F8001B6803F02003002B0BD17B681B681A68FA
:107708007B681B6822F00A021A607B68012283F8F2
:1077180021207B681B681A46294B9A4273D97B68DB
:107728001B68284A93426AD07B681B68264A9342A2
:1077380063D07B681B68254A93425BD07B681B68D3
:10774800234A934238D07B681B68224A934230D040
:107758007B681B68204A934228D07B681B68184ABC
:10776800934220D07B681B681C4A934219D07B68DF
:107778001B681B4A934212D07B681B68194A9342C4
:107788000AD07B681B68184A934202D14FF4005311
:1077980036E04FF4003333E04FF4007330E0202339
:1077A8002EE002232CE04FF0007329E04FF4001381
:1077B80026E04FF4003323E04FF4005320E000BFED
:1077C80080000240080002401C00024030000240D5
:1077D80044000240580002406C0002400804024085
:1077E8001C040240300402404404024000040240E9
:1077F800000002404FF4007302E0202300E002235F
:107808004E4A536057E07B681B684D4A93424FD0FD
:107818007B681B684B4A934248D07B681B684A4A7E
:10782800934240D07B681B68484A934238D07B68B3
:107838001B68474A934230D07B681B68454A93428D
:1078480028D07B681B68444A934220D07B681B6819
:10785800424A934219D07B681B68414A934212D02E
:107868007B681B683F4A93420AD07B681B683E4A84
:10787800934202D14FF400531BE04FF4003318E059
:107888004FF4007315E0202313E0022311E04FF0BA
:1078980000730EE04FF400130BE04FF4003308E0E0
:1078A8004FF4005305E04FF4007302E0202300E09A
:1078B80002232E4A53607B68002283F820207B68CD
:1078C8009B6A002B34D07B689B6A786898472FE0C6
:1078D8007B681B6C08229A40FB681340002B28D059
:1078E800BB6803F00803002B23D07B681B681A6869
:1078F8007B681B6822F00E021A607B681A6C7B6832
:10790800DB6B012101FA02F25A607B6801229A635B
:107918007B68012283F821207B68002283F82020DD
:107928007B681B6B002B04D07B681B6B78689847BF
:1079380000BF00BF1037BD4680BD00BF0004024035
:10794800080002401C00024030000240440002408F
:10795800580002406C0002408000024008040240C7
:107968001C0402403004024044040240000002406B
:1079780080B485B000AFF860B9607A603B60FB689E
:107988001A6CFB68DB6B012101FA02F25A60FB6892
:107998001B683A685A60FB685B68102B08D1FB6863
:1079A8001B687A689A60FB681B68BA68DA6007E047
:1079B800FB681B68BA689A60FB681B687A68DA60BB
:1079C80000BF1437BD4680BC7047000080B483B048
:1079D80000AF0023FB710D4B1B6903F08003002BE4
:1079E8000DD00A4B0A4A5A60084B0A4A5A60074B9C
:1079F8001B6903F08003002B01D00123FB71FB7985
:107A080018460C37BD4680BC704700BF00200240B6
:107A180023016745AB89EFCD80B400AF054B1B69E7
:107A2800044A43F08003136100231846BD4680BC16
:107A3800704700BF0020024080B584B000AF786076
:107A4800FEF702FDF86010E07B68B3F1FF3F0CD051
:107A58007B68002B07D0FEF7F7FC0246FB68D31AB9
:107A68007A689A4201D2032325E0154BDB6803F0BC
:107A78000103002BE8D1124BDB6803F02003002B35
:107A880002D00F4B2022DA600D4BDB6803F01003A5
:107A9800002B0BD10A4BDB6903F00103002B05D146
:107AA800074BDB6803F00403002B03D000F00AF84F
:107AB800012300E0002318461037BD4680BD00BFF3
:107AC8000020024080B483B000AF00237B60234BCA
:107AD800DB6803F01003002B09D0214BDB6943F06E
:107AE80002031F4AD3617B6843F010037B601B4B82
:107AF800DB6803F00403002B09D0194BDB6943F062
:107B08000103174AD3617B6843F004037B60134B7E
:107B1800DB6903F00103002B0BD0114BDB6943F049
:107B280004030F4AD3610D4BDB690C4A23F00103B0
:107B3800D3617B6840F20112934206D1074BDB699F
:107B4800064A23F00103D36102E0044A7B68D3604C
:107B580000BF0C37BD4680BC704700BF0020024004
:107B6800A813002080B584B000AF78603960012385
:107B7800FB730023BB602F4B1B7E012B01D102231B
:107B880053E02C4B01221A767B681B68022B16D116
:107B98004CF25030FFF750FF0346002B41D1012033
:107BA80000F04CF84CF25030FFF746FF0346FB73E9
:107BB800214B1B69204A23F00403136131E04CF286
:107BC8005030FFF739FF0346002B2AD13B684FF0AE
:107BD800FF321A607B689B68BB6019E0B86800F0E8
:107BE80049F84CF25030FFF727FF0346FB73124B5E
:107BF8001B69114A23F002031361FB7B002B03D09E
:107C08003B68BA681A600CE0BB6803F50063BB60A8
:107C18007B68DB68DA027B689B681344BA689A421F
:107C2800DCD3044B00221A76FB7B18461037BD467E
:107C380080BD00BFA81300200020024080B483B09C
:107C480000AF7860094B0022DA61094B1B69084ACA
:107C580043F004031361064B1B69054A43F04003D4
:107C6800136100BF0C37BD4680BC7047A8130020C5
:107C78000020024080B483B000AF78600B4B002234
:107C8800DA610B4B1B690A4A43F002031361084A85
:107C98007B685361064B1B69054A43F04003136137
:107CA80000BF0C37BD4680BC704700BFA81300203A
:107CB8000020024080B48BB000AF786039600023A8
:107CC8007B6200233B6233E101227B6A02FA03F301
:107CD800FB613B681B68FA691340BB61BA69FB69C1
:107CE8009A4240F022813B685B68122B34D0122BF9
:107CF8000DD8022B2BD0022B04D8002B31D0012B0E
:107D08001CD048E0032B43D0112B1BD043E08F4AF3
:107D1800934226D08D4A934206D88D4A934220D06A
:107D28008C4A93421DD036E08B4A934219D08B4A35
:107D3800934216D08A4A934213D02CE03B68DB6802
:107D48003B6228E03B68DB6804333B6223E03B6826
:107D5800DB6808333B621EE03B68DB680C333B6240
:107D680019E03B689B68002B02D104233B6212E0B8
:107D78003B689B68012B05D108233B627B68FA6945
:107D88001A6108E008233B627B68FA695A6102E0DD
:107D980000233B6200BFBB69FF2B01D87B6801E071
:107DA8007B6804337B61BB69FF2B02D87B6A9B002D
:107DB80002E07B6A083B9B003B617B691A680F21E4
:107DC8003B6901FA03F3DB431A40396A3B6901FA5C
:107DD80003F31A437B691A603B685B6803F08053BE
:107DE800002B00F0A2805F4B9B695E4A43F00103C1
:107DF80093615C4B9B6903F00103BB60BB685A4A03
:107E08007B6A9B08023352F82330FB607B6A03F0DD
:107E180003039B000F2202FA03F3DB43FA681340C3
:107E2800FB607B68514A93421FD07B68504A93425B
:107E380019D07B684F4A934213D07B684E4A9342CD
:107E48000DD07B684D4A934207D07B684C4A9342D9
:107E580001D105230AE0062308E0042306E00323F2
:107E680004E0022302E0012300E000237A6A02F022
:107E7800030292009340FA681343FB603A497B6A15
:107E88009B080233FA6841F823203B685B6803F4D7
:107E98008033002B06D03B4B1A683A49BB69134321
:107EA8000B6006E0374B1A68BB69DB433549134062
:107EB8000B603B685B6803F40033002B06D0314B42
:107EC8005A683049BB6913434B6006E02D4B5A682A
:107ED800BB69DB432B4913404B603B685B6803F489
:107EE8008013002B06D0274B9A682649BB69134399
:107EF8008B6006E0234B9A68BB69DB43214913403A
:107F08008B603B685B6803F40013002B06D01D4BA5
:107F1800DA681C49BB691343CB6006E0194BDA6881
:107F2800BB69DB4317491340CB607B6A01337B6233
:107F38003B681A687B6A22FA03F3002B7FF4C4AE0D
:107F480000BF2C37BD4680BC704700BF0000211021
:107F58000000111000001210000031100000321053
:107F680000002210001002400000014000080140FB
:107F7800000C0140001001400014014000180140AD
:107F8800001C01400004014080B489B000AF786053
:107F980039600023FB61A6E00122FB6902FA03F3C2
:107FA8003A681340BB61BB69002B00F09980544AC2
:107FB800FB699B08023352F823307B61FB6903F0AD
:107FC80003039B000F2202FA03F37A6913407B61D3
:107FD8007B684C4A93421FD07B684B4A934219D026
:107FE8007B684A4A934213D07B68494A93420DD032
:107FF8007B68484A934207D07B68474A934201D13D
:1080080005230AE0062308E0042306E0032304E02E
:10801800022302E0012300E00023FA6902F00302D0
:10802800920093407A699A4232D1FB6903F00303C4
:108038009B000F2202FA03F37B61314AFB699B081C
:10804800023352F823107B69DA432D48FB699B08F9
:108058000A40023340F82320304B1A68BB69DB43DF
:108068002E4913400B602D4B5A68BB69DB432B49E3
:1080780013404B60294B9A68BB69DB43274913407F
:108088008B60264BDA68BB69DB4324491340CB601D
:10809800BB69FF2B01D87B6801E07B6804333B6137
:1080A800BB69FF2B02D8FB699B0002E0FB69083B18
:1080B8009B00FB603B691A680F21FB6801FA03F318
:1080C800DB431A400421FB6801FA03F31A433B69B6
:1080D8001A607B68DA68BB69DB431A407B68DA6040
:1080E800FB690133FB613A68FB6922FA03F3002B51
:1080F8007FF452AF00BF2437BD4680BC704700BF35
:108108000000014000080140000C0140001001403F
:108118000014014000180140001C01400004014007
:1081280080B483B000AF78600B467B8013467B70C9
:108138007B78002B03D07A887B681A6103E07B8800
:108148001A047B681A6100BF0C37BD4680BC7047B3
:1081580080B582B000AF0346FB80084B5A69FB88A4
:108168001340002B06D0054AFB885361FB8818464C
:1081780003F00EFB00BF0837BD4680BD0004014078
:1081880080B584B000AF78607B68002B01D10123F3
:108198000FE17B6893F83D30DBB2002B06D17B689A
:1081A800002283F83C2078680DF048FC7B68242284
:1081B80083F83D207B681B681A687B681B6822F07F
:1081C80001021A6001F056FBF8607B685B687B4A25
:1081D800934207D8FB687A4A934294BF012300234D
:1081E800DBB206E0FB68774A934294BF0123002381
:1081F800DBB2002B01D00123DBE0FB68724AA2FB53
:1082080003239B0CBB607B681B685B6823F03F0102
:108218007B681B68BA680A435A607B681B681B6ADC
:1082280023F03F017B685B68644A934202D8BB68CD
:10823800013309E0BB684FF4967202FB03F3634A0B
:10824800A2FB03239B0901337A6812680B4313626C
:108258007B681B68DB6923F44F4222F0FF027B68CE
:108268005B6856498B420DD8FB68591E7B685B6872
:108278005B00B1FBF3F30133C3F30B03042B38BFEB
:1082880004234FE07B689B68002B11D1FB68581EC4
:108298007B6859680B465B000B44B0FBF3F3013372
:1082A800C3F30B03002B0CBF01230023DBB212E046
:1082B800FB68581E7B6859680B469B000B44990065
:1082C8000B44B0FBF3F30133C3F30B03002B0CBFD8
:1082D80001230023DBB2002B01D0012322E07B68BD
:1082E8009B68002B0ED1FB68581E7B6859680B46AB
:1082F8005B000B44B0FBF3F30133C3F30B0343F40C
:1083080000430FE0FB68581E7B6859680B469B00CA
:108318000B4499000B44B0FBF3F30133C3F30B0395
:1083280043F44043796809681343CB617B681B6851
:108338001B6823F0C0017B68DA697B681B6A1A43F3
:108348007B681B680A431A607B681B689B6823F478
:10835800034323F0FF037A6811697A68D2681143EE
:108368007A6812680B4393607B681B68DB6823F0AC
:10837800FF017B685A697B689B691A437B681B68A5
:108388000A43DA607B681B681A687B681B6842F0DE
:1083980001021A607B6800221A647B68202283F835
:1083A8003D207B6800221A637B68002283F83E2008
:1083B800002318461037BD4680BD00BFA0860100C7
:1083C8007F841E00FF083D0083DE1B43D34D6210EF
:1083D80080B588B002AFF8607A601A460B467B8198
:1083E80013463B81FEF730F87861FB6893F83D301F
:1083F800DBB2202B40F0E0807B6900931923012237
:108408007049F86800F03CFC0346002B01D00223B9
:10841800D3E0FB6893F83C30012B01D10223CCE078
:10842800FB68012283F83C20FB681B681B6803F08B
:108438000103012B07D0FB681B681A68FB681B68DF
:1084480042F001021A60FB681B681A68FB681B6827
:1084580022F400621A60FB68212283F83D20FB6841
:10846800102283F83E20FB6800221A64FB687A68B1
:108478005A62FB683A895A85FB685B8D9AB2FB6839
:108488001A85FB68504ADA6279897B693A6AF86822
:1084980000F0CAFA0346002B01D001238DE0002327
:1084A8003B61FB681B685B693B61FB681B689B69F8
:1084B8003B613B6966E07A69396AF86800F0B6FCA6
:1084C8000346002B0DD0FB681B6C042B07D1FB68FF
:1084D8001B681A68FB681B6842F400721A60012363
:1084E8006BE0FB685B6A1A78FB681B681A61FB68BB
:1084F8005B6A5A1CFB685A62FB685B8D9BB2013B46
:108508009AB2FB685A85FB681B8D013B9AB2FB68DF
:108518001A85FB681B685B6903F00403042B1BD1F5
:10852800FB681B8D002B17D0FB685B6A1A78FB6809
:108538001B681A61FB685B6A5A1CFB685A62FB6815
:108548005B8D9BB2013B9AB2FB685A85FB681B8D19
:10855800013B9AB2FB681A857A69396AF86800F0B3
:10856800A6FC0346002B0DD0FB681B6C042B07D11F
:10857800FB681B681A68FB681B6842F400721A6083
:1085880001231AE0FB681B8D002B94D1FB681B6844
:108598001A68FB681B6842F400721A60FB682022A4
:1085A80083F83D20FB68002283F83E20FB68002208
:1085B80083F83C20002300E0022318461837BD4604
:1085C80080BD00BF020010000000FFFF80B58CB026
:1085D80002AFF8607A601A460B467B8113463B81EE
:1085E800FDF732FF7862FB6893F83D30DBB2202B51
:1085F80040F013827B6A0093192301227E49F868B0
:1086080000F03EFB0346002B01D0022306E2FB6884
:1086180093F83C30012B01D10223FFE1FB680122D2
:1086280083F83C20FB681B681B6803F00103012BDF
:1086380007D0FB681B681A68FB681B6842F00102D8
:108648001A60FB681B681A68FB681B6822F40062E2
:108658001A60FB68222283F83D20FB68102283F809
:108668003E20FB6800221A64FB687A685A62FB683D
:108678003A895A85FB685B8D9AB2FB681A85FB6854
:108688005E4ADA6279897B6A3A6BF86800F042FAE6
:108698000346002B01D00123C0E1FB681B8D002B92
:1086A80013D100233B62FB681B685B693B62FB6874
:1086B8001B689B693B623B6AFB681B681A68FB681E
:1086C8001B6842F400721A6094E1FB681B8D012B51
:1086D8001DD1FB681B681A68FB681B6822F480625E
:1086E8001A6072B60023FB61FB681B685B69FB615B
:1086F800FB681B689B69FB61FB69FB681B681A6860
:10870800FB681B6842F400721A6062B672E1FB688B
:108718001B8D022B1DD1FB681B681A68FB681B6840
:1087280042F400621A6072B60023BB61FB681B68E2
:108738005B69BB61FB681B689B69BB61BB69FB68C4
:108748001B681A68FB681B6822F480621A6062B6AC
:1087580050E1FB681B681A68FB681B6842F480627A
:108768001A6000237B61FB681B685B697B61FB689F
:108778001B689B697B617B693CE1FB681B8D032B54
:1087880000F2F580FB681B8D012B23D17A6A396BC7
:10879800F86800F0CDFB0346002B01D001233DE132
:1087A800FB681B681A69FB685B6AD2B21A70FB68BF
:1087B8005B6A5A1CFB685A62FB681B8D013B9AB2C4
:1087C800FB681A85FB685B8D9BB2013B9AB2FB681C
:1087D8005A850FE1FB681B8D022B50D17B6A0093F1
:1087E8003B6B00220649F86800F04AFA0346002B62
:1087F80008D0012312E100BF020010000000FFFFB3
:108808000400010072B6FB681B681A68FB681B68E5
:1088180042F400721A60FB681B681A69FB685B6A9D
:10882800D2B21A70FB685B6A5A1CFB685A62FB6812
:108838001B8D013B9AB2FB681A85FB685B8D9BB266
:10884800013B9AB2FB685A8562B6FB681B681A69D5
:10885800FB685B6AD2B21A70FB685B6A5A1CFB68D9
:108868005A62FB681B8D013B9AB2FB681A85FB684C
:108878005B8D9BB2013B9AB2FB685A85BAE07B6A72
:1088880000933B6B00226749F86800F0F9F903464A
:10889800002B01D00123C1E0FB681B681A68FB6844
:1088A8001B6822F480621A6072B6FB681B681A693A
:1088B800FB685B6AD2B21A70FB685B6A5A1CFB6879
:1088C8005A62FB681B8D013B9AB2FB681A85FB68EC
:1088D8005B8D9BB2013B9AB2FB685A857B6A009319
:1088E8003B6B00224F49F86800F0CAF90346002B99
:1088F80001D0012392E0FB681B681A68FB681B68BB
:1089080042F400721A60FB681B681A69FB685B6AAC
:10891800D2B21A70FB685B6A5A1CFB685A62FB6821
:108928001B8D013B9AB2FB681A85FB685B8D9BB275
:10893800013B9AB2FB685A8562B6FB681B681A69E4
:10894800FB685B6AD2B21A70FB685B6A5A1CFB68E8
:108958005A62FB681B8D013B9AB2FB681A85FB685B
:108968005B8D9BB2013B9AB2FB685A8542E07A6AFA
:10897800396BF86800F0DCFA0346002B01D00123BC
:108988004CE0FB681B681A69FB685B6AD2B21A7014
:10899800FB685B6A5A1CFB685A62FB681B8D013BCB
:1089A8009AB2FB681A85FB685B8D9BB2013B9AB251
:1089B800FB685A85FB681B685B6903F00403042B9A
:1089C80018D1FB681B681A69FB685B6AD2B21A7017
:1089D800FB685B6A5A1CFB685A62FB681B8D013B8B
:1089E8009AB2FB681A85FB685B8D9BB2013B9AB211
:1089F800FB685A85FB681B8D002B7FF4BEAEFB68B5
:108A0800202283F83D20FB68002283F83E20FB6883
:108A1800002283F83C20002300E002231846283770
:108A2800BD4680BD0400010080B588B002AFF86083
:108A38007A603B600B467B81FB68DB6A7B617B6904
:108A4800082B06D07B69012B03D07B6913F5803F87
:108A580008D1FB681B681A68FB681B6842F48072BF
:108A68001A600BE0FB681B6B122B07D1FB681B68B5
:108A78001A68FB681B6842F480721A603B680093AE
:108A88007B6800224FF00111F86800F0F9F80346FE
:108A9800002B01D0012335E0FB681B69B3F5804F3B
:108AA80008D17B89DBB21A46FB681B6802F0FE021C
:108AB8001A611BE07B89DB11DBB203F00603DBB232
:108AC80063F00F03DAB2FB681B681A613B687A68C7
:108AD8000E49F86800F02BF90346002B01D001235A
:108AE80010E07B89DAB2FB681B681A613B687A6818
:108AF8000749F86800F01BF90346002B01D0012351
:108B080000E0002318461837BD4680BD0800010064
:108B18000200010080B588B002AFF8607A603B605F
:108B28000B467B81FB68DB6A7B61FB681B681A6804
:108B3800FB681B6842F480621A607B69082B06D0C8
:108B48007B69012B03D07B6913F5803F08D1FB6853
:108B58001B681A68FB681B6842F480721A600BE095
:108B6800FB681B6B112B07D1FB681B681A68FB6835
:108B78001B6842F480721A603B6800937B6800228D
:108B88004FF00111F86800F07BF80346002B01D084
:108B980001236DE0FB681B69B3F5804F08D17B8921
:108BA800DBB243F00103DAB2FB681B681A6153E0D9
:108BB8007B89DB11DBB203F00603DBB263F00F0342
:108BC800DAB2FB681B681A613B687A682A49F86858
:108BD80000F0ADF80346002B01D0012348E07B8963
:108BE800DAB2FB681B681A613B687A682349F8683F
:108BF80000F09DF80346002B01D0012338E0002344
:108C08003B61FB681B685B693B61FB681B689B6990
:108C18003B613B69FB681B681A68FB681B6842F488
:108C280080721A603B6800937B6800224FF0011144
:108C3800F86800F025F80346002B01D0012317E05F
:108C48007B89DB11DBB203F00603DBB263F00E03B2
:108C5800DAB2FB681B681A613B687A680749F868EA
:108C680000F065F80346002B01D0012300E0002343
:108C780018461837BD4680BD0800010002000100F3
:108C880080B584B000AFF860B9603B601346FB71F3
:108C980025E03B68B3F1FF3F21D0FDF7D5FB024645
:108CA800BB69D31A3A689A4202D33B68002B16D1A3
:108CB800FB6800221A63FB68202283F83D20FB68CA
:108CC800002283F83E20FB681B6C43F02002FB68FF
:108CD8001A64FB68002283F83C20012323E0BB6868
:108CE8001B0CDBB2012B0DD1FB681B685B69DA43F7
:108CF800BB6813409BB2002B0CBF01230023DBB2DF
:108D08001A460CE0FB681B689B69DA43BB68134092
:108D18009BB2002B0CBF01230023DBB21A46FB7960
:108D28009A42B6D0002318461037BD4680BD80B59C
:108D380084B000AFF860B9607A603B6051E0FB68CE
:108D48001B685B6903F48063B3F5806F23D1FB680C
:108D58001B681A68FB681B6842F400721A60FB689B
:108D68001B686FF480625A61FB6800221A63FB6813
:108D7800202283F83D20FB68002283F83E20FB6810
:108D88001B6C43F00402FB681A64FB68002283F83A
:108D98003C20012346E07B68B3F1FF3F21D0FDF77B
:108DA80053FB02463B68D31A7A689A4202D37B681F
:108DB800002B16D1FB6800221A63FB68202283F877
:108DC8003D20FB68002283F83E20FB681B6C43F0C3
:108DD8002002FB681A64FB68002283F83C20012308
:108DE80020E0BB681B0CDBB2012B0CD1FB681B68B5
:108DF8005B69DA43BB6813409BB2002B14BF0123A5
:108E08000023DBB20BE0FB681B689B69DA43BB6895
:108E180013409BB2002B14BF01230023DBB2002BAD
:108E28008DD1002318461037BD4680BD80B584B06B
:108E380000AFF860B9607A602DE0F86800F0CEF80D
:108E48000346002B01D001232DE0BB68B3F1FF3F9F
:108E580021D0FDF7F9FA02467B68D31ABA689A421C
:108E680002D3BB68002B16D1FB6800221A63FB688B
:108E7800202283F83D20FB68002283F83E20FB680F
:108E88001B6C43F02002FB681A64FB68002283F81D
:108E98003C20012307E0FB681B685B6903F0800343
:108EA800802BCAD1002318461037BD4680BD80B537
:108EB80084B000AFF860B9607A602DE0F86800F01F
:108EC8008DF80346002B01D001232DE0BB68B3F1D8
:108ED800FF3F21D0FDF7B8FA02467B68D31ABA687B
:108EE8009A4202D3BB68002B16D1FB6800221A6392
:108EF800FB68202283F83D20FB68002283F83E208F
:108F0800FB681B6C43F02002FB681A64FB680022B4
:108F180083F83C20012307E0FB681B685B6903F0CA
:108F28000403042BCAD1002318461037BD4680BD60
:108F380080B584B000AFF860B9607A6042E0FB6841
:108F48001B685B6903F01003102B19D1FB681B68C1
:108F58006FF010025A61FB6800221A63FB68202236
:108F680083F83D20FB68002283F83E20FB681A6CDA
:108F7800FB681A64FB68002283F83C20012329E07F
:108F8800FDF762FA02467B68D31ABA689A4202D39E
:108F9800BB68002B16D1FB6800221A63FB682022ED
:108FA80083F83D20FB68002283F83E20FB681B6C99
:108FB80043F02002FB681A64FB68002283F83C2017
:108FC800012307E0FB681B685B6903F04003402B43
:108FD800B5D1002318461037BD4680BD80B483B094
:108FE80000AF78607B681B685B6903F48063B3F546
:108FF800806F1BD17B681B686FF480625A617B6845
:1090080000221A637B68202283F83D207B680022B7
:1090180083F83E207B681B6C43F004027B681A646B
:109028007B68002283F83C20012300E000231846D7
:109038000C37BD4680BC704780B584B000AF7860FF
:109048007B68002B01D101232BE07B681B684CF661
:10905800CC421A607B681B6845F255521A607B68DF
:109068001B687A6852685A607B681B687A689268DD
:109078009A60FDF7E9F9F86008E0FDF7E5F90246BE
:10908800FB68D31A302B01D903230AE07B681B68DD
:10909800DB68002BF1D17B681B684AF6AA221A60AC
:1090A800002318461037BD4680BD80B483B000AF9A
:1090B80078607B681B684AF6AA221A600023184663
:1090C8000C37BD4680BC704780B586B000AF78606D
:1090D8007B68002B01D101236CE27B681B6803F0DD
:1090E8000103002B00F08780924B5B6803F00C03B0
:1090F800042B0CD08F4B5B6803F00C03082B12D1A8
:109108008C4B5B6803F48033B3F5803F0BD1894BFC
:109118001B6803F40033002B6CD07B685B68002B62
:1091280068D1012346E27B685B68B3F5803F06D1CE
:10913800804B1B687F4A43F4803313602EE07B68C2
:109148005B68002B0CD17B4B1B687A4A23F4803375
:109158001360784B1B68774A23F4802313601DE063
:109168007B685B68B3F5A02F0CD1724B1B68714A02
:1091780043F4802313606F4B1B686E4A43F48033BB
:1091880013600BE06B4B1B686A4A23F4803313604F
:10919800684B1B68674A23F4802313607B685B680D
:1091A800002B13D0FDF750F9386108E0FDF74CF9B2
:1091B80002463B69D31A642B01D90323FAE15D4BBC
:1091C8001B6803F40033002BF0D014E0FDF73CF9E2
:1091D800386108E0FDF738F902463B69D31A642B79
:1091E80001D90323E6E1534B1B6803F40033002B3A
:1091F800F0D100E000BF7B681B6803F00203002B7E
:1092080063D04C4B5B6803F00C03002B0BD0494B2D
:109218005B6803F00C03082B1CD1464B5B6803F416
:109228008033002B16D1434B1B6803F00203002B3D
:1092380005D07B681B69012B01D00123BAE13D4BA6
:109248001B6823F0F8027B685B69DB00394913432C
:109258000B603AE07B681B69002B20D0364B01225B
:109268001A60FDF7F1F8386108E0FDF7EDF80246FD
:109278003B69D31A022B01D903239BE12D4B1B68B1
:1092880003F00203002BF0D02A4B1B6823F0F802EE
:109298007B685B69DB00274913430B6015E0264BAD
:1092A80000221A60FDF7D0F8386108E0FDF7CCF825
:1092B80002463B69D31A022B01D903237AE11D4BDD
:1092C8001B6803F00203002BF0D17B681B6803F0D6
:1092D8000803002B3AD07B689B69002B19D0174BE9
:1092E80001221A60FDF7B0F8386108E0FDF7ACF824
:1092F80002463B69D31A022B01D903235AE10D4BCD
:109308005B6A03F00203002BF0D0012000F0DAFAC8
:109318001CE00A4B00221A60FDF796F838610FE04E
:10932800FDF792F802463B69D31A022B08D90323AA
:1093380040E100BF00100240000042428004424267
:109348009E4B5B6A03F00203002BE9D17B681B6824
:1093580003F00403002B00F0A6800023FB75974B55
:10936800DB6903F08053002B0DD1944BDB69934AE2
:1093780043F08053D361914BDB6903F08053BB60AA
:10938800BB680123FB758E4B1B6803F48073002BAD
:1093980018D18B4B1B688A4A43F480731360FDF71E
:1093A80053F8386108E0FDF74FF802463B69D31AD5
:1093B800642B01D90323FDE0814B1B6803F4807300
:1093C800002BF0D07B68DB68012B06D17B4B1B6A36
:1093D8007A4A43F0010313622DE07B68DB68002BB7
:1093E8000CD1764B1B6A754A23F001031362734B49
:1093F8001B6A724A23F0040313621CE07B68DB6873
:10940800052B0CD16D4B1B6A6C4A43F004031362A5
:109418006A4B1B6A694A43F0010313620BE0674B0E
:109428001B6A664A23F001031362644B1B6A634A92
:1094380023F0040313627B68DB68002B15D0FDF76B
:1094480003F838610AE0FCF7FFFF02463B69D31ACC
:1094580041F28832934201D90323ABE0574B1B6A90
:1094680003F00203002BEED014E0FCF7EDFF3861A7
:109478000AE0FCF7E9FF02463B69D31A41F2883259
:10948800934201D9032395E04C4B1B6A03F0020376
:10949800002BEED1FB7D012B05D1484BDB69474AF8
:1094A80023F08053D3617B68DB69002B00F0818057
:1094B800424B5B6803F00C03082B61D07B68DB69C7
:1094C800022B46D13F4B00221A60FCF7BDFF3861E2
:1094D80008E0FCF7B9FF02463B69D31A022B01D911
:1094E800032367E0354B1B6803F00073002BF0D1B2
:1094F8007B681B6AB3F5803F08D1304B5B6823F467
:1095080000327B689B682D4913434B602B4B5B688B
:1095180023F474127B68196A7B685B6A0B432749DA
:1095280013434B60274B01221A60FCF78DFF38610B
:1095380008E0FCF789FF02463B69D31A022B01D9E0
:10954800032337E01D4B1B6803F00073002BF0D09A
:109558002FE01C4B00221A60FCF776FF386108E008
:10956800FCF772FF02463B69D31A022B01D9032389
:1095780020E0124B1B6803F00073002BF0D118E0B9
:109588007B68DB69012B01D1012313E00B4B5B687E
:10959800FB60FB6803F480327B681B6A9A4206D141
:1095A800FB6803F470127B685B6A9A4201D001235E
:1095B80000E0002318461837BD4680BD0010024061
:1095C800007000406000424280B584B000AF78600F
:1095D80039607B68002B01D10123D0E06A4B1B68FE
:1095E80003F007033A689A4210D9674B1B6823F0C7
:1095F800070265493B6813430B60634B1B6803F024
:1096080007033A689A4201D00123B8E07B681B68D7
:1096180003F00203002B20D07B681B6803F00403CF
:10962800002B05D0594B5B68584A43F4E0635360FC
:109638007B681B6803F00803002B05D0534B5B685D
:10964800524A43F460535360504B5B6823F0F00276
:109658007B689B684D4913434B607B681B6803F02C
:109668000103002B40D07B685B68012B07D1474B77
:109678001B6803F40033002B15D101237FE07B68BE
:109688005B68022B07D1414B1B6803F00073002B6A
:1096980009D1012373E03D4B1B6803F00203002B43
:1096A80001D101236BE0394B5B6823F003027B682F
:1096B8005B68364913434B60FCF7C6FEF8600AE066
:1096C800FCF7C2FE0246FB68D31A41F28832934285
:1096D80001D9032353E02D4B5B6803F00C027B6830
:1096E8005B689B009A42EBD1274B1B6803F007038A
:1096F8003A689A4210D2244B1B6823F00702224989
:109708003B6813430B60204B1B6803F007033A6860
:109718009A4201D0012332E07B681B6803F00403FE
:10972800002B08D0194B5B6823F4E0627B68DB6888
:10973800164913434B607B681B6803F00803002B32
:1097480009D0124B5B6823F460527B681B69DB000D
:109758000E4913434B6000F021F801460B4B5B6840
:109768001B0903F00F030A4AD35C21FA03F3094AE1
:109778001360094B1B681846FCF724FE00231846A3
:109788001037BD4680BD00BF0020024000100240D7
:10979800948E0108F40200200000002090B48AB0E2
:1097A80000AF2A4B3C1D0FCB84E80F00284B1B88C9
:1097B8003B800023FB610023BB6100237B62002305
:1097C8007B6100233B62234B5B68FB61FB6903F011
:1097D8000C03042B02D0082B03D02DE01E4B3B6258
:1097E8002DE0FB699B0C03F00F0307F128021344DB
:1097F80013F8243C7B61FB6903F48033002B13D0FE
:10980800144B5B685B0C03F0010307F12802134457
:1098180013F8283CBB617B690F4A02FB03F2BB6962
:10982800B2FBF3F37B6204E07B690C4A02FB03F3AF
:109838007B627B6A3B6202E0074B3B6200BF3B6A8C
:1098480018462837BD4690BC704700BF38820108CB
:10985800488201080010024000127A0000093D0009
:1098680080B400AF024B1B681846BD4680BC7047E9
:10987800F402002080B500AFFFF7F2FF0146054B68
:109888005B681B0A03F00703034AD35C21FA03F35E
:10989800184680BD00100240A48E010880B500AFB4
:1098A800FFF7DEFF0146054B5B68DB0A03F00703A1
:1098B800034AD35C21FA03F3184680BD0010024026
:1098C800A48E010880B485B000AF78600A4B1B688D
:1098D8000A4AA2FB03235B0A7A6802FB03F3FB60D4
:1098E80000BFFB685A1EFA60002BF9D100BF14377D
:1098F800BD4680BC704700BFF4020020D34D621003
:1099080080B586B000AF786000233B610023FB6020
:109918007B681B6803F00103002B7DD00023FB75D7
:109928004F4BDB6903F08053002B0DD14C4BDB69A7
:109938004B4A43F08053D361494BDB6903F08053B2
:10994800BB60BB680123FB75464B1B6803F480733F
:10995800002B18D1434B1B68424A43F480731360B1
:10996800FCF772FD386108E0FCF76EFD02463B69C2
:10997800D31A642B01D903236DE03A4B1B6803F417
:109988008073002BF0D0364B1B6A03F44073FB60E6
:10999800FB68002B2ED07B685B6803F44073FA6881
:1099A8009A4227D02E4B1B6A23F44073FB602E4B40
:1099B80001221A602C4B00221A60294AFB681362A4
:1099C800FB6803F00103002B14D0FCF73DFD386160
:1099D8000AE0FCF739FD02463B69D31A41F28832A6
:1099E800934201D9032336E01D4B1B6A03F002039F
:1099F800002BEED01A4B1B6A23F440727B685B681D
:109A0800174913430B62FB7D012B05D1144BDB690E
:109A1800134A23F08053D3617B681B6803F0020369
:109A2800002B08D00E4B5B6823F440427B689B6890
:109A38000B4913434B607B681B6803F01003002B32
:109A480008D0074B5B6823F480027B685B69044994
:109A580013434B60002318461837BD4680BD00BF2E
:109A680000100240007000404004424280B582B0BD
:109A780000AF78607B68002B01D1012353E07B683D
:109A880000229A627B6893F85130DBB2002B06D132
:109A98007B68002283F8502078680BF061FF7B68B0
:109AA800022283F851207B681B681A687B681B6850
:109AB80022F040021A607B685A687B689B681A43E8
:109AC8007B68DB681A437B681B691A437B685B69A0
:109AD8001A437B689B6903F400731A437B68DB694C
:109AE8001A437B681B6A42EA03017B689A6A7B68AF
:109AF8001B680A431A607B689B691A0C7B681B68A1
:109B080002F004025A607B681B68DA697B681B688C
:109B180022F40062DA617B6800225A657B680122C0
:109B280083F85120002318460837BD4680BD80B50C
:109B380088B000AFF860B9603B601346FB80002333
:109B4800FB77FB6893F85030012B01D102231EE10B
:109B5800FB68012283F85020FCF776FCB861FB888B
:109B6800FB82FB6893F85130DBB2012B02D0022351
:109B7800FB7703E1BB68002B02D0FB88002B02D1E6
:109B88000123FB77FAE0FB68032283F85120FB6886
:109B980000225A65FB68BA681A63FB68FA889A86D5
:109BA800FB68FA88DA86FB6800229A63FB68002261
:109BB8009A87FB680022DA87FB6800225A64FB68F0
:109BC80000221A64FB689B68B3F5004F07D1FB6855
:109BD8001B681A68FB681B6842F480421A60FB68BD
:109BE8001B681B6803F04003402B07D0FB681B6809
:109BF8001A68FB681B6842F040021A60FB68DB6861
:109C0800B3F5006F4BD1FB685B68002B02D0FB8A71
:109C1800012B3ED1FB681B6B1A88FB681B68DA6056
:109C2800FB681B6B9A1CFB681A63FB68DB8E9BB294
:109C3800013B9AB2FB68DA862BE0FB681B689B68DD
:109C480003F00203022B12D1FB681B6B1A88FB6816
:109C58001B68DA60FB681B6B9A1CFB681A63FB685D
:109C6800DB8E9BB2013B9AB2FB68DA8611E0FCF707
:109C7800EBFB0246BB69D31A3A689A4203D83B68A1
:109C8800B3F1FF3F02D13B68002B02D10323FB77DE
:109C980074E0FB68DB8E9BB2002BCED14CE0FB68F6
:109CA8005B68002B02D0FB8A012B40D1FB681A6B42
:109CB800FB681B680C3312781A70FB681B6B5A1C04
:109CC800FB681A63FB68DB8E9BB2013B9AB2FB68A8
:109CD800DA862CE0FB681B689B6803F00203022B02
:109CE80013D1FB681A6BFB681B680C3312781A7067
:109CF800FB681B6B5A1CFB681A63FB68DB8E9BB204
:109D0800013B9AB2FB68DA8611E0FCF79DFB02463C
:109D1800BB69D31A3A689A4203D83B68B3F1FF3F4C
:109D280002D13B68002B02D10323FB7726E0FB68B6
:109D3800DB8E9BB2002BCDD1BA693968F86800F088
:109D480091FB0346002B02D0FB6820225A65FB6872
:109D58009B68002B0AD100233B61FB681B68DB680A
:109D68003B61FB681B689B683B613B69FB685B6DFB
:109D7800002B02D00123FB7700E000BFFB68012223
:109D880083F85120FB68002283F85020FB7F184697
:109D98002037BD4680BD80B588B002AFF860B96095
:109DA8003B601346FB800023FB75FB685B68B3F5DB
:109DB800827F12D1FB689B68002B0ED1FB680422BE
:109DC80083F85120FA883B6800931346BA68B9684B
:109DD800F86800F0E9F80346E2E0FB6893F85030D1
:109DE800012B01D10223DBE0FB68012283F850201C
:109DF800FCF72AFB3861FB6893F85130DBB2012B82
:109E080002D00223FB75C2E0BB68002B02D0FB889E
:109E1800002B02D10123FB75B9E0FB68042283F80B
:109E28005120FB6800225A65FB68BA689A63FB6890
:109E3800FA889A87FB68FA88DA87FB6800221A632F
:109E4800FB6800229A86FB680022DA86FB680022FB
:109E58001A64FB6800225A64FB689B68B3F5004FDC
:109E680007D1FB681B681A68FB681B6822F48042EC
:109E78001A60FB681B681B6803F04003402B07D07F
:109E8800FB681B681A68FB681B6842F040021A608E
:109E9800FB68DB68002B62D12EE0FB681B689B68BF
:109EA80003F00103012B15D1FB681B6803F10C02B9
:109EB800FB689B6B1278D2B21A70FB689B6B5A1CBA
:109EC800FB689A63FB68DB8F9BB2013B9AB2FB6825
:109ED800DA8711E0FCF7B8FA02463B69D31A3A6808
:109EE8009A4203D83B68B3F1FF3F02D13B68002B8D
:109EF80002D10323FB754AE0FB68DB8F9BB2002B82
:109F0800CBD131E0FB681B689B6803F00103012B90
:109F180013D1FB681B68DA68FB689B6B92B21A80E6
:109F2800FB689B6B9A1CFB689A63FB68DB8F9BB290
:109F3800013B9AB2FB68DA8711E0FCF785FA024622
:109F48003B69D31A3A689A4203D83B68B3F1FF3F9A
:109F580002D13B68002B02D10323FB7517E0FB6895
:109F6800DB8F9BB2002BCDD13A693968F86800F0D5
:109F780027FA0346002B02D0FB6820225A65FB68AB
:109F88005B6D002B02D00123FB7500E000BFFB686E
:109F9800012283F85120FB68002283F85020FB7DC2
:109FA80018461837BD4680BD80B58CB000AFF86044
:109FB800B9607A607B800123FB62002387F82B302D
:109FC800FB6893F85030012B01D102238AE1FB682A
:109FD800012283F85020FCF737FA7862FB6893F87F
:109FE800513087F82330FB685B68FB617B887B8393
:109FF80097F82330012B0FD0FB69B3F5827F07D187
:10A00800FB689B68002B03D197F82330042B03D0FF
:10A01800022387F82B305BE1BB68002B05D07B68F7
:10A02800002B02D07B88002B03D1012387F82B302B
:10A038004EE1FB6893F85130DBB2042B03D0FB6888
:10A04800052283F85120FB6800225A65FB687A686C
:10A058009A63FB687A88DA87FB687A889A87FB684C
:10A06800BA681A63FB687A88DA86FB687A889A86FF
:10A07800FB6800221A64FB6800225A64FB681B68AC
:10A088001B6803F04003402B07D0FB681B681A6865
:10A09800FB681B6842F040021A60FB68DB68B3F596
:10A0A800006F78D1FB685B68002B02D07B8B012B9B
:10A0B80066D1FB681B6B1A88FB681B68DA60FB6853
:10A0C8001B6B9A1CFB681A63FB68DB8E9BB2013B17
:10A0D8009AB2FB68DA8653E0FB681B689B6803F05A
:10A0E8000203022B1BD1FB68DB8E9BB2002B16D020
:10A0F800FB6A012B13D1FB681B6B1A88FB681B6872
:10A10800DA60FB681B6B9A1CFB681A63FB68DB8EC2
:10A118009BB2013B9AB2FB68DA860023FB62FB68BC
:10A128001B689B6803F00103012B19D1FB68DB8FC7
:10A138009BB2002B14D0FB681B68DA68FB689B6B2A
:10A1480092B21A80FB689B6B9A1CFB689A63FB6847
:10A15800DB8F9BB2013B9AB2FB68DA870123FB6273
:10A16800FCF772F902467B6AD31ABA6B9A4207D88F
:10A17800BB6BB3F1FF3F03D0032387F82B30A7E075
:10A18800FB68DB8E9BB2002BA6D1FB68DB8F9BB2F2
:10A19800002BA1D17CE0FB685B68002B02D07B8B95
:10A1A800012B6BD1FB681A6BFB681B680C331278A8
:10A1B8001A70FB681B6B5A1CFB681A63FB68DB8E02
:10A1C8009BB2013B9AB2FB68DA8657E0FB681B68D2
:10A1D8009B6803F00203022B1CD1FB68DB8E9BB249
:10A1E800002B17D0FB6A012B14D1FB681A6BFB6894
:10A1F8001B680C3312781A70FB681B6B5A1CFB68BF
:10A208001A63FB68DB8E9BB2013B9AB2FB68DA8665
:10A218000023FB62FB681B689B6803F00103012BAA
:10A2280019D1FB68DB8F9BB2002B14D0FB681B682D
:10A23800DA68FB689B6BD2B21A70FB689B6B5A1C7E
:10A24800FB689A63FB68DB8F9BB2013B9AB2FB68A1
:10A25800DA870123FB62FCF7F7F802467B6AD31A18
:10A26800BA6B9A4203D8BB6BB3F1FF3F02D1BB6B09
:10A27800002B03D1032387F82B3029E0FB68DB8E02
:10A288009BB2002BA2D1FB68DB8F9BB2002B9DD128
:10A298007A6AB96BF86800F0E5F80346002B06D037
:10A2A800012387F82B30FB6820225A6510E0FB68F1
:10A2B8009B68002B0BD100237B61FB681B68DB6864
:10A2C8007B61FB681B689B687B617B6900E000BF62
:10A2D800FB68012283F85120FB68002283F8502094
:10A2E80097F82B3018463037BD4680BD80B584B00E
:10A2F80000AFF860B9603B601346FB714CE03B6807
:10A30800B3F1FF3F48D0FCF79FF80246BB69D31A68
:10A318003A689A4202D93B68002B3DD1FB681B681A
:10A328005A68FB681B6822F0E0025A60FB685B68A9
:10A33800B3F5827F11D1FB689B68B3F5004F04D059
:10A34800FB689B68B3F5806F07D1FB681B681A68C8
:10A35800FB681B6822F040021A60FB689B6AB3F531
:10A36800005F0FD1FB681B681A68FB681B6822F442
:10A3780000521A60FB681B681A68FB681B6842F485
:10A3880000521A60FB68012283F85120FB68002202
:10A3980083F8502003230FE0FB681B689A68BB68AA
:10A3A8001340BA689A420CBF01230023DBB21A4655
:10A3B800FB799A42A3D1002318461037BD4680BDC9
:10A3C80080B586B002AFF860B9607A60FB685B68F8
:10A3D800B3F5827F11D1FB689B68B3F5004F04D0B9
:10A3E800FB689B68B3F5806F07D1FB681B681A6828
:10A3F800FB681B6822F040021A60FB685B68B3F5D3
:10A40800827F17D1FB689B68B3F5806F12D17B6898
:10A418000093BB6800220121F868FFF767FF034635
:10A42800002B1AD0FB685B6D43F02002FB685A656D
:10A43800032313E07B680093BB6800228021F8683F
:10A44800FFF754FF0346002B07D0FB685B6D43F012
:10A458002002FB685A65032300E0002318461037E2
:10A46800BD4680BD80B586B002AFF860B9607A603D
:10A478007B680093BB6800228021F868FFF736FFED
:10A488000346002B07D0FB685B6D43F02002FB6896
:10A498005A65032300E0002318461037BD4680BDE7
:10A4A80080B582B000AF78607B68002B01D10123B2
:10A4B8001DE07B6893F83D30DBB2002B06D17B684A
:10A4C800002283F83C2078680BF0ACF97B68022204
:10A4D80083F83D207B681A687B6804331946104668
:10A4E80000F058F97B68012283F83D2000231846C4
:10A4F8000837BD4680BD80B485B000AF78607B6802
:10A508001B68DA687B681B6842F00102DA607B68C6
:10A518001B689B6803F00703FB60FB68062B07D0EA
:10A528007B681B681A687B681B6842F001021A6026
:10A53800002318461437BD4680BC704780B582B0EA
:10A5480000AF78607B681B681B6903F00203022B6D
:10A5580022D17B681B68DB6803F00203022B1BD146
:10A568007B681B686FF002021A617B6801221A7708
:10A578007B681B689B6903F00303002B03D0786892
:10A5880000F0EDF805E0786800F0E0F8786800F091
:10A59800EFF87B6800221A777B681B681B6903F059
:10A5A8000403042B22D17B681B68DB6803F00403D7
:10A5B800042B1BD17B681B686FF004021A617B684F
:10A5C80002221A777B681B689B6903F44073002B8F
:10A5D80003D0786800F0C3F805E0786800F0B6F8B2
:10A5E800786800F0C5F87B6800221A777B681B68DA
:10A5F8001B6903F00803082B22D17B681B68DB6802
:10A6080003F00803082B1BD17B681B686FF0080256
:10A618001A617B6804221A777B681B68DB6903F080
:10A628000303002B03D0786800F099F805E07868F8
:10A6380000F08CF8786800F09BF87B6800221A77A5
:10A648007B681B681B6903F01003102B22D17B6801
:10A658001B68DB6803F01003102B1BD17B681B6899
:10A668006FF010021A617B6808221A777B681B68F2
:10A67800DB6903F44073002B03D0786800F06FF8AF
:10A6880005E0786800F062F8786800F071F87B6897
:10A6980000221A777B681B681B6903F00103012BF2
:10A6A8000ED17B681B68DB6803F00103012B07D11F
:10A6B8007B681B686FF001021A61786809F0BCFEBC
:10A6C8007B681B681B6903F08003802B0ED17B68B5
:10A6D8001B68DB6803F08003802B07D17B681B684D
:10A6E8006FF080021A61786800F0D7F87B681B6801
:10A6F8001B6903F04003402B0ED17B681B68DB68A5
:10A7080003F04003402B07D17B681B686FF04002C1
:10A718001A61786800F035F87B681B681B6903F0DC
:10A728002003202B0ED17B681B68DB6803F0200315
:10A73800202B07D17B681B686FF020021A617868AC
:10A7480000F0A2F800BF0837BD4680BD80B483B0D2
:10A7580000AF786000BF0C37BD4680BC704780B43E
:10A7680083B000AF786000BF0C37BD4680BC70472F
:10A7780080B483B000AF786000BF0C37BD4680BCA2
:10A78800704780B483B000AF786000BF0C37BD4617
:10A7980080BC704780B485B000AF786039607B6852
:10A7A8001B68FB607B68334A934213D07B68324A4C
:10A7B80093420FD07B68B3F1804F0BD07B682F4A50
:10A7C800934207D07B682E4A934203D07B682D4A78
:10A7D800934208D1FB6823F07003FB603B685B6819
:10A7E800FA681343FB607B68224A934213D07B6864
:10A7F800214A93420FD07B68B3F1804F0BD07B681E
:10A808001E4A934207D07B681D4A934203D07B6857
:10A818001C4A934208D1FB6823F44073FB603B68F1
:10A82800DB68FA681343FB60FB6823F080023B682F
:10A838005B691343FB607B68FA681A603B689A6837
:10A848007B68DA623B681A687B689A627B68094AA7
:10A85800934203D07B68084A934203D13B681A6944
:10A868007B681A637B6801225A6100BF1437BD46B2
:10A8780080BC7047002C01400034014000040040B7
:10A8880000080040000C004080B483B000AF78603E
:10A8980000BF0C37BD4680BC704780B483B000AFA2
:10A8A800786000BF0C37BD4680BC704780B582B069
:10A8B80000AF78607B68002B01D101233FE07B6803
:10A8C80093F83930DBB2002B06D17B68002283F87D
:10A8D800382078680AF0E8FD7B68242283F839205C
:10A8E8007B681B68DA687B681B6822F40052DA60B0
:10A8F800786800F059FB7B681B681A697B681B68DD
:10A9080022F490421A617B681B685A697B681B684D
:10A9180022F02A025A617B681B68DA687B681B6828
:10A9280042F40052DA607B680022DA637B682022F6
:10A9380083F839207B68202283F83A2000231846C0
:10A948000837BD4680BD80B582B000AF78607B68AF
:10A95800002B01D101231EE07B68242283F83920D3
:10A968007B681B68DA687B681B6822F40052DA602F
:10A9780078680AF0CBFE7B680022DA637B680022E5
:10A9880083F839207B68002283F83A207B6800220C
:10A9980083F83820002318460837BD4680BD80B5A7
:10A9A80088B002AFF860B9603B601346FB800023B3
:10A9B8007B61FB6893F83930DBB2202B40F0838051
:10A9C800BB68002B02D0FB88002B01D101237BE060
:10A9D800FB6893F83830012B01D1022374E0FB683F
:10A9E800012283F83820FB680022DA63FB68212201
:10A9F80083F83920FBF728FD7861FB68FA889A8488
:10AA0800FB68FA88DA8442E0FB68DB8C9BB2013B86
:10AA18009AB2FB68DA84FB689B68B3F5805F22D141
:10AA28003B6800937B6900228021F86800F0D4F924
:10AA38000346002B01D0032346E0BB683B613B691A
:10AA48001B881A46FB681B68C2F308025A60FB6839
:10AA58001B69002B03D1BB680233BB6017E0BB68DE
:10AA68000133BB6013E03B6800937B6900228021BF
:10AA7800F86800F0B1F90346002B01D0032323E066
:10AA8800BB685A1CBA601A78FB681B685A60FB6876
:10AA9800DB8C9BB2002BB7D13B6800937B6900220B
:10AAA8004021F86800F098F90346002B01D00323F1
:10AAB8000AE0FB68202283F83920FB68002283F82B
:10AAC8003820002300E0022318461837BD4680BD11
