:020000040801F1
:10E000000000012095220208952102089B210208A8
:10E01000A1210208A7210208AD210208000000008A
:10E02000000000000000000000000000B321020812
:10E03000BF21020800000000CB210208D7210208FE
:10E04000DD220208DD220208DD220208DD220208AC
:10E05000DD220208DD220208DD220208DD2202089C
:10E06000DD220208DD220208DD220208DD2202088C
:10E07000DD220208DD220208DD220208DD2202087C
:10E08000DD220208DD220208DD220208DD2202086C
:10E09000DD220208DD220208DD220208DD2202085C
:10E0A000DD220208DD220208DD220208DD2202084C
:10E0B000DD220208E5210208DD220208DD22020835
:10E0C000DD220208DD220208DD220208DD2202082C
:10E0D000DD220208F9210208DD220208DD22020801
:10E0E000DD220208DD220208DD220208DD2202080C
:10E0F000DD220208DD220208DD220208DD220208FC
:10E10000DD220208DD220208DD220208DD220208EB
:10E11000DD220208DD220208DD220208DD220208DB
:10E12000DD220208DD220208DD220208DD220208CB
:10E1300000000000000000000000000000000000DF
:10E1400000000000000000000000000000000000CF
:10E1500000000000000000000000000000000000BF
:10E1600000000000000000000000000000000000AF
:10E17000000000000000000000000000000000009F
:10E18000000000000000000000000000000000008F
:10E19000000000000000000000000000000000007F
:10E1A000000000000000000000000000000000006F
:10E1B000000000000000000000000000000000005F
:10E1C000000000000000000000000000000000004F
:10E1D000000000000000000000000000000000003F
:04E1E0005FF8E0F113
:10E1E40010B5054C237833B9044B13B10448AFF38D
:10E1F40000800123237010BD88020020000000006D
:10E204004863020808B5034B1BB103490348AFF345
:10E21400008008BD000000008C0200204863020852
:10E22400034613F8012B002AFBD1181A0138704752
:10E2340080B582B000AF0346FB71FB79002B02D19D
:10E2440000F09EFE01E000F0A7FE00BF0837BD46C7
:10E2540080BD000080B584B000AF0346FB7100238D
:10E26400FB720020FFF7E4FF0023FB8102E0FB893F
:10E274000133FB81FB89092BF9D9FB79012B02D1ED
:10E284000623FB7201E00423FB7207F10B01C82390
:10E294000122094806F048FA0023BB8102E0BB8949
:10E2A4000133BB81BB89092BF9D90120FFF7C0FFDA
:10E2B40000BF1037BD4680BDB816002080B500AF42
:10E2C4000120FFF7B5FF0120FFF7C4FF00BF80BDA9
:10E2D40080B586B002AF0346FB71104AFB79137018
:10E2E4000F4B80221A7080233B7307F10C024FF608
:10E2F400FF730093012342210A4804F0F1FE6420D5
:10E3040004F04EF800F010F800220221102000F072
:10E3140017F800BF1037BD4680BD00BF2F16002080
:10E324002C1600206416002080B400AF034B00229A
:10E334001A7000BFBD4680BC704700BF3116002074
:10E3440080B582B000AF0346FB710B46BB71134628
:10E354007B71BB79012B06D92B4B1B7843F0080347
:10E36400DAB2294B1A70294ABB791370FA79FB790E
:10E3740040334021002000F04FF87B79002B09D076
:10E38400BB79012B06D1204B1B7843F00403DAB28E
:10E394001D4B1A70322004F003F8002000F022F91B
:10E3A400032000F00EF9052003F0FAFF032000F02B
:10E3B40008F9052003F0F4FF032000F002F902201D
:10E3C40003F0EEFF022000F0FCF80F4B1B7843F043
:10E3D4002003DBB2184600F08FF80D4B04221A70AC
:10E3E40000F074F800F036F80A4B02221A70094B58
:10E3F4001B7843F00403DBB2184600F07DF800BF3D
:10E404000837BD4680BD00BF311600202E160020FF
:10E414002D1600203016002080B485B000AFF860BF
:10E42400B9607A603B60FB68DAB2094B1A70BB686A
:10E43400DAB2074B5A707B68DAB2054B9A703B68C4
:10E44400DAB2034BDA7000BF1437BD4680BC7047A4
:10E454002816002080B500AF012000F04DF80220FE
:10E4640003F09EFF00BF80BD80B584B000AF0346BB
:10E474000A46FB711346BB710423FB60BB79FA683F
:10E484009A4203D8FB68DBB2013BBB710D4B1B788E
:10E49400BA799A4203D30B4B1B78013BBB71BB790E
:10E4A400094AD25CFB791344DBB25BB263F07F03AD
:10E4B4005BB2DBB2184600F01FF800BF1037BD4650
:10E4C40080BD00BF2E1600202816002080B500AFA6
:10E4D400084B1B7843F00403DAB2064B1A70054B61
:10E4E4001B7843F00803DBB2184600F005F800BFC0
:10E4F40080BD00BF2D16002080B582B000AF03465A
:10E50400FB71FB790021184600F013F800BF0837AF
:10E51400BD4680BD80B582B000AF0346FB71FB7978
:10E524004021184600F005F8012318460837BD4677
:10E5340080BD80B584B000AF03460A46FB71134624
:10E54400BB71FB791B09FB73FB7903F00F03BB73EE
:10E55400FA7BBB791343DBB2184600F032F8BA7B7E
:10E56400BB791343DBB2184600F02BF800BF103719
:10E57400BD4680BD80B582B000AF0346FB71FB7918
:10E5840023F01003DBB2184600F02CF8012003F04E
:10E5940007FFFB7943F01003DBB2184600F022F8C2
:10E5A400012003F0FDFEFB7923F01003DBB21846D3
:10E5B40000F018F8012003F0F3FE00BF0837BD4651
:10E5C40080BD80B582B000AF0346FB71FB7918466D
:10E5D40000F008F8FB791846FFF7CCFF00BF0837B6
:10E5E400BD4680BD80B586B002AF0346FB710B4BC0
:10E5F4001A78FB791343DBB23B73094B1B7899B24E
:10E6040007F10C024FF6FF7300930123054804F051
:10E6140067FD00BF1037BD4680BD00BF2C1600202B
:10E624002F1600206416002080B500AF4220FFF7AB
:10E634004FFE00BF80BD80B582B000AF0346FB71C2
:10E64400FB791846FFF758FF00BF0837BD4680BD69
:10E6540080B582B000AF0346FB71FB791846FFF723
:10E6640059FF00BF0837BD4680BD80B582B000AFFA
:10E67400786006E07B685A1C7A601B781846FFF7BE
:10E68400E7FF7B681B78002BF4D100BF0837BD4639
:10E6940080BD80B500AF0120FFF7CDFF00BF80BD76
:10E6A40080B582B000AF786039603B68DBB27A68CD
:10E6B400D2B211461846FFF7D7FE00BF0837BD4651
:10E6C40080BD80B584B000AFF860B9607A607968C5
:10E6D400B868FFF7E5FFF868FFF7C7FF00BF10371A
:10E6E400BD4680BD80B582B000AF00F0E3F80023E2
:10E6F400FB7107E000F05EF8642003F051FEFB7943
:10E704000133FB71FB79032BF4D900F011F80346B4
:10E714001A460549054807F005FA044800F09EFD2D
:10E7240000BF0837BD4680BD6063020800000020BA
:10E7340080B483B000AF1E4B9B7823F00F037B7132
:10E744000023FB710023BB711BE0BB79012202FA99
:10E7540003F35AB297F9053013405BB23B713B792E
:10E76400002B0BD0BB79C3F10703012202FA03F398
:10E774005AB297F9073013435BB2FB71BB7901338B
:10E78400BB71BB79072BE0D9FB799BB21B029BB20F
:10E794001BB203F470631AB2054BDB781BB213434C
:10E7A4001BB29BB218460C37BD4680BC704700BFF5
:10E7B4003816002080B582B002AF384B1B78032B8B
:10E7C40064D801A252F823F0DDE7010805E8010846
:10E7D4002DE8010855E801084FF6FF730093022362
:10E7E4002F4A41212F4804F079FD2C4B1B781A46FF
:10E7F4002B4B19782C4B9954284B01221A7049E061
:10E804004FF6FF7300930223254A4921254804F05B
:10E8140065FD224B1B781A46214B1978224B9954DB
:10E824001E4B02221A7035E04FF6FF730093022349
:10E834001B4A4D211B4804F051FD184B1B781A4606
:10E84400174B1978184B9954144B03221A7021E072
:10E854004FF6FF7300930223114A4F21114804F02D
:10E864003DFD0E4B1B781A460D4B19780E4B9954EF
:10E874000A4B00221A700C4B1B681A460B490C48B1
:10E8840007F050F90A4800F0E9FC03E0034B0022CA
:10E894001A7000BF00BFBD4680BD00BFA4020020A7
:10E8A4003416002064160020381600207063020815
:10E8B4000000002080B584B002AFFF233B713A1DF5
:10E8C4004FF6FF73009301234021174804F008FC1E
:10E8D400642003F065FD3A1D4FF6FF730093012396
:10E8E4004821114804F0FCFB642003F059FD3A1D53
:10E8F4004FF6FF73009301234C210B4804F0F0FB07
:10E90400642003F04DFD3A1D4FF6FF73009301237D
:10E914004E21054804F0E4FB642003F041FD00BFF0
:10E924000837BD4680BD00BF6416002080B400AF28
:10E93400024B1B781846BD4680BC7047A6020020D7
:10E9440080B400AF034B01221A7000BFBD4680BCE7
:10E95400704700BFA602002080B400AF034B002222
:10E964001A7000BFBD4680BC704700BFA6020020DD
:10E9740080B500AF2A4B1A782A4B1B789A4249D0AB
:10E98400274B1B780A2B47D801A252F823F000BF6B
:10E99400C1E90108C9E90108D1E90108D9E9010877
:10E9A400E1E90108E9E90108F1E90108F9E90108E7
:10E9B40001EA010809EA010811EA01081A4800F00D
:10E9C4004DFC2AE0194800F049FC26E0184800F004
:10E9D40045FC22E0174800F041FC1EE0164800F018
:10E9E4003DFC1AE0154800F039FC16E0144800F02C
:10E9F40035FC12E0134800F031FC0EE0124800F040
:10EA04002DFC0AE0114800F029FC06E0104800F053
:10EA140025FC02E000BF00E000BF00BF80BD00BFD6
:10EA24001C0000205216002090640208A86402080A
:10EA3400D0640208E464020808650208206502083C
:10EA4400486502085C650208846502089C65020842
:10EA5400C465020880B500AFFFF78AFF094B1A7836
:10EA6400094B1A70074B1B78092B08D8054B1B78E8
:10EA7400064ADB0013445B689847002300E0012347
:10EA8400184680BD1C00002052160020640000209F
:10EA940080B500AF00224FF48071024804F0D0F931
:10EAA40000BF80BD0010014080B500AF01224FF4CB
:10EAB4008071024804F0C4F900BF80BD0010014019
:10EAC40080B500AF00224FF40071024804F0B8F999
:10EAD40000BF80BD0010014080B500AF01224FF49B
:10EAE4000071024804F0ACF900BF80BD0010014081
:10EAF40080B500AF00220021094802F0C1FC0022C9
:10EB0400C821084802F0BCFCFFF726FF0022C821F8
:10EB1400054802F0B5FC054B01221A7000BF80BD08
:10EB240095EA0108ADEA010845E901081C00002046
:10EB340080B500AFFFF7FAFE0346002B02D0024B6C
:10EB440004221A7000BF80BD1C00002080B500AFF5
:10EB5400002200210A4802F093FC0022C82109483F
:10EB640002F08EFCFFF7F8FE00224FF4C87106484D
:10EB740002F086FC054B03221A7000BF80BD00BF63
:10EB8400DDEA0108C5EA010845E901081C00002086
:10EB940080B500AFFFF7CAFE0346002B02D0024B3C
:10EBA40000221A7000BF80BD1C00002080B500AF99
:10EBB400064B05221A70FFF7CFFE002244F62061AF
:10EBC400034802F05DFC00BF80BD00BF1C000020B4
:10EBD40045E9010880B500AFFFF7A8FE0346002B06
:10EBE40002D00A4B02221A7002F0F4FB0346032BF4
:10EBF40007D102F0F9FBFFF7A3FE044B06221A70BB
:10EC040002E002F0F1FB00BF00BF80BD1C00002049
:10EC140080B500AF064B1B781A46064B53F82230DA
:10EC2400184600F07FFA044B07221A7000BF80BD1B
:10EC3400A7020020200000201C00002080B500AFA7
:10EC4400FFF774FE0346002B38D002F0C3FB0346E3
:10EC5400002B02D0012B2BD033E002F0C5FB1A4B62
:10EC64001B780F2B0ED9184B00221A70174B082251
:10EC74001A70FFF771FE002240F6B831144802F012
:10EC8400FFFB08E0104B1B780133DAB20E4B1A700D
:10EC94000E4B06221A700C4B1B78062B10D1FFF773
:10ECA4005BFE00224FF4FA71094802F0E9FB07E029
:10ECB40002F09AFB054B0A221A7002E000BF00E042
:10ECC40000BF00BF80BD00BFA70200201C000020C1
:10ECD40045E9010880B500AFFFF728FE0346002B85
:10ECE40005D0044800F01EFA034B09221A7000BF35
:10ECF40080BD00BFDC6502081C00002080B500AFA9
:10ED040002F068FB0346012B11D0062B00D015E05E
:10ED140000F02AF80346002B0FD002F065FB084BE5
:10ED24000A221A700F21074800F0B6FA05E002F033
:10ED34005BFB034B0A221A7000E000BF00BF80BDDA
:10ED44001C0000205416002080B483B000AF03469A
:10ED5400FB71044AFB79137000BF0C37BD4680BCBD
:10ED6400704700BF1C00002098B500AF0E4B1B7805
:10ED74000F2B04D10C4B00221A70012312E000F077
:10ED8400FFF90346002B0CD0074B1B785A1CD1B259
:10ED9400054A11701C4600F009FA03461A46034B53
:10EDA4001A550023184698BDA502002054160020C9
:10EDB40080B500AF0220FFF7C7FF00BF80BD000091
:10EDC40080B584B000AF1B4B9B691A4A43F0100313
:10EDD4009361184B9B6903F01003FB60FB68154BB0
:10EDE4009B69144A43F020039361124B9B6903F01F
:10EDF4002003BB60BB680F4B9B690E4A43F00403BE
:10EE040093610C4B9B6903F004037B607B68094BA3
:10EE14009B69084A43F008039361064B9B6903F01E
:10EE240008033B603B6800F007F800BF1037BD469D
:10EE340080BD00BF0010024080B584B000AF3B46E7
:10EE440000221A605A609A60DA6001237B60012311
:10EE5400BB600323FB604FF480733B603B46194661
:10EE64000D4803F083FE4FF400733B603B461946A4
:10EE7400094803F07BFE01224FF48071064803F039
:10EE8400DFFF01224FF40071034803F0D9FF00BFF4
:10EE94001037BD4680BD00BF0010014080B500AFF3
:10EEA400134B144A1A60124B134A5A60104B002237
:10EEB4009A600F4B0022DA600D4B4FF480421A61C6
:10EEC4000B4B00225A610A4B00229A61084B002224
:10EED400DA61074B00221A62054803F0C9FF0346B2
:10EEE400002B01D0012300E00023184680BD00BFA1
:10EEF4006416002000540040801A060080B500AF5C
:10EF04001D4B1E4A1A601C4B2822DA611A4B002240
:10EF14009A60194B00225A61174B00221A61164B52
:10EF24000022DA60144B00221A62134B00225A6248
:10EF3400114B00229A62104B0722DA620E4B4FF4F7
:10EF440080229A610C4B4FF482725A600A4805F091
:10EF540067FB0346002B03D002F0B0FF012308E057
:10EF6400054B1B681A68044B1B6842F040021A6088
:10EF74000023184680BD00BFB816002000380040AA
:10EF840080B500AF00224FF48051024803F058FFCF
:10EF940000BF80BD000C014080B500AF01224FF4DA
:10EFA4008051024803F04CFF00BF80BD000C0140BB
:10EFB40080B590B000AF07F118032822002118464D
:10EFC40006F0A7FD3B1D00221A605A609A60DA60C1
:10EFD4001A610A23BB610123BB621023FB62012374
:10EFE4003B6302237B630023BB634FF46013FB6327
:10EFF40007F11803184604F0F7FE0346002B01D06E
:10F00400012317E00F237B600223BB600023FB6016
:10F014004FF480633B6100237B613B1D0221184652
:10F0240005F062F90346002B03D002F047FF0123E9
:10F0340000E0002318464037BD4680BD80B500AFD0
:10F04400184B1B68184AA2FB03235B0B013B174AAE
:10F054001360174B174A1A60154B6322DA60134B7F
:10F064001B68134A5360124B00221A61104B002292
:10F074009A600F4B00225A610D4B00229A610C4892
:10F0840005F034FD0346002B01D0012308E00848B5
:10F0940005F07CFD0346002B01D0012300E0002392
:10F0A400184680BD180200205917B7D1A8020020C5
:10F0B4001C1700200004004080B582B000AF7860C7
:10F0C40002F0B6F900BF0837BD4680BD80B500AF79
:10F0D400124B134A1A60114B4FF4E1325A600F4B32
:10F0E40000229A600D4B0022DA600C4B00221A6158
:10F0F4000A4B0C225A61094B00229A61074B0022E9
:10F10400DA61064805F05AFF0346002B01D00123BB
:10F1140002E000F0D9F80023184680BDAC27002097
:10F124000038014080B584B000AF78607868FFF79C
:10F1340077F80346FB81FB89002B18D0786800F030
:10F144008DF800BF0C4B1B78DBB2002BFAD0FB8987
:10F154001A467968094806F010F80346002B01D0D6
:10F1640002F0ACFE044B00221A7000BF00E000BFA6
:10F174001037BD4680BD00BFB4000020AC2700207E
:10F1840080B400AF074B1B889AB2074B1B889BB215
:10F194009A4201D0012300E000231846BD4680BCFA
:10F1A400704700BFAE020020AC02002080B483B0E0
:10F1B40000AF124B1B889AB2114B1B889BB29A4228
:10F1C40001D1FF2315E00D4B1B889BB21A460D4B52
:10F1D4009B5CFB71094B1B889BB201335A42C3F3FE
:10F1E4000B03C2F30B0258BF53429AB2034B1A806B
:10F1F400FB7918460C37BD4680BC7047AE02002030
:10F20400AC020020AC17002080B500AF114B124AAD
:10F214001A60104B4FF4E1325A600E4B00229A6090
:10F224000C4B0022DA600B4B00221A61094B0C22B2
:10F234005A61084B00229A61064B0022DA610548A4
:10F2440005F0BCFE0346002B01D0012300E000239F
:10F25400184680BD641700200048004080B584B083
:10F2640000AF78607868FEF7DBFF0346FB81FB891B
:10F27400002B0BD0FA89FF237968064805F0EBFED2
:10F284000346002B03D002F019FE00E000BF103744
:10F29400BD4680BD6417002080B582B000AF7860A1
:10F2A4000B467B807A88C8237968064805F0D3FE2C
:10F2B4000346002B01D002F001FE00BF0837BD4613
:10F2C40080BD00BF6417002080B500AF012205494E
:10F2D400054805F096FF0346002B01D002F0EEFD31
:10F2E40000BF80BDA8170020AC27002080B582B0E5
:10F2F40000AF78607B681B68104A93421AD1104BA8
:10F304001B889BB21A460F4B19780F4B99540C4B20
:10F314001B889BB201335A42C3F30B03C2F30B02A3
:10F3240058BF53429AB2064B1A80012205497868A5
:10F3340005F067FF00BF0837BD4680BD00380140B7
:10F34400AC020020A8170020AC17002080B483B0C2
:10F3540000AF7860034B01221A7000BF0C37BD4622
:10F3640080BC7047B400002080B500AF4FF48052D9
:10F374000021054806F0CDFB044B00221A80044B03
:10F3840000221A8000BF80BDAC170020AC02002010
:10F39400AE02002080B500AF2C4B1A782C4B1B78A2
:10F3A4009A424DD02A4B1A78284B1A70284B1B7856
:10F3B4000A2B47D801A252F823F000BFEDF301084D
:10F3C400F5F30108FDF3010805F401080DF4010843
:10F3D40015F401081DF4010825F401082DF40108B1
:10F3E40035F401083DF401081A48FFF737FF2AE015
:10F3F4001948FFF733FF26E01848FFF72FFF22E0F4
:10F404001748FFF72BFF1EE01648FFF727FF1AE007
:10F414001548FFF723FF16E01448FFF71FFF12E01B
:10F424001348FFF71BFF0EE01248FFF717FF0AE02F
:10F434001148FFF713FF06E01048FFF70FFF02E043
:10F4440000BF00E000BF00BF80BD00BFBA020020C3
:10F45400BB020020F865020808660208206602085C
:10F464003066020848660208586602087466020894
:10F47400846602089C660208AC660208C466020838
:10F4840080B500AFFFF786FF0C4B1B78092B08D81B
:10F494000A4B1B780A4ADB0013445B689847002335
:10F4A40009E0064B1B780A2B04D10648FFF7D6FE69
:10F4B400012300E00223184680BD00BFBB020020E8
:10F4C400C0000020D466020898B500AF0D4B00229E
:10F4D4001A60FFF749FF0C4B1B78002B08D00B4A2E
:10F4E4000B4B144607CB20606160A2601B88A3818C
:10F4F4000648FFF717FE00F0B1FF064B01221A7011
:10F5040000BF98BDB4020020B600002004380020DB
:10F51400E8660208BB02002080B500AF01F05AFF84
:10F524000346002B02D0012B06D00BE001F05CFF58
:10F53400054B02221A7005E001F056FF024B0B2224
:10F544001A7000BF00BF80BDBB02002080B500AFB1
:10F554000F4B1B78002B11D00E4B1B78002B08D0BF
:10F564000D4A0E4B1046194646231A4606F0C6FAB3
:10F5740004E00B4A0B49084806F0D4FA0648FFF7A2
:10F58400D1FD00F06BFF084B03221A7000BF80BD51
:10F59400B6000020B700002004380020F8660208F6
:10F5A400F427002040670208BB02002080B500AFAA
:10F5B40001F010FF0346002B02D0012B06D00BE014
:10F5C40001F012FF054B04221A7005E001F00CFF54
:10F5D400024B0B221A7000BF00BF80BDBB0200208B
:10F5E400B0B500AF0F4B1B78002B0AD00E4A0F4B5F
:10F5F40015461C460FCC28606960AA60EB6023881E
:10F604002B820948FFF78EFD00F028FF00F0F0F987
:10F614000022C821064801F033FF064B05221A7068
:10F6240000BFB0BDB6000020043800208C6702087B
:10F63400DDF90108BB02002080B500AF00F0C2F97B
:10F644000346002B33D001F0C5FE0346012B28D01E
:10F65400052B05D0002B00D02CE001F0C5FE29E0DD
:10F6640000F0A8FE0346002B23D000F003FF02465F
:10F67400114B1A60104B1B68104A1360104B002288
:10F684001A600D4B1B681A460E490F4806F04AFAD9
:10F694000D48FFF7E3FD01F0A7FE0C4B06221A709C
:10F6A40007E001F0A1FE094B0B221A7002E000BF33
:10F6B40000E000BF00BF80BDC0020020CC020020DB
:10F6C400B4020020A06702089C380020BB0200207E
:10F6D40080B582B000AF4D4B1B78002B03D04C4B50
:10F6E4001B687B605EE04A4B1B68002B0BD14949C9
:10F6F400494806F017FAFEF7CCFF002200214648DD
:10F70400FEF7DFFF30E0454B1A68414B1B68D21A05
:10F71400434B1B7819460B469B000B44DB029A4271
:10F7240022D93E4B1A683A4B1B68D31A642202FB57
:10F7340003F23A4B1B68B2FBF3F3DAB2394B1A709B
:10F74400384B1B781A463849334806F0EBF9FEF774
:10F75400A0FF002200213048FEF7B3FF304B1B7896
:10F764000133DAB22E4B1A70294B1B68B3F5806F44
:10F7740009D94FF480637B60254B1B68A3F5806334
:10F78400234A13600EE0224B1B68002B0AD0204B47
:10F794001B68B3F5806F05D21D4B1B687B601C4B47
:10F7A40000221A60214B1B78002B04D07A68204970
:10F7B400204806F0B7F9164B1B681A461E4916482E
:10F7C40006F0B0F91448FFF749FD1C4B1B881A4694
:10F7D4001B49114806F0A6F90F48FFF73FFD1548ED
:10F7E400FFF7A0FC00F004F900226421154801F0A1
:10F7F40047FE00F033FE642002F0D2FD124B0722D4
:10F804001A7000BF0837BD4680BD00BFB700002096
:10F81400C0020020A86702089C380020CC02002007
:10F82400D0020020C5530020B8670208B6000020AB
:10F83400C867020804380020DC670208CA020020F6
:10F84400F8670208DDF90108BB02002080B582B028
:10F8540000AF334B1B78002B15D001F0BBFD0346E2
:10F86400002B00D058E000F0CFF80346FB71FB7981
:10F87400002B50D02A4B00221A7001F0B5FD294B01
:10F8840002221A7049E001F0A5FD0346002B00D0C6
:10F8940042E000F099F903461A46234B1A70224BB2
:10F8A4001B78032B35D801A252F823F0C1F80108C4
:10F8B40017F90108E7F80108FFF801081B4B1B685A
:10F8C400002B08D11A48FFF7C9FC02F087F8154B42
:10F8D4000A221A701EE001F087FD124B06221A70EC
:10F8E40018E01448FFF7BAFC1348FFF7B7FC02F01E
:10F8F40069F80C4B0A221A700CE01048FFF7AEFCB2
:10F904000B48FFF7ABFC02F05DF8064B0A221A70B5
:10F9140000E000BF00E000BF00BF0837BD4680BD67
:10F92400B7000020BB020020C4530020C002002006
:10F934001068020830680208446802086468020813
:10F9440098B500AF0B4B1B78002B08D00A4A0B4B21
:10F95400144607CB20606160A2601B88A38106481F
:10F96400FFF7E0FB00F07AFD054B09221A7000BF97
:10F9740098BD00BFB6000020043800208868020843
:10F98400BB02002080B500AF01F024FD0346002B2C
:10F9940002D0012B06D00BE001F026FD054B00221E
:10F9A4001A7005E001F020FD024B0B221A7000BF13
:10F9B40000BF80BDBB02002080B400AF00BFBD46C5
:10F9C40080BC704780B400AF024B1B781846BD461C
:10F9D40080BC7047B500002080B400AF034B012207
:10F9E4001A7000BFBD4680BC704700BFB500002040
:10F9F40080B400AF034B00221A7000BFBD4680BC28
:10FA0400704700BFB500002098B500AFFFF7B8FB02
:10FA14000346002B59D02E4B1B781C46FFF7C6FB20
:10FA240003461A462B4B1A55294B1B78591C2A4B53
:10FA34006422284801F030FB0346002B02D0274BF8
:10FA440001221A70254B1B78002B2ED0244B1B78D7
:10FA5400002B1CD01E4B1B781A461E4B9B5C0D2B97
:10FA640007D11F4B00221A701C4B00221A7001236D
:10FA74002CE0174B1B7819461A4B1B785A1CD0B232
:10FA8400184A10701A46134B595C174B9954104B73
:10FA94001B78591C154B64220E4801F0FDFA0346ED
:10FAA400002B02D00E4B01221A70094B1B78013334
:10FAB4000F4A82FB03125111DA178A1A642101FBDF
:10FAC40002F29A1AD2B2024B1A700023184698BD59
:10FAD400D1020020D4020020AC68020838030020C0
:10FAE40039030020B0020020F4270020BC6802087B
:10FAF4001F85EB5190B585B000AF78600B467B80D5
:10FB04002F4B00221A700023FB811FE0FB897A68C7
:10FB140013441B78184601F007FB0346DBB21B01B4
:10FB2400DAB2274B1B781344DCB2FB8901337A68C1
:10FB340013441B78184601F0F7FA0346DBB223445A
:10FB4400DAB21F4B1A70FB890233FB81FA897B8876
:10FB5400053B9A42DADB1A4B1B78DB43DAB2184BCB
:10FB64001A70174B1B780133DAB2154B1A707B8865
:10FB7400053B7A6813441B78184601F0D5FA03460E
:10FB8400DBB21B01DCB27B88043B7A6813441B782C
:10FB9400184601F0C9FA0346DBB223447B73084BD1
:10FBA4001B787A7B9A420CBF01230023DBB21A46EE
:10FBB400044B1A70034B1B7818461437BD4690BD8E
:10FBC400BC0200203A03002090B585B000AFFFF7D7
:10FBD400D7FA0346002B00F0C4838B4B1B881C46CA
:10FBE400FFF7E4FA03461A46884B1A55864B1B88DE
:10FBF400591C874B4FF49672844801F04DFA034622
:10FC0400002B0BD1804B1B88591C824B4FF49672EE
:10FC14007E4801F041FA0346002B73D07E4B1B88CB
:10FC2400B3F5006F31D37D4B1B680121184601F0F9
:10FC3400F7FE7A4B1B684FF400627949184601F0CD
:10FC440041FF764B1B6803F50063744A13604FF45D
:10FC54000063FB600BE0FB68A3F500637049FA687E
:10FC64000A4411786E4AD154FB680133FB606A4B35
:10FC74001B881A46FB689342EDDB674B1B88A3F590
:10FC840000639AB2644B1A801EE0664B1B68002B1B
:10FC94001AD1624B1A68604B1B881946104601F052
:10FCA400BFFE5E4B18685C4B1B881A465C4901F02A
:10FCB40009FF594B1B881A46584B1B681344574A73
:10FCC4001360554B00221A804F4B1B88591C504B14
:10FCD4004FF496724D4801F0DFF90346002B06D02D
:10FCE400514B1B880D3B9AB24F4B1A8005E04E4B8B
:10FCF4001B880C3B9AB24C4B1A804C4B00221A7056
:10FD040000232FE3404B1B88591C494B4FF4967238
:10FD14003E4801F0C1F90346002B04D0454B0122B3
:10FD24001A7001231EE3434B1B78002B14D0364B6F
:10FD34001B88591C404B4FF49672344801F0ACF9BF
:10FD44000346002B00F0FC82384B01221A70394B19
:10FD540000221A70012305E3344B1B78002B00F0BA
:10FD6400EF82294B1B8819462F4B1B881A46274BB9
:10FD7400595C324B99542C4B1B880133304A82FB1B
:10FD840003125111DA178A1A4FF4967101FB02F229
:10FD94009A1A92B2244B1A80224B1B68002B40F013
:10FDA4007181214B1B881946264B4FF496722348C8
:10FDB40001F072F90346002B0CD11B4B1B8819462A
:10FDC400214B4FF496721D4801F066F90346002B4F
:10FDD40000F0B682144B1B8819461A4B4FF49672E6
:10FDE400164801F059F90346002B05D00E4B1B8829
:10FDF400023B9AB20C4B1A80144B1B78002B3FD059
:10FE040000237B812EE000BF3C0300204003002040
:10FE1400C0680208D0680208CA020020BC000020A2
:10FE240000280020C00200206C0400206E04002082
:10FE3400E06802086F040020BC6802087004002017
:10FE4400B5814E1BF0680208F4680208180100200E
:10FE54007B895A1C7B899549895C944AD1547B8956
:10FE640001337B81924B1B887A899A42F0D3904B61
:10FE74001B88013B9AB28E4B1A808E4B00221A705B
:10FE84008B4B1B8819468948FFF734FE0346002B29
:10FE940000F0F380854BDB79184601F045F9034601
:10FEA400002B40F0B980814B9B78184601F03CF957
:10FEB40003469BB21B039CB27C4BDB78184601F0D3
:10FEC40033F903469BB21B029BB223449CB2774B8B
:10FED4001B79184601F028F903469BB21B019BB21B
:10FEE40023449CB2714B5B79184601F01DF903461B
:10FEF4009BB223449AB2704B1A80704B1B78002B30
:10FF040011D06E4B00221A706D4B1B681B046A4A99
:10FF1400128813436A4A1360694B1B68694A934207
:10FF240001D003231EE2684B1B884FF6EF72934205
:10FF34000DD9614B1A88644B1B88D31A9AB2634B50
:10FF44001B789BB2D31A9AB2614B1A800CE05A4BBD
:10FF54001A885D4B1B88D31A9AB25C4B1B789BB2F0
:10FF6400D31A9AB25A4B1A8000233B810CE0594BA6
:10FF74001B885A1C91B2574A11801A46564BFF21CE
:10FF840099543B8901333B81514B1B883A899A42EE
:10FF9400EDD3464B1B78184601F0C6F80346DBB296
:10FFA4001B01DCB2414B5B78184601F0BDF80346F7
:10FFB400DBB22344DAB2454B1A703F4B1A88424BEA
:10FFC4001A800823FB8020E0FB88384AD35C18465B
:10FFD40001F0AAF80346DBB21B01DCB2FB88013353
:10FFE400324AD35C184601F09FF80346DAB2394B23
:0CFFF4001B88591C88B237490880194648
:020000040802F0
:10000000A318DAB2354B5A54FB880233FB80FA88C6
:10001000284B1B88053B9A42D8DB2CE0244BDB792C
:10002000184601F083F80346042B24D1204B1B7A99
:10003000184601F07BF803469BB21C031C4B5B7A0D
:10004000184601F073F803469BB21B021C44184B80
:100050009B7A184601F06AF803469BB21B011C44C8
:10006000134BDB7A184601F061F803469BB2234438
:100070001A46144B1A600F4B00221A8062E1184B8B
:1000800000221A7002236FE10A4B1B881946154B98
:100090004FF49672064801F001F80346002B00F079
:1000A0005181054B1B78002B36D00023BB8025E007
:1000B000700400206C04002018010020C6020020FB
:1000C000190100209C05002000000408C402002043
:1000D000C8020020B8020020CA0200200028002028
:1000E000B8000020F4680208BB885A1CBB88A049ED
:1000F000895C9F4AD154BB880133BB809D4B1B88D0
:10010000BA889A42F0D39B4B1B88013B9AB2994B19
:100110001A80994B00221A70964B1B8819469448F6
:10012000FFF7EAFC0346002B00F00781904BDB79D8
:10013000184600F0FBFF0346002B40F0C3808C4BB9
:100140009B78184600F0F2FF03469BB21B039CB25B
:10015000874BDB78184600F0E9FF03469BB21B0291
:100160009BB223449CB2824B1B79184600F0DEFF01
:1001700003469BB21B019BB223449CB27C4B5B7930
:10018000184600F0D3FF03469BB223449AB27B4B40
:100190001A807B4B1B78002B1BD0794B00221A70E6
:1001A000784B1B681B04754A12881343754A136009
:1001B000744B1B681A467449744805F0B5FC7348C3
:1001C000FFF74EF86F4B1B68714A934201D003232F
:1001D000CAE0704B1B884FF6EF7293420DD9674B04
:1001E0001A886C4B1B88D31A9AB26B4B1B789BB244
:1001F000D31A9AB2694B1A800CE0604B1A88654B8F
:100200001B88D31A9AB2644B1B789BB2D31A9AB24A
:10021000624B1A8000237B800CE0614B1B885A1CC8
:1002200091B25F4A11801A465E4BFF2199547B8838
:1002300001337B80594B1B887A889A42EDD34C4B13
:100240001B78184600F072FF0346DBB21B01DCB2DC
:10025000474B5B78184600F069FF0346DBB2234446
:10026000DAB24D4B1A70454B1A884A4B1A80082354
:100270003B8020E03B883E4AD35C184600F056FFA6
:100280000346DBB21B01DCB23B880133384AD35C46
:10029000184600F04BFF0346DAB2414B1B88591C4D
:1002A00088B23F4908801946A318DAB23D4B5A5428
:1002B0003B8802333B803A882E4B1B88053B9A4291
:1002C000D8DB36E02A4BDB79184600F02FFF0346D7
:1002D000042B2ED1264B1B7A184600F027FF03462D
:1002E0009BB21C03224B5B7A184600F01FFF0346AB
:1002F0009BB21B021C441E4B9B7A184600F016FF53
:1003000003469BB21B011C44194BDB7A184600F0D4
:100310000DFF03469BB223441A461A4B1A60194B31
:100320001B681A462049194805F0FEFB1748FEF7DE
:1003300097FF104B00221A8004E01C4B00221A7019
:10034000022311E01A4B1B8801331A4A82FB031265
:100350005111DA178A1A4FF4967101FB02F29A1AB8
:1003600092B2134B1A80012318461437BD4690BD34
:10037000700400206C04002018010020C602002038
:10038000190100209C050020F86802089C38002014
:1003900000000408C4020020C8020020B8020020A7
:1003A000CA0200200028002010690208B8000020BE
:1003B0003C030020B5814E1B80B500AFFEF7E2FE86
:1003C0000346002B29D0FEF7F3FE03461A46144BD2
:1003D0001A70134B1B780D2B04D1124B00221A708C
:1003E00001231BE00F4B1B78022B0CD10E4B1A681C
:1003F00013469B0013445B001A46094B1B781344B9
:10040000303B094A1360064B1B782C2B05D1054B5A
:100410001B780133DAB2034B1A700023184680BDF3
:10042000A8170020B1020020B402002080B400AF61
:10043000024B1B781846BD4680BC7047BB020020AB
:1004400080B483B000AF0346FB71044AFB7913709C
:1004500000BF0C37BD4680BC704700BFBB02002008
:1004600080B400AF034B01221A7000BFBD4680BCB0
:10047000704700BFB600002080B400AF024B1B687D
:100480001846BD4680BC7047B402002080B500AF5E
:10049000404B1A78404B1B789A4276D03E4B1A78E4
:1004A0003C4B1A703C4B1B78112B70D801A252F8B0
:1004B00023F000BFFD040208050502080D0502082F
:1004C000150502081D050208250502082D0502086C
:1004D000350502083D050208430502084B050208E0
:1004E000530502085B050208630502086B05020854
:1004F000730502087B050208830502082748FEF7FA
:10050000AFFE45E02648FEF7ABFE41E02548FEF78A
:10051000A7FE3DE02448FEF7A3FE39E02348FEF79E
:100520009FFE35E02248FEF79BFE31E02148FEF7B2
:1005300097FE2DE02048FEF793FE29E01F48FEF7C6
:100540008FFE1F48FEF78CFE22E01E48FEF788FE55
:100550001EE01D48FEF784FE1AE01C48FEF780FEF0
:1005600016E01B48FEF77CFE12E01A48FEF778FE04
:100570000EE01948FEF774FE0AE01848FEF770FE18
:1005800006E01748FEF76CFE02E000BF00E000BF87
:1005900000BF80BDA0050020A10500205869020809
:1005A000686902087869020890690208AC69020863
:1005B000D0690208E4690208006A0208106A0208A9
:1005C000286A0208406A0208606A0208746A02081F
:1005D000906A0208A86A0208C86A0208DC6A02086F
:1005E000F86A020880B500AFFFF750FF0A4B1B788E
:1005F000112B01D101230DE0074B1B78122B01D1E8
:10060000022307E0044B1B78044ADB0013445B68B9
:1006100098470023184680BDA105002060010020F6
:1006200080B400AF034B01221A7000BFBD4680BCEE
:10063000704700BFA1050020B0B500AFFEF796FEE1
:10064000FEF778F803461A460B490C4805F06CFA99
:100650000B4A0C4B14461D460FCD20606160A26012
:10066000E3600748FEF760FD00F036FC064B02220F
:100670001A7000BFB0BD00BF286B02081E01002029
:10068000A43A0020306B0208A105002080B500AF1D
:1006900000F0A2FE0346002B02D0012B06D017E08B
:1006A00000F0A4FE0D4B03221A7014E000F09EFE31
:1006B000FDF7F1FF002200210948FEF704F80022AF
:1006C00001210848FDF7FFFF044B12221A7002E0D7
:1006D00000F08CFE00BF00BF80BD00BFA105002060
:1006E000406B0208546B020880B582B002AF0A4B1F
:1006F0001B881A4600230093084B0949094805F056
:1007000013FA0848FEF710FD00F0E6FB064B042242
:100710001A7000BFBD4680BD1C0100201E010020D4
:100720005C6B0208A43A0020A105002080B500AF50
:1007300000F052FE0346002B02D0012B06D017E03A
:1007400000F054FE0D4B05221A7014E000F04EFE2E
:10075000FDF7A1FF002200210948FDF7B4FF0022A8
:1007600001210848FDF7AFFF044B12221A7002E086
:1007700000F03CFE00BF00BF80BD00BFA10500200F
:10078000406B0208746B0208B0B584B004AF184B1C
:100790001B881D46164B596B154B93F84130184674
:1007A000134B93F840301C46114B9B6B104AD26B95
:1007B00003920293019400900B462A460D490E487D
:1007C00005F0B2F90C48FEF7AFFC00F085FB00F035
:1007D00077FB00224FF49671084800F053FE024662
:1007E000074B1A60074B06221A7000BFBD46B0BD0A
:1007F0001C010020846B0208A43A0020A90E020804
:100800009C3A0020A105002080B500AF00F042FB1B
:100810000346002B2CD000F0DFFD0346002B02D056
:10082000012B0BD021E000F0E1FD134B11221A70D7
:10083000124B1B68184600F07BFF1AE000F0D6FD53
:10084000FDF729FF002200210D48FDF73CFF0022A3
:1008500001210C48FDF737FF074B12221A70074B96
:100860001B68184600F064FF03E000F0BFFD00E0E5
:1008700000BF00BF80BD00BFA10500209C3A002042
:10088000406B0208A86B020898B500AF00F0AEFDFF
:10089000104B1B881C461048FDF7C4FC034622463B
:1008A0000E490F4805F040F900F00AFB00224FF412
:1008B00096710C4800F0E6FD02460B4B1A600848A2
:1008C000FEF732FC00F008FB084B08221A7000BF4C
:1008D00098BD00BF1C0100209C390020B06B0208AD
:1008E000A43A0020A90E02089C3A0020A10500208D
:1008F00080B500AF00F0CEFA0346002B08D02748A1
:10090000FEF7AEFC00F072FD254B12221A7042E099
:1009100000F062FD0346013B032B38D801A252F8D8
:1009200023F000BF4B0902083509020879090208C3
:100930009509020800F05AFD194B09221A70194B4B
:100940001B68184600F0F4FE25E000F04FFDFDF7AF
:10095000A2FE002200211448FDF7B5FE002201216D
:100960001248FDF7B0FE0E4B12221A700D4B1B6899
:10097000184600F0DDFE0EE000F038FD084B1222B4
:100980001A70084B1B68184600F0D2FE03E000F016
:100990002DFD00E000BF00BF80BD00BFC86B020896
:1009A000A10500209C3A0020406B0208D46B02088D
:1009B00080B500AF00F01AFD0C490D4805F0D4F8E1
:1009C00000F07EFA00224FF496710A4800F05AFDBA
:1009D0000246094B1A600648FEF7A6FB00F07CFAB7
:1009E000064B0A221A7000BF80BD00BF9C39002050
:1009F000A43A0020A90E02089C3A0020A10500207C
:100A000080B500AF00F046FA0346002B08D0274817
:100A1000FEF726FC00F0EAFC254B12221A7042E099
:100A200000F0DAFC0346042B39D801A252F823F077
:100A3000450A02085B0A02089F0A0208890A02089E
:100A4000A50A020800F0D2FC194B0B221A70194BB0
:100A50001B68184600F06CFE25E000F0C7FCFDF7AF
:100A60001AFE002200211448FDF72DFE002201216C
:100A70001248FDF728FE0E4B12221A700D4B1B6810
:100A8000184600F055FE0EE000F0B0FC084B1222B4
:100A90001A70084B1B68184600F04AFE03E000F08D
:100AA000A5FC00E000BF00BF80BD00BFC86B02080E
:100AB000A10500209C3A0020406B0208DC6B020874
:100AC00098B500AF104B1B881C461048FDF7AAFBD9
:100AD000034622460E490F4805F026F800F0F0F9CB
:100AE00000224FF496710C4800F0CCFC02460B4BF0
:100AF0001A600848FEF718FB00F0EEF9084B0C22CC
:100B00001A7000BF98BD00BF1C010020CE39002024
:100B1000E86B0208A43A0020A90E02089C3A0020C3
:100B2000A105002080B500AF00F0B4F90346002B0A
:100B300008D02748FEF794FB00F058FC254B122202
:100B40001A7042E000F048FC0346013B032B38D802
:100B500001A252F823F000BF7F0B0208690B0208C4
:100B6000AD0B0208C90B020800F040FC194B0D2226
:100B70001A70194B1B68184600F0DAFD25E000F0EA
:100B800035FCFDF788FD002200211448FDF79BFD90
:100B9000002201211248FDF796FD0E4B12221A7019
:100BA0000D4B1B68184600F0C3FD0EE000F01EFC64
:100BB000084B12221A70084B1B68184600F0B8FD4B
:100BC00003E000F013FC00E000BF00BF80BD00BFE9
:100BD000C86B0208A10500209C3A0020406B020867
:100BE000006C020880B500AF0C490D4804F0BCFF52
:100BF00000F066F900224FF496710A4800F042FCBA
:100C00000246094B1A600648FEF78EFA00F064F9B6
:100C1000064B0E221A7000BF80BD00BFCE390020E7
:100C2000A43A0020A90E02089C3A0020A105002049
:100C300080B500AF00F02EF90346002B08D02748FE
:100C4000FEF70EFB00F0D2FB254B12221A7042E099
:100C500000F0C2FB0346042B39D801A252F823F05E
:100C6000750C02088B0C0208CF0C0208B90C0208A4
:100C7000D50C020800F0BAFB194B0F221A70194B61
:100C80001B68184600F054FD25E0FDF704FD002226
:100C900000211548FDF717FD002201211348FDF73B
:100CA00012FD0F4B12221A700E4B1B68184600F0F3
:100CB0003FFD00F09BFB0EE000F098FB084B12227A
:100CC0001A70084B1B68184600F032FD03E000F074
:100CD0008DFB00E000BF00BF80BD00BFC86B0208F5
:100CE000A10500209C3A0020406B0208086C020815
:100CF00090B585B004AF194B1B881846184B93F874
:100D0000FA301C46164B93F8FB301A46144B93F8F6
:100D1000FC301946124B93F8FD300293019100927A
:100D2000234602460F49104804F0FEFE00F0C8F8C2
:100D300000224FF496710D4800F0A4FB02460C4BC4
:100D40001A600948FEF7F0F900F0C6F8094B1022C6
:100D50001A7000BF0437BD4690BD00BF1C010020C3
:100D60009C390020146C0208A43A0020A90E020845
:100D70009C3A0020A105002080B500AF00F08AF861
:100D80000346002B08D02C48FEF76AFA00F02EFB31
:100D90002A4B12221A704DE000F01EFB0346042B72
:100DA00044D801A252F823F0BD0D0208E90D020853
:100DB0002D0E0208170E0208330E020800F016FB73
:100DC0001E4B11221A7001F0E3FA03461A461C4921
:100DD0001C4804F0A9FE1B48FEF742FA1A4B1B6898
:100DE000184600F0A5FC25E000F000FBFDF753FCE1
:100DF000002200211548FDF766FC0022012114485D
:100E0000FDF761FC0D4B12221A700F4B1B68184640
:100E100000F08EFC0EE000F0E9FA084B12221A7086
:100E2000094B1B68184600F083FC03E000F0DEFA73
:100E300000E000BF00BF80BDC86B0208A105002014
:100E4000346C0208D03800209C3A0020406B020825
:100E50003C6C020880B400AF00BFBD4680BC704748
:100E600080B400AF024B1B781846BD4680BC70476B
:100E7000A105002080B483B000AF0346FB71044A93
:100E8000FB79137000BF0C37BD4680BC704700BFB4
:100E9000A105002080B400AF024B1B781846BD4668
:100EA00080BC70471B01002080B400AF034B0122BF
:100EB0001A7000BFBD4680BC704700BF1B010020F8
:100EC00080B400AF034B00221A7000BFBD4680BC47
:100ED000704700BF1B01002080B400AF034B01220C
:100EE0001A7000BFBD4680BC704700BF1A010020C9
:100EF00080B5C2B000AF3B1D18603B4619603B1D7A
:100F000007F108021968104604F02EFE3B4607F16F
:100F1000080232321968104604F026FE07F1080371
:100F2000012283F8FA2007F10803002283F8FC204D
:100F300007F10803002283F8FD2007F10803782257
:100F400083F8FB20134B1B781946134A0B46DB0131
:100F50005B1A5B001A4407F1080310461946FE238A
:100F60001A4604F0CDFD0B4B1B785A1C0B4B83FB30
:100F70000213D910D317C91A0B469B000B449B00D0
:100F8000D11ACAB2034B1A7000BF07F58477BD4669
:100F900080BD00BFA2050020703C00206766666629
:100FA00080B500AF124B1B7819461248124A0B4607
:100FB000DB015B1A5B0013441946FE231A4604F05A
:100FC0009FFD0B4B1B785A1C0C4B83FB0213D91053
:100FD000D317C91A0B469B000B449B00D11ACAB207
:100FE000034B1A70064B07221A7000BF80BD00BF6A
:100FF000A30500209C390020703C002067666666CF
:10100000A105002080B400AF064B1A78064B1B7870
:101010009A4214BF01230023DBB21846BD4680BCB0
:10102000704700BFA2050020A305002080B586B050
:1010300000AFF8600B467A607B817868FDF7F2F8C4
:101040000346BB75BB7D9BB27A899A4201D20023CD
:1010500020E07868FDF7E6F803467B750023FB7512
:1010600013E07A897B7DD21AFB7D13441A46FB6814
:1010700013441A78FB7D79680B441B789A4201D09F
:10108000002307E0FB7D0133FB75FA7D7B7D9A42EF
:10109000E7D3012318461837BD4680BD80B586B01A
:1010A00000AFF8607B600B467B8113463B8178681C
:1010B000FDF7B8F80346BB820023FB822DE07A8956
:1010C000BB8AD31A002B0EDA3A897B891A44BB8A71
:1010D000D21AFB8A13443A8993FBF2F102FB01F224
:1010E0009B1A1A460BE07A89BB8AD21AFB8A1344F0
:1010F0003A8993FBF2F102FB01F29B1A1A46FB6854
:1011000013441A78FB8A79680B441B789A4201D001
:10111000002307E0FB8A0133FB82FA8ABB8A9A42EA
:10112000CDD3012318461837BD4680BD80B485B0A5
:1011300000AF0346FB71FB792F2B06D9FB79392BC6
:1011400003D8FB79303BFB7308E0FB79402B05D9D2
:10115000FB79462B02D8FB79373BFB73FB7B1846A8
:101160001437BD4680BC704780B500AF844B1B78F8
:101170000A2B40F00181FEF705F80346002B00F032
:10118000FD80FEF715F801467E4B1B781A46C9B262
:101190007D4B99547B4B1B781A467B4B13440121A2
:1011A0001846FEF77BF8774B1B780133DAB2754BA4
:1011B0001A70744B1B7899B2744B1B681A467248AC
:1011C000FFF734FF0346002B0DD07148FEF748F8B7
:1011D0006C4B1A786F4B1A706A4B00221A70684B6E
:1011E00000221A70CAE0674B1B789BB26A4A194604
:1011F0006548FFF71BFF0346002B0DD06748FEF73D
:101200002FF8604B1A78634B1A705E4B00221A70ED
:101210005B4B01221A70B1E05A4B1B789BB2604ABB
:1012200019465948FFF702FF0346002B0DD05D48D1
:10123000FEF716F8534B1A78564B1A70514B002292
:101240001A704F4B03221A7098E04E4B1B789BB2DA
:10125000554A19464C48FFF7E9FE0346002B0DD0CE
:101260005248FDF7FDFF474B1A784A4B1A70454B21
:1012700000221A70424B06221A707FE0414B1B7805
:101280009BB24B4A19464048FFF7D0FE0346002B5D
:101290000DD04848FDF7E4FF3A4B1A783D4B1A70E1
:1012A000384B00221A70364B05221A7066E0354B17
:1012B0001B789BB2404A19463348FFF7B7FE0346F6
:1012C000002B0DD03D48FDF7CBFF2E4B1A78314B4C
:1012D0001A702C4B00221A70294B07221A704DE00D
:1012E000284B1B789BB2364A19462748FFF79EFECB
:1012F0000346002B0DD03348FDF7B2FF214B1A787F
:10130000244B1A701F4B00221A701D4B08221A70B2
:1013100034E01C4B1B789BB22B4A19461A48FFF746
:1013200085FE0346002B0DD02848FDF799FF154B8D
:101330001A78184B1A70134B00221A70104B09229E
:101340001A701BE00F4B1B789BB2214A19460E48BE
:10135000FFF76CFE0346002B10D01E48FDF780FF00
:10136000084B1A780B4B1A70064B00221A70044B6C
:1013700002221A7000BF01E000BF00E000BF80BD84
:10138000F0010020A5150020A4050020F401002094
:10139000586C0208A4150020706E0208606C0208E8
:1013A000686E02086C6C02087C6E0208786C020899
:1013B000886E02088C6C0208986E0208A86C0208FD
:1013C000B06E0208C86C0208A46E0208E46C020841
:1013D000786E0208046D020880B400AF024B1B78DF
:1013E0001846BD4680BC7047F001002080B400AFB5
:1013F000034B0A221A7000BFBD4680BC704700BF75
:10140000F001002080B400AF094B1B680133084A8B
:101410001360074B1B68002B04D1054B1B6801337D
:10142000034A1360024B1B681846BD4680BC7047D8
:10143000A815002080B400AF104B1B6801330F4A81
:1014400013600F4B1B68002B13D00D4B1B7B002B25
:101450000FD10B4B5B68002B04D0094B5B68013B41
:10146000074A5360064B5B68002B02D1044B0122F4
:101470001A7300BFBD4680BC704700BFAC1500208A
:10148000A450002090B589B000AFF860B9607A60D0
:101490000023FB770023BB6100233B610023FB7724
:1014A00033E1FA7FA14913469B0013449B000B4490
:1014B00004331B68BA691344BB61BA69BB689A42BA
:1014C00040F2C180FA7F994913469B0013449B0068
:1014D0000B4404331A68BB69D31ABA6813443B61DE
:1014E000FA7FB969BB68C91A904813469B00134438
:1014F0009B000344043319602723FB754CE0FB7DFC
:10150000591EFA7D89480B469B000B449B000344FF
:101510001968864813469B0013449B0003441960D6
:10152000FB7D591EFA7D81480B469B000B449B00B6
:101530000344083319687D4813469B0013449B00FD
:10154000034408331960FB7D591EFA7D77480B462A
:101550009B000B449B0003440433196873481346F3
:101560009B0013449B00034404331960FB7D591E08
:10157000FA7D6E480B469B000B449B0003441033DE
:1015800019686A4813469B0013449B0003441033B8
:101590001960FB7D013BFB75FA7DFB7F9A42AED85B
:1015A000FA7F624913469B0013449B000B44FA6880
:1015B0001A60FA7F5D4913469B0013449B000B445D
:1015C00004333A691A60FA7F584913469B00134462
:1015D0009B000B4408337A681A60FA7F534913461C
:1015E0009B0013449B000B4404331B68002B0AD15F
:1015F000FA7F4E4913469B0013449B000B440C3367
:1016000001221A7009E0FA7F484913469B001344EF
:101610009B000B440C3300221A70FC7FFFF7F2FE94
:101620000146424A23469B0023449B001344103347
:101630001960FA7F3D4913469B0013449B000B44FD
:1016400010331B686EE0FA7F384913469B00134441
:101650009B000B441B68002B54D1FA7F334913467F
:101660009B0013449B000B44FA681A60FA7FB96828
:10167000BB69C91A2D4813469B0013449B000344C1
:1016800004331960FA7F294913469B0013449B00D9
:101690000B4408337A681A60FA7F244913469B008A
:1016A00013449B000B4404331B68002B0AD1FA7FC0
:1016B0001E4913469B0013449B000B440C3301222C
:1016C0001A7009E0FA7F194913469B0013449B00E6
:1016D0000B440C3300221A70FC7FFFF793FE014687
:1016E000124A23469B0023449B0013441033196085
:1016F000FA7F0E4913469B0013449B000B441033A2
:101700001B680FE0FB7F0133FB77FB7F272B7FF606
:10171000C8AEFA7F054913469B0013449B000B4457
:1017200010331B6818462437BD4690BDA4500020D6
:1017300080B485B000AF786000237B737B68002B9A
:1017400000F0E2800023FB73DAE0FA7B7149134674
:101750009B0013449B000B4410331B687A689A4229
:1017600040F0CB8001237B73FB7B002B2BD0FB7BDA
:10177000262B28D8FB7B5A1C664913469B00134432
:101780009B000B441B68002B1DD0FB7B5A1C61493E
:1017900013469B0013449B000B4404331968FA7BE7
:1017A0005C4813469B0013449B00034404331B68AE
:1017B000FA7B01321944574813469B0013449B009F
:1017C000034404331960FB7BBB7360E0BB7B591C93
:1017D000BA7B50480B469B000B449B00034419689E
:1017E0004C4813469B0013449B0003441960BB7B89
:1017F000591CBA7B47480B469B000B449B00034493
:1018000008331968434813469B0013449B00034464
:1018100008331960BB7B591CBA7B3E480B469B00C2
:101820000B449B000344043319683A4813469B0059
:1018300013449B00034404331960BB7B591CBA7BDF
:1018400034480B469B000B449B0003440C33187830
:10185000304913469B0013449B000B440C33024653
:101860001A70BB7B591CBA7B2A480B469B000B4461
:101870009B00034410331968264813469B00134409
:101880009B00034410331960BB7B0133BB73BB7BEC
:10189000262B9BD9BA7B1F4913469B0013449B0000
:1018A0000B4400221A60BA7B1A4913469B0013446A
:1018B0009B000B44083300221A60BA7B154913467B
:1018C0009B0013449B000B44043300221A60BA7B34
:1018D000104913469B0013449B000B440C33002219
:1018E0001A70BA7B0B4913469B0013449B000B44B0
:1018F000103300221A607B7B07E0FB7B0133FB7314
:10190000FB7B272B7FF621AF7B7B18461437BD4628
:1019100080BC7047A4500020B0B586B000AF114B1A
:101920001B7B002B19D00F4B1B6898470D4B0022D7
:101930001A730C4B3C1D1D460FCD0FC42B68236042
:101940007B691846FFF7F4FEFB68002B05D07B6827
:10195000F968FA681846FFF795FD00BF1837BD46CD
:10196000B0BD00BFA450002080B400AFBFF34F8FC4
:10197000054BDB6803F4E0620349044B1343CB607F
:10198000BFF34F8F00BFFDE700ED00E00400FA0554
:1019900080B500AF0121044800F044F8022102485C
:1019A00000F064F8FFF7E0FF0000060880B500AF24
:1019B0000121044800F036F80121024800F056F8F1
:1019C000FFF7D2FF0000060880B400AF034B0122EE
:1019D0001A7000BFBD4680BC704700BFF0270020D2
:1019E00080B400AF034B00221A7000BFBD4680BC1C
:1019F000704700BFF027002080B400AF024B1B7877
:101A00001846BD4680BC7047F027002080B500AF67
:101A100000F060FF00BF80BD80B500AF00F034FF74
:101A200000BF80BD80B588B000AF786039603B688A
:101A3000DB0A0133FB61FFF7EFFF0023BB60FB69AB
:101A40007B617B683B6107F1180207F108031146CF
:101A5000184600F0E5FFFFF7D9FF0348FDF700FC4B
:101A600000BF2037BD4680BD106D020880B582B032
:101A700000AF78603960FFF7CFFF124B1B69114A46
:101A800043F00103136100BF0E4BDB6803F0010359
:101A9000002BF9D17B683A6892B21A8000BF094BDB
:101AA000DB6803F00103002BF9D1064B1B69054AE3
:101AB00023F001031361FFF7A9FF00BF0837BD46FC
:101AC00080BD00BF0020024080B58AB000AFF86042
:101AD000B9607A6007F110037A682049184604F06B
:101AE00023F807F110031846FDF7BAFBFFF794FF40
:101AF0001B4B1B691A4A43F00103136100237B62ED
:101B000011E000BF164BDB6803F00103002BF9D195
:101B10007B6ABA681344796AFA680A441B8813809E
:101B20007B6A02337B627B6A7A689A42E9D800BF9B
:101B30000B4BDB6803F00103002BF9D1084B1B6949
:101B4000074A23F001031361FFF760FF0548FDF723
:101B500087FB00BF2837BD4680BD00BF206D02084F
:101B600000200240306D020880B500AF174B1A7894
:101B7000174B1B789A4223D0144B1A78144B1A70C7
:101B8000124B1B78032B1DD801A252F823F000BF83
:101B9000A11B0208A91B0208B11B0208B91B0208FD
:101BA0000C48FDF75DFB0EE00B48FDF759FB0AE022
:101BB0000A48FDF755FB06E00948FDF751FB02E036
:101BC00000BF00E000BF00BF80BD00BFB015002017
:101BD000B11500203C6D0208506D0208686D0208C6
:101BE000886D020880B500AFFFF7BEFF074B1B787A
:101BF000032B08D8054B1B78054ADB0013445B68B0
:101C00009847002300E00123184680BDB01500204E
:101C1000F801002080B500AFFCF71EFF0346002B43
:101C200002D0024B01221A7000BF80BDB015002007
:101C300080B500AFFEF7D6FCFFF712F90346112B73
:101C400003D1104B02221A701AE0FFF709F903467C
:101C5000122B15D10220FDF779F80020FFF70AF9C1
:101C6000094B1B780133DAB2074B1A70064B1B780D
:101C7000032B02D9FFF78CFE02E0024B00221A7000
:101C800000BF80BDB01500201A160020B0B500AF0F
:101C9000FDF7F8FBFEF7CAFB03460A2B04D00B2B1B
:101CA00064D0062B41D06BE0FFF7A6FE0346002B65
:101CB0000ED1FCF73FFD03461A463249324803F085
:101CC00033FF324B324A92E8030083E8030024E0FA
:101CD000FCF730FD03461A462A492B4803F024FF3F
:101CE0002C4B1B78022B06D1284A2B4B14460FCBCA
:101CF00007C4237011E0274B1B78032B0DD1234A17
:101D0000264B14461D460FCD0FC40FCD0FC42B68B4
:101D10001A46228002341B0C23701C491A48FFF714
:101D2000E7F81F4B03221A702AE01E4B1A781E4B4D
:101D30001B789A4223D01B4B1A781B4B1A70FCF766
:101D4000F9FC03461A460F490F4803F0EDFE154B08
:101D50001B781A4615490D4803F0E6FE0B490A4860
:101D6000FFF7C6F80E4B03221A7008E0FDF722F8C1
:101D70000020FEF765FB0A4B00221A7000E000BF4E
:101D800000BFB0BDA46D0208B4150020E815002006
:101D9000AC6D0208C4530020B46D0208C46D020883
:101DA000B0150020C5530020C6530020E86D02087E
:101DB00080B500AFFFF726F90346002B01D0FFF7EF
:101DC000EFF8FEF70FFCFFF74BF80346112B02D09C
:101DD000122B1FD02CE0FEF729FB03460A2B10D153
:101DE000FFF70AFE0346002B05D11248FDF738FA2B
:101DF000FFF7CEFD1BE01048FDF732FAFFF7D6FDE6
:101E000015E0FEF713FB0346062B10D10B4B022205
:101E10001A700CE00220FCF799FF0020FEF710FB7F
:101E20000020FFF727F8054B00221A7000E000BFE2
:101E300000BF80BDEC6D02080C6E0208B0150020DA
:101E400080B586B000AF00F04BFAFDF7B3F8FDF7B0
:101E50003FF9FDF7DBF9FDF723F8FCF7E7FBFCF7AB
:101E6000B1FFFDF7EDF8FDF74BF8FCF729FAFDF7A8
:101E700017F8FCF739FC0F48FDF7F2F9FCF70BFCFB
:101E8000002200210C48FCF71EFCFCF753FC024624
:101E90003B1D0A49184603F047FE3B1D0022012165
:101EA0001846FCF710FCFFF79DFEFFF735FDFFF726
:101EB0005BF9F8E72C6E02083C6E0208486E0208D7
:101EC00080B400AF72B6FEE780B485B000AF154BAA
:101ED0009B69144A43F001039361124B9B6903F021
:101EE0000103BB60BB680F4BDB690E4A43F08053B4
:101EF000D3610C4BDB6903F080537B607B680A4B3A
:101F00005B68FB60FB6823F0E063FB60FB6843F009
:101F10008063FB60044AFB68536000BF1437BD4612
:101F200080BC7047001002400000014080B588B0BE
:101F300000AF786007F1100300221A605A609A60BF
:101F4000DA607B681B68154A934223D1144B9B6966
:101F5000134A43F008039361114B9B6903F0080394
:101F6000FB60FB68C0233B6112237B610323FB61A1
:101F700007F1100319460B4800F0FAFD084BDB6926
:101F8000074A43F40013D361054BDB6903F40013E4
:101F9000BB60BB6800BF2037BD4680BD0054004019
:101FA00000100240000C014080B588B000AF78609E
:101FB00007F1100300221A605A609A60DA607B68A9
:101FC0001B68164A934224D1154BDB69144A43F42B
:101FD0008043D361124BDB6903F48043FB60FB68F1
:101FE0000F4B9B690E4A43F0080393610C4B9B69AE
:101FF00003F00803BB60BB684FF420433B6102233E
:102000007B610323FB6107F110031946054800F0CB
:10201000AFFD00BF2037BD4680BD00BF0038004087
:1020200000100240000C014080B584B000AF786021
:102030007B681B680D4A934213D10D4BDB690C4A38
:1020400043F00203D3610A4BDB6903F00203FB6038
:10205000FB68002200211D2000F09DFA1D2000F0E9
:10206000B6FA00BF1037BD4680BD00BF0004004077
:102070000010024080B58AB000AF786007F1180305
:1020800000221A605A609A60DA607B681B683C4ADA
:1020900093423AD13B4B9B693A4A43F48043936164
:1020A000384B9B6903F480437B617B69354B9B69AB
:1020B000344A43F004039361324B9B6903F00403F9
:1020C0003B613B694FF40073BB610223FB61032357
:1020D0007B6207F1180319462B4800F049FD4FF4C5
:1020E0008063BB610023FB6100233B6207F118039F
:1020F0001946254800F03CFD00220021252000F073
:102100004AFA252000F063FA36E07B681B681F4A14
:10211000934231D11B4BDB691A4A43F48023D361CC
:10212000184BDB6903F48023FB60FB68154B9B694C
:10213000144A43F008039361124B9B6903F00803B0
:10214000BB60BB684FF48063BB610223FB61032368
:102150007B6207F1180319460D4800F009FD4FF4A2
:102160000063BB610023FB6100233B6207F118039E
:102170001946074800F0FCFC00BF2837BD4680BD6B
:1021800000380140001002400008014000480040B3
:10219000000C014080B400AFFEE780B400AFFEE762
:1021A00080B400AFFEE780B400AFFEE780B400AFBC
:1021B000FEE780B400AF00BFBD4680BC704780B46E
:1021C00000AF00BFBD4680BC704780B400AF00BF09
:1021D000BD4680BC704780B500AF00F0C7F800BFB7
:1021E00080BD000080B500AF024802F031FD00BFA5
:1021F00080BD00BF1C17002080B500AF024803F06F
:1022000033F800BF80BD00BFAC27002080B586B08A
:1022100000AF7860144A154BD31A7B617B693B6130
:10222000134B1B68002B02D1114B124A1A60104B42
:102230001A687B6813443A699A4207D203F036FC65
:1022400002460C2313604FF0FF3309E0084B1B6874
:10225000FB60074B1A687B681344054A1360FB68F0
:1022600018461837BD4680BD00000120000400005C
:102270001C160020F853002080B400AF034B044A22
:102280009A6000BFBD4680BC704700BF00ED00E013
:1022900000E001080C480D490D4A002302E0D45823
:1022A000C4500433C4188C42F9D30A4A0A4C0023A0
:1022B00001E013600432A242FBD3FFF7DDFF03F01D
:1022C000FBFBFFF7BDFD70470000002088020020E7
:1022D0000C6F020888020020F4530020FEE7000083
:1022E00080B500AF084B1B68074A43F0100313602A
:1022F000032000F045F90F2000F008F8FFF7E4FD97
:102300000023184680BD00BF0020024080B582B087
:1023100000AF7860124B1A68124B1B7819464FF4C5
:102320007A73B3FBF1F3B2FBF3F3184600F05DF9F7
:102330000346002B01D001230EE07B680F2B0AD847
:10234000002279684FF0FF3000F025F9064A7B68DB
:102350001360002300E0012318460837BD4680BD06
:1023600018020020200200201C02002080B400AFD0
:10237000054B1B781A46054B1B681344034A136030
:1023800000BFBD4680BC704720020020C85300201B
:1023900080B400AF024B1B681846BD4680BC704736
:1023A000C853002080B584B000AF7860FFF7F0FF1D
:1023B000B8607B68FB60FB68B3F1FF3F05D0094B59
:1023C0001B781A46FB681344FB6000BFFFF7E0FF71
:1023D0000246BB68D31AFA689A42F7D800BF103792
:1023E000BD4680BD2002002080B485B000AF78607B
:1023F0007B6803F00703FB600C4BDB68BB60BA68CB
:102400004FF6FF031340BB60FB681A02BB6813431F
:1024100043F0BF6343F40033BB60044ABB68D3603E
:1024200000BF1437BD4680BC704700BF00ED00E020
:1024300080B400AF044BDB681B0A03F007031846A7
:10244000BD4680BC704700BF00ED00E080B483B0A3
:1024500000AF0346FB7197F90730002B0BDBFB79CC
:1024600003F01F02064997F907305B09012000FAC3
:1024700002F241F8232000BF0C37BD4680BC7047F4
:1024800000E100E080B483B000AF03463960FB7127
:1024900097F90730002B0ADB3B68DAB20C4997F951
:1024A00007301201D2B20B4483F800230AE03B68E4
:1024B000DAB20849FB7903F00F03043B1201D2B2F0
:1024C0000B441A7600BF0C37BD4680BC704700BF76
:1024D00000E100E000ED00E080B489B000AFF860FA
:1024E000B9607A60FB6803F00703FB61FB69C3F125
:1024F0000703042B28BF0423BB61FB690433062BAD
:1025000002D9FB69033B00E000237B614FF0FF32FF
:10251000BB6902FA03F3DA43BB681A407B699A404D
:102520004FF0FF317B6901FA03F3D9437B680B401D
:10253000134318462437BD4680BC704780B582B02F
:1025400000AF78607B68013BB3F1807F01D301234A
:102550000FE00A4A7B68013B53600F214FF0FF30C8
:10256000FFF790FF054B00229A60044B07221A6088
:10257000002318460837BD4680BD00BF10E000E0CC
:1025800080B582B000AF78607868FFF72DFF00BF9C
:102590000837BD4680BD80B586B000AF0346B96040
:1025A0007A60FB7300237B61FFF742FF78617A68F2
:1025B000B9687869FFF790FF024697F90F30114626
:1025C0001846FFF75FFF00BF1837BD4680BD80B5D6
:1025D00082B000AF0346FB7197F907301846FFF74A
:1025E00035FF00BF0837BD4680BD80B582B000AF63
:1025F00078607868FFF7A2FF034618460837BD46A3
:1026000080BD80B485B000AF78600023FB737B6829
:1026100093F82130022B08D07B6804229A637B68F0
:10262000002283F82020012320E07B681B681A68C1
:102630007B681B6822F00E021A607B681B681A68B0
:102640007B681B6822F001021A607B681A6C7B6849
:10265000DB6B012101FA02F25A607B68012283F8E8
:1026600021207B68002283F82020FB7B184614374A
:10267000BD4680BC7047000080B584B000AF786074
:102680000023FB737B6893F82130022B05D07B6815
:1026900004229A630123FB73D6E07B681B681A68E7
:1026A0007B681B6822F00E021A607B681B681A6840
:1026B0007B681B6822F001021A607B681B681A465F
:1026C000644B9A4258D97B681B68634A93424FD047
:1026D0007B681B68614A934248D07B681B68604AEC
:1026E000934240D07B681B685E4A934238D07B6837
:1026F0001B685D4A934230D07B681B685B4A9342FB
:1027000028D07B681B68534A934220D07B681B68A3
:10271000574A934219D07B681B68564A934212D09D
:102720007B681B68544A93420AD07B681B68534AF3
:10273000934202D14FF480531BE04FF4803318E0F2
:102740004FF4807315E0102313E0012311E04FF0E4
:1027500080730EE04FF480130BE04FF4803308E0F9
:102760004FF4805305E04FF4807302E0102300E043
:102770000123434A536057E07B681B68364A934203
:102780004FD07B681B68354A934248D07B681B68F2
:10279000334A934240D07B681B68324A934238D018
:1027A0007B681B68304A934230D07B681B682F4A95
:1027B000934228D07B681B68264A934220D07B68CE
:1027C0001B682B4A934219D07B681B68294A9342A5
:1027D00012D07B681B68284A93420AD07B681B682A
:1027E000264A934202D14FF480531BE04FF48033CA
:1027F00018E04FF4807315E0102313E0012311E07B
:102800004FF080730EE04FF480130BE04FF48033F1
:1028100008E04FF4805305E04FF4807302E010238A
:1028200000E00123174A53607B68012283F82120CE
:102830007B68002283F820207B685B6B002B03D031
:102840007B685B6B78689847FB7B18461037BD4602
:1028500080BD00BF80000240080002401C00024012
:102860003000024044000240580002406C00024028
:10287000080402401C0402403004024044040240A8
:10288000000402400000024080B483B000AF002387
:10289000FB710D4B1B6903F08003002B0DD00A4B1D
:1028A0000A4A5A60084B0A4A5A60074B1B6903F0F0
:1028B0008003002B01D00123FB71FB7918460C37F4
:1028C000BD4680BC704700BF002002402301674521
:1028D000AB89EFCD80B400AF054B1B69044A43F0D0
:1028E0008003136100231846BD4680BC704700BFBB
:1028F0000020024080B584B000AF7860FFF748FD4B
:10290000F86010E07B68B3F1FF3F0CD07B68002BD0
:1029100007D0FFF73DFD0246FB68D31A7A689A425A
:1029200001D2032325E0154BDB6803F00103002BE4
:10293000E8D1124BDB6803F02003002B02D00F4BD1
:102940002022DA600D4BDB6803F01003002B0BD163
:102950000A4BDB6903F00103002B05D1074BDB6851
:1029600003F00403002B03D000F00AF8012300E079
:10297000002318461037BD4680BD00BF002002402E
:1029800080B483B000AF00237B60234BDB6803F08F
:102990001003002B09D0214BDB6943F002031F4ACF
:1029A000D3617B6843F010037B601B4BDB6803F053
:1029B0000403002B09D0194BDB6943F00103174ACC
:1029C000D3617B6843F004037B60134BDB6903F046
:1029D0000103002B0BD0114BDB6943F004030F4ABA
:1029E000D3610D4BDB690C4A23F00103D3617B6893
:1029F00040F20112934206D1074BDB69064A23F0ED
:102A00000103D36102E0044A7B68D36000BF0C3746
:102A1000BD4680BC704700BF00200240D05300205C
:102A200080B584B000AF786039600123FB73002368
:102A3000BB602F4B1B7E012B01D1022353E02C4B9B
:102A400001221A767B681B68022B16D14CF250309B
:102A5000FFF750FF0346002B41D1012000F04CF856
:102A60004CF25030FFF746FF0346FB73214B1B69C6
:102A7000204A23F00403136131E04CF25030FFF799
:102A800039FF0346002B2AD13B684FF0FF321A6012
:102A90007B689B68BB6019E0B86800F049F84CF2AD
:102AA0005030FFF727FF0346FB73124B1B69114A97
:102AB00023F002031361FB7B002B03D03B68BA6851
:102AC0001A600CE0BB6803F50063BB607B68DB68E1
:102AD000DA027B689B681344BA689A42DCD3044BE1
:102AE00000221A76FB7B18461037BD4680BD00BF1A
:102AF000D05300200020024080B483B000AF786043
:102B0000094B0022DA61094B1B69084A43F00403B0
:102B10001361064B1B69054A43F04003136100BF74
:102B20000C37BD4680BC7047D053002000200240C7
:102B300080B483B000AF78600B4B0022DA610B4B9E
:102B40001B690A4A43F002031361084A7B68536118
:102B5000064B1B69054A43F04003136100BF0C3765
:102B6000BD4680BC704700BFD0530020002002400B
:102B700080B48BB000AF7860396000237B620023A3
:102B80003B6233E101227B6A02FA03F3FB613B689B
:102B90001B68FA691340BB61BA69FB699A4240F04D
:102BA00022813B685B68122B34D0122B0DD8022B8C
:102BB0002BD0022B04D8002B31D0012B1CD048E0A5
:102BC000032B43D0112B1BD043E08F4A934226D0D6
:102BD0008D4A934206D88D4A934220D08C4A934224
:102BE0001DD036E08B4A934219D08B4A934216D0BF
:102BF0008A4A934213D02CE03B68DB683B6228E0B2
:102C00003B68DB6804333B6223E03B68DB680833E6
:102C10003B621EE03B68DB680C333B6219E03B68BB
:102C20009B68002B02D104233B6212E03B689B6847
:102C3000012B05D108233B627B68FA691A6108E021
:102C400008233B627B68FA695A6102E000233B6219
:102C500000BFBB69FF2B01D87B6801E07B680433B0
:102C60007B61BB69FF2B02D87B6A9B0002E07B6A19
:102C7000083B9B003B617B691A680F213B6901FAA5
:102C800003F3DB431A40396A3B6901FA03F31A4341
:102C90007B691A603B685B6803F08053002B00F08F
:102CA000A2805F4B9B695E4A43F0010393615C4BDA
:102CB0009B6903F00103BB60BB685A4A7B6A9B08AF
:102CC000023352F82330FB607B6A03F003039B005E
:102CD0000F2202FA03F3DB43FA681340FB607B68C0
:102CE000514A93421FD07B68504A934219D07B6867
:102CF0004F4A934213D07B684E4A93420DD07B6873
:102D00004D4A934207D07B684C4A934201D1052338
:102D10000AE0062308E0042306E0032304E002237C
:102D200002E0012300E000237A6A02F0030292002D
:102D30009340FA681343FB603A497B6A9B0802336D
:102D4000FA6841F823203B685B6803F48033002B6A
:102D500006D03B4B1A683A49BB6913430B6006E047
:102D6000374B1A68BB69DB43354913400B603B683E
:102D70005B6803F40033002B06D0314B5A683049AE
:102D8000BB6913434B6006E02D4B5A68BB69DB43BC
:102D90002B4913404B603B685B6803F48013002BA6
:102DA00006D0274B9A682649BB6913438B6006E01F
:102DB000234B9A68BB69DB43214913408B603B6816
:102DC0005B6803F40013002B06D01D4BDA681C4926
:102DD000BB691343CB6006E0194BDA68BB69DB4380
:102DE00017491340CB607B6A01337B623B681A68EA
:102DF0007B6A22FA03F3002B7FF4C4AE00BF2C37AA
:102E0000BD4680BC704700BF0000211000001110BB
:102E100000001210000031100000321000002210DB
:102E2000001002400000014000080140000C014079
:102E3000001001400014014000180140001C014036
:102E40000004014080B483B000AF78600B467B8003
:102E500013467B707B78002B03D07A887B681A61DD
:102E600003E07B881A047B681A6100BF0C37BD46FB
:102E700080BC704780B584B000AF78607B68002B61
:102E800001D101231FE17B6893F83D30DBB2002BB9
:102E900006D17B68002283F83C207868FFF746F86B
:102EA0007B68242283F83D207B681B681A687B6856
:102EB0001B6822F001021A607B681B681A687B6835
:102EC0001B6842F400421A607B681B681A687B68C2
:102ED0001B6822F400421A6001F05EFBF8607B6818
:102EE0005B687B4A934207D8FB687A4A934294BF57
:102EF00001230023DBB206E0FB68774A934294BFCC
:102F000001230023DBB2002B01D00123DBE0FB68AF
:102F1000724AA2FB03239B0CBB607B681B685B6847
:102F200023F03F017B681B68BA680A435A607B68DC
:102F30001B681B6A23F03F017B685B68644A93420D
:102F400002D8BB68013309E0BB684FF4967202FBFC
:102F500003F3634AA2FB03239B0901337A681268D7
:102F60000B4313627B681B68DB6923F44F4222F03A
:102F7000FF027B685B6856498B420DD8FB68591E7F
:102F80007B685B685B00B1FBF3F30133C3F30B03B6
:102F9000042B38BF04234FE07B689B68002B11D1C2
:102FA000FB68581E7B6859680B465B000B44B0FBFE
:102FB000F3F30133C3F30B03002B0CBF01230023F6
:102FC000DBB212E0FB68581E7B6859680B469B0019
:102FD0000B4499000B44B0FBF3F30133C3F30B0331
:102FE000002B0CBF01230023DBB2002B01D00123F7
:102FF00022E07B689B68002B0ED1FB68581E7B6823
:1030000059680B465B000B44B0FBF3F30133C3F389
:103010000B0343F400430FE0FB68581E7B685968BC
:103020000B469B000B4499000B44B0FBF3F30133B8
:10303000C3F30B0343F44043796809681343CB613E
:103040007B681B681B6823F0C0017B68DA697B68BA
:103050001B6A1A437B681B680A431A607B681B68FB
:103060009B6823F4034323F0FF037A6811697A68AD
:10307000D26811437A6812680B4393607B681B68BF
:10308000DB6823F0FF017B685A697B689B691A4300
:103090007B681B680A43DA607B681B681A687B6878
:1030A0001B6842F001021A607B6800221A647B6888
:1030B000202283F83D207B6800221A637B6800226F
:1030C00083F83E20002318461037BD4680BD00BF60
:1030D000A08601007F841E00FF083D0083DE1B43A5
:1030E000D34D621080B588B002AFF8607A601A469E
:1030F0000B467B8113463B81FFF74AF97861FB68F9
:1031000093F83D30DBB2202B40F0E0807B690093E8
:10311000192301227049F86800F08CFC0346002B4B
:1031200001D00223D3E0FB6893F83C30012B01D19E
:103130000223CCE0FB68012283F83C20FB681B687B
:103140001B6803F00103012B07D0FB681B681A689A
:10315000FB681B6842F001021A60FB681B681A6872
:10316000FB681B6822F400621A60FB68212283F866
:103170003D20FB68102283F83E20FB6800221A6481
:10318000FB687A685A62FB683A895A85FB685B8DEE
:103190009AB2FB681A85FB68504ADA6279897B69C2
:1031A0003A6AF86800F0F6FA0346002B01D00123D2
:1031B0008DE000233B61FB681B685B693B61FB683A
:1031C0001B689B693B613B6966E07A69396AF8680C
:1031D00000F006FD0346002B0DD0FB681B6C042B92
:1031E00007D1FB681B681A68FB681B6842F4007211
:1031F0001A6001236BE0FB685B6A1A78FB681B6846
:103200001A61FB685B6A5A1CFB685A62FB685B8D3B
:103210009BB2013B9AB2FB685A85FB681B8D013B50
:103220009AB2FB681A85FB681B685B6903F00403AC
:10323000042B1BD1FB681B8D002B17D0FB685B6A2E
:103240001A78FB681B681A61FB685B6A5A1CFB688A
:103250005A62FB685B8D9BB2013B9AB2FB685A8550
:10326000FB681B8D013B9AB2FB681A857A69396A43
:10327000F86800F0F6FC0346002B0DD0FB681B6CD1
:10328000042B07D1FB681B681A68FB681B6842F4B3
:1032900000721A6001231AE0FB681B8D002B94D189
:1032A000FB681B681A68FB681B6842F400721A60AE
:1032B000FB68202283F83D20FB68002283F83E2033
:1032C000FB68002283F83C20002300E0022318461C
:1032D0001837BD4680BD00BF020010000000FFFF90
:1032E00080B58CB002AFF8607A601A460B467B81DD
:1032F00013463B8100233B62FFF74AF87862FB6884
:1033000093F83D30DBB2202B40F038827B6A00938B
:10331000192301227E49F86800F08CFB0346002B3C
:1033200001D002232BE2FB6893F83C30012B01D142
:10333000022324E2FB68012283F83C20FB681B681F
:103340001B6803F00103012B07D0FB681B681A6898
:10335000FB681B6842F001021A60FB681B681A6870
:10336000FB681B6822F400621A60FB68222283F863
:103370003D20FB68102283F83E20FB6800221A647F
:10338000FB687A685A62FB683A895A85FB685B8DEC
:103390009AB2FB681A85FB685E4ADA6279897B6AB1
:1033A0003A6BF86800F078FA0346002B01D001234D
:1033B000E5E1FB681B8D002B13D10023FB61FB684B
:1033C0001B685B69FB61FB681B689B69FB61FB69B0
:1033D000FB681B681A68FB681B6842F400721A607D
:1033E000B9E1FB681B8D012B1DD1FB681B681A68B6
:1033F000FB681B6822F480621A6072B60023BB610E
:10340000FB681B685B69BB61FB681B689B69BB61F0
:10341000BB69FB681B681A68FB681B6842F4007292
:103420001A6062B697E1FB681B8D022B1DD1FB6809
:103430001B681A68FB681B6842F400621A6072B667
:1034400000237B61FB681B685B697B61FB681B6811
:103450009B697B617B69FB681B681A68FB681B685A
:1034600022F480621A6062B675E1FB681B681A6814
:10347000FB681B6842F480621A6000233B61FB68B2
:103480001B685B693B61FB681B689B693B613B692F
:1034900061E1FB681B8D032B00F21A81FB681B8D19
:1034A000012B23D17A6A396BF86800F01BFC0346C4
:1034B000002B01D0012362E1FB681B681A69FB68DD
:1034C0005B6AD2B21A70FB685B6A5A1CFB685A626C
:1034D000FB681B8D013B9AB2FB681A85FB685B8D0C
:1034E0009BB2013B9AB2FB685A8534E1FB681B8DA5
:1034F000022B50D17B6A00933B6B00220649F8688F
:1035000000F098FA0346002B08D0012337E100BFF2
:10351000020010000000FFFF0400010072B6FB680B
:103520001B681A68FB681B6842F400721A60FB682B
:103530001B681A69FB685B6AD2B21A70FB685B6A27
:103540005A1CFB685A62FB681B8D013B9AB2FB68F0
:103550001A85FB685B8D9BB2013B9AB2FB685A856A
:1035600062B6FB681B681A69FB685B6AD2B21A70A4
:10357000FB685B6A5A1CFB685A62FB681B8D013B47
:103580009AB2FB681A85FB685B8D9BB2013B9AB2CD
:10359000FB685A85DFE07B6A00933B6B00227A4927
:1035A000F86800F047FA0346002B01D00123E6E05B
:1035B000FB681B681A68FB681B6822F480621A604B
:1035C00072B6FB681B681A69FB685B6AD2B21A7034
:1035D000FB685B6A5A1CFB685A62FB681B8D013BE7
:1035E0009AB2FB681A85FB685B8D9BB2013B9AB26D
:1035F000FB685A85654B1B68DB08654AA2FB032301
:103600001A0A13469B001344DA00D31A3B623B6A42
:10361000013B3B623B6A002B17D1FB6800221A6317
:10362000FB68202283F83D20FB68002283F83E20BF
:10363000FB681B6C43F02002FB681A6462B6FB68EF
:10364000002283F83C20012399E0FB681B685B693A
:1036500003F00403042BDAD1FB681B681A68FB68CB
:103660001B6842F400721A60FB681B681A69FB68E9
:103670005B6AD2B21A70FB685B6A5A1CFB685A62BA
:10368000FB681B8D013B9AB2FB681A85FB685B8D5A
:103690009BB2013B9AB2FB685A8562B6FB681B6815
:1036A0001A69FB685B6AD2B21A70FB685B6A5A1CC3
:1036B000FB685A62FB681B8D013B9AB2FB681A8556
:1036C000FB685B8D9BB2013B9AB2FB685A8542E076
:1036D0007A6A396BF86800F005FB0346002B01D0CD
:1036E00001234CE0FB681B681A69FB685B6AD2B275
:1036F0001A70FB685B6A5A1CFB685A62FB681B8D78
:10370000013B9AB2FB681A85FB685B8D9BB2013B5B
:103710009AB2FB685A85FB681B685B6903F0040377
:10372000042B18D1FB681B681A69FB685B6AD2B26C
:103730001A70FB685B6A5A1CFB685A62FB681B8D37
:10374000013B9AB2FB681A85FB685B8D9BB2013B1B
:103750009AB2FB685A85FB681B8D002B7FF499AEEB
:10376000FB68202283F83D20FB68002283F83E207E
:10377000FB68002283F83C20002300E00223184667
:103780002837BD4680BD00BF04000100180200209C
:1037900089B5F81480B588B002AFF8607A603B60F4
:1037A0000B467B81FB68DB6A7B617B69082B06D05B
:1037B0007B69012B03D07B6913F5803F08D1FB683F
:1037C0001B681A68FB681B6842F480721A600BE081
:1037D000FB681B6B122B07D1FB681B681A68FB6820
:1037E0001B6842F480721A603B6800937B68002279
:1037F0004FF00111F86800F01DF90346002B0DD0C1
:10380000FB681B681B6803F48073B3F5807F03D1EA
:10381000FB684FF400721A64032335E0FB681B69F0
:10382000B3F5804F08D17B89DBB21A46FB681B6871
:1038300002F0FE021A611BE07B89DB11DBB203F0B0
:103840000603DBB263F00F03DAB2FB681B681A6190
:103850003B687A680E49F86800F043F90346002B8C
:1038600001D0012310E07B89DAB2FB681B681A6182
:103870003B687A680749F86800F033F90346002B83
:1038800001D0012300E0002318461837BD4680BD53
:10389000080001000200010080B588B002AFF860A6
:1038A0007A603B600B467B81FB68DB6A7B61FB686F
:1038B0001B681A68FB681B6842F480621A607B69A7
:1038C000082B06D07B69012B03D07B6913F5803F61
:1038D00008D1FB681B681A68FB681B6842F4807299
:1038E0001A600BE0FB681B6B112B07D1FB681B6890
:1038F0001A68FB681B6842F480721A603B68009388
:103900007B6800224FF00111F86800F093F803463D
:10391000002B0DD0FB681B681B6803F48073B3F5A4
:10392000807F03D1FB684FF400721A64032379E0AF
:10393000FB681B69B3F5804F08D17B89DBB243F08C
:103940000103DAB2FB681B681A615FE07B89DB1157
:10395000DBB203F00603DBB263F00F03DAB2FB68FD
:103960001B681A613B687A683049F86800F0B9F85A
:103970000346002B01D0012354E07B89DAB2FB68B7
:103980001B681A613B687A682949F86800F0A9F851
:103990000346002B01D0012344E000233B61FB6878
:1039A0001B685B693B61FB681B689B693B613B690A
:1039B000FB681B681A68FB681B6842F480721A6017
:1039C0003B6800937B6800224FF00111F86800F01B
:1039D00031F80346002B0DD0FB681B681B6803F40D
:1039E0008073B3F5807F03D1FB684FF400721A64D3
:1039F000032317E07B89DB11DBB203F00603DBB2A4
:103A000063F00E03DAB2FB681B681A613B687A68E0
:103A10000749F86800F065F80346002B01D0012340
:103A200000E0002318461837BD4680BD080001009D
:103A30000200010080B584B000AFF860B9603B605F
:103A40001346FB7125E03B68B3F1FF3F21D0FEF741
:103A50009FFC0246BB69D31A3A689A4202D33B687C
:103A6000002B16D1FB6800221A63FB68202283F822
:103A70003D20FB68002283F83E20FB681B6C43F06E
:103A80002002FB681A64FB68002283F83C200123B3
:103A900023E0BB681B0CDBB2012B0DD1FB681B685C
:103AA0005B69DA43BB6813409BB2002B0CBF012358
:103AB0000023DBB21A460CE0FB681B689B69DA4303
:103AC000BB6813409BB2002B0CBF01230023DBB269
